:02000002D0002C
:1040000000400D00A4660D00000006000C00050134
:084010000401E80500000000B6
:04401800C0610D0076
:10401C0009480A49884208B505D0094A824202D0AB
:10402C00121A02F083F80748074A0021121A02F00C
:10403C0088F8014808BD00BF68DE032004660D0047
:10404C00E0DE0320E0DE0320F0E7032070B501F092
:10405C00B3FA074C074BE41AA40800251E46A542E8
:10406C0004D056F8253098470135F8E770BD00BFED
:10407C0000660D0084650D0000F056B808B500F020
:10408C00FDF8BDE8084001F059BA01F031B801F073
:10409C002FB80078B0FA80F0400970470123037004
:1040AC007047704710B52C21044601F0D5FE204610
:1040BC0010BD083000F062BA07B502AB012203F85C
:1040CC00011D0830194600F059FA03B05DF804FBE5
:1040DC007FB5024608461379956833B13DB90C4952
:1040EC0004B0BDE8704001F063B90A4B00E00A4B24
:1040FC00167B0A4C0A49527B0292012E08BF2146BC
:10410C0001910095074A002101F08FF904B070BDB0
:10411C0009620D007F630D00F8610D0001620D0056
:10412C0005620D001F620D0010B50F4C01F044FB31
:10413C004FF4165101F034FB204600F028F92046CC
:10414C0000F05BF9094B0021188801F0F5FD084BD4
:10415C000021188801F0F0FD064B00211888BDE8FD
:10416C00104001F0E9BD00BFB8E3032068DE032076
:10417C006CDE032070DE032008B5094B188801F0B3
:10418C0005FE084B1860084B188801F0FFFD074B23
:10419C001860074B188801F0F9FD064B186008BD34
:1041AC0068DE0320B0E303206CDE0320B4E30320BD
:1041BC0070DE0320ACE303202DE9F743264C274D9A
:1041CC00274E002323602B60336001F0F5FA25495C
:1041DC0001F001F9A046A946374623681BB12B68AC
:1041EC000BB1336833BBFFF7C7FF23684BB91E4BCA
:1041FC001A681E4B1B689A4203DD00F005FEC8F8D6
:10420C0000002B684BB91A4B1A68184B1B689A4262
:10421C0003DD00F0F9FDC9F800003368002BDCD198
:10422C00144B1A68114B1B689A42D6DD00F0ECFD5A
:10423C003860D2E701F0C0FA094B0F4A1B680193B2
:10424C00064B1B680093044B00211B6801F0EDF832
:10425C0003B0BDE8F08300BF1CDF032020DF032088
:10426C0024DF03206C620D00B0E3032074DE032016
:10427C00B4E30320ACE303207E620D00FFF79CBF88
:10428C0070B500F041FD02230F2201212048214E80
:10429C0000F0A2F8204A21491D4801F0CFFD204B27
:1042AC00642183F860141F49C3F87014012183F84A
:1042BC0074143168002211F00105DA7183F83C2482
:1042CC0083F83D2483F86A24C3F8782483F87C248B
:1042DC0083F87D241C460AD13046FFF7DAFE30B154
:1042EC002946114800F058FF3046FFF7D7FE0F481B
:1042FC000D4BC4F86C3400230372437243600C4BB7
:10430C000360054A0B49BDE8704001F097BD00BF42
:10431C00B8E30320E4DE0320E0DE032045430D0078
:10432C0028DF0320DC610D00E8DE0320F0DE032033
:10433C00E8610D00AF400D0010B50446C06808B12F
:10434C0000F0D6FE23781BB10021E07901F0F4FCDB
:10435C00204610BD38B50446C0680D4608B100F0C3
:10436C00C7FEA379062B0CBF0420032010FB05F01D
:10437C0080B2A08000F0B4FEE06028B1A2880021D9
:10438C0001F0DFFE658038BDA080608038BD10B5BF
:10439C0004460121C07901F0CFFC0021E07901F045
:1043AC00DCFC0123237010BD38B5037805460C46A0
:1043BC001BB10021C07901F0BFFC2B78EC7153B11B
:1043CC00A4B22046012101F0B7FC20460021BDE833
:1043DC00384001F0C2BC38BD70B500250446164605
:1043EC00837105700572C5600561FFF7B3FF204648
:1043FC003146FFF7D9FF204670BD8288C068002186
:10440C0001F09FBE08B500F07FFC00F07DFC014B75
:10441C00186008BDCCE3032000F076BC00F074BC3F
:10442C0010B50446243000F08BF928B104F50C705B
:10443C00BDE8104000F084B910BD00F065BC00F080
:10444C0063BC00F061BC00F05FBC8378016943F091
:10445C000403837000F11002806800F027BA10B5D5
:10446C00044680680A462430A16900F090F920B116
:10447C00A38803F00F0300EB431010BD2DE9F041AE
:10448C000E46017807690446002939D04569B542C2
:10449C003AD00EB9066131E00B0703D5C3699E42D1
:1044AC002ED807E0880605D5A3681B89B6EB431FF9
:1044BC0026D823E0D4F808E09EF806306A1E03F1F3
:1044CC000900731EC240C3409A4200D84DB94A0637
:1044DC004CBFDEF82020226A22611D4604F1100830
:1044EC000AE09B1AF9E742462169A06800F079F9C5
:1044FC00002805F1FF3503DD002DF4D1666103E0E2
:10450C0027610020BDE8F0810120BDE8F0810000AA
:10451C0038B5037804460BB9012038BD83785A07A7
:10452C0023D50121FFF79BFF054628B9637843F09B
:10453C0001036370002038BD0378E52BF6D0237897
:10454C001B0744BFE369C361238C4383638C838261
:10455C00094B1B682BB100F11601183098472B8BB7
:10456C006B82A37823F00403A370A068FFF758FFB5
:10457C000028DBD0D0E700BFD0E303202DE9F047C3
:10458C000378894619070446904608D583789A071C
:10459C0005D51B070BD5E169FFF770FF38B96378B8
:1045AC0043F0010363704FF0FF30BDE8F08763699F
:1045BC00DB439845F3D846464FF0000A6369002E5A
:1045CC0000F08180A068427912EA5325C3F30807F2
:1045DC001CD1DFB9216971B104F1100200F001F9AD
:1045EC000028DCDB40F08E802046FFF72EFF0028F1
:1045FC0040F08880D3E7236A3BB92046FFF725FFBC
:10460C000028CCD02369236200E023612169A068D3
:10461C0000F0E1F8291817B9B6F5007F21D2C7F5DB
:10462C000075B54228BF354637B96369E2699342D4
:10463C0034BF0122052200E00122A068243000F0E2
:10464C00A6F80028ABD038442A4649462F4401F03E
:10465C006DFDB7F5007F30D1A068243000F070F804
:10466C0017E0B6F5806FA06815D30279521B730A58
:10467C00D2B2934228BF1346C26A91424FEA4325F5
:10468C0002D31A44914237D3A7684A46386800F0DF
:10469C00C8FA90B983E7C36A994202BF4FF0FF335F
:1046AC0080F824A0C362A3684A46186800F047FA51
:1046BC0000283FF474AF4FF4007563692B446361B9
:1046CC00A944761B7AE7E269934201D9E36102E0DF
:1046DC000F4B1B681BB1A37843F00403A37094F930
:1046EC000230002B02DB4046BDE8F0872046FFF786
:1046FC000FFF0028F7D152E74FF0FF3280F824A0CB
:10470C00C262C1E72169A06800F065F8014683E741
:10471C00D0E3032000F0F8BA70B505460C46084605
:10472C0049B101F03FFD2B68024621462846DB6863
:10473C00BDE87040184770BD00F0E6BA00F0E4BA6E
:10474C0070B50378DA0704461ED54368816800F11A
:10475C000C063246186800F0F2F9054608B9002537
:10476C0013E023789B0704D4237823F001032370F0
:10477C000BE06368A068196932460144186800F0C0
:10478C00DEF90028F0D1EAE70125284670BD70B5A6
:10479C0083688B4204460E46154614D0FFF7D0FFB3
:1047AC0008B9002070BD6B0703D500232370A660E9
:1047BC0009E0636804F10C023146186800F079F9DD
:1047CC000028F2D1EDE72378204605F003051D43C0
:1047DC0000F80C5B70BD837940690239994008443C
:1047EC007047012970B505460C46164602D84FF0A5
:1047FC00FF3070BDC3699942F9D8C379202B10D111
:10480C008169022201EBD41100F50C70FFF7BFFF98
:10481C000028ECD004F07F0450F8243023F07043CF
:10482C000FE0102BE3D18369C1F307210222194455
:10483C0000F50C70FFF7ABFF0028D8D0E4B230F8CD
:10484C001430EA6993429ABF33600120002070BD96
:10485C00012938B50C46154601D8002038BDC3696E
:10486C009942FAD8C379202B0ED18169032201EB2E
:10487C00D41100F50C70FFF78AFF0028EDD004F07E
:10488C007F0440F824500FE0102BE6D18369C1F36C
:10489C0007210322194400F50C70FFF778FF00285C
:1048AC00DBD0E4B220F81450012038BD2DE9F341DF
:1048BC00C4688C4205460E46904607D20C4600272B
:1048CC00EB6901349C4203D9CFB9EC680127F7E7B7
:1048DC00A64214D001AA21462846FFF782FF0028E1
:1048EC000DDBEDD0019B002BEAD107B1EC606FF032
:1048FC00704221462846FFF7ABFF074608B9002750
:10490C000BE016B9C8F8004007E0224631462846AD
:10491C00FFF79EFF0028F5D1F1E7384602B0BDE85D
:10492C00F08100F0F1B900F0EFB900F0EDB9000042
:10493C0070B50E4C0E46154600F066FA2368C01A88
:10494C000B4B984208D900F067FA0A4B186000F03C
:10495C00B7FB00F059FA206000F05EFA80B2801BC1
:10496C00A842D4BF0020012070BD00BFD4E30320B7
:10497C00A086010030E7032038B5057A04464DB90E
:10498C00406800F075F963682946187D01F0E5F977
:10499C000123237238BD10B5037A04466BB143680A
:1049AC000121187D01F0D9F9FF21606800F082F92E
:1049BC00606800F061F90023237210BDF8B504465D
:1049CC000D46164600F028FA87B2606800F057F9D9
:1049DC00FF28607209D14FF47A7239462046FFF7EE
:1049EC00A7FF0028F1D055230BE0FE2801D050235F
:1049FC0007E032462946606800F046F9607230B133
:104A0C00602320462370FFF7C6FF0020F8BD6068C6
:104A1C0000F035F9606800F032F90120F8BD70B58E
:104A2C0004460E4600F0F8F985B232462946204677
:104A3C00FFF77EFF30B9606800F021F9FF28F4D150
:104A4C00012070BD002070BDF7B5037A01920446B9
:104A5C000D460BB9FFF790FF25B14FF49671204628
:104A6C00FFF7DDFF45F04001606800F023F90DF120
:104A7C0007060DF1030716F80119606800F01AF922
:104A8C00BE42F8D1002D0CBF95218721606800F043
:104A9C0011F9606800F0F3F80B25606800F0EFF88E
:104AAC000306607203D5013D15F0FF05F5D103B087
:104ABC00F0BD38B5837A032B18BF490215460A4658
:104ACC0011210446FFF7C0FF10B1302323700BE017
:104ADC0029464FF400722046FFF770FF054618B1C7
:104AEC002046FFF758FF03E02046FFF754FF002550
:104AFC00284638BD38B504461546406800F0DAF84B
:104B0C004FF400722946606800F0D8F8FF21606805
:104B1C0000F0D0F8FF21606800F0CCF8606800F07D
:104B2C00AEF8607200F01F00052806D0572320460F
:104B3C002370FFF730FF002038BD012038BD70B561
:104B4C00837A032B18BF490215460A4618210446DE
:104B5C00FFF77AFF064608B132231DE02A46FE21F4
:104B6C002046FFF7C7FFC0B14FF4FA612046FFF7AC
:104B7C0056FF054608B95A230EE032460D21204651
:104B8C00FFF762FF38B9606800F079F818B9204671
:104B9C00FFF701FF05E0292323702046FFF7FBFEFA
:104BAC000025284670BD38B50D464FF4FA61044611
:104BBC00FFF735FF10B95B23237005E02A46FC2173
:104BCC002046FFF797FF18B92046FFF7E4FE0020B8
:104BDC0038BD10B5837A032B0A4618BF4A02192137
:104BEC000446FFF731FF30B1332320462370FFF723
:104BFC00D2FE002010BD012010BD38B54FF4FA6173
:104C0C000446FFF70CFF054620B1FD21606800F05B
:104C1C0051F801E0562323702046FFF7BCFE2846CE
:104C2C0038BDF8B5054616461F46FFF7D2FF70B1E2
:104C3C000024BC4206EB4421284604D0FFF7B3FF06
:104C4C0028B10134F5E7BDE8F840FFF7D6BF284698
:104C5C00FFF7A1FE0020F8BD00F056B800F054B8E4
:104C6C0000F052B8014B01221A707047D8E30320B0
:104C7C00011D006800F0B4BA006800F097BAFF217B
:104C8C00006800F01DBB000037B5084B00930025F1
:104C9C00074C0068257013460A46294600F016FB9F
:104CAC002378002BFCD0002003B030BD714C0D00DC
:104CBC00D8E30320006800F003BB000037B5074BB6
:104CCC0000930025064C0068257013462A4600F018
:104CDC00FDFA2378002BFCD003B030BD714C0D00D5
:104CEC00D8E3032000F010B808B5024B1B689B6892
:104CFC00019308BD6802030008B5024B1B68DB6812
:104D0C00019308BD6802030008B5024B1B681B68C1
:104D1C00019308BD2C02030008B5024B1B685B68AD
:104D2C00019308BD2C02030008B5024B1B689B685D
:104D3C00019308BD2C02030008B5024B1B68DB680D
:104D4C00019308BD2C02030008B5024B1B681B69BC
:104D5C00019308BD2C02030008B5024B1B681B6BAA
:104D6C00019308BD2C02030008B5024B1B685B695C
:104D7C00019308BD3002030008B5024B1B68DB69C8
:104D8C00019308BD3002030008B5024B1B681B6A77
:104D9C00019308BD3002030008B5024B1B685B6A27
:104DAC00019308BD3002030008B5024B1B689B6AD7
:104DBC00019308BD3002030008B5024B1B689B6BC6
:104DCC00019308BD3002030008B5024B1B68DB6B76
:104DDC00019308BD3002030008B5024B1B681B6C25
:104DEC00019308BD3002030008B5024B1B685B6CD5
:104DFC00019308BD3002030008B5024B1B685B68C9
:104E0C00019308BD1802030008B5024B1B681B690F
:104E1C00019308BD1802030008B5024B1B685B69BF
:104E2C00019308BD1802030008B5024B1B689B6870
:104E3C00019308BD4802030008B5024B1B681B69AF
:104E4C00019308BD4802030008B5024B1B685B695F
:104E5C00019308BD4802030008B5024B1B685B6C4C
:104E6C00019308BD4802030008B5024B1B689B6CFC
:104E7C00019308BD4802030008B5024B1B685B692F
:104E8C00019308BD6402030008B5024B1B681B6844
:104E9C00019308BD3C02030008B5024B1B68DB689C
:104EAC00019308BD3C02030008B5024B1B681B694B
:104EBC00019308BD3C02030008B5024B1B685B69FB
:104ECC00019308BD3C02030008B5024B1B689B69AB
:104EDC00019308BD3C02030008B5024B1B68DB695B
:104EEC00019308BD3C02030008B5024B1B681B6A0A
:104EFC00019308BD3C02030008B5024B1B689B6A7A
:104F0C00019308BD3C02030008B5024B1B681B6AE9
:104F1C00019308BD2802030008B5024B1B685B6AAD
:104F2C00019308BD2802030008B5024B1B689B6A5D
:104F3C00019308BD2802030008B5024B1B68DB6A0D
:104F4C00019308BD2802030008B5024B1B681B6BBC
:104F5C00019308BD2802030008B5024B1B685B6B6C
:104F6C00019308BD2802030008B5024B1B681B6C9B
:104F7C00019308BD2802030008B5024B1B681B688F
:104F8C00019308BD4C02030008B5024B1B685B681B
:104F9C00019308BD4C02030008B5024B1B681B694A
:104FAC00019308BD4C02030008B5024B1B685B69FA
:104FBC00019308BD4C02030008B5024B1B689B69AA
:104FCC00019308BD4C02030008B5024B1B68DB695A
:104FDC00019308BD4C02030008B5024B1B681B6A09
:104FEC00019308BD4C02030008B5024B1B685B68BB
:104FFC00019308BD2002030008B5034B1B68D3F8CE
:10500C008830019308BD00002002030008B5034B53
:10501C001B68D3F89430019308BD000020020300F4
:10502C0008B5024B1B685B68019308BD4002030086
:10503C0008B5024B1B689B68019308BD4002030036
:10504C0008B5024B1B68DB68019308BD40020300E6
:10505C0008B5024B1B681B69019308BD4002030095
:10506C0008B5024B1B685B69019308BD4002030045
:10507C0008B5024B1B689B69019308BD40020300F5
:10508C0008B5024B1B68DB69019308BD40020300A5
:10509C0008B5024B1B681B6A019308BD4002030054
:1050AC0008B5024B1B681B6B019308BD4002030043
:1050BC0008B5024B1B685B6B019308BD40020300F3
:1050CC0008B5024B1B689B68019308BD44020300A2
:1050DC0008B5024B1B68DB6B019308BD440203004F
:1050EC0008B5024B1B681B68019308BD1C0203002A
:1050FC0008B5024B1B685B68019308BD1C020300DA
:10510C0008B5024B1B685B6A019308BD1C020300C7
:10511C00002211464068FFF7BBBF002211464068D1
:10512C00FFF7C6BF00224068FFF7BABF002281F02C
:10513C0001014068FFF7A4BF00231A4619464068D6
:10514C00FFF796BF00231A4619464068FFF788BF41
:10515C00002211464068FFF77BBF002211464068D1
:10516C00FFF766BF002202214068FFF769BF0023EA
:10517C001A464068FFF754BF024B03225A60024A9A
:10518C001A607047DCE30320A4620D000021FFF7D6
:10519C0023BE0021FFF728BE10B504460170084657
:1051AC00FFF7EAFD00236360204610BD0078FFF78F
:1051BC00F0BF0000400830B5186000241868884221
:1051CC00E5B206D90134082C02D040081860F5E786
:1051DC000725024B5B5D137030BD00BFD0620D0024
:1051EC002DE9F04307468FB000780E46FFF7CEFF4F
:1051FC00002862DB3C781422002109A800F0A1FFF2
:10520C000B232046002209A9ADF82430FFF7C4FD7A
:10521C009DF82D4054B19DF82C5035B9DDF83080F7
:10522C009DF834909DF8354003E00024A146A0463B
:10523C000125337905B1BBB99D420BD1B26842450A
:10524C0008D18DF820908DF82140BDF82010B2893E
:10525C00914209D053B1002438780194009423462C
:10526C0022460121FFF7B0FD002026E08DF80F301B
:10527C00B1680A9804AB0DF10F02FFF79BFF31796F
:10528C0005B1B1B9A94208D0002438780194747BD7
:10529C00337B9DF80F200094E4E7B3684345F3D3C8
:1052AC008DF820908DF82140BDF82020B3899A42CA
:1052BC00EAD1049B4345E7D1D6E70FB0BDE8F083B4
:1052CC0008B50078FFF750FDC0B208BD30B587B007
:1052DC0004460A9D00780095FFF766FD3DB902A9CA
:1052EC002078FFF769FD9DF81430DB07F7D407B081
:1052FC0030BD0078FFF748BD10B50446006818B102
:10530C00FFF7F6FE0023236010BD10B50446FFF72F
:10531C00F3FF204610BD000010B5094C00204FF6DD
:10532C00FF732060A080A07120816381FFF75CFE79
:10533C002046044A0449BDE8104000F07FBD00BF80
:10534C00E4E30320E0DE032017530D0010B5044600
:10535C00006808B1FFF788FD204610BD10B5064C5B
:10536C00002320462360FFF777FD2046034A0449BB
:10537C00BDE8104000F062BDF0E30320E0DE032046
:10538C0059530D00F8B506460D468F180024BD4242
:10539C000CD0336815F8011B9B68304698470028E1
:1053AC0001DB0444F3E7002C08BF04462046F8BD9B
:1053BC0008B5FFF7B1F908BD03689B68184738B505
:1053CC000D210546FFF7F8FF0A2104462846FFF792
:1053DC00F3FF204438BD38B50546FFF79DF9044668
:1053EC002846FFF7ECFF204438BD30B58BB00B4698
:1053FC0000218DF82410012A98BF0A220DF12304F4
:10540C00B3FBF2F505FB123303F0FF03092B94BF3A
:10541C0030333733DBB2214604F801392B46002DEB
:10542C00EED1FFF779F90BB030BD0CB42DE9F04398
:10543C0087B000AF07F13804054654F8049B3C6074
:10544C000E4623464A461421381DFFF759FE1328F1
:10545C0005D8391D2846FFF75FF9044613E000F123
:10546C00080323F00703E846ADEB030D411C23466C
:10547C004A4668463C60FFF743FE69462846FFF7FC
:10548C004BF90446C5461EB12846FFF798FF044465
:10549C0020461C37BD46BDE8F04302B07047000003
:1054AC00014B024A1A607047F4E303204B630D0072
:1054BC00024B1A68024B1A60704700BF78DE03205B
:1054CC00F8E3032010B58368044613B103220146A8
:1054DC009847204610BD10B50446FFF7F3FF204651
:1054EC0010BD00000348044A04490023836000F007
:1054FC00A5BC00BFFCE30320E0DE0320E3540D0059
:10550C0008B50C4B33B100F057F903681B69984789
:10551C00002809DC084B63B100F0D0F903681B6963
:10552C009847002803DC08BDAFF30080F2E7AFF327
:10553C00008008BD000000000000000008B5FFF767
:10554C00DFFFFFF769FC014B186008BD30E7032053
:10555C000248034A0349121A00F0E8BD00F4032084
:10556C0004F4032000660D0007B5002300931A46CF
:10557C006FF07701FFF74AFD03B05DF804FB000004
:10558C0007B543880A2B08D0502B09D1094B1B684F
:10559C003BB103B05DF804EB1847FFF7E5FF06E0FD
:1055AC00002300931A466FF07701FFF72FFD03B02D
:1055BC005DF804FB0CE4032038B5104C104D236847
:1055CC00AB42104B0CBF012200221A7002D0FFF725
:1055DC00BFFF2560FFF710FC044600F0BBFD0A4B33
:1055EC0013B12046AFF3008000210748FFF770FD90
:1055FC0000210648BDE83840FFF7FEBC00F403204C
:10560C001E1C279A10E40320000000008D550D008D
:10561C00704710B51821044600F01EFC204610BD42
:10562C00F0B5037D062B8DB00E4600F104074FF04C
:10563C00000402D000F1080518E00CAD394605F85D
:10564C00304D2F232A460A20FFF716FC284600F07F
:10565C00A9FD33680246DB682946304698470FE0BF
:10566C0024B12E213046FFF7A7FE044415F8011D86
:10567C000A223046FFF7B9FEBD420444F0D1204661
:10568C000DB0F0BD10B5054B0446112240F8043B9B
:10569C00002100F056FD204610BD00BFEC630D004C
:1056AC000346074A10B543F8042B01F1100251F8D8
:1056BC00044B43F8044B9142F9D10A781A7010BD8F
:1056CC00EC630D0010B59DF8084044EA032343EA4F
:1056DC00024242EA016104234160037510BD37B5F3
:1056EC000D788B784A78C97800912946FFF7EAFF44
:1056FC0003B030BD41747047704708B50021007C81
:10570C00FFF75AFC30EA200028BF4FF0FF3008BDED
:10571C0008B50121007CFFF74FFC30EA200028BFC0
:10572C004FF0FF3008BD08B5007CFFF73DFC20EAC8
:10573C00E07008BD08B5007CFFF72EFC20EAE07095
:10574C0008BD007CFFF748BC10B51421044600F0DE
:10575C0083FB204610BD38B50446007C0D46FFF790
:10576C0023FC002801DC607C28B12946207CFFF753
:10577C002BFC20EAE07038BD10B5044600236360B2
:10578C004FF47A73A360054B236001230846217400
:10579C0063741146FFF7F0FB204610BD00640D004A
:1057AC000022007CFFF7F0BB10B514220446002148
:1057BC0000F0C7FC204610BD30B50E4D87B001A8D7
:1057CC00FFF7F2FF296811F0010410D12846FEF70B
:1057DC0060FC60B101AA21460748FFF7CDFF2846BF
:1057EC00FEF75CFC054A0649034800F027FB02481B
:1057FC0007B030BD14E4032018E40320E0DE0320DE
:10580C0005570D0070474174704708B5007CFFF7D1
:10581C0073FB20EAE07008BD08B5007CFFF744FB81
:10582C0020EAE07008BD08B5007CFFF74DFB30EABC
:10583C00200028BF4FF0FF3008BD08B5007CFFF7F3
:10584C003BFB30EA200028BF4FF0FF3008BD007C46
:10585C00FFF742BB10B51421044600F0FDFA2046B8
:10586C0010BD70B5457C04460E4625B9007CFFF78B
:10587C0043FB002805DD3146207CBDE87040FFF776
:10588C000BBB284670BD000010B5044608461146F7
:10589C00002262604FF47A72A260054A22600122F3
:1058AC00207462741A46FFF7EFFA204610BD00BF51
:1058BC0030640D00007CFFF717BB000038B50C4DB1
:1058CC00296811F0010411D12846FEF7E2FB68B1FA
:1058DC00084A094B09482146FFF7D6FF2846FEF730
:1058EC00DDFB074A0749054800F0A8FA034838BD14
:1058FC00C4E40320C8E4032040E403202CE4032088
:10590C00E0DE032011580D007047F8B50646154629
:10591C000C468F18BC4206D0336814F8011B9B68E8
:10592C0030469847F6E72846F8BD0022007CFFF782
:10593C00EBBA0021007CFFF7EFBA0021007CFFF7E7
:10594C00F3BA0021007CFFF7F7BA0021007CFFF7C7
:10595C00FBBA10B51421044600F07EFA204610BDA7
:10596C0010B50446002363604FF47A73A360044BB4
:10597C002174084623601146FFF7F6FA204610BD45
:10598C0060640D000021007CFFF7E6BA002211468E
:10599C004068FFF77DBB002211464068FFF788BBCB
:1059AC0000224068FFF77CBB002281F001014068B7
:1059BC00FFF766BB00231A4601214068FFF758BB6E
:1059CC0000231A4619464068FFF74ABB00221146CD
:1059DC004068FFF73DBB002211464068FFF728BB2B
:1059EC00002202214068FFF72BBB00231A464068B7
:1059FC00FFF716BB38B5054688B104684CB1A368EF
:105A0C001BB103222146204698471021204600F066
:105A1C0023FA28461421BDE8384000F01DBA38BDE1
:105A2C0010B103685B681847704710B503680446EB
:105A3C00BBB15868FFF7F8F978B923685A7C12B9EA
:105A4C005868FFF7F9F923685868FFF7FDF92068E3
:105A5C000023236028B1FFF7CDFF206808B1FFF7C2
:105A6C00C9FF204610BD38B50446D0F8C40108B1B2
:105A7C00FEF70DFBD4F8C00108B1FFF7F5F9D4F827
:105A8C00BC5135B12846FFF7D0FF0421284600F061
:105A9C00E3F9206808B1FFF7C3FF204638BD0000CA
:105AAC0010B5044B044640F8083BFFF7DCFF2046DA
:105ABC0010BD00BF88640D0038B50E4C0E4B236032
:105ACC000025022304F5E4706360A560C4F8C4519A
:105ADC00C4F8C851FFF7C0F9084BC4F8CC5184F88E
:105AEC00D05123602046064A0649BDE8384000F0F4
:105AFC00A5B900BF4CE50320F0640D0088640D00CF
:105B0C00E0DE0320AD5A0D00002211464068FFF77D
:105B1C009FBA002211464068FFF7BABA002211461C
:105B2C004068FFF7C5BA00224068FFF7B9BA0022F7
:105B3C0081F001014068FFF7A3BA00231A46194609
:105B4C004068FFF795BA00231A4619464068FFF7DC
:105B5C0087BA002211464068FFF76ABA0022022178
:105B6C004068FFF76DBA00231A464068FFF758BA31
:105B7C00024B04225A60024A1A60704720E7032045
:105B8C00BC640D0000231A464068FFF749BA002296
:105B9C0002214068FFF754BA002211464068FFF713
:105BAC0047BA002211464068FFF752BA00231A4642
:105BBC0019464068FFF754BA00231A461946406844
:105BCC00FFF756BA002281F001014068FFF758BA7E
:105BDC0000224068FFF764BA002211464068FFF7C4
:105BEC0067BA002211464068FFF752BA2DE9F0431C
:105BFC00002495B016460D460746FFF743FD214697
:105C0C0020220CA8009400F09CFA40230C9321460F
:105C1C006B460CAA3046FFF76FF80446002844D1B7
:105C2C00024601216868FFF713FA022180462246DA
:105C3C006868FFF70DFA009E81462146002E34D08D
:105C4C00002932D17368022B02D00A2B09D02AE02A
:105C5C00B8F1000F27D0716938460431FFF73FFDCA
:105C6C0020E0B9F1000F1ED07469112201A800F0D8
:105C7C0068FA06238DF8143001AD04F108031834CA
:105C8C00186859682A4603C20833A3421546F7D14F
:105C9C0001A906A807ADFFF703FD0FCD3C1D0FC4EE
:105CAC002B6823700121F669C8E70098FFF71CF8F0
:105CBC00384615B0BDE8F083024B034A1A60002247
:105CCC005A60704728E70320F0640D0070B5184E39
:105CDC00316811F0010504460AD13046FEF7D9F9B6
:105CEC0030B129461348FFF757FA3046FEF7D6F97C
:105CFC001048FFF7FEFA28B1A4F10B03022B01D8D0
:105D0C00002070BD00F074F8FFF73CFE08B1012CC8
:105D1C00F6D9FFF7D3FDFFF7CDFD18B1A4F10903B8
:105D2C00012BEDD9232C8CBF0020012070BD00BFAE
:105D3C00E4DE0320E8DE0320232838B504460D46B4
:105D4C000AD8FF2908D0FFF7C1FF28B12946204601
:105D5C00BDE83840FEF7E8BF38BD38B504460D46FF
:105D6C00FEF7EAFFFF2810D0062804D84D2323FAAB
:105D7C0000F0C30709D42046FFF7A8FF28B1294635
:105D8C002046BDE83840FEF7DFBF38BD0D2810B502
:105D9C0004469CBF0E34A4B22046FFF797FF50B1C7
:105DAC0003212046FEF7B8FF032804D12046BDE8A6
:105DBC001040FEF7D1BF002010BD000070B50446A6
:105DCC0014252A46094E002100F0BBF92580202518
:105DDC003146A5602561284600F040F831466060E8
:105DEC00284600F03BF8E060204670BD1C650D00B5
:105DFC0030B50E4D296811F0010487B013D1284637
:105E0C00FEF747F978B101A8FFF7D8FF01AA2146A0
:105E1C000748FFF7A5FD2846FEF740F9054A064955
:105E2C00034800F00BF8024807B030BD34E70320FC
:105E3C0038E70320E0DE032015590D000B46014620
:105E4C00184600F065B90000024B1868BFF35F8F6D
:105E5C00704700BF4CE70320FEF717B900F000B8FD
:105E6C0010B5002814BF044601242046FFF738F96A
:105E7C0020B9FFF7E9FF08B18047F6E710BD000035
:105E8C00184B1A68D1075CBF01221A60164B1A68AE
:105E9C00D2075CBF01221A60144B1A68D0075CBF92
:105EAC0001221A60124B1A68D1075CBF01221A60DA
:105EBC00104B1A68D2075CBF01221A600E4B1A688D
:105ECC00D0075CBF01221A600C4B1A68D1075CBF6B
:105EDC0001221A600A4B1A68D2075CBF01221A60B1
:105EEC00704700BF6CE7032068E7032064E70320DA
:105EFC0060E703205CE7032058E7032054E7032006
:105F0C0050E70320244B1A68D0075CBF01221A60AB
:105F1C00224B1A68D1075CBF01221A60204B1A6809
:105F2C00D2075CBF01221A601E4B1A68D0075CBFF7
:105F3C0001221A601C4B1A68D1075CBF01221A603F
:105F4C001A4B1A68D2075CBF01221A60184B1A68E8
:105F5C00D0075CBF01221A60164B1A68D1075CBFD0
:105F6C0001221A60144B1A68D2075CBF01221A6016
:105F7C00124B1A68D0075CBF01221A60104B1A68CA
:105F8C00D1075CBF01221A600E4B1A68D2075CBFA6
:105F9C0001221A60704700BF9CE7032098E703209A
:105FAC0094E7032090E703208CE7032088E7032085
:105FBC0084E7032080E703207CE7032078E70320B5
:105FCC0074E7032070E70320244B1A68D0075CBFEA
:105FDC0001221A60224B1A68D1075CBF01221A6099
:105FEC00204B1A68D2075CBF01221A601E4B1A683C
:105FFC00D0075CBF01221A601C4B1A68D1075CBF2A
:10600C0001221A601A4B1A68D2075CBF01221A606F
:10601C00184B1A68D0075CBF01221A60164B1A681D
:10602C00D1075CBF01221A60144B1A68D2075CBFFF
:10603C0001221A60124B1A68D0075CBF01221A6049
:10604C00104B1A68D1075CBF01221A600E4B1A68FC
:10605C00D2075CBF01221A60704700BFCCE7032057
:10606C00C8E70320C4E70320C0E70320BCE70320F4
:10607C00B8E70320B4E70320B0E70320ACE7032024
:10608C00A8E70320A4E70320A0E70320184B1A6815
:10609C00D1075CBF01221A60164B1A68D2075CBF8D
:1060AC0001221A60144B1A68D0075CBF01221A60D7
:1060BC00124B1A68D1075CBF01221A60104B1A6888
:1060CC00D2075CBF01221A600E4B1A68D0075CBF66
:1060DC0001221A600C4B1A68D1075CBF01221A60AE
:1060EC000A4B1A68D2075CBF01221A60704700BFC6
:1060FC00ECE70320E8E70320E4E70320E0E70320D4
:10610C00DCE70320D8E70320D4E70320D0E7032003
:10611C0010B5054C13462CB10A4601460220AFF3CC
:10612C00008010BD204610BD0000000010B5431EBD
:10613C000A44914204D011F8014B03F8014FF8E7DF
:10614C0010BD02440346934202D003F8011BFAE748
:10615C007047000038B5124B1C68A36B0546D3B9C9
:10616C001820FEF7BDFF43F20E33A06303804AF6FE
:10617C00CD33438041F2342383804EF26D63C38070
:10618C004DF6EC630381052343810B2383810122AC
:10619C000023C0E90423A36B00221D615A6138BDA2
:1061AC00DCDE0320034613F8012B002AFBD1181A5E
:1061BC00013870471D400D0059400D0085400D0001
:1061CC0089400D00000000000000000000000000ED
:1061DC00DD400D000000000000000000AF400D008D
:1061EC00B1400D00C5400D00BF400D0064656661F7
:1061FC00756C7420004D5342004C5342003C53507C
:10620C004953657474696E67732064656661756C57
:10621C00743E003C53504953657474696E67732027
:10622C002573256C75202573204D4F444525643E00
:10623C00006D696331203D202569207C206D6963E8
:10624C0032203D202569207C206D696333203D2060
:10625C002569207C2054696D65203D2025690A0044
:10626C0077616974696E6720666F7220736F756EE3
:10627C0064005431203D202569207C205432203D7F
:10628C00202569207C205433203D2025690A0000FC
:10629C0000000000000000007B510D0071510D004A
:1062AC0067510D005D510D0051510D0045510D0010
:1062BC0039510D0031510D0027510D001D510D00AC
:1062CC00F95B0D00000810182028303862617564E5
:1062DC000053657269616C0053657269616C3100C1
:1062EC007479706500706172616D00636D64006932
:1062FC006400686E64007374726D0066696C74007F
:10630C006C766C0061646448616E646C65720072DA
:10631C00656D6F766548616E646C657200656E754F
:10632C006D48616E646C657273004A534F4E5374C2
:10633C007265616D4C6F6748616E646C657200616B
:10634C00707000253031307520005D200025640010
:10635C002C200028293A2000205B00636F64652004
:10636C003D200025690064657461696C73203D20D3
:10637C00000D0A0066006C6E00666E00636F64654B
:10638C000064657461696C006E6F6E650074726197
:10639C00636500696E666F007761726E006572727C
:1063AC006F720070616E696300616C6C005A00253D
:1063BC002B3033643A253032750025592D256D2D3F
:1063CC0025645425483A254D3A2553257A006173A6
:1063DC006374696D6500000000000000000000009F
:1063EC002D560D001D560D001F560D00000000000F
:1063FC000000000005570D0055570D0063570D00A8
:10640C0091530D0041570D0007570D001D570D00FE
:10641C004F570D0033570D0001570D0000000000C1
:10642C000000000011580D0061580D006F580D0050
:10643C0091530D0025580D0047580D0033580D0091
:10644C005B580D0013580D0017580D00000000008C
:10645C000000000015590D005F590D0037590D0053
:10646C0017590D003F590D0047590D004F590D009C
:10647C0057590D000000000000000000F7590D00F6
:10648C00ED590D00E3590D00D9590D00CD590D00F2
:10649C00C1590D00B5590D00AD590D00A3590D0092
:1064AC0099590D00F95B0D00000000000000000080
:1064BC00735B0D00695B0D005F5B0D00155B0D00E0
:1064CC00535B0D00475B0D003B5B0D00335B0D0018
:1064DC00295B0D001F5B0D00F95B0D000000000037
:1064EC0000000000915B0D009B5B0D00A55B0D0097
:1064FC00AF5B0D00B95B0D00C55B0D00D15B0D00F2
:10650C00DD5B0D00E55B0D00EF5B0D00F95B0D0035
:10651C00000000000000000000000000000000006F
:10652C00000000000000000000000000000000005F
:10653C00000000000000000000000000000000004F
:10654C00000000000000000000000000000000003F
:10655C00000000000000000000000000000000002F
:10656C00000000000000000000000000000000001F
:10657C0000000000430000008D420D0011440D008E
:10658C0025440D0029440D0047440D004B440D00DB
:10659C004F440D0053440D0021470D0045470D009D
:1065AC0049470D002F490D0033490D0037490D00A7
:1065BC00654C0D00694C0D006D4C0D00F14C0D003F
:1065CC0085510D0025530D0069530D00AD540D0080
:1065DC00BD540D00F1540D00C55A0D007D5B0D002E
:1065EC00C55C0D008D5E0D00115F0D00D55F0D00BB
:0465FC0099600D0095
:046600000000000096
:10660400130000001200000011000000740E0000CE
:10661400DA630D000000000020650D0040650D00E8
:1066240060650D0000000000000000000000000094
:106634000000000080650D00000000000000000064
:106644000000000000000000000000000000000046
:106654000000000000000000000000000000000036
:106664000000000000000000000000000000000026
:08667400000000007CDE0320A1
:10667C00FFFFFFFF00000102030405060708090ADB
:10668C000B0C0D0E0F101112131415161718191AD6
:08669C001B1C1D1E1F2028001D
:0466A40078563412DE
:04000003D000401CCD
:00000001FF
