:02000002D0002C
:1040000000400D00CC690D00000006000C00050109
:084010000401E80500000000B6
:0440180020650D0012
:10401C0009480A49884208B505D0094A824202D0AB
:10402C00121A02F033FA0748074A0021121A02F05A
:10403C0038FA014808BD00BF80DE032034690D004A
:10404C00F0DE0320F0DE0320F0E7032070B501F072
:10405C0051FC074C074BE41AA40800251E46A54248
:10406C0004D056F8253098470135F8E770BD00BFED
:10407C0030690D00B4680D0000F056B808B500F0BA
:10408C00BFF8BDE8084001F0F7BB01F0D9B901F069
:10409C00D7B90078B0FA80F040097047012303705B
:1040AC007047704710B52C21044602F085F8204665
:1040BC0010BD083000F0FABB07B502AB012203F8C3
:1040CC00011D0830194600F0F1FB03B05DF804FB4C
:1040DC007FB5024608461379956833B13DB90C4952
:1040EC0004B0BDE8704001F00BBB0A4B00E00A4B7A
:1040FC00167B0A4C0A49527B0292012E08BF2146BC
:10410C0001910095074A002101F02DFB04B070BD10
:10411C0069650D00AF660D0058650D0061650D00F9
:10412C0065650D007F650D0010B50A4C01F0E2FCD1
:10413C004FF4165101F0D2FC204600F0EEF8204668
:10414C0000F0F3FA044B00211888BDE8104001F090
:10415C0091BF00BFB4E3032084DE032010B5074BEE
:10416C00074C188801F0C3FF206001F0C3FC2368E2
:10417C00044A0021BDE8104001F0F5BA80DE0320AE
:10418C00C8E303209D650D0013B5074C00232046A2
:10419C000093FF22194600F099FA204602B0BDE8C0
:1041AC00104000F0F1B800BFB4E3032013B5074C86
:1041BC00002220460092FF23114600F087FA204689
:1041CC0002B0BDE8104000F0DFB800BFB4E303203C
:1041DC0008B5094B188801F077FF084B01281860C7
:1041EC0005D1FFF7E3FFBDE80840FFF7B7BFBDE817
:1041FC000840FFF7C9BF00BF84DE03202CDF03207B
:10420C00FFF7E6BF70B500F017FF02230F22012164
:10421C002048214E00F0A6F8204A21491D4801F003
:10422C00BDFF204B642183F860141F49C3F8701440
:10423C00012183F874143168002211F00105DA7140
:10424C0083F83C2483F83D2483F86A24C3F878244B
:10425C0083F87C2483F87D241C460AD13046FFF772
:10426C0018FF30B12946114801F03EF93046FFF7EE
:10427C0015FF0F480D4BC4F86C34002303724372C6
:10428C0043600C4B0360054A0B49BDE8704001F0DC
:10429C0085BF00BFB4E30320F4DE0320F0DE03206F
:1042AC00D1420D0030DF03203C650D00F8DE032009
:1042BC0000DF032048650D00AF400D0000F04CBF3F
:1042CC0000F042BF10B50446C06808B101F0B8F860
:1042DC0023781BB10021E07901F0CCFE204610BD03
:1042EC0038B50446C0680D4608B101F0A9F8A379A9
:1042FC00062B0CBF0420032010FB05F080B2A0801D
:10430C0001F096F8E06028B1A288002102F0C9F80B
:10431C00658038BDA080608038BD10B50446012191
:10432C00C07901F0A7FE0021E07901F0B4FE012371
:10433C00237010BD38B5037805460C461BB100211F
:10434C00C07901F097FE2B78EC7153B1A4B22046E2
:10435C00012101F08FFE20460021BDE8384001F01C
:10436C009ABE38BD70B5002504461646837105709B
:10437C000572C5600561FFF7B3FF20463146FFF7B4
:10438C00D9FF204670BD0000C368002B00F08B8164
:10439C002DE9F04F8379023BDBB2042B9CBFC44A5E
:1043AC0052F8234087B0054688BF3224FFF786FFBA
:1043BC002B69C01AA042F9D3BE4AAB8807CA06AC17
:1043CC0004E90700039C1B01D4F800250433019376
:1043DC0022B9D4F86035002BC0F25581049CD4F876
:1043EC00003523B9D4F86035002BC0F23C81059C14
:1043FC00D4F800351BB9D4F86035002B6EDBAE4B0E
:10440C00EA791E68AD4CAE49E0681201B31840F071
:10441C0080705B78B75CE0600A6803F01F0343EAC6
:10442C00471301273A430A600C46A888D5F80C902C
:10443C00D4F804A09F408846002844D0CC460022E3
:10444C004FF0A0411CF801EB0820802663689B1AF2
:10445C00462BFBD9D8F80420D1F808351EEA060FF4
:10446C0043EA0703C1F808352FD063689B1A282B41
:10447C00FBD9D1F80C35013843EA07034FEA56064D
:10448C00C1F80C35E2D1C9EB0C03A8889BB2984259
:10449C00D8D84FF4307303FB00F063689B1A462B9B
:1044AC00FBD9D8F80430CAEB030A8245C0F0D5809A
:1044BC004FF49670FFF704FFA888D5F80C90D4F849
:1044CC0004A00028BAD10246E7E763689B1A112BB7
:1044DC00CFD863689B1A112BF7D9CAE7D4F8643587
:1044EC00002B8CDAD4F86835002B88DAD4F86C35CC
:1044FC00002B84DA019800F09BFF00283FF47FAF7B
:10450C00AB88002B00F0D08000273B466D4E6E49E7
:10451C0000E01346EA68D25D03F1010E12F0800F41
:10452C0014BFB04688461FFA8EFE12F0400F14BF1F
:10453C00B146894612F0200F20F8138018BFB246FE
:10454C0020F81E9008BF8A4603F1020812F0100FE3
:10455C0003F1030E14BFB4468C461FFA88F812F010
:10456C00080F1FFA8EFE03F104091FFA89F914BF14
:10457C00B3468B4612F0040F20F818A020F81EC08A
:10458C0014BFB2468A4603F1050812F0020F03F17C
:10459C00060C03F1070E20F819B01FFA8EFE14BF9B
:1045AC00B14689461FFA88F812F0010F1FFA8CFCED
:1045BC0014BF32460A4620F818A020F81C9020F8A8
:1045CC001E200137B5F804E0BFB203F10802BE4566
:1045DC0092B29ED803F109020A3392B29BB25200F6
:1045EC005B0001994FF4004686524908C6520022DE
:1045FC001423C4F80425304EC4F80C25C4F808352F
:10460C00C4F81425C4F81025C4F82005C4F82415E2
:10461C00C4F82825C4F82C25EB7931681B01CE1879
:10462C00C95C737803F01F0343EA41130121C4F8FA
:10463C006035C4F80015C4F81021A160D4F810310D
:10464C00002BFBD000234FF0FF32C4F81031C4F81C
:10465C000035C4F8602500F0F3FEFFF72FFE28614B
:10466C0007B0BDE8F08FD4F86435002BBFF6BFAEB1
:10467C00D4F86835002BBFF6BAAED4F86C35002BE5
:10468C00BFF6B5AE36E7D4F86435002BBFF6A6AE50
:10469C00D4F86835002BBFF6A1AED4F86C35002BDE
:1046AC00BFF69CAE26E770470423022299E700BFB1
:1046BC00B8650D00AC650D00CCE30320F0ED00E017
:1046CC00001000E00D80FFFF0680FFFFF0B544886E
:1046DC009DF814508C4227D9047A44B112FB04F291
:1046EC0014FB03F314FB05F4120A1B0A250A877941
:1046FC00C66801EB4101082F06EB010411D801201B
:10470C00B84010F4D27F08D1C0060AD5FF2A08BFE2
:10471C00FE2272546570A370F0BD73546270A57064
:10472C00F0BD72546370A570F0BD8288C068002122
:10473C0001F0B7BE08B500F07FFC00F07DFC014B2A
:10474C00186008BDCCE3032000F076BC00F074BC0C
:10475C0010B50446243000F08BF928B104F50C7028
:10476C00BDE8104000F084B910BD00F065BC00F04D
:10477C0063BC00F061BC00F05FBC8378016943F05E
:10478C000403837000F11002806800F027BA10B5A2
:10479C00044680680A462430A16900F090F920B1E3
:1047AC00A38803F00F0300EB431010BD2DE9F0417B
:1047BC000E46017807690446002939D04569B5428F
:1047CC003AD00EB9066131E00B0703D5C3699E429E
:1047DC002ED807E0880605D5A3681B89B6EB431FC6
:1047EC0026D823E0D4F808E09EF806306A1E03F1C0
:1047FC000900731EC240C3409A4200D84DB94A0604
:10480C004CBFDEF82020226A22611D4604F11008FC
:10481C000AE09B1AF9E742462169A06800F079F991
:10482C00002805F1FF3503DD002DF4D1666103E0AE
:10483C0027610020BDE8F0810120BDE8F081000077
:10484C0038B5037804460BB9012038BD83785A0774
:10485C0023D50121FFF79BFF054628B9637843F068
:10486C0001036370002038BD0378E52BF6D0237864
:10487C001B0744BFE369C361238C4383638C83822E
:10488C00094B1B682BB100F11601183098472B8B84
:10489C006B82A37823F00403A370A068FFF758FF82
:1048AC000028DBD0D0E700BFD0E303202DE9F04790
:1048BC000378894619070446904608D583789A07E9
:1048CC0005D51B070BD5E169FFF770FF38B9637885
:1048DC0043F0010363704FF0FF30BDE8F08763696C
:1048EC00DB439845F3D846464FF0000A6369002E27
:1048FC0000F08180A068427912EA5325C3F30807BF
:10490C001CD1DFB9216971B104F1100200F001F979
:10491C000028DCDB40F08E802046FFF72EFF0028BD
:10492C0040F08880D3E7236A3BB92046FFF725FF88
:10493C000028CCD02369236200E023612169A068A0
:10494C0000F0E1F8291817B9B6F5007F21D2C7F5A8
:10495C000075B54228BF354637B96369E2699342A1
:10496C0034BF0122052200E00122A068243000F0AF
:10497C00A6F80028ABD038442A4649462F4401F00B
:10498C0085FDB7F5007F30D1A068243000F070F8B9
:10499C0017E0B6F5806FA06815D30279521B730A25
:1049AC00D2B2934228BF1346C26A91424FEA4325C2
:1049BC0002D31A44914237D3A7684A46386800F0AC
:1049CC00C8FA90B983E7C36A994202BF4FF0FF332C
:1049DC0080F824A0C362A3684A46186800F047FA1E
:1049EC0000283FF474AF4FF4007563692B44636186
:1049FC00A944761B7AE7E269934201D9E36102E0AC
:104A0C000F4B1B681BB1A37843F00403A37094F9FC
:104A1C000230002B02DB4046BDE8F0872046FFF752
:104A2C000FFF0028F7D152E74FF0FF3280F824A097
:104A3C00C262C1E72169A06800F065F8014683E70E
:104A4C00D0E3032000F0F8BA70B505460C460846D2
:104A5C0049B101F057FD2B68024621462846DB6818
:104A6C00BDE87040184770BD00F0E6BA00F0E4BA3B
:104A7C0070B50378DA0704461ED54368816800F1E7
:104A8C000C063246186800F0F2F9054608B9002504
:104A9C0013E023789B0704D4237823F001032370BD
:104AAC000BE06368A068196932460144186800F08D
:104ABC00DEF90028F0D1EAE70125284670BD70B573
:104ACC0083688B4204460E46154614D0FFF7D0FF80
:104ADC0008B9002070BD6B0703D500232370A660B6
:104AEC0009E0636804F10C023146186800F079F9AA
:104AFC000028F2D1EDE72378204605F003051D438D
:104B0C0000F80C5B70BD8379406902399940084408
:104B1C007047012970B505460C46164602D84FF071
:104B2C00FF3070BDC3699942F9D8C379202B10D1DD
:104B3C008169022201EBD41100F50C70FFF7BFFF65
:104B4C000028ECD004F07F0450F8243023F070439C
:104B5C000FE0102BE3D18369C1F307210222194422
:104B6C0000F50C70FFF7ABFF0028D8D0E4B230F89A
:104B7C001430EA6993429ABF33600120002070BD63
:104B8C00012938B50C46154601D8002038BDC3693B
:104B9C009942FAD8C379202B0ED18169032201EBFB
:104BAC00D41100F50C70FFF78AFF0028EDD004F04B
:104BBC007F0440F824500FE0102BE6D18369C1F339
:104BCC0007210322194400F50C70FFF778FF002829
:104BDC00DBD0E4B220F81450012038BD2DE9F341AC
:104BEC00C4688C4205460E46904607D20C460027F8
:104BFC00EB6901349C4203D9CFB9EC680127F7E784
:104C0C00A64214D001AA21462846FFF782FF0028AD
:104C1C000DDBEDD0019B002BEAD107B1EC606FF0FE
:104C2C00704221462846FFF7ABFF074608B900271C
:104C3C000BE016B9C8F8004007E02246314628467A
:104C4C00FFF79EFF0028F5D1F1E7384602B0BDE82A
:104C5C00F08100F0F1B900F0EFB900F0EDB900000F
:104C6C0070B50E4C0E46154600F076FA2368C01A45
:104C7C000B4B984208D900F077FA0A4B186000F0F9
:104C8C00C7FB00F069FA206000F06EFA80B2801B5E
:104C9C00A842D4BF0020012070BD00BFD4E3032084
:104CAC00A086010030E7032038B5057A04464DB9DB
:104CBC00406800F075F963682946187D01F0EBF93E
:104CCC000123237238BD10B5037A04466BB14368D7
:104CDC000121187D01F0DFF9FF21606800F082F9F5
:104CEC00606800F061F90023237210BDF8B504462A
:104CFC000D46164600F038FA87B2606800F057F996
:104D0C00FF28607209D14FF47A7239462046FFF7BA
:104D1C00A7FF0028F1D055230BE0FE2801D050232B
:104D2C0007E032462946606800F046F9607230B1FF
:104D3C00602320462370FFF7C6FF0020F8BD606893
:104D4C0000F035F9606800F032F90120F8BD70B55B
:104D5C0004460E4600F008FA85B232462946204633
:104D6C00FFF77EFF30B9606800F021F9FF28F4D11D
:104D7C00012070BD002070BDF7B5037A0192044686
:104D8C000D460BB9FFF790FF25B14FF496712046F5
:104D9C00FFF7DDFF45F04001606800F023F90DF1ED
:104DAC0007060DF1030716F80119606800F01AF9EF
:104DBC00BE42F8D1002D0CBF95218721606800F010
:104DCC0011F9606800F0F3F80B25606800F0EFF85B
:104DDC000306607203D5013D15F0FF05F5D103B054
:104DEC00F0BD38B5837A032B18BF490215460A4625
:104DFC0011210446FFF7C0FF10B1302323700BE0E4
:104E0C0029464FF400722046FFF770FF054618B193
:104E1C002046FFF758FF03E02046FFF754FF00251C
:104E2C00284638BD38B504461546406800F0DAF817
:104E3C004FF400722946606800F0D8F8FF216068D2
:104E4C0000F0D0F8FF21606800F0CCF8606800F04A
:104E5C00AEF8607200F01F00052806D057232046DC
:104E6C002370FFF730FF002038BD012038BD70B52E
:104E7C00837A032B18BF490215460A4618210446AB
:104E8C00FFF77AFF064608B132231DE02A46FE21C1
:104E9C002046FFF7C7FFC0B14FF4FA612046FFF779
:104EAC0056FF054608B95A230EE032460D2120461E
:104EBC00FFF762FF38B9606800F079F818B920463E
:104ECC00FFF701FF05E0292323702046FFF7FBFEC7
:104EDC000025284670BD38B50D464FF4FA610446DE
:104EEC00FFF735FF10B95B23237005E02A46FC2140
:104EFC002046FFF797FF18B92046FFF7E4FE002085
:104F0C0038BD10B5837A032B0A4618BF4A02192103
:104F1C000446FFF731FF30B1332320462370FFF7EF
:104F2C00D2FE002010BD012010BD38B54FF4FA613F
:104F3C000446FFF70CFF054620B1FD21606800F028
:104F4C0051F801E0562323702046FFF7BCFE28469B
:104F5C0038BDF8B5054616461F46FFF7D2FF70B1AF
:104F6C000024BC4206EB4421284604D0FFF7B3FFD3
:104F7C0028B10134F5E7BDE8F840FFF7D6BF284665
:104F8C00FFF7A1FE0020F8BD00F056B800F054B8B1
:104F9C0000F052B8014B01221A707047D8E303207D
:104FAC00011D006800F0C4BA006800F0A7BAFF2128
:104FBC00006800F02DBB000037B5084B00930025AE
:104FCC00074C0068257013460A46294600F026FB5C
:104FDC002378002BFCD0002003B030BDA14F0D0076
:104FEC00D8E30320006800F013BB000037B5074B73
:104FFC0000930025064C0068257013462A4600F0E5
:10500C000DFB2378002BFCD003B030BDA14F0D005D
:10501C00D8E3032000F010B808B5024B1B689B685E
:10502C00019308BD6802030008B5024B1B68DB68DE
:10503C00019308BD6802030008B5024B1B681B688E
:10504C00019308BD2C02030008B5024B1B685B687A
:10505C00019308BD2C02030008B5024B1B689B682A
:10506C00019308BD2C02030008B5024B1B68DB68DA
:10507C00019308BD2C02030008B5024B1B681B6989
:10508C00019308BD2C02030008B5024B1B685B6939
:10509C00019308BD2C02030008B5024B1B681B6B67
:1050AC00019308BD2C02030008B5024B1B685B6919
:1050BC00019308BD3002030008B5024B1B68DB6985
:1050CC00019308BD3002030008B5024B1B681B6A34
:1050DC00019308BD3002030008B5024B1B685B6AE4
:1050EC00019308BD3002030008B5024B1B689B6A94
:1050FC00019308BD3002030008B5024B1B689B6B83
:10510C00019308BD3002030008B5024B1B68DB6B32
:10511C00019308BD3002030008B5024B1B681B6CE1
:10512C00019308BD3002030008B5024B1B685B6C91
:10513C00019308BD3002030008B5024B1B685B6885
:10514C00019308BD1802030008B5024B1B68DB680D
:10515C00019308BD1802030008B5024B1B681B69BC
:10516C00019308BD1802030008B5024B1B685B696C
:10517C00019308BD1802030008B5024B1B689B681D
:10518C00019308BD4802030008B5024B1B681B695C
:10519C00019308BD4802030008B5024B1B685B690C
:1051AC00019308BD4802030008B5024B1B685B6CF9
:1051BC00019308BD4802030008B5024B1B689B6CA9
:1051CC00019308BD4802030008B5024B1B685B69DC
:1051DC00019308BD6402030008B5024B1B681B68F1
:1051EC00019308BD3C02030008B5024B1B68DB6849
:1051FC00019308BD3C02030008B5024B1B681B69F8
:10520C00019308BD3C02030008B5024B1B685B69A7
:10521C00019308BD3C02030008B5024B1B689B6957
:10522C00019308BD3C02030008B5024B1B68DB6907
:10523C00019308BD3C02030008B5024B1B681B6AB6
:10524C00019308BD3C02030008B5024B1B689B6A26
:10525C00019308BD3C02030008B5024B1B681B6A96
:10526C00019308BD2802030008B5024B1B685B6A5A
:10527C00019308BD2802030008B5024B1B689B6A0A
:10528C00019308BD2802030008B5024B1B68DB6ABA
:10529C00019308BD2802030008B5024B1B681B6B69
:1052AC00019308BD2802030008B5024B1B685B6B19
:1052BC00019308BD2802030008B5024B1B681B6C48
:1052CC00019308BD2802030008B5024B1B681B683C
:1052DC00019308BD4C02030008B5024B1B685B68C8
:1052EC00019308BD4C02030008B5024B1B681B69F7
:1052FC00019308BD4C02030008B5024B1B685B69A7
:10530C00019308BD4C02030008B5024B1B689B6956
:10531C00019308BD4C02030008B5024B1B68DB6906
:10532C00019308BD4C02030008B5024B1B681B6AB5
:10533C00019308BD4C02030008B5024B1B685B6867
:10534C00019308BD2002030008B5034B1B68D3F87A
:10535C008830019308BD00002002030008B5034B00
:10536C001B68D3F89430019308BD000020020300A1
:10537C0008B5024B1B685B68019308BD4002030033
:10538C0008B5024B1B689B68019308BD40020300E3
:10539C0008B5024B1B68DB68019308BD4002030093
:1053AC0008B5024B1B681B69019308BD4002030042
:1053BC0008B5024B1B685B69019308BD40020300F2
:1053CC0008B5024B1B689B69019308BD40020300A2
:1053DC0008B5024B1B68DB69019308BD4002030052
:1053EC0008B5024B1B681B6A019308BD4002030001
:1053FC0008B5024B1B681B6B019308BD40020300F0
:10540C0008B5024B1B685B6B019308BD400203009F
:10541C0008B5024B1B689B68019308BD440203004E
:10542C0008B5024B1B68DB6B019308BD44020300FB
:10543C0008B5024B1B681B68019308BD1C020300D6
:10544C0008B5024B1B685B68019308BD1C02030086
:10545C0008B5024B1B685B6A019308BD1C02030074
:10546C00002211464068FFF7BBBF0022114640687E
:10547C00FFF7C6BF00224068FFF7BABF002281F0D9
:10548C0001014068FFF7A4BF00231A461946406883
:10549C00FFF796BF00231A4619464068FFF788BFEE
:1054AC00002211464068FFF77BBF0022114640687E
:1054BC00FFF766BF002202214068FFF769BF002397
:1054CC001A464068FFF754BF024B03225A60024A47
:1054DC001A607047DCE30320D4650D000021FFF750
:1054EC001BBE0021FFF720BE10B504460170084614
:1054FC00FFF7E2FD00236360204610BD0078FFF744
:10550C00F0BF0000400830B51860002418688842CD
:10551C00E5B206D90134082C02D040081860F5E732
:10552C000725024B5B5D137030BD00BF00660D009C
:10553C002DE9F04307468FB000780E46FFF7CEFFFB
:10554C00002862DB3C781422002109A800F0A9FF96
:10555C000B232046002209A9ADF82430FFF7BCFD2F
:10556C009DF82D4054B19DF82C5035B9DDF83080A4
:10557C009DF834909DF8354003E00024A146A046E8
:10558C000125337905B1BBB99D420BD1B2684245B7
:10559C0008D18DF820908DF82140BDF82010B289EB
:1055AC00914209D053B100243878019400942346D9
:1055BC0022460121FFF7A8FD002026E08DF80F30D0
:1055CC00B1680A9804AB0DF10F02FFF79BFF31791C
:1055DC0005B1B1B9A94208D0002438780194747B84
:1055EC00337B9DF80F200094E4E7B3684345F3D375
:1055FC008DF820908DF82140BDF82020B3899A4277
:10560C00EAD1049B4345E7D1D6E70FB0BDE8F08360
:10561C0008B50078FFF748FDC0B208BD30B587B0BB
:10562C0004460A9D00780095FFF75EFD3DB902A97E
:10563C002078FFF761FD9DF81430DB07F7D407B035
:10564C0030BD0078FFF740BD10B50446006818B1B6
:10565C00FFF7F6FE0023236010BD10B50446FFF7DC
:10566C00F3FF204610BD000010B5094C00204FF68A
:10567C00FF732060A080A07120816381FFF75CFE26
:10568C002046044A0449BDE8104000F087BD00BF25
:10569C00E4E30320F0DE032067560D0010B504464A
:1056AC00006808B1FFF788FD204610BD10B5064C08
:1056BC00002320462360FFF777FD2046034A044968
:1056CC00BDE8104000F06ABDF0E30320F0DE0320DB
:1056DC00A9560D00F8B506460D468F180024BD429C
:1056EC000CD0336815F8011B9B683046984700288E
:1056FC0001DB0444F3E7002C08BF04462046F8BD48
:10570C0008B5FFF7A1F908BD03689B68184738B5C1
:10571C000D210546FFF7F8FF0A2104462846FFF73E
:10572C00F3FF204438BD30B58BB00B4600218DF80B
:10573C002410012A98BF0A220DF12304B3FBF2F5C1
:10574C0005FB123303F0FF03092B94BF30333733BF
:10575C00DBB2214604F801392B46002DEED1FFF7C0
:10576C0073F90BB030BD0CB42DE9F04387B000AF2A
:10577C0007F13804054654F8049B3C600E4623465A
:10578C004A461421381DFFF763FE132805D8391D2E
:10579C002846FFF759F9044613E000F1080323F0FB
:1057AC000703E846ADEB030D411C23464A46684609
:1057BC003C60FFF74DFE69462846FFF745F9044665
:1057CC00C5461EB12846FFF7A2FF044420461C37ED
:1057DC00BD46BDE8F04302B070470000014B024AE1
:1057EC001A607047F4E303207B660D00024B1A68C5
:1057FC00024B1A60704700BF88DE0320F8E30320D9
:10580C0010B58368044613B103220146984720461D
:10581C0010BD10B50446FFF7F3FF204610BD000085
:10582C000348044A04490023836000F0B7BC00BF5E
:10583C00FCE30320F0DE03201F580D0008B50C4BD1
:10584C0033B100F057F903681B699847002809DC4D
:10585C00084B63B100F0D0F903681B699847002826
:10586C0003DC08BDAFF30080F2E7AFF3008008BDA6
:10587C00000000000000000008B5FFF7DFFFFFF795
:10588C0073FC014B186008BD30E703200248034A43
:10589C000349121A00F0FABD00F4032004F40320AB
:1058AC0030690D0007B5002300931A466FF077019D
:1058BC00FFF754FD03B05DF804FB000007B5438807
:1058CC000A2B08D0502B09D1094B1B683BB103B0F4
:1058DC005DF804EB1847FFF7E5FF06E000230093A3
:1058EC001A466FF07701FFF739FD03B05DF804FB42
:1058FC000CE4032038B5104C104D2368AB42104B10
:10590C000CBF012200221A7002D0FFF7BFFF2560E6
:10591C00FFF712FC044600F0CDFD0A4B13B12046F4
:10592C00AFF3008000210748FFF77AFD00210648FD
:10593C00BDE83840FFF708BD00F403201E1C279A71
:10594C0010E4032000000000C9580D00704710B58A
:10595C001821044600F030FC204610BDF0B5037D44
:10596C00062B8DB00E4600F104074FF0000402D058
:10597C0000F1080518E00CAD394605F8304D2F2321
:10598C002A460A20FFF720FC284600F0BBFD3368AE
:10599C000246DB682946304698470FE024B12E2199
:1059AC003046FFF7B1FE044415F8011D0A223046BB
:1059BC00FFF7B9FEBD420444F0D120460DB0F0BD56
:1059CC0010B5054B0446112240F8043B002100F0B1
:1059DC0068FD204610BD00BF1C670D000346074A3A
:1059EC0010B543F8042B01F1100251F8044B43F8A5
:1059FC00044B9142F9D10A781A7010BD1C670D0046
:105A0C0010B59DF8084044EA032343EA024242EAF7
:105A1C00016104234160037510BD37B50D788B7897
:105A2C004A78C97800912946FFF7EAFF03B030BDE8
:105A3C0041747047704708B50021007CFFF764FC87
:105A4C0030EA200028BF4FF0FF3008BD08B5012117
:105A5C00007CFFF759FC30EA200028BF4FF0FF30E4
:105A6C0008BD08B5007CFFF747FC20EAE07008BDD4
:105A7C0008B5007CFFF738FC20EAE07008BD007C1C
:105A8C00FFF752BC10B51421044600F095FB2046DC
:105A9C0010BD38B50446007C0D46FFF72DFC0028E0
:105AAC0001DC607C28B12946207CFFF735FC20EA1C
:105ABC00E07038BD10B50446002363604FF47A7370
:105ACC00A360054B236001230846217463741146BF
:105ADC00FFF7FAFB204610BD30670D000022007C5A
:105AEC00FFF7FABB10B514220446002100F0D9FCD4
:105AFC00204610BD30B50E4D87B001A8FFF7F2FF60
:105B0C00296811F0010410D12846FEF7C2FA60B1E1
:105B1C0001AA21460748FFF7CDFF2846FEF7BEFA3B
:105B2C00054A0649034800F039FB024807B030BD6E
:105B3C0014E4032018E40320F0DE0320415A0D0086
:105B4C0070474174704708B5007CFFF77DFB20EA75
:105B5C00E07008BD08B5007CFFF74EFB20EAE07052
:105B6C0008BD08B5007CFFF757FB30EA200028BFC2
:105B7C004FF0FF3008BD08B5007CFFF745FB30EA5D
:105B8C00200028BF4FF0FF3008BD007CFFF74CBB56
:105B9C0010B51421044600F00FFB204610BD70B563
:105BAC00457C04460E4625B9007CFFF74DFB0028CA
:105BBC0005DD3146207CBDE87040FFF715BB28465B
:105BCC0070BD000010B50446084611460022626004
:105BDC004FF47A72A260054A22600122207462742A
:105BEC001A46FFF7F9FA204610BD00BF60670D009A
:105BFC00007CFFF721BB000038B50C4D296811F073
:105C0C00010411D12846FEF744FA68B1084A094B41
:105C1C0009482146FFF7D6FF2846FEF73FFA074A08
:105C2C000749054800F0BAFA034838BDC4E403201C
:105C3C00C8E4032040E403202CE40320F0DE03201E
:105C4C004D5B0D007047F8B5064615460C468F188F
:105C5C00BC4206D0336814F8011B9B683046984749
:105C6C00F6E72846F8BD0022007CFFF7F5BA0021C4
:105C7C00007CFFF7F9BA0021007CFFF7FDBA002188
:105C8C00007CFFF701BB0021007CFFF705BB10B5C2
:105C9C001421044600F090FA204610BD10B50446BD
:105CAC00002363604FF47A73A360044B217408469D
:105CBC0023601146FFF700FB204610BD90670D00D6
:105CCC000021007CFFF7F0BA002211464068FFF774
:105CDC0087BB002211464068FFF792BB0022406848
:105CEC00FFF786BB002281F001014068FFF770BB13
:105CFC0000231A4601214068FFF762BB00231A46B5
:105D0C0019464068FFF754BB002211464068FFF764
:105D1C0047BB002211464068FFF732BB002202212C
:105D2C004068FFF735BB00231A464068FFF720BBDD
:105D3C0038B5054688B104684CB1A3681BB1032281
:105D4C002146204698471021204600F035FA284677
:105D5C001421BDE8384000F02FBA38BD10B10368EB
:105D6C005B681847704710B503680446BBB15868A8
:105D7C00FFF702FA78B923685A7C12B95868FFF712
:105D8C0003FA23685868FFF707FA2068002323609A
:105D9C0028B1FFF7CDFF206808B1FFF7C9FF2046F7
:105DAC0010BD38B50446D0F8C40108B1FEF76FF940
:105DBC00D4F8C00108B1FFF7FFF9D4F8BC5135B1E4
:105DCC002846FFF7D0FF0421284600F0F5F920689B
:105DDC0008B1FFF7C3FF204638BD000010B5044BD7
:105DEC00044640F8083BFFF7DCFF204610BD00BF1F
:105DFC00B8670D0038B50E4C0E4B236000250223FE
:105E0C0004F5E4706360A560C4F8C451C4F8C851CB
:105E1C00FFF7CAF9084BC4F8CC5184F8D051236071
:105E2C002046064A0649BDE8384000F0B7B900BF25
:105E3C004CE5032020680D00B8670D00F0DE032050
:105E4C00E95D0D00002211464068FFF7A9BA002257
:105E5C0011464068FFF7C4BA002211464068FFF7AC
:105E6C00CFBA00224068FFF7C3BA002281F00101CB
:105E7C004068FFF7ADBA00231A4619464068FFF791
:105E8C009FBA00231A4619464068FFF791BA0022C0
:105E9C0011464068FFF774BA002202214068FFF7F0
:105EAC0077BA00231A464068FFF762BA024B042205
:105EBC005A60024A1A60704720E70320EC670D0015
:105ECC0000231A464068FFF753BA002202214068AB
:105EDC00FFF75EBA002211464068FFF751BA002264
:105EEC0011464068FFF75CBA00231A461946406811
:105EFC00FFF75EBA00231A4619464068FFF760BAEE
:105F0C00002281F001014068FFF762BA002240686C
:105F1C00FFF76EBA002211464068FFF771BA0022F3
:105F2C0011464068FFF75CBA2DE9F043002495B0A8
:105F3C0016460D460746FFF743FD214620220CA8C6
:105F4C00009400F0AEFA40230C9321466B460CAA49
:105F5C003046FFF769F80446002844D10246012177
:105F6C006868FFF71DFA0221804622466868FFF731
:105F7C0017FA009E81462146002E34D0002932D1DA
:105F8C007368022B02D00A2B09D02AE0B8F1000F5B
:105F9C0027D0716938460431FFF73FFD20E0B9F195
:105FAC00000F1ED07469112201A800F07AFA0623A2
:105FBC008DF8143001AD04F10803183418685968D1
:105FCC002A4603C20833A3421546F7D101A906A8F5
:105FDC0007ADFFF703FD0FCD3C1D0FC42B682370DD
:105FEC000121F669C8E70098FFF716F8384615B096
:105FFC00BDE8F083024B034A1A6000225A607047D6
:10600C0028E7032020680D0070B5184E316811F098
:10601C00010504460AD13046FEF73BF830B129465B
:10602C001348FFF761FA3046FEF738F81048FFF7CF
:10603C0008FB28B1A4F10B03022B01D8002070BD82
:10604C0000F086F8FFF73CFE08B1012CF6D9FFF7FB
:10605C00D3FDFFF7CDFD18B1A4F10903012BEDD948
:10606C00232C8CBF0020012070BD00BFF4DE032068
:10607C00F8DE0320232838B504460D460AD8FF293C
:10608C0008D0FFF7C1FF28B129462046BDE83840AB
:10609C00FEF7E2BF38BD38B504460D46FEF7E4FF07
:1060AC00FF2810D0062804D84D2323FA00F0C3078C
:1060BC0009D42046FFF7A8FF28B129462046BDE8A1
:1060CC003840FEF7D9BF38BD10B50446FEF7CCFFFB
:1060DC000438C0B2012808D92046FFF795FF20B13B
:1060EC002046BDE81040FEF7CFBF002010BD0D28A4
:1060FC0010B504469CBF0E34A4B22046FFF784FFB3
:10610C0050B103212046FEF79FFF032804D12046FF
:10611C00BDE81040FEF7C0BF002010BD70B50446AE
:10612C0014252A46094E002100F0BBF925802025B4
:10613C003146A5602561284600F040F83146606084
:10614C00284600F03BF8E060204670BD4C680D001E
:10615C0030B50E4D296811F0010487B013D12846D3
:10616C00FDF797FF78B101A8FFF7D8FF01AA2146E8
:10617C000748FFF793FD2846FDF790FF054A0649AF
:10618C00034800F00BF8024807B030BD34E7032099
:10619C0038E70320F0DE0320515C0D000B4601466E
:1061AC00184600F065B90000024B1868BFF35F8F0A
:1061BC00704700BF4CE70320FDF767BF00F000B845
:1061CC0010B5002814BF044601242046FFF730F90F
:1061DC0020B9FFF7E9FF08B18047F6E710BD0000D2
:1061EC00184B1A68D1075CBF01221A60164B1A684B
:1061FC00D2075CBF01221A60144B1A68D0075CBF2F
:10620C0001221A60124B1A68D1075CBF01221A6076
:10621C00104B1A68D2075CBF01221A600E4B1A6829
:10622C00D0075CBF01221A600C4B1A68D1075CBF07
:10623C0001221A600A4B1A68D2075CBF01221A604D
:10624C00704700BF6CE7032068E7032064E7032076
:10625C0060E703205CE7032058E7032054E70320A2
:10626C0050E70320244B1A68D0075CBF01221A6048
:10627C00224B1A68D1075CBF01221A60204B1A68A6
:10628C00D2075CBF01221A601E4B1A68D0075CBF94
:10629C0001221A601C4B1A68D1075CBF01221A60DC
:1062AC001A4B1A68D2075CBF01221A60184B1A6885
:1062BC00D0075CBF01221A60164B1A68D1075CBF6D
:1062CC0001221A60144B1A68D2075CBF01221A60B3
:1062DC00124B1A68D0075CBF01221A60104B1A6867
:1062EC00D1075CBF01221A600E4B1A68D2075CBF43
:1062FC0001221A60704700BF9CE7032098E7032037
:10630C0094E7032090E703208CE7032088E7032021
:10631C0084E7032080E703207CE7032078E7032051
:10632C0074E7032070E70320244B1A68D0075CBF86
:10633C0001221A60224B1A68D1075CBF01221A6035
:10634C00204B1A68D2075CBF01221A601E4B1A68D8
:10635C00D0075CBF01221A601C4B1A68D1075CBFC6
:10636C0001221A601A4B1A68D2075CBF01221A600C
:10637C00184B1A68D0075CBF01221A60164B1A68BA
:10638C00D1075CBF01221A60144B1A68D2075CBF9C
:10639C0001221A60124B1A68D0075CBF01221A60E6
:1063AC00104B1A68D1075CBF01221A600E4B1A6899
:1063BC00D2075CBF01221A60704700BFCCE70320F4
:1063CC00C8E70320C4E70320C0E70320BCE7032091
:1063DC00B8E70320B4E70320B0E70320ACE70320C1
:1063EC00A8E70320A4E70320A0E70320184B1A68B2
:1063FC00D1075CBF01221A60164B1A68D2075CBF2A
:10640C0001221A60144B1A68D0075CBF01221A6073
:10641C00124B1A68D1075CBF01221A60104B1A6824
:10642C00D2075CBF01221A600E4B1A68D0075CBF02
:10643C0001221A600C4B1A68D1075CBF01221A604A
:10644C000A4B1A68D2075CBF01221A60704700BF62
:10645C00ECE70320E8E70320E4E70320E0E7032070
:10646C00DCE70320D8E70320D4E70320D0E70320A0
:10647C0010B5054C13462CB10A4601460220AFF369
:10648C00008010BD204610BD0000000010B5431E5A
:10649C000A44914204D011F8014B03F8014FF8E77C
:1064AC0010BD02440346934202D003F8011BFAE7E5
:1064BC007047000038B5124B1C68A36B0546D3B966
:1064CC001820FEF7B5FF43F20E33A06303804AF6A3
:1064DC00CD33438041F2342383804EF26D63C3800D
:1064EC004DF6EC630381052343810B238381012249
:1064FC000023C0E90423A36B00221D615A6138BD3F
:10650C00ECDE0320034613F8012B002AFBD1181AEA
:10651C00013870471D400D0059400D0085400D009D
:10652C0089400D0000000000000000000000000089
:10653C00DD400D000000000000000000AF400D0029
:10654C00B1400D00C5400D00BF400D006465666193
:10655C00756C7420004D5342004C5342003C535018
:10656C004953657474696E67732064656661756CF4
:10657C00743E003C53504953657474696E677320C4
:10658C002573256C75202573204D4F444525643E9D
:10659C000076616C7565203D2025690A00000000BD
:1065AC0000C0014000100240002002402C010000FD
:1065BC0018000000F40100002C0100005000000045
:1065CC000000000000000000CB540D00C1540D0071
:1065DC00B7540D00AD540D00A1540D0095540D0091
:1065EC0089540D0081540D0077540D006D540D002D
:1065FC00355F0D0000081018202830386261756472
:10660C000053657269616C0053657269616C31008D
:10661C007479706500706172616D00636D640069FE
:10662C006400686E64007374726D0066696C74004B
:10663C006C766C0061646448616E646C65720072A7
:10664C00656D6F766548616E646C657200656E751C
:10665C006D48616E646C657273004A534F4E53748F
:10666C007265616D4C6F6748616E646C6572006138
:10667C00707000253031307520005D2000256400DD
:10668C002C200028293A2000205B00636F646520D1
:10669C003D200025690064657461696C73203D20A0
:1066AC00000D0A0066006C6E00666E00636F646518
:1066BC000064657461696C006E6F6E650074726164
:1066CC00636500696E666F007761726E0065727249
:1066DC006F720070616E696300616C6C005A00250A
:1066EC002B3033643A253032750025592D256D2D0C
:1066FC0025645425483A254D3A2553257A00617373
:10670C006374696D6500000000000000000000006B
:10671C0069590D0059590D005B590D00000000001E
:10672C0000000000415A0D00915A0D009F5A0D00B7
:10673C00E1560D007D5A0D00435A0D00595A0D00BB
:10674C008B5A0D006F5A0D003D5A0D0000000000D1
:10675C00000000004D5B0D009D5B0D00AB5B0D0060
:10676C00E1560D00615B0D00835B0D006F5B0D004E
:10677C00975B0D004F5B0D00535B0D00000000009C
:10678C0000000000515C0D009B5C0D00735C0D0063
:10679C00535C0D007B5C0D00835C0D008B5C0D006D
:1067AC00935C0D000000000000000000335D0D0044
:1067BC00295D0D001F5D0D00155D0D00095D0D00BF
:1067CC00FD5C0D00F15C0D00E95C0D00DF5C0D0063
:1067DC00D55C0D00355F0D000000000000000000CE
:1067EC00AF5E0D00A55E0D009B5E0D00515E0D00B1
:1067FC008F5E0D00835E0D00775E0D006F5E0D00E9
:10680C00655E0D005B5E0D00355F0D000000000045
:10681C0000000000CD5E0D00D75E0D00E15E0D00A6
:10682C00EB5E0D00F55E0D00015F0D000D5F0D00C0
:10683C00195F0D00215F0D002B5F0D00355F0D0002
:10684C00000000000000000000000000000000003C
:10685C00000000000000000000000000000000002C
:10686C00000000000000000000000000000000001C
:10687C00000000000000000000000000000000000C
:10688C0000000000000000000000000000000000FC
:10689C0000000000000000000000000000000000EC
:1068AC00000000004300000011420D0041470D00A4
:1068BC0055470D0059470D0077470D007B470D00DC
:1068CC007F470D0083470D00514A0D00754A0D009E
:1068DC00794A0D005F4C0D00634C0D00674C0D00A8
:1068EC00954F0D00994F0D009D4F0D0021500D003F
:1068FC00D5540D0075560D00B9560D00E9570D0015
:10690C00F9570D002D580D00015E0D00B95E0D00FC
:10691C0001600D00ED610D0071620D0035630D001D
:04692C00F9630D00FE
:046930000000000063
:1069340011000000100000000A670D0000000000B4
:1069440050680D0070680D0090680D000000000094
:10695400000000000000000000000000B0680D000E
:106964000000000000000000000000000000000023
:106974000000000000000000000000000000000013
:106984000000000000000000000000000000000003
:106994000000000000000000000000008CDE032066
:1069A400FFFFFFFF00000102030405060708090AB0
:1069B4000B0C0D0E0F101112131415161718191AAB
:0869C4001B1C1D1E1F202800F2
:0469CC0078563412B3
:04000003D000401CCD
:00000001FF
