:02000002D0002C
:1040000000400D0078980D00000006000C0005012E
:084010000401E80500000000B6
:0440180030910D00D6
:1040200009480A49884208B505D0094A824202D0A7
:10403000121A05F01EF80748074A0021121A05F067
:1040400023F8014808BD00BF00BE0320C4970D003F
:104050008CBE03208CBE0320F0E7032070B503F074
:1040600053F9074C074BE41AA40800251E46A54245
:1040700004D056F8253098470135F8E770BD00BFE9
:10408000B8970D0038970D0000F044B908B500F05E
:10409000BBFCBDE8084003F0F9B802F01BBE02F01B
:1040A00021BE02F01FBE0078B0FA80F040097047D0
:1040B00001230370704770477FB5024608461379A5
:1040C000956833B13DB90C4904B0BDE8704002F0C9
:1040D000B5BF0A4B00E00A4B167B0A4C0A49527BDB
:1040E0000292012E08BF214601910095074A002146
:1040F00002F0E7FF04B070BD89910D0010950D002E
:1041000078910D0081910D0085910D009F910D001A
:10411000083001F0CFBC10B52C21044604F01CF887
:10412000204610BD10B5034B0360044602F046FA6A
:10413000204610BD70910D0010B50446FFF7F2FF48
:1041400020464FF4987104F007F8204610BD07B5DB
:1041500002AB012203F8011D0830194601F0AAFC48
:1041600003B05DF804FB000008B5094B188803F0A4
:104170008DFF084B1860084B188803F087FF074B2A
:104180001860074B188803F081FF064B186008BDC4
:1041900010BE03209CBE032014BE0320C8BE032013
:1041A00018BE0320D0BE03202DE9F7434FF4FA6078
:1041B000274C284D284E03F01AF8002323602B606B
:1041C000336003F065FC254902F04FFFA046A94685
:1041D000374623681BB12B680BB1336833BBFFF73D
:1041E000C3FF23684BB91E4B1A681E4B1B689A42CB
:1041F00003DD02F0D3FBC8F800002B684BB91A4B63
:104200001A68184B1B689A4203DD02F0C7FBC9F815
:1042100000003368002BDCD1144B1A68114B1B686B
:104220009A42D6DD02F0BAFB3860D2E703F030FCE8
:10423000094B0F4A1B680193064B1B680093044B04
:1042400000211B6802F03DFF03B0BDE8F08300BF12
:10425000A0BE0320A4BE0320A8BE0320EC910D0045
:104260009CBE03201CBE0320C8BE0320D0BE03207A
:10427000FE910D0008B5044603F00AFC94F8603482
:1042800005462BB31C4902F0FAFE94F86034202B4B
:1042900003D11A49284602F0F2FE94F860343BB389
:1042A0001749284602F0D1FE102294F860142846DF
:1042B00002F0E7FE1349284602F0C7FE102294F8E8
:1042C0006914284602F0DDFE284602F0C2FE0FE027
:1042D000E3791BB90C4902F0D2FE09E094F83C34B2
:1042E0001BB90A4902F0CBFE02E0094902F0C7FE01
:1042F00002F06CFBFCE700BF1B920D0042920D0028
:1043000072920D0083920D0087920D00A4920D0011
:10431000BF920D007FB503F0BBFB4FF4165103F0C5
:10432000ABFB2C482C4C00F00CFC2C4800F009FC9A
:10433000284800F00EFE294800F00BFE284B002113
:10434000188803F079FE274B0021188803F074FECB
:10435000254B0021188803F06FFE244B244A00935C
:1043600004F58C6600238DF80430029201258DF847
:104370000D300E226B4604F26C4130468DF80C5025
:1043800001F0E0FE10B304F23C40266001F03CFB7B
:104390002946204601F07FFD014640B10E4C04F253
:1043A0003C452146284601F05AF978B105E02046FF
:1043B00001F071FD0028F1D108E094F83C3413F0CD
:1043C000700F03D00B4B1D6004B070BD0248FFF7A7
:1043D00051FF00BFD4BE032028BF0320ACBE032082
:1043E00010BE032014BE032018BE03204C910D0004
:1043F00080F0FA02CCE3032030B5044687B010EE1B
:10440000900A0D468DED050A04F09AFA9DED050A15
:10441000CDE9020110EE100A04F092FA2A46CDE925
:1044200000010021204602F04CFE07B030BD000024
:104430002DE9F04F2DED048B89B0FFF7B5FE784BD9
:10444000784D1C68784BDFF804A21868774E784FD7
:10445000DFF8FCB1001B04F061FA6DA3D3E900237F
:1044600004F0ECFB6CA3D3E9002304F0BDFA04F0E4
:1044700093FD704B286009EE100A1868001B04F0C9
:104480004DFA63A3D3E9002304F0D8FB62A3D3E978
:10449000002304F0A9FA04F07FFD08EE900A28EE4C
:1044A000A87ABFEE008AF0EE476AE9EE096A624C2C
:1044B0003060F7EE007AB0EE486A76EEE76AA9EE71
:1044C000096A77EE677AB5EE007A68EEA78A67EE3A
:1044D000A77AE9EE068A67EE877A26EE066AC4EDC9
:1044E000006AE6EE077AB1EE007A66EE876ACAEDF8
:1044F000007A67EEE67AC7ED008AE8EEA87A17EE52
:10450000900A04F01DFA41EC100B03F083FFF1EE6A
:10451000687A53EC102B17EE900ACDE9062304F0CD
:104520000FFADDE9062304F0ABF8D4ED007A77EE5C
:10453000A77A804617EE900A894604F001FA0B46E6
:1045400002464946404604F079FB04F025FDD5EDCE
:10455000006ADFF80081DFF80091CBF80000F0EE90
:10456000487AE6EEA67AB6EE006A07EE100A67EE23
:10457000867AE7EE267AF1EE677AC8ED007AD6ED14
:10458000007AA7EEA78A28EE068AA7EE278AB1EE60
:10459000488A89ED008A03F07BFAD6ED000A95ED92
:1045A000000A2649FFF728FF03F072FA0546DBF8F8
:1045B000000004F0C5F9224ACDE900010021284697
:1045C00002F07FFD03F064FAD9ED000A98ED000ACD
:1045D0001C49FFF711FF03F05BFA0546DAF800000B
:1045E00004F0AEF9CDE90401386804F0A9F9CDE989
:1045F0000201206804F0A4F9134ACDE9000100216A
:10460000284602F05EFD09B0BDEC048BBDE8F08FDA
:104610000000000080842E41000000000070754002
:10462000A0BE0320C0E30320A4BE0320C4E30320F4
:10463000ECBE0320A8BE0320E8BE0320CF920D00ED
:10464000E6920D00F1920D0008930D00C0BE03200C
:10465000C4BE0320B4C30320CCBE0320000000006E
:104660002DE9F0438BB003F013FA534A534C002169
:1046700002F027FD00250023504A51498DF80450CF
:1046800001A88DF8055001F0C6F998B16379392B6E
:1046900002D001336371EEE72379392B04D0302245
:1046A000013362712371E6E703F0F2F9454902F044
:1046B000DCFCFEE74449414A0968444840F60123CE
:1046C00001F0A9F920B903F0E3F9414902F0CDFC6A
:1046D00003F0DEF9394B3F4A3F4E404C002102F0D7
:1046E000F0FC3F4B32681B689A4232DD3D4F00239D
:1046F0002360B8462368B3F5806F2ADA02F04EF9DA
:104700003B68C01AB0F5FA7FF8D302F047F9C8F851
:104710000000FFF729FDD4F80090334D02F03EF978
:1047200004F0ECF822A3D3E9002304F087FA04F0A4
:1047300033FCD6ED007A236805EBC909F8EEE77A79
:1047400005EBC3050133C9F800002360C5ED017A0C
:10475000D0E70023214D244E23602368B3F5806FFA
:104760000DDA06EBC303D3ED010A93ED000A1F49EE
:104770001F48FFF741FE2B6801332B60EDE713481C
:1047800001F042F903F084F91A4A002102F099FC81
:104790004FF4FA6002F02BFD03F07AF9164A00217B
:1047A00002F08FFC0BB0BDE8F08300BFAFF30080D8
:1047B0000000000080842E412B930D0000BE0320DA
:1047C00064C3032043930D00CCE30320FCBE03200D
:1047D0005A930D0064930D009CBE0320F0BE03208D
:1047E0001CBE0320ACC30320B8C3032075930D0087
:1047F000F4BE032084930D008B930D0038B504465E
:104800002DED028B0D46B0EE408A01F0DFFF294608
:104810002046012201F04EFF20463A2101F0FEFE23
:10482000B0EE480ABDEC028B2046BDE8384001F0EE
:10483000F1BF000010B52DED028BD2B04FF48072A5
:1048400012A906A8B0EE608AF0EE408A01F0D4FE0C
:104850001D4B06937D227B2106A801F0C2FFB0EE1E
:10486000680A1A4906A8FFF7C9FFB0EE480A1849B6
:1048700006A8FFF7C3FF06A801F0DEFE079B03931F
:10488000144B039A1B788DF8003013493C2304A87D
:1048900002F0A8FE059C7CB16368013B63605BB9D4
:1048A000236820469B689847A368013BA3601BB917
:1048B00023682046DB68984706A8FFF733FC52B010
:1048C000BDEC028B10BD00BF70910D00A5930D00D3
:1048D000AE930D00BCE30320B7930D000000000071
:1048E00070B52DED068B404E404CD6ED000A94ED90
:1048F000000A3F4D82B0FFF79DFFFFF799FDFFF7DC
:10490000AFFE3C4B2068186004F01AF89FED308B26
:104910009FED31ABB0EE483AF0EE683AB0EE481A8F
:10492000F0EE681A9FED2E9BB0EE4A4AF0EE6A4A0E
:10493000B0EE492AF0EE692A41EC100B02F00EFCB1
:1049400051EC100B04F000FB2B4C2860204600F0CB
:1049500000FB29880025FF222B462046009500F009
:10496000C9FA204600F024F9244B3068186003F09F
:10497000E7FFB0EE4A4AF0EE6A4AB0EE483AF0EE8F
:10498000683AB0EE492AF0EE692AB0EE481AF0EE25
:10499000681A41EC100B02F0E1FB51EC100B04F033
:1049A000D3FA174C174E3060204600F0D2FAFF239E
:1049B0003188009320462B462A4600F09BFA204679
:1049C00002B0BDEC068BBDE8704000F0F1B800BF4E
:1049D00000000000000000000000000000003F4058
:1049E000000000000000F03FCCBE0320B4C3032051
:1049F00020BF0320B8E30320D4BE0320B0C30320AC
:104A0000ACBE032024BF0320FFF76ABF294B70B55B
:104A100001241C7001F032FF02230F221F212648BF
:104A2000264E00F0B3F8264A2649234803F086FBB9
:104A3000022310221F21244800F0A8F8204A21490F
:104A4000214803F07BFB214B642183F8601420494B
:104A5000C3F87014316883F87444002211EA040525
:104A6000DA7183F83C2483F83D2483F86A24C3F880
:104A7000782483F87C2483F87D241C460AD13046B0
:104A8000FFF711FB30B12946124802F097F9304682
:104A9000FFF70EFB10480F4BC4F86C340023037271
:104AA000437243600D4B0360054A0D49BDE87040F9
:104AB00003F044BBBCE30320D4BE032090BE03201C
:104AC0008CBE0320ED4A0D00ACBE032028BF03209E
:104AD0004C910D0094BE0320F4BE032058910D00AC
:104AE000B7400D0001F05ABF01F050BF10B50446A9
:104AF000C06808B102F0F6F823781BB10021E07914
:104B000003F09AFA204610BD38B50446C0680D4639
:104B100008B102F0E7F8A379062B0CBF04200320AC
:104B200010FB05F080B2A08002F0D4F8E06028B15C
:104B3000A288002104F0A8FA658038BDA0806080BA
:104B400038BD10B504460121C07903F075FA002183
:104B5000E07903F082FA0123237010BD38B50378A1
:104B600005460C461BB10021C07903F065FA2B788D
:104B7000EC7153B1A4B22046012103F05DFA204646
:104B80000021BDE8384003F068BA38BD70B5002593
:104B900004461646837105700572C5600561FFF70E
:104BA000B3FF20463146FFF7D9FF204670BD000015
:104BB000C368002B00F08B812DE9F04F8379023B15
:104BC000DBB2042B9CBFC44A52F8234087B0054691
:104BD00088BF3224FFF786FF2B69C01AA042F9D3A1
:104BE000BE4AAB8807CA06AC04E90700039C1B0158
:104BF000D4F800250433019322B9D4F86035002B92
:104C0000C0F25581049CD4F8003523B9D4F860353E
:104C1000002BC0F23C81059CD4F800351BB9D4F8B8
:104C20006035002B6EDBAE4BEA791E68AD4CAE49A9
:104C3000E0681201B31840F080705B78B75CE06008
:104C40000A6803F01F0343EA471301273A430A6047
:104C50000C46A888D5F80C90D4F804A09F4088464C
:104C6000002844D0CC4600224FF0A0411CF801EBB4
:104C70000820802663689B1A462BFBD9D8F80420AD
:104C8000D1F808351EEA060F43EA0703C1F80835D4
:104C90002FD063689B1A282BFBD9D1F80C3501382B
:104CA00043EA07034FEA5606C1F80C35E2D1C9EBD7
:104CB0000C03A8889BB29842D8D84FF4307303FBFA
:104CC00000F063689B1A462BFBD9D8F80430CAEB76
:104CD000030A8245C0F0D5804FF49670FFF704FFB9
:104CE000A888D5F80C90D4F804A00028BAD10246C0
:104CF000E7E763689B1A112BCFD863689B1A112BC7
:104D0000F7D9CAE7D4F86435002B8CDAD4F86835C3
:104D1000002B88DAD4F86C35002B84DA019801F086
:104D2000D9FF00283FF47FAFAB88002B00F0D08084
:104D300000273B466D4E6E4900E01346EA68D25D9F
:104D400003F1010E12F0800F14BFB04688461FFA1F
:104D50008EFE12F0400F14BFB146894612F0200FAC
:104D600020F8138018BFB24620F81E9008BF8A466C
:104D700003F1020812F0100F03F1030E14BFB44642
:104D80008C461FFA88F812F0080F1FFA8EFE03F106
:104D900004091FFA89F914BFB3468B4612F0040FB9
:104DA00020F818A020F81EC014BFB2468A4603F1AE
:104DB000050812F0020F03F1060C03F1070E20F8AC
:104DC00019B01FFA8EFE14BFB14689461FFA88F843
:104DD00012F0010F1FFA8CFC14BF32460A4620F86D
:104DE00018A020F81C9020F81E200137B5F804E028
:104DF000BFB203F10802BE4592B29ED803F1090288
:104E00000A3392B29BB252005B0001994FF4004604
:104E100086524908C65200221423C4F80425304E95
:104E2000C4F80C25C4F80835C4F81425C4F81025B6
:104E3000C4F82005C4F82415C4F82825C4F82C2586
:104E4000EB7931681B01CE18C95C737803F01F033E
:104E500043EA41130121C4F86035C4F80015C4F8D1
:104E60001021A160D4F81031002BFBD000234FF0AB
:104E7000FF32C4F81031C4F80035C4F8602501F0E1
:104E800031FFFFF72FFE286107B0BDE8F08FD4F89F
:104E90006435002BBFF6BFAED4F86835002BBFF6E3
:104EA000BAAED4F86C35002BBFF6B5AE36E7D4F801
:104EB0006435002BBFF6A6AED4F86835002BBFF6DC
:104EC000A1AED4F86C35002BBFF69CAE26E7704738
:104ED0000423022299E700BFCC930D00C0930D007C
:104EE000C8E30320F0ED00E0001000E00D80FFFFBC
:104EF0000680FFFFF0B544889DF814508C4227D9F6
:104F0000047A44B112FB04F214FB03F314FB05F41E
:104F1000120A1B0A250A8779C66801EB4101082F8E
:104F200006EB010411D80120B84010F4D27F08D15B
:104F3000C0060AD5FF2A08BFFE2272546570A3700E
:104F4000F0BD73546270A570F0BD72546370A570AB
:104F5000F0BD8288C068002104F096B808B501F061
:104F60008DFC01F08BFC014B186008BDC8E30320E9
:104F700001F084BC01F082BC10B50446243000F07E
:104F80007BFE28B104F50C70BDE8104000F074BE43
:104F900010BD411E00F10A020020430843EAC01080
:104FA00011F8013F53FA80F08A42C0B2F5D1704740
:104FB0002DE9F0470378202B00F1010401D12046B0
:104FC000F8E7704F886005462C1A2E4615F8013B0D
:104FD0000BB32F2B01D1031917E05C2B02D100205A
:104FE000BDE8F087A3F12204E4B21D2C03D827FA10
:104FF00004F4E407F3D403F0BF043C2CEFD0203BCF
:105000005E2BE1D9EBE72F2D05D11E4613F8015B8E
:10501000202DF8D1F9E7166003199842C0EB030878
:1050200009D013F8012D2E2AF7D0202AF5D0B8F197
:10503000FF0FD4DC01E04FF00008C1F8048001F15B
:105040000C0301F11702202403F8014F9342FBD116
:1050500003461A1A13F8014B2E2CFAD0202CF8D044
:10506000B2FA82F4640908F1FF36731C07D10027F5
:105070004FF0070E3D46BA464FF0080909E0835D40
:105080002E2BF4D0013EF0E7835C202B04D10024CA
:1050900001324245F8DB4BE02E2B02D1B242F6D171
:1050A00003E0222B17D07C2B15D0A3F12A0CBCF1E6
:1050B000050F01D82D2B0ED1A3F13A0CBCF1050F31
:1050C00009D9A3F15B0CBCF1020F04D9A3F1210CA7
:1050D000BCF15D0F02D9B2420ED149E0B24247D0D5
:1050E000754521D8A3F1610CBCF1190F08D8203BFC
:1050F000DBB249EA07070AE0754515D800245F23AB
:10510000A3F1410CBCF1190F98BF49EA0A0A05F155
:10511000010C5FFA8CFC0D44BCF1060F6B7301D8D7
:1051200081F80CC06546B3E7BEF10A0F17D1002421
:105130004B7B202B3FF453AF3CB11AEA070F18BF4B
:1051400002270F700120BDE8F0870B7B012008705B
:1051500019447E234B7331238B73BDE8F087B24231
:10516000E5DC32464FF00A0E08254FF010098EE7B5
:10517000BEF10A0FDBD032464FF00A0E08254FF081
:10518000100985E7010100312DE9F84391F80C90F1
:1051900006460D4602247E2701F10D086968AA68BB
:1051A00063189BB21144914206D012F8010B03EB35
:1051B000431343409BB2F6E7B9F1030F28BF4FF00A
:1051C000030909F10402D2B203F00F01A818013A51
:1051D0000929D2B294BF30313731914541734FEA3A
:1051E0001313F1D305EB090300215F73304600F080
:1051F0001EFB0121304600F0FDFA014628B9707807
:10520000B0FA80F04009BDE8F88303784BB1C37A67
:105210001B07EED40B22404603F01CFF0028E8D108
:1052200002E00120BDE8F8830134A4B2642CB5D1BA
:10523000BDE8F8832DE9F04F9B460B7889B013F059
:10524000700F05900E46914601D10020A0E1059B0C
:105250001B78002BF9D15368029313789B0700F059
:105260008D81029B0D270C33B3FBF7F70137FFB29B
:105270000021304600F0DBFA4FF0000809F10D0282
:10528000CDF80C80434644464546CDF81080069242
:105290007269079301213046C2F34F1A00F0AAFA4F
:1052A000079B20B97378002B00F09080CDE702783F
:1052B000E52A00D042B9002C08BFD046BC423CBF12
:1052C0000134E4B222B981E0BC4238BF002403E0DB
:1052D000E52A01D10025DBE72E2AFBD0C17A0F2970
:1052E00052D13DB95106D3D5437B039302F01F053C
:1052F0002B4607E0013BDBB29A42EBD1427B03999C
:105300009142E7D15A1E4FF00D0C0CFB02FC029AA1
:105310006245DFD94FF0000EBEF1040F5FFA8EF246
:1053200004D800EB4E02B2F801200CE00A2A95BF27
:105330000EF1FF320EF1010200EB420200EB4202DD
:1053400094BFD28892880299614503D1002A18BF80
:1053500000259DE7FF2ABDD8D2B2A2F1410119294B
:10536000D9F8081011F80C1098BF20320CF1010A7E
:10537000A1F1410C98BFD2B2BCF1190F9CBF2031F2
:10538000C9B29142A6D1FBE00907A3D44DB1012BCC
:105390007FF45BAFFFF7FDFD039B83427FF455AFC6
:1053A0000FE00B220699079303F054FE079B002899
:1053B0007FF46EAF99F80020D20702D50122049243
:1053C00066E71BF4006F00F0D1803EE71BF4007F1E
:1053D0003FF43BAF0BF00303013B012B3FF635AF2E
:1053E000002C08BFD046BC4202D3049BCBB91FE0BF
:1053F0000021304600F0FEF910B973785BB124E764
:105400000134E4B2EFE7B3681B79012BEDD8103417
:10541000E4B2A742E9D9304600F0D2F80028F2D130
:1054200013E749463046FFF7AFFE00283FF40DAFC3
:105430004FEA4811304600F0FAF900283FF405AF72
:105440007D1EEDB22C464FF0000A4FF00F0841E0F0
:105450000021304600F0CEF9074600283FF4F5AEB3
:10546000B26892F82430AC4243F0010382F8243051
:105470000CBF44F040022246027080F80B8080F896
:105480000CA009F10D000392FFF783FD039A7873D6
:1054900087F81AA087F81BA002F01F020D23013A1B
:1054A000D9F808E05A4300230299914215D91EF811
:1054B0000210042B5FFA83FC03F1010013D807EB01
:1054C0004303A3F801100D2802F101020346EBD1BA
:1054D000013CE4B2002CBBD10EE014BF4FF0FF3111
:1054E000002189B2E5E7BCF10A0F94BF07EB430343
:1054F00007EB40039980E6E7736921463046C3F322
:105500004F1A00F077F9074600283FF49EAE20229C
:10551000214603F0B9FD4B4653F80D2F3A605A6807
:105520007A601A893A819B7ABB7299F8003003F04D
:1055300018033B73184B1B682BB107F10E0107F1E1
:105540001000984706E021233B7428237B7408232E
:10555000BC73FB733B8A7B823B83FB89FB82B26813
:1055600092F8243043F0010382F8243000955B4622
:1055700052463146059800F0A3F909E0012777E685
:105580000EF1010EBEF10D0F3FF482AED446C3E61C
:1055900009B0BDE8F08F00BFD0E3032001F06EB981
:1055A00001F06CB901F06AB901F068B9837801695A
:1055B00043F00403837000F11002806800F012BC15
:1055C0002DE9F041037803F02003044603F0FF05C2
:1055D0000BB100262EE04269184B9A42F9D8FFF72A
:1055E000E5FF06460028F4D02169A06800F08FFB93
:1055F0000746A06805223946243000F064FB804647
:105600000028E6D029464FF4007203F03DFD012545
:10561000A3681A79AA4209D94246E919186800F024
:10562000CFFE0028D5D00135EDB2F1E7636903EB79
:10563000422363613046BDE8F08100BFFFFD1F00DB
:1056400010B5044680680A462430A16900F03BFB8F
:1056500020B1A38803F00F0300EB431010BD70B519
:10566000047805460E4684B92422214603F00CFD39
:10567000AE60F379102B03D0202B06D1402300E03D
:10568000202301202B70A87070BD002070BD2DE973
:10569000F74F03780446894615464BB18278D10707
:1056A00006D50CE05A46216900F037FB00283DDAA8
:1056B000637843F0020363704FF0FF3097E01A07FE
:1056C00003D5E36962699B1A07E09A0608D5A368C7
:1056D0001A896369C3EB42139BB29D4228BF1D46E2
:1056E0002E464FF0000804F1100B002E35D0227822
:1056F0006369A06812F0200FC3F3080A4FEA532130
:1057000002D0036A19441DE090F8058001EA0808F8
:10571000BAF1000F10D1B8F1000F0DD1002BC1D19B
:1057200053064CBF036A236A236105E004D1237842
:1057300013F0700F11D1BBE72169A06800F0E7FA00
:1057400008EB0001A068BAF1000F35D1B6F5007F73
:1057500032D3C36A994202D12EE0A81B47E0B6F5C6
:10576000806F1BD3227897064FEA562A06D4027917
:10577000C8EB0202D2B2924528BF924699424FEA44
:105780004A2707D2A06853464A46006800F0D6FD73
:1057900060B98DE75344994221D3F3E74A46006844
:1057A00000F084FD002883D04FF4007763693B4408
:1057B000B9446361F61B98E70022243000F083FAB5
:1057C00000283FF475AFCAF50077B74228BF3746C7
:1057D00000EB0A013A46484603F04BFCE6E724306A
:1057E000019100F049FA01990028CBD160E703B09C
:1057F000BDE8F08F37B54369C3F34315044605B1DF
:1058000069B901220DF107012046FFF740FF40B2C0
:10581000012801D0002008E063691F3300E0203335
:10582000A0686361303000EB451003B030BD2DE956
:10583000F0410E46017807690446002939D04569D0
:10584000B5423AD00EB9066131E00B0703D5C36902
:105850009E422ED807E0880605D5A3681B89B6EBC3
:10586000431F26D823E0D4F808E09EF806306A1ECD
:1058700003F10900731EC240C3409A4200D84DB9DB
:105880004A064CBFDEF82020226A22611D4604F140
:1058900010080AE09B1AF9E742462169A06800F067
:1058A0003CFA002805F1FF3503DD002DF4D16661D7
:1058B00003E027610020BDE8F0810120BDE8F08110
:1058C000F8B50F4615460021242204461E4603F073
:1058D000DBFBB868A06005F00F02A58000F1300185
:1058E00052013B6AE3601144CB7A1D074CD4831804
:1058F00093F83B3003F017032370C97A11F0180FA7
:1059000004BF43F0080323709DF81830E37006F0DD
:105910000303012B09D0022B05D0002B34D17105D4
:1059200032D4012302E0032300E00223A370A17814
:105930008B0703D5237813F0110F25D14BB216F442
:10594000005F06F0080114BF6FF07F0700271943BE
:105950003943A170C36AA36102447505B2F84410CB
:10596000B2F84A3043EA014104D581B100F075FA3A
:1059700068B909E02162D36CE36173040CD5E16975
:105980002046FFF754FF38B900202070F8BDA378F7
:1059900043F00403A370F0E70120F8BD38B50378A5
:1059A00004460BB9012038BD83785A0723D501215D
:1059B000FFF746FE054628B9637843F0010363709C
:1059C000002038BD0378E52BF6D023781B0744BFB1
:1059D000E369C361238C4383638C8382094B1B6817
:1059E0002BB100F11601183098472B8B6B82A378EE
:1059F00023F00403A370A068FFF7BEFA0028DBD0F1
:105A0000D0E700BFD0E3032010B50446FFF7C6FF80
:105A10000023237010BDF0B593B01F4600238DF80E
:105A200024308DF825300378019206460C460BB1E0
:105A300000203DE00B7813F0700FF9D013782F2B76
:105A400012D1019B1A782F2A02D101330193F8E772
:105A5000A1681AB93046FFF702FE29E009A8FFF74E
:105A6000FEFD0028E4D009AC01AA03A90198FFF7C4
:105A70009FFA0028DCD0019B1B789BB1002303AA6E
:105A800021463046FFF7D6FB0028D1D035460FCD52
:105A900009AC0FC40FCD0FC42B6823603046FFF74D
:105AA000B3FFE0E73B4603AA21463046FFF7C2FBBF
:105AB00013B0F0BD2DE9F047037889461907044675
:105AC000904608D583789A0705D51B070BD5E16961
:105AD000FFF7ADFE38B9637843F0010363704FF010
:105AE000FF30BDE8F0876369DB439845F3D846464D
:105AF0004FF0000A6369002E00F08180A0684279AF
:105B000012EA5325C3F308071CD1DFB9216971B12B
:105B100004F1100200F001F90028DCDB40F08E8077
:105B20002046FFF743FD002840F08880D3E7236A32
:105B30003BB92046FFF73AFD0028CCD02369236209
:105B400000E023612169A06800F0E1F8291817B985
:105B5000B6F5007F21D2C7F50075B54228BF35469E
:105B600037B96369E269934234BF0122052200E03C
:105B70000122A068243000F0A6F80028ABD03844F9
:105B80002A4649462F4403F074FAB7F5007F30D116
:105B9000A068243000F070F817E0B6F5806FA068B8
:105BA00015D30279521B730AD2B2934228BF13460F
:105BB000C26A91424FEA432502D31A44914237D335
:105BC000A7684A46386800F06DFC90B983E7C36A5D
:105BD000994202BF4FF0FF3380F824A0C362A3684C
:105BE0004A46186800F0ECFB00283FF474AF4FF40D
:105BF000007563692B446361A944761B7AE7E26907
:105C0000934201D9E36102E00F4B1B681BB1A378FB
:105C100043F00403A37094F90230002B02DB4046EA
:105C2000BDE8F0872046FFF7B9FE0028F7D152E71C
:105C30004FF0FF3280F824A0C262C1E72169A0685A
:105C400000F065F8014683E7D0E3032000F016BEBC
:105C500070B505460C46084649B103F060FA2B685A
:105C6000024621462846DB68BDE87040184770BDF3
:105C700000F004BE00F002BE70B50378DA070446F7
:105C80001ED54368816800F10C063246186800F0A2
:105C900097FB054608B9002513E023789B0704D439
:105CA000237823F0010323700BE06368A06819696F
:105CB00032460144186800F083FB0028F0D1EAE77F
:105CC0000125284670BD70B583688B4204460E4698
:105CD000154614D0FFF7D0FF08B9002070BD6B0740
:105CE00003D500232370A66009E0636804F10C0269
:105CF0003146186800F0DAFA0028F2D1EDE723788F
:105D0000204605F003051D4300F80C5B70BD837948
:105D100040690239994008447047012970B5054629
:105D20000C46164602D84FF0FF3070BDC369994249
:105D3000F9D8C379202B10D18169022201EBD4114B
:105D400000F50C70FFF7BFFF0028ECD004F07F04D3
:105D500050F8243023F070430FE0102BE3D1836917
:105D6000C1F307210222194400F50C70FFF7ABFFC5
:105D70000028D8D0E4B230F81430EA6993429ABFD0
:105D800033600120002070BD012938B50C4615464E
:105D900001D8002038BDC3699942FAD8C379202BB5
:105DA0000ED18169032201EBD41100F50C70FFF7CD
:105DB0008AFF0028EDD004F07F0440F824500FE063
:105DC000102BE6D18369C1F307210322194400F5A2
:105DD0000C70FFF778FF0028DBD0E4B220F81450F5
:105DE000012038BD2DE9F341C4688C4205460E46BA
:105DF000904607D20C460027EB6901349C4203D938
:105E0000CFB9EC680127F7E7A64214D001AA2146D2
:105E10002846FFF782FF00280DDBEDD0019B002B09
:105E2000EAD107B1EC606FF0704221462846FFF7D7
:105E3000ABFF074608B900270BE016B9C8F80040C9
:105E400007E0224631462846FFF79EFF0028F5D19D
:105E5000F1E7384602B0BDE8F08173B505460C465F
:105E600001AA21462846FFF758FF061E01DA002046
:105E70000FE0002221462846FFF786FF0028F6D0D3
:105E8000EB689C429CBF04F1FF34EC60019C002E47
:105E9000E6D102B070BD70B5012304460022C36094
:105EA0004FF0FF33C2710D46A06280F82420C36218
:105EB000C4F8340280F83022C0F83832A1B1042985
:105EC0005DD811462430FFF7FEFE002857D000EBC6
:105ED000051393F8AE315B0651D11B3500EB051568
:105EE000D5F80650002D4AD00022294604F124009E
:105EF000FFF7E9FE002842D0B0F80B30B3F5007F81
:105F00003DD1037C022B3AD1C389002B37D0417B92
:105F100021714B1E63710023A371092601238B425B
:105F200007D0013E2BD0A2795B000132DBB2A27117
:105F3000F5E7C28A02B9426A2261C6892E44A66187
:105F4000B0F81130238106EB42012162B0F8112034
:105F5000520102F2FF1201EB62226261B0F81330CB
:105F600003B9036AAD1A2B44A57923FA05F56B1C16
:105F7000E36140F6F4739D4203D80C23E3710020E3
:105F800070BD4FF6F4739D4285BFC36A2362102330
:105F90002023E371012070BD00F070BC00F06EBCE6
:105FA00000F06CBC70B50E4C0E46154600F0F6FCC9
:105FB0002368C01A0B4B984208D900F0F7FC0A4B33
:105FC000186000F067FE00F0E9FC206000F0EEFCD5
:105FD00080B2801BA842D4BF0020012070BD00BF4A
:105FE000D4E30320A086010030E7032038B5057A0A
:105FF00004464DB9406800F07DFA63682946187D73
:1060000002F02BF80123237238BD10B5037A044641
:106010006BB143680121187D02F01FF8FF21606811
:1060200000F09AFA606800F079FA0023237210BD3C
:10603000F8B504460D46164600F0B8FC87B2606815
:1060400000F06FFAFF28607209D14FF47A72394676
:106050002046FFF7A7FF0028F1D055230BE0FE28CC
:1060600001D0502307E032462946606800F05EFA0E
:10607000607230B1602320462370FFF7C6FF002016
:10608000F8BD606800F04DFA606800F04AFA01203F
:10609000F8BD70B504460E4600F088FC85B2324665
:1060A00029462046FFF77EFF30B9606800F039FAD4
:1060B000FF28F4D1012070BD002070BDF7B5037A30
:1060C000019204460D460BB9FFF790FF25B14FF43E
:1060D00096712046FFF7DDFF45F04001606800F053
:1060E0003BFA0DF107060DF1030716F80119606878
:1060F00000F032FABE42F8D1002D0CBF9521872165
:10610000606800F029FA606800F00BFA0B256068FF
:1061100000F007FA0306607203D5013D15F0FF0594
:10612000F5D103B0F0BD70B504460D4616463721D3
:106130000022FFF7C3FF324629462046BDE87040E3
:10614000FFF7BCBF2DE9F04100250572057085728F
:106150004160044690461E4600F028FC4146074632
:10616000606800F0CBF963684F4A1D724FF0010878
:10617000DA605D7483F810802046FFF737FF6368AC
:106180004146187D01F069FF0A25FF216068013D45
:1061900000F0E2F915F0FF05F7D163682946187D94
:1061A00001F05BFF0A25002211462046FFF786FF1B
:1061B0000128804612D0013D15F0FF0501D12023B2
:1061C00057E0FD21606800F0C7F94FF4027860687D
:1061D00000F0A7F9B8F10108F9D1E4E74FF4D5725E
:1061E00008212046FFF76AFF052802D184F80A80BB
:1061F0000FE00425606800F094F9013D15F0FF05FB
:106200006072F7D1AA2802D10223A37201E02523EC
:106210002FE0A37A022B0CBF4FF080450025BFB2C0
:106220002A4629212046FFF77EFF024648B14FF457
:10623000FA6239462046FFF7B5FE0028F0D0432326
:1062400017E0A37A022B0ED02046FFF7DEFE63682C
:10625000B0683479317B727B5A74D8601C721974BF
:106260000120BDE8F0813A212046FFF727FF38B131
:10627000372320462370FFF7C8FE0020BDE8F081D9
:10628000606800F04EF900F0C000C02804BF03238E
:10629000A372606800F045F9606800F042F9606838
:1062A00000F03FF9D0E700BF90D0030038B5837A03
:1062B000032B18BF490215460A4611210446FFF771
:1062C000FDFE10B1302323700BE029464FF400721D
:1062D0002046FFF7ADFE054618B12046FFF795FEB4
:1062E00003E02046FFF791FE0025284638BD10B593
:1062F000837A032B0A4618BF4A0212210446FFF78D
:10630000DDFE30B1312320462370FFF77EFE0020F2
:1063100010BD012010BD10B500220C210446FFF76E
:10632000CDFE30B1282320462370FFF76EFE0020FB
:1063300010BD2046FFF769FE012010BDF8B50546E7
:1063400016461F46FFF7D3FF98B10024A3B29F4221
:1063500006EB442108D94FF400722846FFF768FE87
:1063600001340028F2D104E02846BDE8F840FFF7E8
:10637000D2BF0020F8BD38B504461546406800F08D
:10638000EBF84FF400722946606800F0E9F8FF214D
:10639000606800F0E1F8FF21606800F0DDF86068F7
:1063A00000F0BFF8607200F01F00052806D05723E8
:1063B00020462370FFF729FE002038BD012038BD9C
:1063C00070B5837A032B18BF490215460A46182177
:1063D0000446FFF773FE064608B132231DE02A4645
:1063E000FE212046FFF7C7FFC0B14FF4FA612046F7
:1063F000FFF74FFE054608B95A230EE032460D213D
:106400002046FFF75BFE38B9606800F08AF818B9DB
:106410002046FFF7FAFD05E0292323702046FFF709
:10642000F4FD0025284670BD38B50D464FF4FA61DD
:106430000446FFF72EFE10B95B23237005E02A46C1
:10644000FC212046FFF797FF18B92046FFF7DDFD36
:10645000002038BD10B5837A032B0A4618BF4A02C4
:1064600019210446FFF72AFE30B13323204623705A
:10647000FFF7CBFD002010BD012010BD38B54FF453
:10648000FA610446FFF705FE054620B1FD2160686C
:1064900000F062F801E0562323702046FFF7B5FDB7
:1064A000284638BDF8B5054616461F46FFF7D2FF09
:1064B00070B10024BC4206EB4421284604D0FFF70B
:1064C000B3FF28B10134F5E7BDE8F840FFF7D6BFC8
:1064D0002846FFF79AFD0020F8BD00F0CFB900F084
:1064E000CDB900F0CBB90000014B01221A70704702
:1064F000D8E30320011D006800F094BC10B50446E9
:106500000175006800F064FC207D012101F094FD1C
:10651000207D0121BDE8104001F09FBD006800F022
:1065200068BCFF21006800F0EDBC000037B5084BE7
:1065300000930025074C0068257013460A4629463B
:1065400000F0E6FC2378002BFCD0002003B030BD27
:10655000E9640D00D8E30320006800F0D3BC00001C
:1065600037B5074B00930025064C0068257013468D
:106570002A4600F0CDFC2378002BFCD003B030BDC0
:10658000E9640D00D8E3032000F078B910B5054B9D
:106590000360037C04461BB9406808B100F0A2FB0D
:1065A000204610BDE8930D0010B50446FFF7EEFF3E
:1065B0002046142101F0D0FD204610BD10B5034B3C
:1065C00003600446FFF7E2FF204610BDF8930D007C
:1065D00010B50446FFF7F2FF2046302101F0BCFD64
:1065E000204610BD00230122C3604361027643763A
:1065F00080F82A3070470000002310B5C3600123E3
:106600000374054B03604FF0FF3341608260C36247
:10661000FFF7E8FF10BD00BFF8930D00C368826864
:1066200010B593423FBF42685C1CC460D15424BF84
:10663000012380F82A3010BD10B54369044643B1E8
:1066400000EB4303597E09B1FFF7E8FF6369013BA3
:106650006361A368E068616898424FF000022ABF56
:106660005B180A5403F8012C10BD70B50446C068CD
:10667000A56866682D1A134630440A46294600F07C
:1066800039FB85422DBFE368A368E360C01836BFBD
:106690000123E06084F82A3070BD0EB403B503AA6C
:1066A00052F8041B0192FFF7E0FF02B05DF804EB23
:1066B00003B070472DE9F04104460E46174612B16B
:1066C0002221FFF7ABFF0025715D06EB05080029CD
:1066D00071D0E268A3689A426DD20B0633D501F0FF
:1066E000F003E02B17D198F8013003F0C002802AA4
:1066F00011D105F1020816F8082002F0C000802828
:1067000009D102F03F029B0142EA013203F47C63AB
:106710001A4392B211E001F0E003C02B46D105F11B
:10672000010816F8083003F0C002802A3ED1890122
:1067300001F4F86203F03F031A4323492046FFF7B0
:10674000ACFF454635E00C2918D00BD8092921D0DB
:106750000A2919D0082929D15C212046FFF75EFFBC
:10676000622123E022291BD05C2919D00D291DD1DB
:106770005C212046FFF752FF722117E05C21204682
:10678000FFF74CFF662111E05C212046FFF746FF32
:106790006E210BE05C212046FFF740FF742105E0ED
:1067A0005C212046FFF73AFF98F800102046FFF7DB
:1067B00035FF013588E72FB120462221BDE8F041A1
:1067C000FFF72CBFBDE8F0810C940D00426900EB8F
:1067D00042031A7E12B100221A7670472C21FFF76D
:1067E0001DBFF8B543690133082B0E4617460ED876
:1067F000FFF7ECFF43695A1C00EB4303012442619D
:1068000031469C76DF76FFF709FF2046F8BD002071
:10681000F8BD000037B5044610EE100AE56A002DF9
:106820000ADB02F08DF82A46CDE90001084920462E
:10683000FFF733FF03B030BD02F082F80B46054985
:106840000246204603B0BDE83040FFF726BF00BF38
:106850001E940D0023940D0000F010B808B5024BF3
:106860001B689B68019308BD6802030008B5024BD2
:106870001B68DB68019308BD6802030008B5024B82
:106880001B681B68019308BD2C02030008B5024B6E
:106890001B685B68019308BD2C02030008B5024B1E
:1068A0001B689B68019308BD2C02030008B5024BCE
:1068B0001B68DB68019308BD2C02030008B5024B7E
:1068C0001B681B69019308BD2C02030008B5024B2D
:1068D0001B681B6B019308BD2C02030008B5024B1B
:1068E0001B681B68019308BD3002030008B5024B0A
:1068F0001B685B69019308BD3002030008B5024BB9
:106900001B68DB69019308BD3002030008B5024B28
:106910001B681B6A019308BD3002030008B5024BD7
:106920001B685B6A019308BD3002030008B5024B87
:106930001B689B6A019308BD3002030008B5024B37
:106940001B689B6B019308BD3002030008B5024B26
:106950001B68DB6B019308BD3002030008B5024BD6
:106960001B681B6C019308BD3002030008B5024B85
:106970001B685B6C019308BD3002030008B5024B35
:106980001B685B68019308BD1802030008B5024B41
:106990001B68DB68019308BD1802030008B5024BB1
:1069A0001B681B69019308BD1802030008B5024B60
:1069B0001B685B69019308BD1802030008B5024B10
:1069C0001B689B68019308BD4802030008B5024B91
:1069D0001B68DB68019308BD4802030008B5024B41
:1069E0001B681B69019308BD4802030008B5024BF0
:1069F0001B685B69019308BD4802030008B5024BA0
:106A00001B685B6C019308BD4802030008B5024B8C
:106A10001B689B6C019308BD4802030008B5024B3C
:106A20001B685B69019308BD6402030008B5024B53
:106A30001B681B68019308BD3C02030008B5024BAC
:106A40001B68DB68019308BD3C02030008B5024BDC
:106A50001B681B69019308BD3C02030008B5024B8B
:106A60001B685B69019308BD3C02030008B5024B3B
:106A70001B689B69019308BD3C02030008B5024BEB
:106A80001B68DB69019308BD3C02030008B5024B9B
:106A90001B681B6A019308BD3C02030008B5024B4A
:106AA0001B689B6A019308BD3C02030008B5024BBA
:106AB0001B681B6A019308BD2802030008B5024B3E
:106AC0001B685B6A019308BD2802030008B5024BEE
:106AD0001B689B6A019308BD2802030008B5024B9E
:106AE0001B68DB6A019308BD2802030008B5024B4E
:106AF0001B681B6B019308BD2802030008B5024BFD
:106B00001B685B6B019308BD2802030008B5024BAC
:106B10001B681B6C019308BD2802030008B5024BDB
:106B20001B681B68019308BD4C02030008B5024BAB
:106B30001B685B68019308BD4C02030008B5024B5B
:106B40001B681B69019308BD4C02030008B5024B8A
:106B50001B685B69019308BD4C02030008B5024B3A
:106B60001B689B69019308BD4C02030008B5024BEA
:106B70001B68DB69019308BD4C02030008B5024B9A
:106B80001B681B6A019308BD4C02030008B5024B49
:106B90001B685B68019308BD2002030008B5024B27
:106BA0001B685B69019308BD2002030008B5024B16
:106BB0001B68DB6C019308BD2002030008B5024B83
:106BC0001B685B6D019308BD2002030008B5034BF1
:106BD0001B68D3F88830019308BD00002002030031
:106BE00008B5034B1B68D3F89430019308BD00002F
:106BF0002002030008B5024B1B685B68019308BDC7
:106C00004002030008B5024B1B689B68019308BD56
:106C10004002030008B5024B1B68DB68019308BD06
:106C20004002030008B5024B1B681B69019308BDB5
:106C30004002030008B5024B1B685B69019308BD65
:106C40004002030008B5024B1B689B69019308BD15
:106C50004002030008B5024B1B68DB69019308BDC5
:106C60004002030008B5024B1B681B6A019308BD74
:106C70004002030008B5024B1B681B6B019308BD63
:106C80004002030008B5024B1B685B6B019308BD13
:106C90004002030008B5024B1B689B68019308BDC6
:106CA0004402030008B5024B1B685B69019308BDF1
:106CB0004402030008B5024B1B681B6A019308BD20
:106CC0004402030008B5024B1B68DB6B019308BD4F
:106CD0004402030008B5024B1B681B68019308BD02
:106CE0001C02030008B5024B1B685B68019308BDDA
:106CF0001C02030008B5024B1B685B6A019308BDC8
:106D00001C02030008B5024B1B68DB6A019308BD37
:106D10001C02030008B5024B1B681B6B019308BDE6
:106D20001C02030008B5024B1B68DB6B019308BD16
:106D30001C020300002211464068FFF793BF0022A7
:106D400011464068FFF79EBF00224068FFF792BFE0
:106D5000002281F001014068FFF77CBF00231A4642
:106D600019464068FFF76EBF00231A46194640686F
:106D7000FFF760BF002211464068FFF753BF0022B3
:106D800011464068FFF73EBF002202214068FFF72E
:106D900041BF00231A464068FFF72CBF024B032275
:106DA0005A60024A1A607047DCE3032038940D00F1
:106DB0000021FFF7D3BD0021FFF7D8BD10B5044671
:106DC00001700846FFF79AFD00236360204610BD5E
:106DD00010B504460078FFF7EBFF48B920784FF66E
:106DE000FF71FFF77BFD2078BDE81040FFF7E3BFA0
:106DF00010BD0078FFF7DFBF400830B518600024F1
:106E000018688842E5B206D90134082C02D040083F
:106E10001860F5E70725024B5B5D137030BD00BFBE
:106E200064940D002DE9F04307468FB000780E46BC
:106E3000FFF7BEFF002862DB3C781422002109A87E
:106E400002F022F90B232046002209A9ADF82430D4
:106E5000FFF764FD9DF82D4054B19DF82C5035B9D5
:106E6000DDF830809DF834909DF8354003E0002433
:106E7000A146A0460125337905B1BBB99D420BD18E
:106E8000B268424508D18DF820908DF82140BDF8B8
:106E90002010B289914209D053B10024387801946E
:106EA0000094234622460121FFF750FD002026E0F2
:106EB0008DF80F30B1680A9804AB0DF10F02FFF79F
:106EC0009BFF317905B1B1B9A94208D000243878C7
:106ED0000194747B337B9DF80F200094E4E7B36842
:106EE0004345F3D38DF820908DF82140BDF8202044
:106EF000B3899A42EAD1049B4345E7D1D6E70FB064
:106F0000BDE8F08308B50078FFF7F0FCC0B208BD1B
:106F100030B587B004460A9D00780095FFF706FD5E
:106F20003DB902A92078FFF709FD9DF81430DB0771
:106F3000F7D407B030BD0078FFF7E8BC10B50446C1
:106F4000006818B1FFF7CEFE0023236010BD10B516
:106F50000446FFF7F3FF204610BD000010B5094CB2
:106F600000204FF6FF732060A080A0712081638114
:106F7000FFF70CFE2046044A0449BDE8104001F02A
:106F8000DDB800BFE4E303208CBE03204F6F0D008B
:106F900010B50446006808B1FFF738FD204610BD63
:106FA00010B5036804469B689847A368013BA3603B
:106FB0002BB923682046DB68BDE81040184710BD98
:106FC0000B68036013B15A6801325A60704710B5FC
:106FD0000446006828B14368013B43600BB9FFF7E2
:106FE000DFFF204610BD000010B5064C00232046F0
:106FF0002360FFF703FD2046034A0449BDE8104023
:1070000001F09CB8F0E303208CBE0320916F0D00CB
:10701000F8B506460D468F180024BD420CD03368E3
:1070200015F8011B9B6830469847002801DB044493
:10703000F3E7002C08BF04462046F8BD08B5FEF76C
:1070400007FE08BD03689B68184708B5FEF700FEF9
:1070500008BD38B50D210546FFF7F4FF0A210446A7
:107060002846FFF7EFFF204438BD38B50546FEF748
:10707000EFFD04462846FFF7ECFF204438BDFFF73C
:10708000F4BF30B58BB00B4600218DF82410012AD7
:1070900098BF0A220DF12304B3FBF2F505FB12336E
:1070A00003F0FF03092B94BF30333733DBB22146A3
:1070B00004F801392B46002DEED1FEF7C9FD0BB0C7
:1070C00030BD0CB42DE9F04387B000AF07F13804B0
:1070D000054654F8049B3C600E4623464A4614215C
:1070E000381DFFF707FE132805D8391D2846FEF77F
:1070F000AFFD044613E000F1080323F00703E84660
:10710000ADEB030D411C23464A4668463C60FFF741
:10711000F1FD69462846FEF79BFD0446C5461EB1B3
:107120002846FFF796FF044420461C37BD46BDE8BD
:10713000F04302B070470000014B024A1A607047EA
:10714000F4E30320DF940D00024B1A68024B1A602F
:10715000704700BF20BE0320F8E303202DE9F04F65
:107160002DED028BB0EE448AF0EE648A55EC114BA3
:1071700057EC126B83B011EE102A2B4612EE100A58
:1071800039468DED000B5BEC13AB01F095FE9DEDE8
:10719000000B38BB51EC100B22462B4601F070FA65
:1071A0005246804689465B4651EC180B01F068FA5E
:1071B00002460B464046494601F016FC22468046F0
:1071C00089462B463046394601F05AFA02460B46AC
:1071D0004046494601F032FD52465B4601F052FA04
:1071E00041EC100B03B0BDEC028BBDE8F08F002129
:1071F000FFF7D4BC10B58368044613B103220146DF
:107200009847204610BD10B50446FFF7F3FF20460F
:1072100010BD13B50B46044603C88DE8030093E880
:10722000030084E803009DE8030083E8030002B044
:1072300010BD00000348044A04490023836000F0A5
:107240007DBF00BFFCE303208CBE032007720D004E
:1072500008B50C4B33B100F01BFC03681B69984761
:10726000002809DC084B63B100F094FC03681B693B
:107270009847002803DC08BDAFF30080F2E7AFF3C6
:10728000008008BD000000000000000008B5FFF706
:10729000DFFFFFF78BFB014B186008BD30E70320D1
:1072A0000248034A0349121A01F0E3BE00F4032026
:1072B00004F40320C0970D0007B5002300931A467D
:1072C0006FF07701FFF78CFC03B05DF804FB000062
:1072D00007B543880A2B08D0502B09D1094B1B68EE
:1072E0003BB103B05DF804EB1847FFF7E5FF06E09C
:1072F000002300931A466FF07701FFF771FC03B08B
:107300005DF804FB0CE4032038B5104C104D2368E5
:10731000AB42104B0CBF012200221A7002D0FFF7C3
:10732000BFFF2560FFF72AFB044601F0B5FE0A4BBC
:1073300013B12046AFF3008000210748FFF7C2FCDD
:1073400000210648BDE83840FFF740BC00F40320A8
:107350001E1C279A10E4032000000000D1720D00CB
:1073600070470020704710B51021044600F0F4FE6D
:10737000204610BD08B508B1FFF7F5FF08BD002293
:10738000026010B54FF69C728280B1F9044084808F
:107390008A8002680C6804600A6010BD10B504465B
:1073A0000068FFF79FFC204610BD38B5C468F4B1F3
:1073B0002378022B03D104F10C00FFF7EFFF65687F
:1073C00035B12846FFF716FF1021284600F0C4FE0D
:1073D000A56835B12846FFF70DFF1021284600F0BB
:1073E000BBFE20461421BDE8384000F0B5BE38BDD4
:1073F00013B5044691E8050000234B600B60206044
:10740000626001A801930093FFF7E1FD204602B0FE
:1074100010BDF7B50C4602AD54F8043B45F8083DE5
:1074200006460F4601A82146FFF7CAFD2946304609
:10743000FFF7DEFF01A8FFF7CAFD2046FFF7C7FDF3
:107440003846082100F088FE304603B0F0BD000049
:1074500038B500230446036010200D46FCF71DFEDE
:1074600028B1012343608360024B0360C560206044
:10747000204638BD7C950D00826810B50AB900F031
:107480007EFEC368BDE81040184708B5006800F1EB
:107490001001FFF7F1FF08BD826810B50AB900F0CE
:1074A0006EFEC368BDE81040184708B5006800F1DB
:1074B0001001FFF7F1FF08BD38B5002383608B682A
:1074C00004460D462BB102229847EB68E360AB6897
:1074D000A360204638BD0000F0B589B00468684656
:1074E000FFF74DFF00238DF808304FF00202D4E87B
:1074F0004F3F002B03D1C4E8412F0029F7D102D020
:107500008DF8083063E014F10C0503D06946284675
:10751000FFF735FFBFF35F8F01236370002004F195
:107520000803BFF35F8F53E8006F43E80002002AAF
:10753000F9D1BFF35F8F002E49D0FFF737FB20B1A1
:1075400029463046FFF798FF3AE0314602A8FFF798
:10755000B3FFE068B4F9105008B101F0C5FD069022
:107560001020ADF81C50FCF798FD0546E8B1002747
:1075700087601820FCF791FD044688B101468760BA
:1075800002A8FFF746FE049BA268A360059B049235
:1075900006A9E268E36004F110000592FFF7EFFE30
:1075A0000D4BEB600D4B2C60AB6006A8FFF7F6FEB1
:1075B00002A8FFF71FFE002229460948FFF7FEFA3E
:1075C0003046FFF717FE1021304600F0C5FD684633
:1075D000FFF7E4FE09B0F0BD8B740D0001770D00DC
:1075E000E17B0D002DE9F04F8BB006460F4690462B
:1075F00099469DF850A0FFF755FB07AD834630BB79
:107600004FF62E73059005A92846ADF81830FFF700
:10761000B6FE1420FCF741FD044658B10223037066
:1076200001234370C0F804B0C0F808B029460C30FC
:10763000FFF7A5FE3046214640F8044BFFF708FF50
:107640002846FFF7ABFE05A8FFF7A8FE52E000248E
:107650000C2314206C60AC600793FCF71EFD014600
:1076600018B1047044704460846004A80391FFF76B
:10767000EFFE224B08930820FCF70FFD044628B1CB
:10768000039B40F8043B04A9FFF79AFC00955FFABE
:107690008AF34A46414638460994FFF70BFB20B966
:1076A000039B5B7803F0FF0283B1039B059304A95E
:1076B00006A8FFF785FC05A93046FFF799FE06A846
:1076C000FFF785FC04A8FFF782FC13E04FF69C73DC
:1076D00005A903A80592ADF81830FFF7FDFE05A82F
:1076E000FFF75CFE05A80999FFF793FE06A8FFF7D0
:1076F0006EFCDAE730460BB0BDE8F08F71780D0014
:10770000022AF8B5044606D0032A17D0012A22D14E
:107710000B6803601FE018200E68FCF7BEFC0546EE
:1077200050B13146FFF7C8FE3069B6F9147008B1A0
:1077300001F0DAFC2861AF8225600CE0046854B1E6
:1077400004F11000FFF72AFE2046FFF753FD182131
:10775000204600F001FD0020F8BD38B5002383600D
:107760008B6804460D462BB102229847EB68E36014
:10777000AB68A360204638BD022A70B5044606D027
:10778000032A11D0012A18D10B68036015E01420D8
:107790000E68FCF782FC054620B13146FFF7DDFF9D
:1077A000337C2B74256008E0046834B12046FFF771
:1077B00021FD1421204600F0CFFC002070BD000008
:1077C000F0B5002387B00C46BFF35F8F50E8006F21
:1077D00040E80032002AF9D1BFF35F8F002E3FD07E
:1077E0001846FFF7E3F9074620B121463046FFF778
:1077F00053FE2EE0314601A8FFF7AFFF23788DF846
:1078000014301020FCF749FC0546D0B187601420E5
:10781000FCF743FC044678B18760014601A8FFF7F6
:10782000F8FC039BA268A360049B0392E268E360F8
:107830009DF81430049223740A4BEB600A4B2C60C1
:10784000AB6001A8FFF7D6FC002229460748FFF7E6
:10785000B5F93046FFF7CEFC1021304600F07CFC35
:1078600007B0F0BDAB740D0079770D00E17B0D0022
:1078700030B585B004460D4668461146FFF7C9FD90
:107880007CB124B228460DB101F02EFC029002A971
:107890006846ADF80C40FFF71FFE02A8FFF77EFD1B
:1078A0001DE000988DF808404FF00102D0E84F3FEE
:1078B000A34203D1C0E8412F0029F7D102D08DF8AF
:1078C00008300CE010F10C014FF0010318BF0373F6
:1078D000BFF35F8F043000F8033CFFF771FF01A88E
:1078E000FFF775FB05B030BD704710B51821044691
:1078F00000F032FC204610BDF0B5037D062B8DB0A4
:107900000E4600F104074FF0000402D000F1080514
:1079100018E00CAD394605F8304D2F232A460A20D1
:10792000FFF77CF8284601F0FAFB33680246DB6873
:107930002946304698470FE024B12E213046FFF704
:1079400081FB044415F8011D0A223046FFF799FB1C
:10795000BD420444F0D120460DB0F0BD10B5054B3A
:107960000446112240F8043B002101F08DFB204623
:1079700010BD00BF98950D000346074A10B543F8A7
:10798000042B01F1100251F8044B43F8044B9142CF
:10799000F9D10A781A7010BD98950D0010B59DF8B0
:1079A000084044EA032343EA024242EA0161042315
:1079B0004160037510BD37B50D788B784A78C9786A
:1079C00000912946FFF7EAFF03B030BD41747047CC
:1079D000704708B50021007CFFF7C0F830EA2000AE
:1079E00028BF4FF0FF3008BD08B50121007CFFF72C
:1079F000B5F830EA200028BF4FF0FF3008BD08B5C9
:107A0000007CFFF7A3F820EAE07008BD08B5007C11
:107A1000FFF794F820EAE07008BD007CFFF7AEB8ED
:107A200010B51421044600F097FB204610BD38B570
:107A30000446007C0D46FFF789F8002801DC607CD5
:107A400028B12946207CFFF791F820EAE07038BD84
:107A500010B50446002363604FF47A73A360054BAE
:107A6000236001230846217463741146FFF756F81A
:107A7000204610BDAC950D000022007CFFF756B8E3
:107A800010B514220446002101F0FEFA204610BD74
:107A900030B50E4D87B001A8FFF7F2FF296811F04D
:107AA000010410D12846FCF7FEFA60B101AA214674
:107AB0000748FFF7CDFF2846FCF7FAFA054A0649C2
:107AC000034800F03BFB024807B030BD14E403203C
:107AD00018E403208CBE0320D1790D007047417457
:107AE000704708B5007CFEF7D9FF20EAE07008BDBA
:107AF00008B5007CFEF7AAFF20EAE07008BD08B5D3
:107B0000007CFEF7B3FF30EA200028BF4FF0FF30C3
:107B100008BD08B5007CFEF7A1FF30EA200028BFB1
:107B20004FF0FF3008BD007CFEF7A8BF10B5142150
:107B3000044600F011FB204610BD70B5457C04469C
:107B40000E4625B9007CFEF7A9FF002805DD314669
:107B5000207CBDE87040FEF771BF284670BD000074
:107B600010B5044608461146002262604FF47A724E
:107B7000A260054A22600122207462741A46FEF750
:107B800055FF204610BD00BFDC950D00007CFEF7C0
:107B90007DBF000038B50C4D296811F0010411D1EA
:107BA0002846FCF780FA68B1084A094B0948214683
:107BB000FFF7D6FF2846FCF77BFA074A0749054836
:107BC00000F0BCFA034838BDC4E40320C8E4032035
:107BD00040E403202CE403208CBE0320DD7A0D005A
:107BE00010B5836804460BB900F0C9FAC36898471A
:107BF000A3681BB103222146204698472046102146
:107C0000BDE8104000F0A8BA7047F8B50646154622
:107C10000C468F18BC4206D0336814F8011B9B68D1
:107C200030469847F6E72846F8BD0022007CFEF76C
:107C30003DBF0021007CFEF741BF0021007CFEF724
:107C400045BF0021007CFEF749BF0021007CFEF704
:107C50004DBF10B51421044600F07EFA204610BD39
:107C600010B50446002363604FF47A73A360044B9D
:107C70002174084623601146FEF748FF204610BDD8
:107C80000C960D000021007CFEF738BF0022114643
:107C90004068FEF7E7BF002211464068FEF7F2BFDA
:107CA00000224068FEF7E6BF002281F00101406833
:107CB000FEF7D0BF00231A4601214068FEF7C2BF7D
:107CC00000231A4619464068FEF7B4BF0022114649
:107CD0004068FEF7A7BF002211464068FEF792BF3A
:107CE000002202214068FEF795BF00231A46406833
:107CF000FEF780BF38B5054688B104684CB1A3686B
:107D00001BB103222146204698471021204600F04F
:107D100023FA28461421BDE8384000F01DBA38BDCA
:107D200010B103685B681847704710B503680446D4
:107D3000BBB15868FEF742FE78B923685A7C12B985
:107D40005868FEF74BFE23685868FEF74FFE206820
:107D50000023236028B1FFF7CDFF206808B1FFF7AB
:107D6000C9FF204610BD38B50446D0F8C40108B19B
:107D7000FCF797F9D4F8C00108B1FEF747FED4F834
:107D8000BC5135B12846FFF7D0FF0421284600F04A
:107D9000E3F9206808B1FFF7C3FF204638BD0000B3
:107DA00010B5044B044640F8083BFFF7DCFF2046C3
:107DB00010BD00BF34960D0038B50E4C0E4B23603D
:107DC0000025022304F5E4706360A560C4F8C45183
:107DD000C4F8C851FEF712FE084BC4F8CC5184F821
:107DE000D05123602046064A0649BDE8384000F0DD
:107DF000A5B900BF4CE503209C960D0034960D00FC
:107E00008CBE0320A17D0D00002211464068FEF7C4
:107E100009BF002211464068FEF724BF0022114628
:107E20004068FEF72FBF00224068FEF723BF002204
:107E300081F001014068FEF70DBF00231A46194684
:107E40004068FEF7FFBE00231A4619464068FEF759
:107E5000F1BE002211464068FEF7D4BE0022022186
:107E60004068FEF7D7BE00231A464068FEF7C2BE40
:107E7000024B04225A60024A1A60704720E703202E
:107E800068960D0000231A464068FEF7B3BE002234
:107E900002214068FEF7BEBE002211464068FEF790
:107EA000B1BE002211464068FEF7BCBE00231A4650
:107EB00019464068FEF7BEBE00231A4619464068C0
:107EC000FEF7C0BE002281F001014068FEF7C2BE8D
:107ED00000224068FEF7CEBE002211464068FEF741
:107EE000D1BE002211464068FEF7BCBE2DE9F0432A
:107EF000002495B016460D460746FFF72FFD214694
:107F000020220CA8009401F0BFF840230C932146D6
:107F10006B460CAA3046FEF7A9FC0446002844D163
:107F2000024601216868FEF77DFE02218046224656
:107F30006868FEF777FE009E81462146002E34D009
:107F4000002932D17368022B02D00A2B09D02AE013
:107F5000B8F1000F27D0716938460431FFF72BFDC7
:107F600020E0B9F1000F1ED07469112201A801F0C0
:107F70008BF806238DF8143001AD04F10803183492
:107F8000186859682A4603C20833A3421546F7D138
:107F900001A906A807ADFFF7EFFC0FCD3C1D0FC4EC
:107FA0002B6823700121F669C8E70098FEF756FC9C
:107FB000384615B0BDE8F083024B034A1A60002230
:107FC0005A60704728E703209C960D0070B5184E44
:107FD000316811F0010504460AD13046FCF763F818
:107FE00030B129461348FEF7E9FE3046FCF760F849
:107FF0001048FEF7A0FF28B1A4F10B03022B01D813
:10800000002070BD00F074F8FFF73CFE08B1012CB1
:10801000F6D9FFF7BFFDFFF7B9FD18B1A4F10903C9
:10802000012BEDD9232C8CBF0020012070BD00BF97
:1080300090BE032094BE0320232838B504460D4685
:108040000AD8FF2908D0FFF7C1FF28B129462046EA
:10805000BDE83840FEF722BC38BD38B504460D46B1
:10806000FEF724FCFF2810D0062804D84D2323FA5D
:1080700000F0C30709D42046FFF7A8FF28B129461E
:108080002046BDE83840FEF719BC38BD0D2810B5B4
:1080900004469CBF0E34A4B22046FFF797FF50B1B0
:1080A00003212046FEF7F2FB032804D12046BDE859
:1080B0001040FEF70BBC002010BD000070B5044658
:1080C00014252A46094E002100F0DEFF25802025D8
:1080D0003146A5602561284600F040F831466060D1
:1080E000284600F03BF8E060204670BDC8960D00C1
:1080F00030B50E4D296811F0010487B013D1284620
:10810000FBF7D1FF78B101A8FFF7D8FF01AA2146FC
:108110000748FFF7A5FD2846FBF7CAFF054A0649B1
:10812000034800F00BF8024807B030BD34E70320E5
:1081300038E703208CBE0320097C0D000B46014666
:10814000184600F079BF0000024B1868BFF35F8F3C
:10815000704700BF4CE70320FBF7A1BF00F000B859
:1081600010B5002814BF044601242046FEF7B2FDD6
:1081700020B9FFF7E9FF08B18047F6E710BD08B561
:10818000FEF7C0FD184B1A68D1075CBF01221A60C8
:10819000164B1A68D2075CBF01221A60144B1A688A
:1081A000D0075CBF01221A60124B1A68D1075CBF6E
:1081B00001221A60104B1A68D2075CBF01221A60B4
:1081C0000E4B1A68D0075CBF01221A600C4B1A686C
:1081D000D1075CBF01221A600A4B1A68D2075CBF44
:1081E00001221A60704700BF6CE7032068E7032094
:1081F00064E7032060E703205CE7032058E70320DF
:1082000054E7032050E70320244B1A68D0075CBFD3
:1082100001221A60224B1A68D1075CBF01221A6042
:10822000204B1A68D2075CBF01221A601E4B1A68E5
:10823000D0075CBF01221A601C4B1A68D1075CBFD3
:1082400001221A601A4B1A68D2075CBF01221A6019
:10825000184B1A68D0075CBF01221A60164B1A68C7
:10826000D1075CBF01221A60144B1A68D2075CBFA9
:1082700001221A60124B1A68D0075CBF01221A60F3
:10828000104B1A68D1075CBF01221A600E4B1A68A6
:10829000D2075CBF01221A60704700BF9CE7032031
:1082A00098E7032094E7032090E703208CE703205E
:1082B00088E7032084E7032080E703207CE703208E
:1082C00078E7032074E7032070E70320244B1A6843
:1082D000D0075CBF01221A60224B1A68D1075CBF2D
:1082E00001221A60204B1A68D2075CBF01221A6073
:1082F0001E4B1A68D0075CBF01221A601C4B1A681B
:10830000D1075CBF01221A601A4B1A68D2075CBF02
:1083100001221A60184B1A68D0075CBF01221A604C
:10832000164B1A68D1075CBF01221A60144B1A68F9
:10833000D2075CBF01221A60124B1A68D0075CBFDB
:1083400001221A60104B1A68D1075CBF01221A6023
:108350000E4B1A68D2075CBF01221A60704700BF3B
:10836000CCE70320C8E70320C4E70320C0E70320CD
:10837000BCE70320B8E70320B4E70320B0E70320FD
:10838000ACE70320A8E70320A4E70320A0E703202D
:10839000184B1A68D1075CBF01221A60164B1A6885
:1083A000D2075CBF01221A60144B1A68D0075CBF69
:1083B00001221A60124B1A68D1075CBF01221A60B1
:1083C000104B1A68D2075CBF01221A600E4B1A6864
:1083D000D0075CBF01221A600C4B1A68D1075CBF42
:1083E00001221A600A4B1A68D2075CBF01221A6088
:1083F000704700BFECE70320E8E70320E4E7032031
:10840000E0E70320DCE70320D8E70320D4E70320DC
:10841000D0E703202DE9F0432DED028B8BB055EC16
:10842000104B00F057F8294BB0EE408AF0EE608A0E
:1084300093F90060731C12D022462B462046294631
:1084400000F06CFD074650B94FF000084FF00009EE
:108450002046294642464B4600F038FD40B9B0EE72
:10846000480AF0EE680A0BB0BDEC028BBDE8F08361
:10847000174B08970122CDE90445CDE902458DE867
:108480000C00B6B142464B464046494600F0D6FB8A
:10849000022ECDE906010ED1FEF744FC2123036034
:1084A000089B73B99DED060B0BB0BDEC028BBDE8CC
:1084B000F083CDE90689684600F0DCF80028EFD1AA
:1084C000EAE7FEF72FFC089B0360EBE724BE0320DE
:1084D000CC960D002DE9F041654955EC104B0E4648
:1084E0002940B14200F09780002D2B4610EE102A53
:1084F00074DD2F157FD0A7F2FF37C3F31303F907FD
:1085000043F4801365D403EBD27100260B447F1033
:108510005200B64616204FF400110EEB01049C42A7
:108520004FEAD2754FEA420203DC1B1B04EB010E3B
:108530000E44013805EB43034FEA5101EDD1844667
:1085400020244FF0004109E020D003EBD275013C1C
:108550004FEA51012B444FEA420220D09E4501EBE5
:108560000C05F1DA002D05EB010C09DBF046954214
:10857000CEEB030300D9013B521B0844C646E4E797
:10858000BCF1000FF2DB0EF10108F0E795421ED8B6
:10859000002D05EB010C50DB98460023ECE713435C
:1085A00004D0421C4DD000F0010318444008711063
:1085B000F30701F17F5101F5001148BF40F0004081
:1085C00001EB0753024643EC102BBDE8F0817346E4
:1085D000BBE75B0003EBD273520094E725F0004148
:1085E000214328D0ADBB2F46D30A153F5205002B9F
:1085F000FAD0DD0228D4002100E001465B00DC0255
:1086000001F10100F9D5C0F1200422FA04F423435A
:108610007F1A82406FE710EE102A2B4610EE100AE8
:10862000294600F0E1F922462B4600F02BF841ECF8
:10863000100BBDE8F081BDE8F081BCF1000FA2DABB
:10864000AAE701362046B2E720244FF0FF31002090
:10865000DBE710EE102A2B462046294600F010F8E2
:1086600002460B4600F0EAFA41EC100BBDE8F0813F
:108670000000F07F0020704781F0004102E000BF61
:1086800083F0004330B54FEA41044FEA430594EAD2
:10869000050F08BF90EA020F1FBF54EA000C55EA0D
:1086A000020C7FEA645C7FEA655C00F0E2804FEADE
:1086B0005454D4EB5555B8BF6D420CDD2C4480EAC0
:1086C000020281EA030382EA000083EA010180EAF0
:1086D000020281EA0303362D88BF30BD11F0004F3E
:1086E0004FEA01314FF4801C4CEA113102D0404274
:1086F00061EB410113F0004F4FEA03334CEA1333AF
:1087000002D0524263EB430394EA050F00F0A780C6
:10871000A4F10104D5F1200E0DDB02FA0EFC22FAC1
:1087200005F2801841F1000103FA0EF2801843FAB5
:1087300005F359410EE0A5F120050EF1200E012AA6
:1087400003FA0EFC28BF4CF0020C43FA05F3C018E4
:1087500051EBE37101F0004507D54FF0000EDCF15D
:10876000000C7EEB00006EEB0101B1F5801F1BD306
:10877000B1F5001F0CD349085FEA30004FEA3C0C0A
:1087800004F101044FEA445212F5800F80F09A8000
:10879000BCF1004F08BF5FEA500C50F1000041EB04
:1087A000045141EA050130BD5FEA4C0C404141EB08
:1087B000010111F4801FA4F10104E9D191F0000F2F
:1087C00004BF01460020B1FA81F308BF2033A3F1B2
:1087D0000B03B3F120020CDA0C3208DD02F1140CA9
:1087E000C2F10C0201FA0CF021FA02F10CE002F1E4
:1087F0001402D8BFC2F1200C01FA02F120FA0CFCDD
:10880000DCBF41EA0C019040E41AA2BF01EB045125
:10881000294330BD6FEA04041F3C1CDA0C340EDC23
:1088200004F11404C4F1200220FA04F001FA02F366
:1088300040EA030021FA04F345EA030130BDC4F124
:108840000C04C4F1200220FA02F001FA04F340EA19
:108850000300294630BD21FA04F0294630BD94F0CA
:10886000000F83F4801306BF81F480110134013DB1
:108870004EE77FEA645C18BF7FEA655C29D094EA22
:10888000050F08BF90EA020F05D054EA000C04BFA0
:108890001946104630BD91EA030F1EBF002100208B
:1088A00030BD5FEA545C05D14000494128BF41F02A
:1088B000004130BD14F580043CBF01F5801130BD8E
:1088C00001F0004545F0FE4141F470014FF0000019
:1088D00030BD7FEA645C1ABF194610467FEA655CCA
:1088E0001CBF0B46024650EA013406BF52EA03356C
:1088F00091EA030F41F4002130BD00BF90F0000F5A
:1089000004BF0021704730B54FF4806404F1320495
:108910004FF000054FF0000150E700BF90F0000F4E
:1089200004BF0021704730B54FF4806404F1320475
:1089300010F0004548BF40424FF000013EE700BF45
:1089400042004FEAE2014FEA31014FEA02701FBFD5
:1089500012F07F4393F07F4F81F06051704792F0A7
:10896000000F14BF93F07F4F704730B54FF4607421
:1089700001F0004521F0004120E700BF50EA01026C
:1089800008BF704730B54FF000050AE050EA010219
:1089900008BF704730B511F0004502D5404261EB89
:1089A00041014FF4806404F132045FEA915C3FF4CA
:1089B000DCAE4FF003025FEADC0C18BF03325FEA63
:1089C000DC0C18BF033202EBDC02C2F1200300FA18
:1089D00003FC20FA02F001FA03FE40EA0E0021FA3D
:1089E00002F11444C1E600BF70B54FF0FF0C4CF427
:1089F000E06C1CEA11541DBF1CEA135594EA0C0FDD
:108A000095EA0C0F00F0DEF82C4481EA030621EA17
:108A10004C5123EA4C5350EA013518BF52EA033552
:108A200041F4801143F4801338D0A0FB02CE4FF004
:108A30000005E1FB02E506F00042E0FB03E54FF034
:108A40000006E1FB03569CF0000F18BF4EF0010E2C
:108A5000A4F1FF04B6F5007F64F5407404D25FEA28
:108A60004E0E6D4146EB060642EAC62141EA5551DB
:108A70004FEAC52040EA5E504FEACE2EB4F1FD0C1D
:108A800088BFBCF5E06F1ED8BEF1004F08BF5FEA9B
:108A9000500E50F1000041EB045170BD06F000464D
:108AA00046EA010140EA020081EA0301B4EB5C04FA
:108AB000C2BFD4EB0C0541EA045170BD41F48011F2
:108AC0004FF0000E013C00F3AB8014F1360FDEBF17
:108AD000002001F0004170BDC4F10004203C35DAF3
:108AE0000C341BDC04F11404C4F1200500FA05F376
:108AF00020FA04F001FA05F240EA020001F0004217
:108B000021F0004110EBD37021FA04F642EB06018C
:108B10005EEA430E08BF20EAD37070BDC4F10C04B6
:108B2000C4F1200500FA04F320FA05F001FA04F27A
:108B300040EA020001F0004110EBD37041F1000166
:108B40005EEA430E08BF20EAD37070BDC4F1200571
:108B500000FA05F24EEA020E20FA04F301FA05F2D9
:108B600043EA020321FA04F001F0004121FA04F281
:108B700020EA020000EBD3705EEA430E08BF20EA51
:108B8000D37070BD94F0000F0FD101F0004640008B
:108B900041EB010111F4801F08BF013CF7D041EA0D
:108BA000060195F0000F18BF704703F00046520011
:108BB00043EB030313F4801F08BF013DF7D043EAE2
:108BC0000603704794EA0C0F0CEA135518BF95EA98
:108BD0000C0F0CD050EA410618BF52EA4306D1D11F
:108BE00081EA030101F000414FF0000070BD50EA3E
:108BF000410606BF1046194652EA430619D094EAC8
:108C00000C0F02D150EA013613D195EA0C0F05D1B1
:108C100052EA03361CBF104619460AD181EA030105
:108C200001F0004141F0FE4141F470014FF00000BD
:108C300070BD41F0FE4141F4780170BD70B54FF058
:108C4000FF0C4CF4E06C1CEA11541DBF1CEA1355D8
:108C500094EA0C0F95EA0C0F00F0A7F8A4EB0504BA
:108C600081EA030E52EA03354FEA013100F08880B1
:108C70004FEA03334FF0805545EA131343EA12637A
:108C80004FEA022245EA111545EA10654FEA00262F
:108C90000EF000419D4208BF964244F1FD0404F5E8
:108CA000407402D25B084FEA3202B61A65EB030544
:108CB0005B084FEA32024FF480104FF4002CB6EB01
:108CC000020E75EB030E22BFB61A754640EA0C0081
:108CD0005B084FEA3202B6EB020E75EB030E22BFC1
:108CE000B61A754640EA5C005B084FEA3202B6EB02
:108CF000020E75EB030E22BFB61A754640EA9C00C1
:108D00005B084FEA3202B6EB020E75EB030E22BF90
:108D1000B61A754640EADC0055EA060E18D04FEA4E
:108D2000051545EA16754FEA06164FEAC30343EAEE
:108D300052734FEAC2025FEA1C1CC0D111F4801FBB
:108D40000BD141EA00014FF000004FF0004CB6E7B4
:108D500011F4801F04BF01430020B4F1FD0C88BF53
:108D6000BCF5E06F3FF6AFAEB5EB030C04BFB6EB5E
:108D7000020C5FEA500C50F1000041EB045170BD51
:108D80000EF0004E4EEA113114EB5C04C2BFD4EB7E
:108D90000C0541EA045170BD41F480114FF0000E02
:108DA000013C90E645EA060E8DE60CEA135594EA7E
:108DB0000C0F08BF95EA0C0F3FF43BAF94EA0C0F81
:108DC0000AD150EA01347FF434AF95EA0C0F7FF4F6
:108DD00025AF104619462CE795EA0C0F06D152EA4A
:108DE00003353FF4FDAE1046194622E750EA41062E
:108DF00018BF52EA43067FF4C5AE50EA41047FF43F
:108E00000DAF52EA43057FF4EBAE12E74FF0FF3CA3
:108E100006E000BF4FF0010C02E000BF4FF0010C74
:108E20004DF804CD4FEA410C7FEA6C5C4FEA430CED
:108E300018BF7FEA6C5C1BD001B050EA410C0CBF3C
:108E400052EA430C91EA030F02BF90EA020F00209E
:108E5000704710F1000F91EA030F58BF994208BF05
:108E600090422CBFD8176FEAE37040F001007047C2
:108E70004FEA410C7FEA6C5C02D150EA013C07D119
:108E80004FEA430C7FEA6C5CD6D152EA033CD3D064
:108E90005DF8040B704700BF8446104662468C465E
:108EA0001946634600E000BF01B5FFF7B7FF002891
:108EB00048BF10F1000F01BD4DF808EDFFF7F4FFBA
:108EC0000CBF012000205DF808FB00BF4DF808ED45
:108ED000FFF7EAFF34BF012000205DF808FB00BF68
:108EE0004DF808EDFFF7E0FF94BF012000205DF88A
:108EF00008FB00BF4DF808EDFFF7CEFF94BF01203F
:108F000000205DF808FB00BF4DF808EDFFF7C4FF37
:108F100034BF012000205DF808FB00BF4FEA410C80
:108F20007FEA6C5C02D150EA013C0AD14FEA430C63
:108F30007FEA6C5C02D152EA033C02D14FF00000A0
:108F400070474FF0010070474FEA410212F50012DE
:108F500015D211D56FF47873B3EB625212D94FEA80
:108F6000C12343F0004343EA505311F0004F23FA6A
:108F700002F018BF404270474FF00000704750EABF
:108F8000013005D111F0004008BF6FF0004070477C
:108F90004FF00000704700BF4FEA4102B2F1E043DA
:108FA00024BFB3F5001CDCF1FE5C0DD901F0004CD0
:108FB0004FEAC0024CEA5070B2F1004F40EB830020
:108FC00008BF20F00100704711F0804F21D113F14C
:108FD0003872BCBF01F00040704741F480114FEA85
:108FE0005252C2F11802C2F1200C10FA0CF320FA0E
:108FF00002F018BF40F001004FEAC1234FEAD3232B
:1090000003FA0CFC40EA0C0023FA02F34FEA430394
:10901000CCE77FEA625307D150EA01331EBF4FF01D
:10902000FE4040F44000704701F0004040F0FE4038
:1090300040F40000704700BF10B5054C13462CB13A
:109040000A4601460220AFF3008010BD204610BD45
:109050000000000010B501390244904207D010F81A
:10906000013B11F8014FA342F7D0181B10BD00209F
:1090700010BD10B5431E0A44914204D011F8014BB3
:1090800003F8014FF8E710BD02440346934202D0B3
:1090900003F8011BFAE7704738B5124B1C68A36B45
:1090A0000546D3B91820FDF715FE43F20E33A06331
:1090B00003804AF6CD33438041F2342383804EF25D
:1090C0006D63C3804DF6EC630381052343810B235D
:1090D000838101220023C0E90423A36B00221D61C8
:1090E0005A6138BD88BE0320024B0146186800F063
:1090F00003B800BF88BE032070B5064608460C467C
:1091000000F00DF8451C29463046FDF703FE0646E3
:1091100018B12A462146FFF7ACFF304670BD034622
:1091200013F8012B002AFBD1181A013870470000F0
:1091300021400D005D400D0089400D008D400D0067
:10914000000000000000000000000000B9400D0019
:109150000000000000000000B7400D0017410D00A6
:109160004F410D0011410D00000000000000000003
:1091700025410D0039410D0064656661756C7420F0
:10918000004D5342004C5342003C535049536574C8
:1091900074696E67732064656661756C743E003C2B
:1091A00053504953657474696E6773202573256C39
:1091B00075202573204D4F444525643E006D69633D
:1091C00031203D202569207C206D696332203D20BF
:1091D0002569207C206D696333203D202569207C32
:1091E0002054696D65203D2025690A007761697406
:1091F000696E6720666F7220736F756E64005431FC
:10920000203D202569207C205432203D20256920E6
:109210007C205433203D2025690A0043616E277469
:109220002061636365737320534420636172642E0D
:1092300020446F206E6F74207265666F726D61746A
:109240002E004E6F20636172642C2077726F6E6700
:1092500020636869702073656C6563742070696E43
:109260002C206F72205350492070726F626C656DB4
:109270003F005344206572726F72436F64653A20F9
:109280003058002C305800496E76616C6964206655
:109290006F726D61742C207265666F726D617420DF
:1092A00053442E0043616E2774206F70656E2072E8
:1092B0006F6F74206469726563746F72792E004EEB
:1092C0006F206572726F7220666F756E642E00413A
:1092D000203D2025302E3666207C2042203D202552
:1092E000302E36660A0054203D2025302E32660A84
:1092F0000058203D2025302E3266207C2059203D0C
:109300002025302E32660A0061203D2025302E3285
:1093100066207C2062203D2025302E3266207C2075
:1093200063203D2025302E32660A0053746172742A
:10933000696E672044617461204C6F6767696E676E
:10934000200A0043616E2774206372656174652092
:1093500066696C65206E616D650066696C652E6F6F
:1093600070656E004C6F6767696E6720746F3A2096
:109370002573200A0025302E3866202C2025302E1B
:1093800032660A00446F6E65200A00526561647996
:1093900020666F72206E6578742064617461206C41
:1093A0006F67200A004C6F6E6769747564004C61CA
:1093B000746974756465004E6F6973650000000020
:1093C00000C0014000100240002002402C010000BB
:1093D00018000000F40100002C0100005000000003
:1093E00000000000000000008D650D00A9650D0063
:1093F0000000000000000000BD650D00D1650D00FB
:10940000256400256C750025303478005C752530A6
:10941000345800747275650066616C736500252EA2
:109420002A6600256600252E2A6C6600256C6600DB
:109430000000000000000000936D0D00896D0D001C
:109440007F6D0D00756D0D00696D0D005D6D0D007A
:10945000516D0D00496D0D003F6D0D00356D0D0016
:10946000ED7E0D0000081018202830386261756408
:109470000053657269616C0053657269616C3100FB
:109480007479706500706172616D00636D6400696C
:109490006400686E64007374726D0066696C7400B9
:1094A0006C766C0061646448616E646C6572007215
:1094B000656D6F766548616E646C657200656E758A
:1094C0006D48616E646C657273004A534F4E5374FD
:1094D0007265616D4C6F6748616E646C65720061A6
:1094E000707000253031307520005D20002C200088
:1094F00028293A2000205B00636F6465203D20002E
:1095000025690064657461696C73203D20000D0A53
:10951000006C6E00666E00636F6465006465746164
:10952000696C006E6F6E6500747261636500696ED0
:10953000666F007761726E006572726F72007061A3
:109540006E696300616C6C005A00252B3033643AFD
:10955000253032750025592D256D2D25645425485B
:109560003A254D3A2553257A0061736374696D6518
:1095700000000000000000000000000061730D000A
:1095800067730D00AB730D0075730D0063730D00F1
:109590000000000000000000F9780D00E9780D00DF
:1095A000EB780D000000000000000000D1790D00F4
:1095B000217A0D002F7A0D0011700D000D7A0D002B
:1095C000D3790D00E9790D001B7A0D00FF790D00AC
:1095D000CD790D000000000000000000DD7A0D00D4
:1095E0002D7B0D003B7B0D0011700D00F17A0D00FD
:1095F000137B0D00FF7A0D00277B0D00DF7A0D0035
:10960000E37A0D000000000000000000097C0D005E
:10961000537C0D002B7C0D000B7C0D00337C0D006A
:109620003B7C0D00437C0D004B7C0D0000000000D6
:1096300000000000EB7C0D00E17C0D00D77C0D00EC
:10964000CD7C0D00C17C0D00B57C0D00A97C0D000A
:10965000A17C0D00977C0D008D7C0D00ED7E0D0032
:109660000000000000000000677E0D005D7E0D0020
:10967000537E0D00097E0D00477E0D003B7E0D00E0
:109680002F7E0D00277E0D001D7E0D00137E0D0028
:10969000ED7E0D000000000000000000857E0D0042
:1096A0008F7E0D00997E0D00A37E0D00AD7E0D0016
:1096B000B97E0D00C57E0D00D17E0D00D97E0D0056
:1096C000E37E0D00ED7E0D000000000073717274EA
:1096D000000000000000000000000000000000008A
:1096E000000000000000000000000000000000007A
:1096F000000000000000000000000000000000006A
:109700000000000000000000000000000000000059
:109710000000000000000000000000000000000049
:109720000000000000000000000000000000000039
:1097300000000000430000000D4A0D005D4F0D00C9
:10974000714F0D00754F0D009D550D00A1550D0079
:10975000A5550D00A9550D004D5C0D00715C0D0067
:10976000755C0D00995F0D009D5F0D00A15F0D0000
:10977000DB640D00DF640D00E3640D0089650D00FE
:1097800059680D009D6D0D005D6F0D00E96F0D00B6
:1097900039710D0049710D0035720D00B97D0D0054
:1097A000717E0D00B97F0D0085810D0009820D00CD
:1097B000CD820D0091830D0000000000000000002C
:0497C00000000000A5
:1097C4004461746130302E63737600000000000041
:1097D400130000001200000011000000740E0000CD
:1097E40069950D000100000000000000D4960D00F2
:1097F400F4960D0014970D00000000000000000016
:10980400000000000000000034970D00000000007C
:109814000000000000000000000000000000000044
:109824000000000000000000000000000000000034
:109834000000000000000000000000000000000024
:0C984400000000000000000028BE03200F
:10985000FFFFFFFF00000102030405060708090AD5
:109860000B0C0D0E0F101112131415161718191AD0
:089870001B1C1D1E1F20280017
:0498780078563412D8
:04000003D0004020C9
:00000001FF
