:02000002D0002C
:1040000000400D00F4640D00000006000C000501E6
:084010000401E80500000000B6
:044018003C600D00FB
:10401C0009480A49884208B505D0094A824202D0AB
:10402C00121A01F0C1FF0748074A0021121A01F0C9
:10403C00C6FF014808BD00BF88DE032054640D0094
:10404C0000DF032000DF0320F0E7032070B501F050
:10405C00F1F9074C074BE41AA40800251E46A542AB
:10406C0004D056F8253098470135F8E770BD00BFED
:10407C004C640D00D0630D0000F056B808B500F08C
:10408C00BBF8BDE8084001F097B900F079BF00F02B
:10409C0077BF0078B0FA80F04009704701230370B5
:1040AC007047704710B52C21044601F013FE2046D2
:1040BC0010BD083000F0AAB907B502AB012203F815
:1040CC00011D0830194600F0A1F903B05DF804FB9E
:1040DC007FB5024608461379956833B13DB90C4952
:1040EC0004B0BDE8704001F0ABB80A4B00E00A4BDD
:1040FC00167B0A4C0A49527B0292012E08BF2146BC
:10410C0001910095074A002101F0CDF804B070BD73
:10411C0085600D00CB610D0074600D007D600D009D
:10412C0081600D009B600D0008B501F083FA4FF41F
:10413C00165101F073FA084B0021188801F03AFD72
:10414C00064B0021188801F035FD054B002118881D
:10415C00BDE8084001F02EBD88DE03208CDE032074
:10416C0090DE032008B5094B188801F04DFD084B73
:10417C001860084B188801F047FD074B1860074B77
:10418C00188801F041FD064B186008BD88DE03203D
:10419C00C4E303208CDE0320C8E3032090DE03205D
:1041AC00C0E3032073B5FFF7DDFF0E4B0E4D1A680D
:1041BC000E4B0F4E196891421C4605DC2B689A4237
:1041CC0002DB33689A420ADA01F034FA336801935D
:1041DC002B6800932368074A002101F064F802B0B1
:1041EC0070BD00BF94DE0320C8E30320C4E30320AA
:1041FC00C0E30320B9600D00FFF7D4BF70B500F029
:10420C00CBFC1C4B1C4E642183F860141B49C3F877
:10421C007014012183F874143168002211F0010527
:10422C00DA7183F83C2483F83D2483F86A24C3F8BC
:10423C00782483F87C2483F87D241C460AD13046EC
:10424C00FFF727FF30B129460D4800F0EDFE304650
:10425C00FFF724FF0B480A4BC4F86C34002303729D
:10426C0043724360084B0360084A0949BDE870403B
:10427C0001F022BD3CDF032004DF032058600D0059
:10428C0008DF032010DF032064600D0000DF032033
:10429C00AF400D0008B500F07FFC00F07DFC014B39
:1042AC00186008BDCCE3032000F076BC00F074BCB1
:1042BC0010B50446243000F08BF928B104F50C70CD
:1042CC00BDE8104000F084B910BD00F065BC00F0F2
:1042DC0063BC00F061BC00F05FBC8378016943F003
:1042EC000403837000F11002806800F027BA10B547
:1042FC00044680680A462430A16900F090F920B188
:10430C00A38803F00F0300EB431010BD2DE9F0411F
:10431C000E46017807690446002939D04569B54233
:10432C003AD00EB9066131E00B0703D5C3699E4242
:10433C002ED807E0880605D5A3681B89B6EB431F6A
:10434C0026D823E0D4F808E09EF806306A1E03F164
:10435C000900731EC240C3409A4200D84DB94A06A8
:10436C004CBFDEF82020226A22611D4604F11008A1
:10437C000AE09B1AF9E742462169A06800F079F936
:10438C00002805F1FF3503DD002DF4D1666103E053
:10439C0027610020BDE8F0810120BDE8F08100001C
:1043AC0038B5037804460BB9012038BD83785A0719
:1043BC0023D50121FFF79BFF054628B9637843F00D
:1043CC0001036370002038BD0378E52BF6D0237809
:1043DC001B0744BFE369C361238C4383638C8382D3
:1043EC00094B1B682BB100F11601183098472B8B29
:1043FC006B82A37823F00403A370A068FFF758FF27
:10440C000028DBD0D0E700BFD0E303202DE9F04734
:10441C000378894619070446904608D583789A078D
:10442C0005D51B070BD5E169FFF770FF38B9637829
:10443C0043F0010363704FF0FF30BDE8F087636910
:10444C00DB439845F3D846464FF0000A6369002ECB
:10445C0000F08180A068427912EA5325C3F3080763
:10446C001CD1DFB9216971B104F1100200F001F91E
:10447C000028DCDB40F08E802046FFF72EFF002862
:10448C0040F08880D3E7236A3BB92046FFF725FF2D
:10449C000028CCD02369236200E023612169A06845
:1044AC0000F0E1F8291817B9B6F5007F21D2C7F54D
:1044BC000075B54228BF354637B96369E269934246
:1044CC0034BF0122052200E00122A068243000F054
:1044DC00A6F80028ABD038442A4649462F4401F0B0
:1044EC0063FDB7F5007F30D1A068243000F070F880
:1044FC0017E0B6F5806FA06815D30279521B730ACA
:10450C00D2B2934228BF1346C26A91424FEA432566
:10451C0002D31A44914237D3A7684A46386800F050
:10452C00C8FA90B983E7C36A994202BF4FF0FF33D0
:10453C0080F824A0C362A3684A46186800F047FAC2
:10454C0000283FF474AF4FF4007563692B4463612A
:10455C00A944761B7AE7E269934201D9E36102E050
:10456C000F4B1B681BB1A37843F00403A37094F9A1
:10457C000230002B02DB4046BDE8F0872046FFF7F7
:10458C000FFF0028F7D152E74FF0FF3280F824A03C
:10459C00C262C1E72169A06800F065F8014683E7B3
:1045AC00D0E3032000F0F8BA70B505460C46084677
:1045BC0049B101F035FD2B68024621462846DB68DF
:1045CC00BDE87040184770BD00F0E6BA00F0E4BAE0
:1045DC0070B50378DA0704461ED54368816800F18C
:1045EC000C063246186800F0F2F9054608B90025A9
:1045FC0013E023789B0704D4237823F00103237062
:10460C000BE06368A068196932460144186800F031
:10461C00DEF90028F0D1EAE70125284670BD70B517
:10462C0083688B4204460E46154614D0FFF7D0FF24
:10463C0008B9002070BD6B0703D500232370A6605A
:10464C0009E0636804F10C023146186800F079F94E
:10465C000028F2D1EDE72378204605F003051D4331
:10466C0000F80C5B70BD83794069023999400844AD
:10467C007047012970B505460C46164602D84FF016
:10468C00FF3070BDC3699942F9D8C379202B10D182
:10469C008169022201EBD41100F50C70FFF7BFFF0A
:1046AC000028ECD004F07F0450F8243023F0704341
:1046BC000FE0102BE3D18369C1F3072102221944C7
:1046CC0000F50C70FFF7ABFF0028D8D0E4B230F83F
:1046DC001430EA6993429ABF33600120002070BD08
:1046EC00012938B50C46154601D8002038BDC369E0
:1046FC009942FAD8C379202B0ED18169032201EBA0
:10470C00D41100F50C70FFF78AFF0028EDD004F0EF
:10471C007F0440F824500FE0102BE6D18369C1F3DD
:10472C0007210322194400F50C70FFF778FF0028CD
:10473C00DBD0E4B220F81450012038BD2DE9F34150
:10474C00C4688C4205460E46904607D20C4600279C
:10475C00EB6901349C4203D9CFB9EC680127F7E728
:10476C00A64214D001AA21462846FFF782FF002852
:10477C000DDBEDD0019B002BEAD107B1EC606FF0A3
:10478C00704221462846FFF7ABFF074608B90027C1
:10479C000BE016B9C8F8004007E02246314628461F
:1047AC00FFF79EFF0028F5D1F1E7384602B0BDE8CF
:1047BC00F08100F0F1B900F0EFB900F0EDB90000B4
:1047CC0070B50E4C0E46154600F066FA2368C01AFA
:1047DC000B4B984208D900F067FA0A4B186000F0AE
:1047EC00B7FB00F059FA206000F05EFA80B2801B33
:1047FC00A842D4BF0020012070BD00BFD4E3032029
:10480C00A086010030E7032038B5057A04464DB97F
:10481C00406800F075F963682946187D01F0DBF9F2
:10482C000123237238BD10B5037A04466BB143687B
:10483C000121187D01F0CFF9FF21606800F082F9A9
:10484C00606800F061F90023237210BDF8B50446CE
:10485C000D46164600F028FA87B2606800F057F94A
:10486C00FF28607209D14FF47A7239462046FFF75F
:10487C00A7FF0028F1D055230BE0FE2801D05023D0
:10488C0007E032462946606800F046F9607230B1A4
:10489C00602320462370FFF7C6FF0020F8BD606838
:1048AC0000F035F9606800F032F90120F8BD70B500
:1048BC0004460E4600F0F8F985B2324629462046E9
:1048CC00FFF77EFF30B9606800F021F9FF28F4D1C2
:1048DC00012070BD002070BDF7B5037A019204462B
:1048EC000D460BB9FFF790FF25B14FF4967120469A
:1048FC00FFF7DDFF45F04001606800F023F90DF192
:10490C0007060DF1030716F80119606800F01AF993
:10491C00BE42F8D1002D0CBF95218721606800F0B4
:10492C0011F9606800F0F3F80B25606800F0EFF8FF
:10493C000306607203D5013D15F0FF05F5D103B0F8
:10494C00F0BD38B5837A032B18BF490215460A46C9
:10495C0011210446FFF7C0FF10B1302323700BE088
:10496C0029464FF400722046FFF770FF054618B138
:10497C002046FFF758FF03E02046FFF754FF0025C1
:10498C00284638BD38B504461546406800F0DAF8BC
:10499C004FF400722946606800F0D8F8FF21606877
:1049AC0000F0D0F8FF21606800F0CCF8606800F0EF
:1049BC00AEF8607200F01F00052806D05723204681
:1049CC002370FFF730FF002038BD012038BD70B5D3
:1049DC00837A032B18BF490215460A461821044650
:1049EC00FFF77AFF064608B132231DE02A46FE2166
:1049FC002046FFF7C7FFC0B14FF4FA612046FFF71E
:104A0C0056FF054608B95A230EE032460D212046C2
:104A1C00FFF762FF38B9606800F079F818B92046E2
:104A2C00FFF701FF05E0292323702046FFF7FBFE6B
:104A3C000025284670BD38B50D464FF4FA61044682
:104A4C00FFF735FF10B95B23237005E02A46FC21E4
:104A5C002046FFF797FF18B92046FFF7E4FE002029
:104A6C0038BD10B5837A032B0A4618BF4A021921A8
:104A7C000446FFF731FF30B1332320462370FFF794
:104A8C00D2FE002010BD012010BD38B54FF4FA61E4
:104A9C000446FFF70CFF054620B1FD21606800F0CD
:104AAC0051F801E0562323702046FFF7BCFE284640
:104ABC0038BDF8B5054616461F46FFF7D2FF70B154
:104ACC000024BC4206EB4421284604D0FFF7B3FF78
:104ADC0028B10134F5E7BDE8F840FFF7D6BF28460A
:104AEC00FFF7A1FE0020F8BD00F056B800F054B856
:104AFC0000F052B8014B01221A707047D8E3032022
:104B0C00011D006800F0B4BA006800F097BAFF21EC
:104B1C00006800F01DBB000037B5084B0093002562
:104B2C00074C0068257013460A46294600F016FB10
:104B3C002378002BFCD0002003B030BD014B0D00BE
:104B4C00D8E30320006800F003BB000037B5074B27
:104B5C0000930025064C0068257013462A4600F089
:104B6C00FDFA2378002BFCD003B030BD014B0D00B7
:104B7C00D8E3032000F010B808B5024B1B689B6803
:104B8C00019308BD6802030008B5024B1B68DB6883
:104B9C00019308BD6802030008B5024B1B681B6833
:104BAC00019308BD2C02030008B5024B1B685B681F
:104BBC00019308BD2C02030008B5024B1B689B68CF
:104BCC00019308BD2C02030008B5024B1B68DB687F
:104BDC00019308BD2C02030008B5024B1B681B692E
:104BEC00019308BD2C02030008B5024B1B681B6B1C
:104BFC00019308BD2C02030008B5024B1B685B69CE
:104C0C00019308BD3002030008B5024B1B68DB6939
:104C1C00019308BD3002030008B5024B1B681B6AE8
:104C2C00019308BD3002030008B5024B1B685B6A98
:104C3C00019308BD3002030008B5024B1B689B6A48
:104C4C00019308BD3002030008B5024B1B689B6B37
:104C5C00019308BD3002030008B5024B1B68DB6BE7
:104C6C00019308BD3002030008B5024B1B681B6C96
:104C7C00019308BD3002030008B5024B1B685B6C46
:104C8C00019308BD3002030008B5024B1B685B683A
:104C9C00019308BD1802030008B5024B1B681B6981
:104CAC00019308BD1802030008B5024B1B685B6931
:104CBC00019308BD1802030008B5024B1B689B68E2
:104CCC00019308BD4802030008B5024B1B681B6921
:104CDC00019308BD4802030008B5024B1B685B69D1
:104CEC00019308BD4802030008B5024B1B685B6CBE
:104CFC00019308BD4802030008B5024B1B689B6C6E
:104D0C00019308BD4802030008B5024B1B685B69A0
:104D1C00019308BD6402030008B5024B1B681B68B5
:104D2C00019308BD3C02030008B5024B1B68DB680D
:104D3C00019308BD3C02030008B5024B1B681B69BC
:104D4C00019308BD3C02030008B5024B1B685B696C
:104D5C00019308BD3C02030008B5024B1B689B691C
:104D6C00019308BD3C02030008B5024B1B68DB69CC
:104D7C00019308BD3C02030008B5024B1B681B6A7B
:104D8C00019308BD3C02030008B5024B1B689B6AEB
:104D9C00019308BD3C02030008B5024B1B681B6A5B
:104DAC00019308BD2802030008B5024B1B685B6A1F
:104DBC00019308BD2802030008B5024B1B689B6ACF
:104DCC00019308BD2802030008B5024B1B68DB6A7F
:104DDC00019308BD2802030008B5024B1B681B6B2E
:104DEC00019308BD2802030008B5024B1B685B6BDE
:104DFC00019308BD2802030008B5024B1B681B6C0D
:104E0C00019308BD2802030008B5024B1B681B6800
:104E1C00019308BD4C02030008B5024B1B685B688C
:104E2C00019308BD4C02030008B5024B1B681B69BB
:104E3C00019308BD4C02030008B5024B1B685B696B
:104E4C00019308BD4C02030008B5024B1B689B691B
:104E5C00019308BD4C02030008B5024B1B68DB69CB
:104E6C00019308BD4C02030008B5024B1B681B6A7A
:104E7C00019308BD4C02030008B5024B1B685B682C
:104E8C00019308BD2002030008B5034B1B68D3F83F
:104E9C008830019308BD00002002030008B5034BC5
:104EAC001B68D3F89430019308BD00002002030066
:104EBC0008B5024B1B685B68019308BD40020300F8
:104ECC0008B5024B1B689B68019308BD40020300A8
:104EDC0008B5024B1B68DB68019308BD4002030058
:104EEC0008B5024B1B681B69019308BD4002030007
:104EFC0008B5024B1B685B69019308BD40020300B7
:104F0C0008B5024B1B689B69019308BD4002030066
:104F1C0008B5024B1B68DB69019308BD4002030016
:104F2C0008B5024B1B681B6A019308BD40020300C5
:104F3C0008B5024B1B681B6B019308BD40020300B4
:104F4C0008B5024B1B685B6B019308BD4002030064
:104F5C0008B5024B1B689B68019308BD4402030013
:104F6C0008B5024B1B68DB6B019308BD44020300C0
:104F7C0008B5024B1B681B68019308BD1C0203009B
:104F8C0008B5024B1B685B68019308BD1C0203004B
:104F9C0008B5024B1B685B6A019308BD1C02030039
:104FAC00002211464068FFF7BBBF00221146406843
:104FBC00FFF7C6BF00224068FFF7BABF002281F09E
:104FCC0001014068FFF7A4BF00231A461946406848
:104FDC00FFF796BF00231A4619464068FFF788BFB3
:104FEC00002211464068FFF77BBF00221146406843
:104FFC00FFF766BF002202214068FFF769BF00235C
:10500C001A464068FFF754BF024B03225A60024A0B
:10501C001A607047DCE30320F0600D000021FFF7FD
:10502C0023BE0021FFF728BE10B5044601700846C8
:10503C00FFF7EAFD00236360204610BD0078FFF700
:10504C00F0BF0000400830B5186000241868884292
:10505C00E5B206D90134082C02D040081860F5E7F7
:10506C000725024B5B5D137030BD00BF1C610D004A
:10507C002DE9F04307468FB000780E46FFF7CEFFC0
:10508C00002862DB3C781422002109A800F097FF6D
:10509C000B232046002209A9ADF82430FFF7C4FDEC
:1050AC009DF82D4054B19DF82C5035B9DDF8308069
:1050BC009DF834909DF8354003E00024A146A046AD
:1050CC000125337905B1BBB99D420BD1B26842457C
:1050DC0008D18DF820908DF82140BDF82010B289B0
:1050EC00914209D053B1002438780194009423469E
:1050FC0022460121FFF7B0FD002026E08DF80F308D
:10510C00B1680A9804AB0DF10F02FFF79BFF3179E0
:10511C0005B1B1B9A94208D0002438780194747B48
:10512C00337B9DF80F200094E4E7B3684345F3D339
:10513C008DF820908DF82140BDF82020B3899A423B
:10514C00EAD1049B4345E7D1D6E70FB0BDE8F08325
:10515C0008B50078FFF750FDC0B208BD30B587B078
:10516C0004460A9D00780095FFF766FD3DB902A93B
:10517C002078FFF769FD9DF81430DB07F7D407B0F2
:10518C0030BD0078FFF748BD10B50446006818B173
:10519C00FFF7F6FE0023236010BD10B50446FFF7A1
:1051AC00F3FF204610BD000010B5094C00204FF64F
:1051BC00FF732060A080A07120816381FFF75CFEEB
:1051CC002046044A0449BDE8104000F075BD00BFFC
:1051DC00E4E3032000DF0320A7510D0010B50446C3
:1051EC00006808B1FFF788FD204610BD10B5064CCD
:1051FC00002320462360FFF777FD2046034A04492D
:10520C00BDE8104000F058BDF0E3032000DF0320A0
:10521C00E9510D00F8B506460D468F180024BD4225
:10522C000CD0336815F8011B9B6830469847002852
:10523C0001DB0444F3E7002C08BF04462046F8BD0C
:10524C0008B5FFF7B1F908BD03689B68184738B576
:10525C000D210546FFF7F8FF0A2104462846FFF703
:10526C00F3FF204438BD30B58BB00B4600218DF8D0
:10527C002410012A98BF0A220DF12304B3FBF2F586
:10528C0005FB123303F0FF03092B94BF3033373384
:10529C00DBB2214604F801392B46002DEED1FFF785
:1052AC0083F90BB030BD0CB42DE9F04387B000AFDF
:1052BC0007F13804054654F8049B3C600E4623461F
:1052CC004A461421381DFFF763FE132805D8391DF3
:1052DC002846FFF769F9044613E000F1080323F0B0
:1052EC000703E846ADEB030D411C23464A466846CE
:1052FC003C60FFF74DFE69462846FFF755F904461A
:10530C00C5461EB12846FFF7A2FF044420461C37B1
:10531C00BD46BDE8F04302B070470000014B024AA5
:10532C001A607047F4E3032097610D00024B1A6872
:10533C00024B1A60704700BF98DE0320F8E303208D
:10534C0010B58368044613B10322014698472046E2
:10535C0010BD10B50446FFF7F3FF204610BD00004A
:10536C000348044A04490023836000F0A5BC00BF35
:10537C00FCE3032000DF03205F530D0008B50C4B4A
:10538C0033B100F057F903681B699847002809DC12
:10539C00084B63B100F0D0F903681B6998470028EB
:1053AC0003DC08BDAFF30080F2E7AFF3008008BD6B
:1053BC00000000000000000008B5FFF7DFFFFFF75A
:1053CC0073FC014B186008BD30E703200248034A08
:1053DC000349121A00F0E8BD00F4032004F4032082
:1053EC0050640D0007B5002300931A466FF0770147
:1053FC00FFF754FD03B05DF804FB000007B54388CC
:10540C000A2B08D0502B09D1094B1B683BB103B0B8
:10541C005DF804EB1847FFF7E5FF06E00023009367
:10542C001A466FF07701FFF739FD03B05DF804FB06
:10543C000CE4032038B5104C104D2368AB42104BD4
:10544C000CBF012200221A7002D0FFF7BFFF2560AB
:10545C00FFF71AFC044600F0BBFD0A4B13B12046C3
:10546C00AFF3008000210748FFF77AFD00210648C2
:10547C00BDE83840FFF708BD00F403201E1C279A36
:10548C0010E403200000000009540D00704710B513
:10549C001821044600F01EFC204610BDF0B5037D1B
:1054AC00062B8DB00E4600F104074FF0000402D01D
:1054BC0000F1080518E00CAD394605F8304D2F23E6
:1054CC002A460A20FFF720FC284600F0A9FD336885
:1054DC000246DB682946304698470FE024B12E215E
:1054EC003046FFF7B1FE044415F8011D0A22304680
:1054FC00FFF7B9FEBD420444F0D120460DB0F0BD1B
:10550C0010B5054B0446112240F8043B002100F075
:10551C0056FD204610BD00BF38620D000346074AF9
:10552C0010B543F8042B01F1100251F8044B43F869
:10553C00044B9142F9D10A781A7010BD38620D00F3
:10554C0010B59DF8084044EA032343EA024242EABC
:10555C00016104234160037510BD37B50D788B785C
:10556C004A78C97800912946FFF7EAFF03B030BDAD
:10557C0041747047704708B50021007CFFF764FC4C
:10558C0030EA200028BF4FF0FF3008BD08B50121DC
:10559C00007CFFF759FC30EA200028BF4FF0FF30A9
:1055AC0008BD08B5007CFFF747FC20EAE07008BD99
:1055BC0008B5007CFFF738FC20EAE07008BD007CE1
:1055CC00FFF752BC10B51421044600F083FB2046B3
:1055DC0010BD38B50446007C0D46FFF72DFC0028A5
:1055EC0001DC607C28B12946207CFFF735FC20EAE1
:1055FC00E07038BD10B50446002363604FF47A7335
:10560C00A360054B23600123084621746374114683
:10561C00FFF7FAFB204610BD4C620D000022007C07
:10562C00FFF7FABB10B514220446002100F0C7FCAA
:10563C00204610BD30B50E4D87B001A8FFF7F2FF24
:10564C00296811F0010410D12846FEF722FD60B143
:10565C0001AA21460748FFF7CDFF2846FEF71EFD9D
:10566C00054A0649034800F027FB024807B030BD45
:10567C0014E4032018E4032000DF032081550D00FF
:10568C0070474174704708B5007CFFF77DFB20EA3A
:10569C00E07008BD08B5007CFFF74EFB20EAE07017
:1056AC0008BD08B5007CFFF757FB30EA200028BF87
:1056BC004FF0FF3008BD08B5007CFFF745FB30EA22
:1056CC00200028BF4FF0FF3008BD007CFFF74CBB1B
:1056DC0010B51421044600F0FDFA204610BD70B53B
:1056EC00457C04460E4625B9007CFFF74DFB00288F
:1056FC0005DD3146207CBDE87040FFF715BB284620
:10570C0070BD000010B504460846114600226260C8
:10571C004FF47A72A260054A2260012220746274EE
:10572C001A46FFF7F9FA204610BD00BF7C620D0047
:10573C00007CFFF721BB000038B50C4D296811F037
:10574C00010411D12846FEF7A4FC68B1084A094BA4
:10575C0009482146FFF7D6FF2846FEF79FFC074A6B
:10576C000749054800F0A8FA034838BDC4E40320F3
:10577C00C8E4032040E403202CE4032000DF0320D2
:10578C008D560D007047F8B5064615460C468F1819
:10579C00BC4206D0336814F8011B9B68304698470E
:1057AC00F6E72846F8BD0022007CFFF7F5BA002189
:1057BC00007CFFF7F9BA0021007CFFF7FDBA00214D
:1057CC00007CFFF701BB0021007CFFF705BB10B587
:1057DC001421044600F07EFA204610BD10B5044694
:1057EC00002363604FF47A73A360044B2174084662
:1057FC0023601146FFF700FB204610BDAC620D0084
:10580C000021007CFFF7F0BA002211464068FFF738
:10581C0087BB002211464068FFF792BB002240680C
:10582C00FFF786BB002281F001014068FFF770BBD7
:10583C0000231A4601214068FFF762BB00231A4679
:10584C0019464068FFF754BB002211464068FFF729
:10585C0047BB002211464068FFF732BB00220221F1
:10586C004068FFF735BB00231A464068FFF720BBA2
:10587C0038B5054688B104684CB1A3681BB1032246
:10588C002146204698471021204600F023FA28464E
:10589C001421BDE8384000F01DBA38BD10B10368C2
:1058AC005B681847704710B503680446BBB158686D
:1058BC00FFF702FA78B923685A7C12B95868FFF7D7
:1058CC0003FA23685868FFF707FA2068002323605F
:1058DC0028B1FFF7CDFF206808B1FFF7C9FF2046BC
:1058EC0010BD38B50446D0F8C40108B1FEF7CFFBA3
:1058FC00D4F8C00108B1FFF7FFF9D4F8BC5135B1A9
:10590C002846FFF7D0FF0421284600F0E3F9206871
:10591C0008B1FFF7C3FF204638BD000010B5044B9B
:10592C00044640F8083BFFF7DCFF204610BD00BFE3
:10593C00D4620D0038B50E4C0E4B236000250223AB
:10594C0004F5E4706360A560C4F8C451C4F8C85190
:10595C00FFF7CAF9084BC4F8CC5184F8D051236036
:10596C002046064A0649BDE8384000F0A5B900BFFC
:10597C004CE503203C630D00D4620D0000DF0320D6
:10598C0029590D00002211464068FFF7A9BA0022E0
:10599C0011464068FFF7C4BA002211464068FFF771
:1059AC00CFBA00224068FFF7C3BA002281F0010190
:1059BC004068FFF7ADBA00231A4619464068FFF756
:1059CC009FBA00231A4619464068FFF791BA002285
:1059DC0011464068FFF774BA002202214068FFF7B5
:1059EC0077BA00231A464068FFF762BA024B0422CA
:1059FC005A60024A1A60704720E7032008630D00C2
:105A0C0000231A464068FFF753BA0022022140686F
:105A1C00FFF75EBA002211464068FFF751BA002228
:105A2C0011464068FFF75CBA00231A4619464068D5
:105A3C00FFF75EBA00231A4619464068FFF760BAB2
:105A4C00002281F001014068FFF762BA0022406831
:105A5C00FFF76EBA002211464068FFF771BA0022B8
:105A6C0011464068FFF75CBA2DE9F043002495B06D
:105A7C0016460D460746FFF743FD214620220CA88B
:105A8C00009400F09CFA40230C9321466B460CAA20
:105A9C003046FFF779F80446002844D1024601212C
:105AAC006868FFF71DFA0221804622466868FFF7F6
:105ABC0017FA009E81462146002E34D0002932D19F
:105ACC007368022B02D00A2B09D02AE0B8F1000F20
:105ADC0027D0716938460431FFF73FFD20E0B9F15A
:105AEC00000F1ED07469112201A800F068FA062379
:105AFC008DF8143001AD04F1080318341868596896
:105B0C002A4603C20833A3421546F7D101A906A8B9
:105B1C0007ADFFF703FD0FCD3C1D0FC42B682370A1
:105B2C000121F669C8E70098FFF726F8384615B04A
:105B3C00BDE8F083024B034A1A6000225A6070479A
:105B4C0028E703203C630D0070B5184E316811F046
:105B5C00010504460AD13046FEF79BFA30B12946BE
:105B6C001348FFF761FA3046FEF798FA1048FFF732
:105B7C0008FB28B1A4F10B03022B01D8002070BD47
:105B8C0000F074F8FFF73CFE08B1012CF6D9FFF7D2
:105B9C00D3FDFFF7CDFD18B1A4F10903012BEDD90D
:105BAC00232C8CBF0020012070BD00BF04DF03201C
:105BBC0008DF0320232838B504460D460AD8FF29F0
:105BCC0008D0FFF7C1FF28B129462046BDE8384070
:105BDC00FEF7F2BF38BD38B504460D46FEF7F4FFAC
:105BEC00FF2810D0062804D84D2323FA00F0C30751
:105BFC0009D42046FFF7A8FF28B129462046BDE866
:105C0C003840FEF7E9BF38BD0D2810B504469CBFDF
:105C1C000E34A4B22046FFF797FF50B10321204663
:105C2C00FEF7C2FF032804D12046BDE81040FEF762
:105C3C00DBBF002010BD000070B5044614252A46B9
:105C4C00094E002100F0BBF9258020253146A560C6
:105C5C002561284600F040F831466060284600F087
:105C6C003BF8E060204670BD68630D0030B50E4D0A
:105C7C00296811F0010487B013D12846FEF709FA00
:105C8C0078B101A8FFF7D8FF01AA21460748FFF712
:105C9C00A5FD2846FEF702FA054A0649034800F01E
:105CAC000BF8024807B030BD34E7032038E7032077
:105CBC0000DF032091570D000B460146184600F0FB
:105CCC0065B90000024B1868BFF35F8F704700BFC7
:105CDC004CE70320FEF7D9B900F000B810B5002846
:105CEC0014BF044601242046FFF742F920B9FFF700
:105CFC00E9FF08B18047F6E710BD0000184B1A68A1
:105D0C00D1075CBF01221A60164B1A68D2075CBF20
:105D1C0001221A60144B1A68D0075CBF01221A606A
:105D2C00124B1A68D1075CBF01221A60104B1A681B
:105D3C00D2075CBF01221A600E4B1A68D0075CBFF9
:105D4C0001221A600C4B1A68D1075CBF01221A6041
:105D5C000A4B1A68D2075CBF01221A60704700BF59
:105D6C006CE7032068E7032064E7032060E7032067
:105D7C005CE7032058E7032054E7032050E7032097
:105D8C00244B1A68D0075CBF01221A60224B1A6898
:105D9C00D1075CBF01221A60204B1A68D2075CBF86
:105DAC0001221A601E4B1A68D0075CBF01221A60D0
:105DBC001C4B1A68D1075CBF01221A601A4B1A6877
:105DCC00D2075CBF01221A60184B1A68D0075CBF5F
:105DDC0001221A60164B1A68D1075CBF01221A60A7
:105DEC00144B1A68D2075CBF01221A60124B1A6856
:105DFC00D0075CBF01221A60104B1A68D1075CBF38
:105E0C0001221A600E4B1A68D2075CBF01221A607D
:105E1C00704700BF9CE7032098E7032094E703201A
:105E2C0090E703208CE7032088E7032084E7032016
:105E3C0080E703207CE7032078E7032074E7032046
:105E4C0070E70320244B1A68D0075CBF01221A604C
:105E5C00224B1A68D1075CBF01221A60204B1A68CA
:105E6C00D2075CBF01221A601E4B1A68D0075CBFB8
:105E7C0001221A601C4B1A68D1075CBF01221A6000
:105E8C001A4B1A68D2075CBF01221A60184B1A68A9
:105E9C00D0075CBF01221A60164B1A68D1075CBF91
:105EAC0001221A60144B1A68D2075CBF01221A60D7
:105EBC00124B1A68D0075CBF01221A60104B1A688B
:105ECC00D1075CBF01221A600E4B1A68D2075CBF67
:105EDC0001221A60704700BFCCE70320C8E70320FB
:105EEC00C4E70320C0E70320BCE70320B8E7032086
:105EFC00B4E70320B0E70320ACE70320A8E70320B6
:105F0C00A4E70320A0E70320184B1A68D1075CBF55
:105F1C0001221A60164B1A68D2075CBF01221A6064
:105F2C00144B1A68D0075CBF01221A60124B1A6816
:105F3C00D1075CBF01221A60104B1A68D2075CBFF4
:105F4C0001221A600E4B1A68D0075CBF01221A603E
:105F5C000C4B1A68D1075CBF01221A600A4B1A68F5
:105F6C00D2075CBF01221A60704700BFECE7032028
:105F7C00E8E70320E4E70320E0E70320DCE7032065
:105F8C00D8E70320D4E70320D0E7032010B5054C55
:105F9C0013462CB10A4601460220AFF3008010BD17
:105FAC00204610BD0000000010B5431E0A4491426B
:105FBC0004D011F8014B03F8014FF8E710BD02446F
:105FCC000346934202D003F8011BFAE77047000026
:105FDC0038B5124B1C68A36B0546D3B91820FEF7D5
:105FEC00C7FF43F20E33A06303804AF6CD334380E0
:105FFC0041F2342383804EF26D63C3804DF6EC6323
:10600C000381052343810B23838101220023C0E9F3
:10601C000423A36B00221D615A6138BDFCDE0320F2
:10602C00034613F8012B002AFBD1181A01387047CC
:10603C001D400D0059400D0085400D0089400D009C
:10604C00000000000000000000000000DD400D001A
:10605C000000000000000000AF400D00B1400D003A
:10606C00C5400D00BF400D0064656661756C742001
:10607C00004D5342004C5342003C535049536574FD
:10608C0074696E67732064656661756C743E003C60
:10609C0053504953657474696E6773202573256C6E
:1060AC0075202573204D4F444525643E006D696372
:1060BC0031203D202569207C206D696332203D20F4
:1060CC002569207C206D696333203D202569207C67
:1060DC002054696D65203D2025690A0000000000F0
:1060EC00000000000B500D0001500D00F74F0D008B
:1060FC00ED4F0D00E14F0D00D54F0D00C94F0D00B8
:10610C00C14F0D00B74F0D00AD4F0D00755A0D006E
:10611C0000081018202830386261756400536572CD
:10612C0069616C0053657269616C310074797065DA
:10613C0000706172616D00636D6400696400686E6B
:10614C0064007374726D0066696C74006C766C001C
:10615C0061646448616E646C65720072656D6F7623
:10616C006548616E646C657200656E756D48616E34
:10617C00646C657273004A534F4E53747265616D53
:10618C004C6F6748616E646C6572006170700025BD
:10619C003031307520005D20002564002C20002853
:1061AC00293A2000205B00636F6465203D200025A8
:1061BC00690064657461696C73203D20000D0A00F0
:1061CC0066006C6E00666E00636F646500646574D7
:1061DC0061696C006E6F6E65007472616365006955
:1061EC006E666F007761726E006572726F7200700E
:1061FC00616E696300616C6C005A00252B3033644E
:10620C003A253032750025592D256D2D25645425E0
:10621C00483A254D3A2553257A0061736374696DAC
:10622C00650000000000000000000000A9540D00F3
:10623C0099540D009B540D0000000000000000005C
:10624C0081550D00D1550D00DF550D0021520D006B
:10625C00BD550D0083550D0099550D00CB550D0006
:10626C00AF550D007D550D00000000000000000032
:10627C008D560D00DD560D00EB560D0021520D0014
:10628C00A1560D00C3560D00AF560D00D7560D008C
:10629C008F560D0093560D0000000000000000000A
:1062AC0091570D00DB570D00B3570D0093570D00A0
:1062BC00BB570D00C3570D00CB570D00D3570D0026
:1062CC00000000000000000073580D0069580D001C
:1062DC005F580D0055580D0049580D003D580D00E4
:1062EC0031580D0029580D001F580D0015580D0080
:1062FC00755A0D000000000000000000EF590D0061
:10630C00E5590D00DB590D0091590D00CF590D00C9
:10631C00C3590D00B7590D00AF590D00A5590D000B
:10632C009B590D00755A0D00000000000000000084
:10633C000D5A0D00175A0D00215A0D002B5A0D0045
:10634C00355A0D00415A0D004D5A0D00595A0D0089
:10635C00615A0D006B5A0D00755A0D0000000000BB
:10636C000000000000000000000000000000000021
:10637C000000000000000000000000000000000011
:10638C000000000000000000000000000000000001
:10639C0000000000000000000000000000000000F1
:1063AC0000000000000000000000000000000000E1
:1063BC0000000000000000000000000000000000D1
:1063CC004300000009420D00A1420D00B5420D0032
:1063DC00B9420D00D7420D00DB420D00DF420D002B
:1063EC00E3420D00B1450D00D5450D00D9450D001A
:1063FC00BF470D00C3470D00C7470D00F54A0D0000
:10640C00F94A0D00FD4A0D00814B0D0015500D0091
:10641C00B5510D00F9510D0029530D0039530D00E4
:10642C006D530D0041590D00F9590D00415B0D00E4
:10643C00095D0D008D5D0D00515E0D00155F0D00A9
:04644C00000000004C
:046450000000000048
:10645400130000001200000011000000A00F000053
:1064640026620D00000000006C630D008C630D00BB
:10647400AC630D00000000000000000000000000FC
:1064840000000000CC630D000000000000000000CC
:1064940000000000000000000000000000000000F8
:1064A40000000000000000000000000000000000E8
:1064B40000000000000000000000000000000000D8
:0864C400000000009CDE032033
:1064CC00FFFFFFFF00000102030405060708090A8D
:1064DC000B0C0D0E0F101112131415161718191A88
:0864EC001B1C1D1E1F202800CF
:0464F4007856341290
:04000003D000401CCD
:00000001FF
