:02000002D0002C
:1040000000400D00B8860D00000006000C00050100
:084010000401E80500000000B6
:04401800B4800D0063
:1040200009480A49884208B505D0094A824202D0A7
:10403000121A03F0DFFF0748074A0021121A03F0A3
:10404000E4FF014808BD00BF1CDE032014860D00FC
:1040500098DE032098DE0320F0E7032070B502F01D
:1040600023F9074C074BE41AA40800251E46A54275
:1040700004D056F8253098470135F8E770BD00BFE9
:104080000C860D008C850D0000F06EB808B500F0B0
:1040900057FBBDE8084002F0C9B801F001BE01F0CD
:1040A00007BE01F005BE0078B0FA80F04009704705
:1040B000012303707047704710B52C21044603F0AC
:1040C0001BF8204610BD000010B5034B03600446EA
:1040D00001F06AFA204610BDF4800D0010B50446C8
:1040E000FFF7F2FF20464FF4987103F005F82046E1
:1040F00010BD083000F08ABE07B502AB012203F8FC
:10410000011D0830194600F081FE03B05DF804FB84
:104110007FB5024608461379956833B13DB90C491D
:1041200004B0BDE8704001F05FBF0A4B00E00A4BED
:10413000167B0A4C0A49527B0292012E08BF214687
:1041400001910095074A002101F08BFF04B070BD7A
:104150000D810D0064830D00FC800D0005810D00B4
:1041600009810D0023810D0038B5124D124C02F06B
:104170005FFC4FF4165102F04FFC284600F07DFB27
:10418000204600F07AFB284600F07FFD204600F034
:104190007CFD0A4B0021188802F01EFF084B00210D
:1041A000188802F019FF074B00211888BDE8384035
:1041B00002F012BFDCDE0320B4DE032020DE032089
:1041C00024DE032028DE032008B5094B188802F0FE
:1041D0002DFF084B1860084B188802F027FF074B8B
:1041E0001860074B188802F021FF064B186008BDC5
:1041F00020DE0320B4E3032024DE0320B8E3032001
:1042000028DE0320D8DE03202DE9F7434FF4FA60BF
:10421000274C284D284E01F0BAFF002323602B6065
:10422000336002F005FC254901F0F1FEA046A946E5
:10423000374623681BB12B680BB1336833BBFFF7DC
:10424000C3FF23684BB91E4B1A681E4B1B689A426A
:1042500003DD01F091FBC8F800002B684BB91A4B45
:104260001A68184B1B689A4203DD01F085FBC9F8F8
:1042700000003368002BDCD1144B1A68114B1B680B
:104280009A42D6DD01F078FB3860D2E702F0D0FB2D
:10429000094B0F4A1B680193064B1B680093044BA4
:1042A00000211B6801F0DDFE03B0BDE8F08300BF14
:1042B000A8DE0320ACDE0320B0DE032070810D00F9
:1042C000B4E303201CDE0320B8E30320D8DE032080
:1042D00082810D00000000002DE9F04F2DED048BD0
:1042E00089B0FFF791FF844B844D1C68844BDFF845
:1042F00034A21868834E844FDFF82CB2001B03F001
:10430000DDFA79A3D3E9002303F068FC78A3D3E9AD
:10431000002303F039FB03F00FFE7C4B286009EE0D
:10432000100A1868001B03F0C9FA6FA3D3E9002331
:1043300003F054FC6EA3D3E9002303F025FB03F044
:10434000FBFD08EE900A28EEA87ABFEE008AF0EE98
:10435000476AE9EE096A6E4C3060F7EE007AB0EE1B
:10436000486A76EEE76AA9EE096A77EE677AB5EEF3
:10437000007A68EEA78A67EEA77AE9EE068A67EE0A
:10438000877A26EE066AC4ED006AE6EE077AB1EE99
:10439000007A66EE876ACAED007A67EEE67AC7EDC4
:1043A000008AE8EEA87A17EE900A03F099FA41EC39
:1043B000100B02F0FFFFF1EE687A53EC102B17EEB2
:1043C000900ACDE9062303F08BFADDE9062303F01A
:1043D00027F9D4ED007A77EEA77A804617EE900A97
:1043E000894603F07DFA02460B464046494603F0F3
:1043F000F5FB03F0A1FDD5ED006ADFF83081DFF8B1
:104400003091CBF80000F0EE487AE6EEA67AB6EEF0
:10441000006A07EE100A67EE867AE7EE267AF1EE7A
:10442000677AC8ED007AD6ED007AA7EEA78A28EE63
:10443000068AA7EE278AB1EE488A89ED008A02F043
:10444000F7FA0690306803F04BFACDE902012868CC
:1044500003F046FA069B2F4ACDE9000118460021D9
:1044600001F0FFFD02F0E4FA0546DBF8000003F07E
:1044700037FA294ACDE900010021284601F0F1FD73
:1044800002F0D6FA0546D9F8000003F029FACDE982
:104490000201D8F8000003F023FA204ACDE9000118
:1044A0000021284601F0DDFD02F0C2FA0546DAF8E7
:1044B000000003F015FACDE90401386803F010FAA2
:1044C000CDE90201206803F00BFA154ACDE900019D
:1044D0000021284601F0C5FD09B0BDEC048BBDE804
:1044E000F08F00BFAFF300800000000080842E41F9
:1044F0000000000000707540A8DE0320C4E3032024
:10450000ACDE0320C8E30320F4DE0320B0DE03208A
:10451000F0DE03209F810D00B6810D00C1810D00EA
:10452000D8810D00C8DE0320CCDE0320D0DE0320BE
:10453000D4DE032038B504462DED028B0D46B0EED7
:10454000408A01F039F929462046012201F0A8F8F5
:1045500020463A2101F058F8B0EE480ABDEC028B33
:104560002046BDE8384001F04BB9000010B52DEDF4
:10457000028BD2B04FF4807212A906A8B0EE608A06
:10458000F0EE408A01F02EF81D4B06937D227B2130
:1045900006A801F01CF9B0EE680A1A4906A8FFF750
:1045A000C9FFB0EE480A184906A8FFF7C3FF06A8DE
:1045B00001F038F8079B0393144B039A1B788DF88E
:1045C000003013493C2304A801F0DCFF059C7CB1BA
:1045D0006368013B63605BB9236820469B6898472A
:1045E000A368013BA3601BB923682046DB6898479A
:1045F00006A8FFF769FD52B0BDEC028B10BD00BFED
:10460000F4800D00FB810D0004820D00F8DE032014
:104610000D820D000000000070B52DED068B404EA0
:10462000404CD6ED000A94ED000A3F4D82B0FFF7F2
:104630009DFFFFF751FE3D4B2068186003F050F9D5
:104640009FED318B9FED32ABB0EE483AF0EE683A19
:10465000B0EE481AF0EE681A9FED2F9BB0EE4A4A72
:10466000F0EE6A4AB0EE492AF0EE692A41EC100BEE
:1046700001F044FD51EC100B03F036FC2C4C28608B
:10468000204600F002FB29880025FF222B46204609
:10469000009500F0CBFA204600F026F9254B306853
:1046A000186003F01DF9B0EE4A4AF0EE6A4AB0EE27
:1046B000483AF0EE683AB0EE492AF0EE692AB0EED8
:1046C000481AF0EE681A41EC100B01F017FD51EC9E
:1046D000100B03F009FC184C184E3060204600F017
:1046E000D4FAFF233188009320462B462A4600F057
:1046F0009DFA204602B0BDEC068BBDE8704000F08C
:10470000F3B800BFAFF3008000000000000000001D
:104710000000000000003F40000000000000F03FEB
:10472000D4DE0320D0DE032028DF0320BCE30320F7
:10473000DCDE0320C0E30320B4DE03202CDF0320F3
:10474000FFF76ABF294B70B501241C7001F08CF88B
:1047500002230F221F212648264E00F0B3F8264AD6
:104760002649234802F0BAFC022310221F212448C4
:1047700000F0A8F8204A2149214802F0AFFC214B63
:10478000642183F860142049C3F87014316883F8F9
:104790007444002211EA0405DA7183F83C2483F89A
:1047A0003D2483F86A24C3F8782483F87C2483F8B2
:1047B0007D241C460AD13046FFF775FC30B12946EE
:1047C000124801F0E1FA3046FFF772FC10480F4B37
:1047D000C4F86C3400230372437243600D4B0360D2
:1047E000054A0D49BDE8704002F078BCF8DE0320B0
:1047F000DCDE03209CDE032098DE032025480D002C
:10480000B4DE032030DF0320D0800D00A0DE0320C3
:10481000FCDE0320DC800D00B7400D0001F0ACB8D9
:1048200001F0A2B810B50446C06808B101F040FA22
:1048300023781BB10021E07902F0CEFB204610BDA9
:1048400038B50446C0680D4608B101F031FAA379C5
:10485000062B0CBF0420032010FB05F080B2A080C3
:1048600001F01EFAE06028B1A288002103F0CDFB20
:10487000658038BDA080608038BD10B50446012138
:10488000C07902F0A9FB0021E07902F0B6FB012318
:10489000237010BD38B5037805460C461BB10021C6
:1048A000C07902F099FB2B78EC7153B1A4B2204689
:1048B000012102F091FB20460021BDE8384002F0C2
:1048C0009CBB38BD70B50025044616468371057043
:1048D0000572C5600561FFF7B3FF20463146FFF75B
:1048E000D9FF204670BD0000C368002B00F08B810B
:1048F0002DE9F04F8379023BDBB2042B9CBFC44A05
:1049000052F8234087B0054688BF3224FFF786FF60
:104910002B69C01AA042F9D3BE4AAB8807CA06ACBD
:1049200004E90700039C1B01D4F80025043301931C
:1049300022B9D4F86035002BC0F25581049CD4F81C
:10494000003523B9D4F86035002BC0F23C81059CBA
:10495000D4F800351BB9D4F86035002B6EDBAE4BB4
:10496000EA791E68AD4CAE49E0681201B31840F018
:1049700080705B78B75CE0600A6803F01F0343EA6D
:10498000471301273A430A600C46A888D5F80C90D3
:10499000D4F804A09F408846002844D0CC4600228A
:1049A0004FF0A0411CF801EB0820802663689B1A99
:1049B000462BFBD9D8F80420D1F808351EEA060F9B
:1049C00043EA0703C1F808352FD063689B1A282BE8
:1049D000FBD9D1F80C35013843EA07034FEA5606F4
:1049E000C1F80C35E2D1C9EB0C03A8889BB2984200
:1049F000D8D84FF4307303FB00F063689B1A462B42
:104A0000FBD9D8F80430CAEB030A8245C0F0D58040
:104A10004FF49670FFF704FFA888D5F80C90D4F8EF
:104A200004A00028BAD10246E7E763689B1A112B5D
:104A3000CFD863689B1A112BF7D9CAE7D4F864352D
:104A4000002B8CDAD4F86835002B88DAD4F86C3572
:104A5000002B84DA019801F023F900283FF47FAF9E
:104A6000AB88002B00F0D08000273B466D4E6E498E
:104A700000E01346EA68D25D03F1010E12F0800FE8
:104A800014BFB04688461FFA8EFE12F0400F14BFC6
:104A9000B146894612F0200F20F8138018BFB246A5
:104AA00020F81E9008BF8A4603F1020812F0100F8A
:104AB00003F1030E14BFB4468C461FFA88F812F0B7
:104AC000080F1FFA8EFE03F104091FFA89F914BFBB
:104AD000B3468B4612F0040F20F818A020F81EC031
:104AE00014BFB2468A4603F1050812F0020F03F123
:104AF000060C03F1070E20F819B01FFA8EFE14BF42
:104B0000B14689461FFA88F812F0010F1FFA8CFC93
:104B100014BF32460A4620F818A020F81C9020F84E
:104B20001E200137B5F804E0BFB203F10802BE450C
:104B300092B29ED803F109020A3392B29BB252009C
:104B40005B0001994FF4004686524908C652002284
:104B50001423C4F80425304EC4F80C25C4F80835D5
:104B6000C4F81425C4F81025C4F82005C4F8241589
:104B7000C4F82825C4F82C25EB7931681B01CE1820
:104B8000C95C737803F01F0343EA41130121C4F8A1
:104B90006035C4F80015C4F81021A160D4F81031B4
:104BA000002BFBD000234FF0FF32C4F81031C4F8C3
:104BB0000035C4F8602501F07BF8FFF72FFE28616F
:104BC00007B0BDE8F08FD4F86435002BBFF6BFAE58
:104BD000D4F86835002BBFF6BAAED4F86C35002B8C
:104BE000BFF6B5AE36E7D4F86435002BBFF6A6AEF7
:104BF000D4F86835002BBFF6A1AED4F86C35002B85
:104C0000BFF69CAE26E770470423022299E700BF57
:104C100020820D0014820D00CCE30320F0ED00E0B3
:104C2000001000E00D80FFFF0680FFFFF0B5448814
:104C30009DF814508C4227D9047A44B112FB04F237
:104C400014FB03F314FB05F4120A1B0A250A8779E7
:104C5000C66801EB4101082F06EB010411D80120C1
:104C6000B84010F4D27F08D1C0060AD5FF2A08BF89
:104C7000FE2272546570A370F0BD73546270A5700B
:104C8000F0BD72546370A570F0BD8288C0680021C9
:104C900003F0BBB908B500F0E7FD00F0E5FD014BFE
:104CA000186008BDCCE3032000F0DEBD00F0DCBDE1
:104CB00010B50446243000F08BF928B104F50C70CF
:104CC000BDE8104000F084B910BD00F0CDBD00F08B
:104CD000CBBD00F0C9BD00F0C7BD8378016943F0CA
:104CE0000403837000F11002806800F027BA10B549
:104CF000044680680A462430A16900F090F920B18A
:104D0000A38803F00F0300EB431010BD2DE9F04121
:104D10000E46017807690446002939D04569B54235
:104D20003AD00EB9066131E00B0703D5C3699E4244
:104D30002ED807E0880605D5A3681B89B6EB431F6C
:104D400026D823E0D4F808E09EF806306A1E03F166
:104D50000900731EC240C3409A4200D84DB94A06AA
:104D60004CBFDEF82020226A22611D4604F11008A3
:104D70000AE09B1AF9E742462169A06800F079F938
:104D8000002805F1FF3503DD002DF4D1666103E055
:104D900027610020BDE8F0810120BDE8F08100001E
:104DA00038B5037804460BB9012038BD83785A071B
:104DB00023D50121FFF79BFF054628B9637843F00F
:104DC00001036370002038BD0378E52BF6D023780B
:104DD0001B0744BFE369C361238C4383638C8382D5
:104DE000094B1B682BB100F11601183098472B8B2B
:104DF0006B82A37823F00403A370A068FFF758FF29
:104E00000028DBD0D0E700BFD0E303202DE9F04736
:104E10000378894619070446904608D583789A078F
:104E200005D51B070BD5E169FFF770FF38B963782B
:104E300043F0010363704FF0FF30BDE8F087636912
:104E4000DB439845F3D846464FF0000A6369002ECD
:104E500000F08180A068427912EA5325C3F3080765
:104E60001CD1DFB9216971B104F1100200F001F920
:104E70000028DCDB40F08E802046FFF72EFF002864
:104E800040F08880D3E7236A3BB92046FFF725FF2F
:104E90000028CCD02369236200E023612169A06847
:104EA00000F0E1F8291817B9B6F5007F21D2C7F54F
:104EB0000075B54228BF354637B96369E269934248
:104EC00034BF0122052200E00122A068243000F056
:104ED000A6F80028ABD038442A4649462F4403F0B0
:104EE00089F8B7F5007F30D1A068243000F070F861
:104EF00017E0B6F5806FA06815D30279521B730ACC
:104F0000D2B2934228BF1346C26A91424FEA432568
:104F100002D31A44914237D3A7684A46386800F052
:104F2000C8FA90B983E7C36A994202BF4FF0FF33D2
:104F300080F824A0C362A3684A46186800F047FAC4
:104F400000283FF474AF4FF4007563692B4463612C
:104F5000A944761B7AE7E269934201D9E36102E052
:104F60000F4B1B681BB1A37843F00403A37094F9A3
:104F70000230002B02DB4046BDE8F0872046FFF7F9
:104F80000FFF0028F7D152E74FF0FF3280F824A03E
:104F9000C262C1E72169A06800F065F8014683E7B5
:104FA000D0E3032000F060BC70B505460C4608460F
:104FB00049B103F076F82B68024621462846DB68A3
:104FC000BDE87040184770BD00F04EBC00F04CBC0E
:104FD00070B50378DA0704461ED54368816800F18E
:104FE0000C063246186800F0F2F9054608B90025AB
:104FF00013E023789B0704D4237823F00103237064
:105000000BE06368A068196932460144186800F033
:10501000DEF90028F0D1EAE70125284670BD70B519
:1050200083688B4204460E46154614D0FFF7D0FF26
:1050300008B9002070BD6B0703D500232370A6605C
:1050400009E0636804F10C023146186800F079F950
:105050000028F2D1EDE72378204605F003051D4333
:1050600000F80C5B70BD83794069023999400844AF
:105070007047012970B505460C46164602D84FF018
:10508000FF3070BDC3699942F9D8C379202B10D184
:105090008169022201EBD41100F50C70FFF7BFFF0C
:1050A0000028ECD004F07F0450F8243023F0704343
:1050B0000FE0102BE3D18369C1F3072102221944C9
:1050C00000F50C70FFF7ABFF0028D8D0E4B230F841
:1050D0001430EA6993429ABF33600120002070BD0A
:1050E000012938B50C46154601D8002038BDC369E2
:1050F0009942FAD8C379202B0ED18169032201EBA2
:10510000D41100F50C70FFF78AFF0028EDD004F0F1
:105110007F0440F824500FE0102BE6D18369C1F3DF
:1051200007210322194400F50C70FFF778FF0028CF
:10513000DBD0E4B220F81450012038BD2DE9F34152
:10514000C4688C4205460E46904607D20C4600279E
:10515000EB6901349C4203D9CFB9EC680127F7E72A
:10516000A64214D001AA21462846FFF782FF002854
:105170000DDBEDD0019B002BEAD107B1EC606FF0A5
:10518000704221462846FFF7ABFF074608B90027C3
:105190000BE016B9C8F8004007E022463146284621
:1051A000FFF79EFF0028F5D1F1E7384602B0BDE8D1
:1051B000F08100F059BB00F057BB00F055BB000078
:1051C00070B50E4C0E46154600F0D6FB2368C01A8B
:1051D0000B4B984208D900F0D7FB0A4B186000F03F
:1051E0003FFD00F0C9FB206000F0CEFB80B2801BC9
:1051F000A842D4BF0020012070BD00BFD4E303202B
:10520000A086010030E7032038B5057A04464DB981
:10521000406800F075F963682946187D01F0EDFEDD
:105220000123237238BD10B5037A04466BB143687D
:105230000121187D01F0E1FEFF21606800F082F994
:10524000606800F061F90023237210BDF8B50446D0
:105250000D46164600F098FB87B2606800F057F9DB
:10526000FF28607209D14FF47A7239462046FFF761
:10527000A7FF0028F1D055230BE0FE2801D05023D2
:1052800007E032462946606800F046F9607230B1A6
:10529000602320462370FFF7C6FF0020F8BD60683A
:1052A00000F035F9606800F032F90120F8BD70B502
:1052B00004460E4600F068FB85B232462946204679
:1052C000FFF77EFF30B9606800F021F9FF28F4D1C4
:1052D000012070BD002070BDF7B5037A019204462D
:1052E0000D460BB9FFF790FF25B14FF4967120469C
:1052F000FFF7DDFF45F04001606800F023F90DF194
:1053000007060DF1030716F80119606800F01AF995
:10531000BE42F8D1002D0CBF95218721606800F0B6
:1053200011F9606800F0F3F80B25606800F0EFF801
:105330000306607203D5013D15F0FF05F5D103B0FA
:10534000F0BD38B5837A032B18BF490215460A46CB
:1053500011210446FFF7C0FF10B1302323700BE08A
:1053600029464FF400722046FFF770FF054618B13A
:105370002046FFF758FF03E02046FFF754FF0025C3
:10538000284638BD38B504461546406800F0DAF8BE
:105390004FF400722946606800F0D8F8FF21606879
:1053A00000F0D0F8FF21606800F0CCF8606800F0F1
:1053B000AEF8607200F01F00052806D05723204683
:1053C0002370FFF730FF002038BD012038BD70B5D5
:1053D000837A032B18BF490215460A461821044652
:1053E000FFF77AFF064608B132231DE02A46FE2168
:1053F0002046FFF7C7FFC0B14FF4FA612046FFF720
:1054000056FF054608B95A230EE032460D212046C4
:10541000FFF762FF38B9606800F079F818B92046E4
:10542000FFF701FF05E0292323702046FFF7FBFE6D
:105430000025284670BD38B50D464FF4FA61044684
:10544000FFF735FF10B95B23237005E02A46FC21E6
:105450002046FFF797FF18B92046FFF7E4FE00202B
:1054600038BD10B5837A032B0A4618BF4A021921AA
:105470000446FFF731FF30B1332320462370FFF796
:10548000D2FE002010BD012010BD38B54FF4FA61E6
:105490000446FFF70CFF054620B1FD21606800F0CF
:1054A00051F801E0562323702046FFF7BCFE284642
:1054B00038BDF8B5054616461F46FFF7D2FF70B156
:1054C0000024BC4206EB4421284604D0FFF7B3FF7A
:1054D00028B10134F5E7BDE8F840FFF7D6BF28460C
:1054E000FFF7A1FE0020F8BD00F0BEB900F0BCB986
:1054F00000F0BAB9014B01221A707047D8E30320BB
:10550000011D006800F064BC006800F047BCFF218A
:10551000006800F0CDBC000037B5084B00930025B3
:10552000074C0068257013460A46294600F0C6FC61
:105530002378002BFCD0002003B030BDF5540D00C3
:10554000D8E30320006800F0B3BC000037B5074B78
:1055500000930025064C0068257013462A4600F08B
:10556000ADFC2378002BFCD003B030BDF5540D000A
:10557000D8E3032000F078B910B5054B0360037C35
:1055800004461BB9406808B100F092FB204610BDEC
:105590003C820D0010B50446FFF7EEFF20461421B3
:1055A00001F0AAFD204610BD10B5034B0360044670
:1055B000FFF7E2FF204610BD4C820D0010B50446F7
:1055C000FFF7F2FF2046302101F096FD204610BD86
:1055D00000230122C36043610276437680F82A30BB
:1055E00070470000002310B5C36001230374054B0E
:1055F00003604FF0FF3341608260C362FFF7E8FF52
:1056000010BD00BF4C820D00C368826810B5934284
:105610003FBF42685C1CC460D15424BF012380F8A2
:105620002A3010BD10B54369044643B100EB430373
:10563000597E09B1FFF7E8FF6369013B6361A36825
:10564000E068616898424FF000022ABF5B180A5474
:1056500003F8012C10BD70B50446C068A5686668E3
:105660002D1A134630440A46294600F029FB85428C
:105670002DBFE368A368E360C01836BF0123E06074
:1056800084F82A3070BD0EB403B503AA52F8041B87
:105690000192FFF7E0FF02B05DF804EB03B0704742
:1056A0002DE9F04104460E46174612B12221FFF7BC
:1056B000ABFF0025715D06EB0508002971D0E2689B
:1056C000A3689A426DD20B0633D501F0F003E02BAC
:1056D00017D198F8013003F0C002802A11D105F1EA
:1056E000020816F8082002F0C000802809D102F054
:1056F0003F029B0142EA013203F47C631A4392B2F7
:1057000011E001F0E003C02B46D105F1010816F8C5
:10571000083003F0C002802A3ED1890101F4F8620A
:1057200003F03F031A4323492046FFF7ACFF4546E9
:1057300035E00C2918D00BD8092921D00A2919D015
:10574000082929D15C212046FFF75EFF622123E072
:1057500022291BD05C2919D00D291DD15C2120469E
:10576000FFF752FF722117E05C212046FFF74CFF44
:10577000662111E05C212046FFF746FF6E210BE019
:105780005C212046FFF740FF742105E05C212046A4
:10579000FFF73AFF98F800102046FFF735FF013574
:1057A00088E72FB120462221BDE8F041FFF72CBF4A
:1057B000BDE8F08160820D00426900EB42031A7E71
:1057C00012B100221A7670472C21FFF71DBFF8B5E1
:1057D00043690133082B0E4617460ED8FFF7ECFF3E
:1057E00043695A1C00EB43030124426131469C7615
:1057F000DF76FFF709FF2046F8BD0020F8BD000066
:1058000037B5044610EE100AE56A002D0ADB02F0F7
:1058100067F82A46CDE9000108492046FFF733FF23
:1058200003B030BD02F05CF80B4605490246204645
:1058300003B0BDE83040FFF726BF00BF72820D0005
:1058400077820D0000F010B808B5024B1B689B680A
:10585000019308BD6802030008B5024B1B68DB68B2
:10586000019308BD6802030008B5024B1B681B6862
:10587000019308BD2C02030008B5024B1B685B684E
:10588000019308BD2C02030008B5024B1B689B68FE
:10589000019308BD2C02030008B5024B1B68DB68AE
:1058A000019308BD2C02030008B5024B1B681B695D
:1058B000019308BD2C02030008B5024B1B681B6B4B
:1058C000019308BD2C02030008B5024B1B685B69FD
:1058D000019308BD3002030008B5024B1B68DB6969
:1058E000019308BD3002030008B5024B1B681B6A18
:1058F000019308BD3002030008B5024B1B685B6AC8
:10590000019308BD3002030008B5024B1B689B6A77
:10591000019308BD3002030008B5024B1B689B6B66
:10592000019308BD3002030008B5024B1B68DB6B16
:10593000019308BD3002030008B5024B1B681B6CC5
:10594000019308BD3002030008B5024B1B685B6C75
:10595000019308BD3002030008B5024B1B685B6869
:10596000019308BD1802030008B5024B1B68DB68F1
:10597000019308BD1802030008B5024B1B681B69A0
:10598000019308BD1802030008B5024B1B685B6950
:10599000019308BD1802030008B5024B1B689B6801
:1059A000019308BD4802030008B5024B1B681B6940
:1059B000019308BD4802030008B5024B1B685B69F0
:1059C000019308BD4802030008B5024B1B685B6CDD
:1059D000019308BD4802030008B5024B1B689B6C8D
:1059E000019308BD4802030008B5024B1B685B69C0
:1059F000019308BD6402030008B5024B1B681B68D5
:105A0000019308BD3C02030008B5024B1B68DB682C
:105A1000019308BD3C02030008B5024B1B681B69DB
:105A2000019308BD3C02030008B5024B1B685B698B
:105A3000019308BD3C02030008B5024B1B689B693B
:105A4000019308BD3C02030008B5024B1B68DB69EB
:105A5000019308BD3C02030008B5024B1B681B6A9A
:105A6000019308BD3C02030008B5024B1B689B6A0A
:105A7000019308BD3C02030008B5024B1B681B6A7A
:105A8000019308BD2802030008B5024B1B685B6A3E
:105A9000019308BD2802030008B5024B1B689B6AEE
:105AA000019308BD2802030008B5024B1B68DB6A9E
:105AB000019308BD2802030008B5024B1B681B6B4D
:105AC000019308BD2802030008B5024B1B685B6BFD
:105AD000019308BD2802030008B5024B1B681B6C2C
:105AE000019308BD2802030008B5024B1B681B6820
:105AF000019308BD4C02030008B5024B1B685B68AC
:105B0000019308BD4C02030008B5024B1B681B69DA
:105B1000019308BD4C02030008B5024B1B685B698A
:105B2000019308BD4C02030008B5024B1B689B693A
:105B3000019308BD4C02030008B5024B1B68DB69EA
:105B4000019308BD4C02030008B5024B1B681B6A99
:105B5000019308BD4C02030008B5024B1B685B684B
:105B6000019308BD2002030008B5024B1B685B6966
:105B7000019308BD2002030008B5024B1B68DB6CD3
:105B8000019308BD2002030008B5024B1B685B6D42
:105B9000019308BD2002030008B5034B1B68D3F82E
:105BA0008830019308BD00002002030008B5034BB4
:105BB0001B68D3F89430019308BD00002002030055
:105BC00008B5024B1B685B68019308BD40020300E7
:105BD00008B5024B1B689B68019308BD4002030097
:105BE00008B5024B1B68DB68019308BD4002030047
:105BF00008B5024B1B681B69019308BD40020300F6
:105C000008B5024B1B685B69019308BD40020300A5
:105C100008B5024B1B689B69019308BD4002030055
:105C200008B5024B1B68DB69019308BD4002030005
:105C300008B5024B1B681B6A019308BD40020300B4
:105C400008B5024B1B681B6B019308BD40020300A3
:105C500008B5024B1B685B6B019308BD4002030053
:105C600008B5024B1B689B68019308BD4402030002
:105C700008B5024B1B685B69019308BD4402030031
:105C800008B5024B1B681B6A019308BD4402030060
:105C900008B5024B1B68DB6B019308BD440203008F
:105CA00008B5024B1B681B68019308BD1C0203006A
:105CB00008B5024B1B685B68019308BD1C0203001A
:105CC00008B5024B1B685B6A019308BD1C02030008
:105CD00008B5024B1B68DB6A019308BD1C02030078
:105CE00008B5024B1B681B6B019308BD1C02030027
:105CF00008B5024B1B68DB6B019308BD1C02030057
:105D0000002211464068FFF793BF00221146406809
:105D1000FFF79EBF00224068FFF792BF002281F08C
:105D200001014068FFF77CBF00231A46194640680E
:105D3000FFF76EBF00231A4619464068FFF760BFA1
:105D4000002211464068FFF753BF00221146406809
:105D5000FFF73EBF002202214068FFF741BF00234A
:105D60001A464068FFF72CBF024B03225A60024AD2
:105D70001A607047DCE303208C820D000021FFF7DE
:105D8000DBBD0021FFF7E0BD10B5044601700846F9
:105D9000FFF7A2FD00236360204610BD0078FFF7E7
:105DA000F0BF0000400830B5186000241868884231
:105DB000E5B206D90134082C02D040081860F5E796
:105DC0000725024B5B5D137030BD00BFB8820D002C
:105DD0002DE9F04307468FB000780E46FFF7CEFF5F
:105DE000002862DB3C781422002109A802F00DF99A
:105DF0000B232046002209A9ADF82430FFF77CFDD3
:105E00009DF82D4054B19DF82C5035B9DDF8308007
:105E10009DF834909DF8354003E00024A146A0464B
:105E20000125337905B1BBB99D420BD1B26842451A
:105E300008D18DF820908DF82140BDF82010B2894E
:105E4000914209D053B1002438780194009423463C
:105E500022460121FFF768FD002026E08DF80F3073
:105E6000B1680A9804AB0DF10F02FFF79BFF31797F
:105E700005B1B1B9A94208D0002438780194747BE7
:105E8000337B9DF80F200094E4E7B3684345F3D3D8
:105E90008DF820908DF82140BDF82020B3899A42DA
:105EA000EAD1049B4345E7D1D6E70FB0BDE8F083C4
:105EB00008B50078FFF708FDC0B208BD30B587B05F
:105EC00004460A9D00780095FFF71EFD3DB902A922
:105ED0002078FFF721FD9DF81430DB07F7D407B0D9
:105EE00030BD0078FFF700BD10B50446006818B15A
:105EF000FFF7DEFE0023236010BD10B50446FFF758
:105F0000F3FF204610BD000010B5094C00204FF6ED
:105F1000FF732060A080A07120816381FFF71CFEC9
:105F20002046044A0449BDE8104001F0D7B800BF3C
:105F3000E4E3032098DE0320FB5E0D0010B5044669
:105F4000006808B1FFF748FD204610BD10B5036892
:105F500004469B689847A368013BA3602BB923685C
:105F60002046DB68BDE81040184710BD0B68036091
:105F700013B15A6801325A60704710B50446006880
:105F800028B14368013B43600BB9FFF7DFFF2046B0
:105F900010BD000010B5064C002320462360FFF71B
:105FA00013FD2046034A0449BDE8104001F096B8AD
:105FB000F0E3032098DE03203D5F0D00F8B50646B0
:105FC0000D468F180024BD420CD0336815F8011B14
:105FD0009B6830469847002801DB0444F3E7002C17
:105FE00008BF04462046F8BD08B5FEF7DDFF08BD32
:105FF00003689B68184738B50D210546FFF7F8FF81
:106000000A2104462846FFF7F3FF204438BD38B57F
:106010000546FEF7C9FF04462846FFF7ECFF20447B
:1060200038BD30B58BB00B4600218DF82410012A05
:1060300098BF0A220DF12304B3FBF2F505FB1233DE
:1060400003F0FF03092B94BF30333733DBB2214613
:1060500004F801392B46002DEED1FEF7A5FF0BB059
:1060600030BD0CB42DE9F04387B000AF07F1380420
:10607000054654F8049B3C600E4623464A461421CC
:10608000381DFFF71DFE132805D8391D2846FEF7D9
:106090008BFF044613E000F1080323F00703E846F2
:1060A000ADEB030D411C23464A4668463C60FFF7B2
:1060B00007FE69462846FEF777FF0446C5461EB12F
:1060C0002846FFF798FF044420461C37BD46BDE82C
:1060D000F04302B070470000014B024A1A6070475B
:1060E000F4E3032033830D00024B1A68024B1A605D
:1060F000704700BF2CDE0320F8E303202DE9F04FAA
:106100002DED028BB0EE448AF0EE648A55EC114B13
:1061100057EC126B83B011EE102A2B4612EE100AC8
:1061200039468DED000B5BEC13AB01F095FE9DED58
:10613000000B38BB51EC100B22462B4601F070FAD5
:106140005246804689465B4651EC180B01F068FACE
:1061500002460B464046494601F016FC2246804660
:1061600089462B463046394601F05AFA02460B461C
:106170004046494601F032FD52465B4601F052FA74
:1061800041EC100B03B0BDEC028BBDE8F08F002199
:10619000FFF7EABC10B58368044613B10322014639
:1061A0009847204610BD10B50446FFF7F3FF204680
:1061B00010BD13B50B46044603C88DE8030093E8F1
:1061C000030084E803009DE8030083E8030002B0B5
:1061D00010BD00000348044A04490023836000F016
:1061E0007DBF00BFFCE3032098DE0320A7610D0004
:1061F00008B50C4B33B100F01BFC03681B699847D2
:10620000002809DC084B63B100F094FC03681B69AB
:106210009847002803DC08BDAFF30080F2E7AFF336
:10622000008008BD000000000000000008B5FFF776
:10623000DFFFFFF7A9FB014B186008BD30E7032023
:106240000248034A0349121A01F0D4BE00F40320A5
:1062500004F4032010860D0007B5002300931A46AE
:106260006FF07701FFF7A2FC03B05DF804FB0000BC
:1062700007B543880A2B08D0502B09D1094B1B685E
:106280003BB103B05DF804EB1847FFF7E5FF06E00C
:10629000002300931A466FF07701FFF787FC03B0E5
:1062A0005DF804FB0CE4032038B5104C104D236856
:1062B000AB42104B0CBF012200221A7002D0FFF734
:1062C000BFFF2560FFF748FB044601F0A7FE0A4B1D
:1062D00013B12046AFF3008000210748FFF7D8FC38
:1062E00000210648BDE83840FFF756BC00F4032003
:1062F0001E1C279A10E403200000000071620D00AC
:1063000070470020704710B51021044600F0F4FEDD
:10631000204610BD08B508B1FFF7F5FF08BD002203
:10632000026010B54FF69C728280B1F904408480FF
:106330008A8002680C6804600A6010BD10B50446CB
:106340000068FFF7B5FC204610BD38B5C468F4B14D
:106350002378022B03D104F10C00FFF7EFFF6568EF
:1063600035B12846FFF716FF1021284600F0C4FE7D
:10637000A56835B12846FFF70DFF1021284600F02B
:10638000BBFE20461421BDE8384000F0B5BE38BD44
:1063900013B5044691E8050000234B600B602060B4
:1063A000626001A801930093FFF7E7FD204602B069
:1063B00010BDF7B50C4602AD54F8043B45F8083D56
:1063C00006460F4601A82146FFF7D0FD2946304674
:1063D000FFF7DEFF01A8FFF7D0FD2046FFF7CDFD58
:1063E0003846082100F088FE304603B0F0BD0000BA
:1063F00038B500230446036010200D46FDF74DFE1E
:1064000028B1012343608360024B0360C5602060B4
:10641000204638BDD0830D00826810B50AB900F05F
:106420007EFEC368BDE81040184708B5006800F15B
:106430001001FFF7F1FF08BD826810B50AB900F03E
:106440006EFEC368BDE81040184708B5006800F14B
:106450001001FFF7F1FF08BD38B5002383608B689A
:1064600004460D462BB102229847EB68E360AB6807
:10647000A360204638BD0000F0B589B004686846C6
:10648000FFF74DFF00238DF808304FF00202D4E8EB
:106490004F3F002B03D1C4E8412F0029F7D102D090
:1064A0008DF8083063E014F10C0503D069462846E6
:1064B000FFF735FFBFF35F8F01236370002004F106
:1064C0000803BFF35F8F53E8006F43E80002002A20
:1064D000F9D1BFF35F8F002E49D0FFF74DFB20B1FC
:1064E00029463046FFF798FF3AE0314602A8FFF709
:1064F000B3FFE068B4F9105008B101F0B7FD0690A1
:106500001020ADF81C50FDF7C8FD0546E8B1002786
:1065100087601820FDF7C1FD044688B101468760F9
:1065200002A8FFF746FE049BA268A360059B0492A5
:1065300006A9E268E36004F110000592FFF7EFFEA0
:106540000D4BEB600D4B2C60AB6006A8FFF7F6FE21
:1065500002A8FFF71FFE002229460948FFF714FB97
:106560003046FFF717FE1021304600F0C5FD6846A3
:10657000FFF7E4FE09B0F0BD2B640D00A1660D002D
:10658000816B0D002DE9F04F8BB006460F4690460B
:1065900099469DF850A0FFF76BFB07AD834630BBD3
:1065A0004FF62E73059005A92846ADF81830FFF771
:1065B000B6FE1420FDF771FD044658B102230370A6
:1065C00001234370C0F804B0C0F808B029460C306D
:1065D000FFF7A5FE3046214640F8044BFFF708FFC1
:1065E0002846FFF7ABFE05A8FFF7A8FE52E00024FF
:1065F0000C2314206C60AC600793FDF74EFD014640
:1066000018B1047044704460846004A80391FFF7DB
:10661000EFFE224B08930820FDF73FFD044628B10A
:10662000039B40F8043B04A9FFF7A0FC00955FFA28
:106630008AF34A46414638460994FFF721FB20B9C0
:10664000039B5B7803F0FF0283B1039B059304A9CE
:1066500006A8FFF78BFC05A93046FFF799FE06A8B0
:10666000FFF78BFC04A8FFF788FC13E04FF69C7340
:1066700005A903A80592ADF81830FFF7FDFE05A89F
:10668000FFF75CFE05A80999FFF793FE06A8FFF740
:1066900074FCDAE730460BB0BDE8F08F11680D00EE
:1066A000022AF8B5044606D0032A17D0012A22D1BF
:1066B0000B6803601FE018200E68FDF7EEFC05462E
:1066C00050B13146FFF7C8FE3069B6F9147008B111
:1066D00001F0CCFC2861AF8225600CE0046854B165
:1066E00004F11000FFF72AFE2046FFF753FD1821A2
:1066F000204600F001FD0020F8BD38B5002383607E
:106700008B6804460D462BB102229847EB68E36084
:10671000AB68A360204638BD022A70B5044606D097
:10672000032A11D0012A18D10B68036015E0142048
:106730000E68FDF7B2FC054620B13146FFF7DDFFDC
:10674000337C2B74256008E0046834B12046FFF7E1
:1067500021FD1421204600F0CFFC002070BD000078
:10676000F0B5002387B00C46BFF35F8F50E8006F91
:1067700040E80032002AF9D1BFF35F8F002E3FD0EE
:106780001846FFF7F9F9074620B121463046FFF7D2
:1067900053FE2EE0314601A8FFF7AFFF23788DF8B6
:1067A00014301020FDF779FC0546D0B18760142025
:1067B000FDF773FC044678B18760014601A8FFF736
:1067C000F8FC039BA268A360049B0392E268E36069
:1067D0009DF81430049223740A4BEB600A4B2C6032
:1067E000AB6001A8FFF7D6FC002229460748FFF757
:1067F000CBF93046FFF7CEFC1021304600F07CFC90
:1068000007B0F0BD4B640D0019670D00816B0D00E2
:1068100030B585B004460D4668461146FFF7C9FD00
:106820007CB124B228460DB101F020FC029002A9EF
:106830006846ADF80C40FFF71FFE02A8FFF77EFD8B
:106840001DE000988DF808404FF00102D0E84F3F5E
:10685000A34203D1C0E8412F0029F7D102D08DF81F
:1068600008300CE010F10C014FF0010318BF037366
:10687000BFF35F8F043000F8033CFFF771FF01A8FE
:10688000FFF77BFB05B030BD704710B518210446FB
:1068900000F032FC204610BDF0B5037D062B8DB014
:1068A0000E4600F104074FF0000402D000F1080585
:1068B00018E00CAD394605F8304D2F232A460A2042
:1068C000FFF792F8284601F0ECFB33680246DB68DC
:1068D0002946304698470FE024B12E213046FFF775
:1068E00087FB044415F8011D0A223046FFF799FB87
:1068F000BD420444F0D120460DB0F0BD10B5054BAB
:106900000446112240F8043B002101F07EFB2046A2
:1069100010BD00BFEC830D000346074A10B543F8D5
:10692000042B01F1100251F8044B43F8044B91423F
:10693000F9D10A781A7010BDEC830D0010B59DF8DE
:10694000084044EA032343EA024242EA0161042385
:106950004160037510BD37B50D788B784A78C978DA
:1069600000912946FFF7EAFF03B030BD417470473C
:10697000704708B50021007CFFF7D6F830EA200008
:1069800028BF4FF0FF3008BD08B50121007CFFF79C
:10699000CBF830EA200028BF4FF0FF3008BD08B523
:1069A000007CFFF7B9F820EAE07008BD08B5007C6C
:1069B000FFF7AAF820EAE07008BD007CFFF7C4B832
:1069C00010B51421044600F097FB204610BD38B5E1
:1069D0000446007C0D46FFF79FF8002801DC607C30
:1069E00028B12946207CFFF7A7F820EAE07038BDDF
:1069F00010B50446002363604FF47A73A360054B1F
:106A0000236001230846217463741146FFF76CF874
:106A1000204610BD00840D000022007CFFF76CB8FA
:106A200010B514220446002101F0EFFA204610BDF3
:106A300030B50E4D87B001A8FFF7F2FF296811F0BD
:106A4000010410D12846FDF72EFB60B101AA2146B2
:106A50000748FFF7CDFF2846FDF72AFB054A064900
:106A6000034800F03BFB024807B030BD14E40320AC
:106A700018E4032098DE032071690D00704741740B
:106A8000704708B5007CFEF7EFFF20EAE07008BD14
:106A900008B5007CFEF7C0FF20EAE07008BD08B52D
:106AA000007CFEF7C9FF30EA200028BF4FF0FF301E
:106AB00008BD08B5007CFEF7B7FF30EA200028BF0C
:106AC0004FF0FF3008BD007CFEF7BEBF10B51421AB
:106AD000044600F011FB204610BD70B5457C04460D
:106AE0000E4625B9007CFEF7BFFF002805DD3146C4
:106AF000207CBDE87040FEF787BF284670BD0000CF
:106B000010B5044608461146002262604FF47A72BE
:106B1000A260054A22600122207462741A46FEF7C0
:106B20006BFF204610BD00BF30840D00007CFEF7D7
:106B300093BF000038B50C4D296811F0010411D144
:106B40002846FDF7B0FA68B1084A094B09482146C2
:106B5000FFF7D6FF2846FDF7ABFA074A0749054875
:106B600000F0BCFA034838BDC4E40320C8E40320A5
:106B700040E403202CE4032098DE03207D6A0D000E
:106B800010B5836804460BB900F0C9FAC36898478A
:106B9000A3681BB1032221462046984720461021B6
:106BA000BDE8104000F0A8BA7047F8B50646154693
:106BB0000C468F18BC4206D0336814F8011B9B6842
:106BC00030469847F6E72846F8BD0022007CFEF7DD
:106BD00053BF0021007CFEF757BF0021007CFEF769
:106BE0005BBF0021007CFEF75FBF0021007CFEF749
:106BF00063BF10B51421044600F07EFA204610BD94
:106C000010B50446002363604FF47A73A360044B0D
:106C10002174084623601146FEF75EFF204610BD32
:106C200060840D000021007CFEF74EBF002211465B
:106C30004068FEF7FDBF002211464068FFF708B824
:106C400000224068FEF7FCBF002281F0010140688D
:106C5000FEF7E6BF00231A4601214068FEF7D8BFC1
:106C600000231A4619464068FEF7CABF00221146A3
:106C70004068FEF7BDBF002211464068FEF7A8BF7E
:106C8000002202214068FEF7ABBF00231A4640688D
:106C9000FEF796BF38B5054688B104684CB1A368C5
:106CA0001BB103222146204698471021204600F0C0
:106CB00023FA28461421BDE8384000F01DBA38BD3B
:106CC00010B103685B681847704710B50368044645
:106CD000BBB15868FEF760FE78B923685A7C12B9D8
:106CE0005868FEF761FE23685868FEF765FE206865
:106CF0000023236028B1FFF7CDFF206808B1FFF71C
:106D0000C9FF204610BD38B50446D0F8C40108B10B
:106D1000FDF7C7F9D4F8C00108B1FEF75DFED4F85D
:106D2000BC5135B12846FFF7D0FF0421284600F0BA
:106D3000E3F9206808B1FFF7C3FF204638BD000023
:106D400010B5044B044640F8083BFFF7DCFF204633
:106D500010BD00BF88840D0038B50E4C0E4B23606B
:106D60000025022304F5E4706360A560C4F8C451F3
:106D7000C4F8C851FEF728FE084BC4F8CC5184F87B
:106D8000D05123602046064A0649BDE8384000F04D
:106D9000A5B900BF4CE50320F0840D0088840D00E8
:106DA00098DE0320416D0D00002211464068FEF779
:106DB0001FBF002211464068FEF73ABF002211466D
:106DC0004068FEF745BF00224068FEF739BF002249
:106DD00081F001014068FEF723BF00231A461946DF
:106DE0004068FEF715BF00231A4619464068FEF7B3
:106DF00007BF002211464068FEF7EABE00220221CA
:106E00004068FEF7EDBE00231A464068FEF7D8BE84
:106E1000024B04225A60024A1A60704720E703209E
:106E2000BC840D0000231A464068FEF7C9BE00224C
:106E300002214068FEF7D4BE002211464068FEF7EA
:106E4000C7BE002211464068FEF7D2BE00231A4694
:106E500019464068FEF7D4BE00231A46194640681A
:106E6000FEF7D6BE002281F001014068FEF7D8BED1
:106E700000224068FEF7E4BE002211464068FEF79B
:106E8000E7BE002211464068FEF7D2BE2DE9F0436E
:106E9000002495B016460D460746FFF72FFD214604
:106EA00020220CA8009401F0B0F840230C93214656
:106EB0006B460CAA3046FEF7CFFC0446002844D1AE
:106EC000024601216868FEF793FE022180462246B1
:106ED0006868FEF78DFE009E81462146002E34D064
:106EE000002932D17368022B02D00A2B09D02AE084
:106EF000B8F1000F27D0716938460431FFF72BFD38
:106F000020E0B9F1000F1ED07469112201A801F030
:106F10007CF806238DF8143001AD04F10803183411
:106F2000186859682A4603C20833A3421546F7D1A8
:106F300001A906A807ADFFF7EFFC0FCD3C1D0FC45C
:106F40002B6823700121F669C8E70098FEF77CFCE6
:106F5000384615B0BDE8F083024B034A1A600022A0
:106F60005A60704728E70320F0840D0070B5184E72
:106F7000316811F0010504460AD13046FDF793F857
:106F800030B129461348FEF7FFFE3046FDF790F872
:106F90001048FEF7A6FF28B1A4F10B03022B01D87D
:106FA000002070BD00F074F8FFF73CFE08B1012C22
:106FB000F6D9FFF7BFFDFFF7B9FD18B1A4F109033A
:106FC000012BEDD9232C8CBF0020012070BD00BF08
:106FD0009CDE0320A0DE0320232838B504460D469E
:106FE0000AD8FF2908D0FFF7C1FF28B1294620465B
:106FF000BDE83840FEF748BC38BD38B504460D46FC
:10700000FEF74AFCFF2810D0062804D84D2323FAA7
:1070100000F0C30709D42046FFF7A8FF28B129468E
:107020002046BDE83840FEF73FBC38BD0D2810B5FE
:1070300004469CBF0E34A4B22046FFF797FF50B120
:1070400003212046FEF718FC032804D12046BDE8A2
:107050001040FEF731BC002010BD000070B50446A2
:1070600014252A46094E002100F0CFFF2580202557
:107070003146A5602561284600F040F83146606041
:10708000284600F03BF8E060204670BD1C850D00EE
:1070900030B50E4D296811F0010487B013D1284690
:1070A000FDF701F878B101A8FFF7D8FF01AA214642
:1070B0000748FFF7A5FD2846FCF7FAFF054A0649F1
:1070C000034800F00BF8024807B030BD34E7032056
:1070D00038E7032098DE0320A96B0D000B4601461C
:1070E000184600F079BF0000024B1868BFF35F8FAD
:1070F000704700BF4CE70320FCF7D1BF00F000B899
:1071000010B5002814BF044601242046FEF7C8FD30
:1071100020B9FFF7E9FF08B18047F6E710BD08B5D1
:10712000FEF7D6FD184B1A68D1075CBF01221A6022
:10713000164B1A68D2075CBF01221A60144B1A68FA
:10714000D0075CBF01221A60124B1A68D1075CBFDE
:1071500001221A60104B1A68D2075CBF01221A6024
:107160000E4B1A68D0075CBF01221A600C4B1A68DC
:10717000D1075CBF01221A600A4B1A68D2075CBFB4
:1071800001221A60704700BF6CE7032068E7032004
:1071900064E7032060E703205CE7032058E703204F
:1071A00054E7032050E70320244B1A68D0075CBF44
:1071B00001221A60224B1A68D1075CBF01221A60B3
:1071C000204B1A68D2075CBF01221A601E4B1A6856
:1071D000D0075CBF01221A601C4B1A68D1075CBF44
:1071E00001221A601A4B1A68D2075CBF01221A608A
:1071F000184B1A68D0075CBF01221A60164B1A6838
:10720000D1075CBF01221A60144B1A68D2075CBF19
:1072100001221A60124B1A68D0075CBF01221A6063
:10722000104B1A68D1075CBF01221A600E4B1A6816
:10723000D2075CBF01221A60704700BF9CE70320A1
:1072400098E7032094E7032090E703208CE70320CE
:1072500088E7032084E7032080E703207CE70320FE
:1072600078E7032074E7032070E70320244B1A68B3
:10727000D0075CBF01221A60224B1A68D1075CBF9D
:1072800001221A60204B1A68D2075CBF01221A60E3
:107290001E4B1A68D0075CBF01221A601C4B1A688B
:1072A000D1075CBF01221A601A4B1A68D2075CBF73
:1072B00001221A60184B1A68D0075CBF01221A60BD
:1072C000164B1A68D1075CBF01221A60144B1A686A
:1072D000D2075CBF01221A60124B1A68D0075CBF4C
:1072E00001221A60104B1A68D1075CBF01221A6094
:1072F0000E4B1A68D2075CBF01221A60704700BFAC
:10730000CCE70320C8E70320C4E70320C0E703203D
:10731000BCE70320B8E70320B4E70320B0E703206D
:10732000ACE70320A8E70320A4E70320A0E703209D
:10733000184B1A68D1075CBF01221A60164B1A68F5
:10734000D2075CBF01221A60144B1A68D0075CBFD9
:1073500001221A60124B1A68D1075CBF01221A6021
:10736000104B1A68D2075CBF01221A600E4B1A68D4
:10737000D0075CBF01221A600C4B1A68D1075CBFB2
:1073800001221A600A4B1A68D2075CBF01221A60F8
:10739000704700BFECE70320E8E70320E4E70320A1
:1073A000E0E70320DCE70320D8E70320D4E703204D
:1073B000D0E703202DE9F0432DED028B8BB055EC87
:1073C000104B00F057F8294BB0EE408AF0EE608A7F
:1073D00093F90060731C12D022462B4620462946A2
:1073E00000F06CFD074650B94FF000084FF000095F
:1073F0002046294642464B4600F038FD40B9B0EEE3
:10740000480AF0EE680A0BB0BDEC028BBDE8F083D1
:10741000174B08970122CDE90445CDE902458DE8D7
:107420000C00B6B142464B464046494600F0D6FBFA
:10743000022ECDE906010ED1FEF75AFC212303608E
:10744000089B73B99DED060B0BB0BDEC028BBDE83C
:10745000F083CDE90689684600F0DCF80028EFD11A
:10746000EAE7FEF745FC089B0360EBE730DE03200C
:1074700020850D002DE9F041654955EC104B0E4675
:107480002940B14200F09780002D2B4610EE102AC3
:1074900074DD2F157FD0A7F2FF37C3F31303F9076D
:1074A00043F4801365D403EBD27100260B447F10A4
:1074B0005200B64616204FF400110EEB01049C4218
:1074C0004FEAD2754FEA420203DC1B1B04EB010EAC
:1074D0000E44013805EB43034FEA5101EDD18446D8
:1074E00020244FF0004109E020D003EBD275013C8D
:1074F0004FEA51012B444FEA420220D09E4501EB56
:107500000C05F1DA002D05EB010C09DBF046954284
:10751000CEEB030300D9013B521B0844C646E4E707
:10752000BCF1000FF2DB0EF10108F0E795421ED826
:10753000002D05EB010C50DB98460023ECE71343CC
:1075400004D0421C4DD000F00103184440087110D3
:10755000F30701F17F5101F5001148BF40F00040F1
:1075600001EB0753024643EC102BBDE8F081734654
:10757000BBE75B0003EBD273520094E725F00041B8
:10758000214328D0ADBB2F46D30A153F5205002B0F
:10759000FAD0DD0228D4002100E001465B00DC02C5
:1075A00001F10100F9D5C0F1200422FA04F42343CB
:1075B0007F1A82406FE710EE102A2B4610EE100A59
:1075C000294600F0E1F922462B4600F02BF841EC69
:1075D000100BBDE8F081BDE8F081BCF1000FA2DA2C
:1075E000AAE701362046B2E720244FF0FF31002001
:1075F000DBE710EE102A2B462046294600F010F853
:1076000002460B4600F0EAFA41EC100BBDE8F081AF
:107610000000F07F0020704781F0004102E000BFD1
:1076200083F0004330B54FEA41044FEA430594EA42
:10763000050F08BF90EA020F1FBF54EA000C55EA7D
:10764000020C7FEA645C7FEA655C00F0E2804FEA4E
:107650005454D4EB5555B8BF6D420CDD2C4480EA30
:10766000020281EA030382EA000083EA010180EA60
:10767000020281EA0303362D88BF30BD11F0004FAE
:107680004FEA01314FF4801C4CEA113102D04042E4
:1076900061EB410113F0004F4FEA03334CEA13331F
:1076A00002D0524263EB430394EA050F00F0A78037
:1076B000A4F10104D5F1200E0DDB02FA0EFC22FA32
:1076C00005F2801841F1000103FA0EF2801843FA26
:1076D00005F359410EE0A5F120050EF1200E012A17
:1076E00003FA0EFC28BF4CF0020C43FA05F3C01855
:1076F00051EBE37101F0004507D54FF0000EDCF1CE
:10770000000C7EEB00006EEB0101B1F5801F1BD376
:10771000B1F5001F0CD349085FEA30004FEA3C0C7A
:1077200004F101044FEA445212F5800F80F09A8070
:10773000BCF1004F08BF5FEA500C50F1000041EB74
:10774000045141EA050130BD5FEA4C0C404141EB78
:10775000010111F4801FA4F10104E9D191F0000F9F
:1077600004BF01460020B1FA81F308BF2033A3F122
:107770000B03B3F120020CDA0C3208DD02F1140C19
:10778000C2F10C0201FA0CF021FA02F10CE002F154
:107790001402D8BFC2F1200C01FA02F120FA0CFC4D
:1077A000DCBF41EA0C019040E41AA2BF01EB045196
:1077B000294330BD6FEA04041F3C1CDA0C340EDC94
:1077C00004F11404C4F1200220FA04F001FA02F3D7
:1077D00040EA030021FA04F345EA030130BDC4F195
:1077E0000C04C4F1200220FA02F001FA04F340EA8A
:1077F0000300294630BD21FA04F0294630BD94F03B
:10780000000F83F4801306BF81F480110134013D21
:107810004EE77FEA645C18BF7FEA655C29D094EA92
:10782000050F08BF90EA020F05D054EA000C04BF10
:107830001946104630BD91EA030F1EBF00210020FB
:1078400030BD5FEA545C05D14000494128BF41F09A
:10785000004130BD14F580043CBF01F5801130BDFE
:1078600001F0004545F0FE4141F470014FF0000089
:1078700030BD7FEA645C1ABF194610467FEA655C3A
:107880001CBF0B46024650EA013406BF52EA0335DC
:1078900091EA030F41F4002130BD00BF90F0000FCA
:1078A00004BF0021704730B54FF4806404F1320406
:1078B0004FF000054FF0000150E700BF90F0000FBF
:1078C00004BF0021704730B54FF4806404F13204E6
:1078D00010F0004548BF40424FF000013EE700BFB6
:1078E00042004FEAE2014FEA31014FEA02701FBF46
:1078F00012F07F4393F07F4F81F06051704792F018
:10790000000F14BF93F07F4F704730B54FF4607491
:1079100001F0004521F0004120E700BF50EA0102DC
:1079200008BF704730B54FF000050AE050EA010289
:1079300008BF704730B511F0004502D5404261EBF9
:1079400041014FF4806404F132045FEA915C3FF43A
:10795000DCAE4FF003025FEADC0C18BF03325FEAD3
:10796000DC0C18BF033202EBDC02C2F1200300FA88
:1079700003FC20FA02F001FA03FE40EA0E0021FAAD
:1079800002F11444C1E600BF70B54FF0FF0C4CF497
:10799000E06C1CEA11541DBF1CEA135594EA0C0F4D
:1079A00095EA0C0F00F0DEF82C4481EA030621EA88
:1079B0004C5123EA4C5350EA013518BF52EA0335C3
:1079C00041F4801143F4801338D0A0FB02CE4FF075
:1079D0000005E1FB02E506F00042E0FB03E54FF0A5
:1079E0000006E1FB03569CF0000F18BF4EF0010E9D
:1079F000A4F1FF04B6F5007F64F5407404D25FEA99
:107A00004E0E6D4146EB060642EAC62141EA55514B
:107A10004FEAC52040EA5E504FEACE2EB4F1FD0C8D
:107A200088BFBCF5E06F1ED8BEF1004F08BF5FEA0B
:107A3000500E50F1000041EB045170BD06F00046BD
:107A400046EA010140EA020081EA0301B4EB5C046A
:107A5000C2BFD4EB0C0541EA045170BD41F4801162
:107A60004FF0000E013C00F3AB8014F1360FDEBF87
:107A7000002001F0004170BDC4F10004203C35DA63
:107A80000C341BDC04F11404C4F1200500FA05F3E6
:107A900020FA04F001FA05F240EA020001F0004287
:107AA00021F0004110EBD37021FA04F642EB0601FD
:107AB0005EEA430E08BF20EAD37070BDC4F10C0427
:107AC000C4F1200500FA04F320FA05F001FA04F2EB
:107AD00040EA020001F0004110EBD37041F10001D7
:107AE0005EEA430E08BF20EAD37070BDC4F12005E2
:107AF00000FA05F24EEA020E20FA04F301FA05F24A
:107B000043EA020321FA04F001F0004121FA04F2F1
:107B100020EA020000EBD3705EEA430E08BF20EAC1
:107B2000D37070BD94F0000F0FD101F000464000FB
:107B300041EB010111F4801F08BF013CF7D041EA7D
:107B4000060195F0000F18BF704703F00046520081
:107B500043EB030313F4801F08BF013DF7D043EA52
:107B60000603704794EA0C0F0CEA135518BF95EA08
:107B70000C0F0CD050EA410618BF52EA4306D1D18F
:107B800081EA030101F000414FF0000070BD50EAAE
:107B9000410606BF1046194652EA430619D094EA38
:107BA0000C0F02D150EA013613D195EA0C0F05D122
:107BB00052EA03361CBF104619460AD181EA030176
:107BC00001F0004141F0FE4141F470014FF000002E
:107BD00070BD41F0FE4141F4780170BD70B54FF0C9
:107BE000FF0C4CF4E06C1CEA11541DBF1CEA135549
:107BF00094EA0C0F95EA0C0F00F0A7F8A4EB05042B
:107C000081EA030E52EA03354FEA013100F0888021
:107C10004FEA03334FF0805545EA131343EA1263EA
:107C20004FEA022245EA111545EA10654FEA00269F
:107C30000EF000419D4208BF964244F1FD0404F558
:107C4000407402D25B084FEA3202B61A65EB0305B4
:107C50005B084FEA32024FF480104FF4002CB6EB71
:107C6000020E75EB030E22BFB61A754640EA0C00F1
:107C70005B084FEA3202B6EB020E75EB030E22BF31
:107C8000B61A754640EA5C005B084FEA3202B6EB72
:107C9000020E75EB030E22BFB61A754640EA9C0031
:107CA0005B084FEA3202B6EB020E75EB030E22BF01
:107CB000B61A754640EADC0055EA060E18D04FEABF
:107CC000051545EA16754FEA06164FEAC30343EA5F
:107CD00052734FEAC2025FEA1C1CC0D111F4801F2C
:107CE0000BD141EA00014FF000004FF0004CB6E725
:107CF00011F4801F04BF01430020B4F1FD0C88BFC4
:107D0000BCF5E06F3FF6AFAEB5EB030C04BFB6EBCE
:107D1000020C5FEA500C50F1000041EB045170BDC1
:107D20000EF0004E4EEA113114EB5C04C2BFD4EBEE
:107D30000C0541EA045170BD41F480114FF0000E72
:107D4000013C90E645EA060E8DE60CEA135594EAEE
:107D50000C0F08BF95EA0C0F3FF43BAF94EA0C0FF1
:107D60000AD150EA01347FF434AF95EA0C0F7FF466
:107D700025AF104619462CE795EA0C0F06D152EABA
:107D800003353FF4FDAE1046194622E750EA41069E
:107D900018BF52EA43067FF4C5AE50EA41047FF4AF
:107DA0000DAF52EA43057FF4EBAE12E74FF0FF3C14
:107DB00006E000BF4FF0010C02E000BF4FF0010CE5
:107DC0004DF804CD4FEA410C7FEA6C5C4FEA430C5E
:107DD00018BF7FEA6C5C1BD001B050EA410C0CBFAD
:107DE00052EA430C91EA030F02BF90EA020F00200F
:107DF000704710F1000F91EA030F58BF994208BF76
:107E000090422CBFD8176FEAE37040F00100704732
:107E10004FEA410C7FEA6C5C02D150EA013C07D189
:107E20004FEA430C7FEA6C5CD6D152EA033CD3D0D4
:107E30005DF8040B704700BF8446104662468C46CE
:107E40001946634600E000BF01B5FFF7B7FF002801
:107E500048BF10F1000F01BD4DF808EDFFF7F4FF2A
:107E60000CBF012000205DF808FB00BF4DF808EDB5
:107E7000FFF7EAFF34BF012000205DF808FB00BFD8
:107E80004DF808EDFFF7E0FF94BF012000205DF8FA
:107E900008FB00BF4DF808EDFFF7CEFF94BF0120AF
:107EA00000205DF808FB00BF4DF808EDFFF7C4FFA8
:107EB00034BF012000205DF808FB00BF4FEA410CF1
:107EC0007FEA6C5C02D150EA013C0AD14FEA430CD4
:107ED0007FEA6C5C02D152EA033C02D14FF0000011
:107EE00070474FF0010070474FEA410212F500124F
:107EF00015D211D56FF47873B3EB625212D94FEAF1
:107F0000C12343F0004343EA505311F0004F23FADA
:107F100002F018BF404270474FF00000704750EA2F
:107F2000013005D111F0004008BF6FF000407047EC
:107F30004FF00000704700BF4FEA4102B2F1E0434A
:107F400024BFB3F5001CDCF1FE5C0DD901F0004C40
:107F50004FEAC0024CEA5070B2F1004F40EB830090
:107F600008BF20F00100704711F0804F21D113F1BC
:107F70003872BCBF01F00040704741F480114FEAF5
:107F80005252C2F11802C2F1200C10FA0CF320FA7E
:107F900002F018BF40F001004FEAC1234FEAD3239B
:107FA00003FA0CFC40EA0C0023FA02F34FEA430305
:107FB000CCE77FEA625307D150EA01331EBF4FF08E
:107FC000FE4040F44000704701F0004040F0FE40A9
:107FD00040F40000704700BF10B5054C13462CB1AB
:107FE0000A4601460220AFF3008010BD204610BDB6
:107FF0000000000010B5431E0A44914204D011F85D
:10800000014B03F8014FF8E710BD024403469342C9
:1080100002D003F8011BFAE77047000038B5124B95
:108020001C68A36B0546D3B91820FDF739FE43F24F
:108030000E33A06303804AF6CD33438041F23423EC
:1080400083804EF26D63C3804DF6EC63038105239C
:1080500043810B23838101220023C0E90423A36B06
:1080600000221D615A6138BD94DE0320024B014697
:10807000186800F003B800BF94DE032070B5064610
:1080800008460C4600F00DF8451C29463046FDF721
:1080900027FE064618B12A462146FFF7ABFF3046B9
:1080A00070BD034613F8012B002AFBD1181A0138C2
:1080B0007047000021400D005D400D0089400D001B
:1080C0008D400D00000000000000000000000000D6
:1080D00011410D000000000000000000B7400D003D
:1080E000B9400D00F9400D00F3400D000000000004
:1080F00000000000C9400D00DD400D0064656661B0
:10810000756C7420004D5342004C5342003C535058
:108110004953657474696E67732064656661756C34
:10812000743E003C53504953657474696E67732004
:108130002573256C75202573204D4F444525643EDD
:10814000006D696331203D202569207C206D6963C5
:1081500032203D202569207C206D696333203D203D
:108160002569207C2054696D65203D2025690A0021
:1081700077616974696E6720666F7220736F756EC0
:1081800064005431203D202569207C205432203D5C
:10819000202569207C205433203D2025690A004198
:1081A000203D2025302E3666207C2042203D202593
:1081B000302E36660A0054203D2025302E32660AC5
:1081C0000058203D2025302E3266207C2059203D4D
:1081D0002025302E32660A0061203D2025302E32C7
:1081E00066207C2062203D2025302E3266207C20B7
:1081F00063203D2025302E32660A004C6F6E676981
:10820000747564004C61746974756465004E6F69BF
:108210007365000000C001400010024000200240D1
:108220002C01000018000000F40100002C010000E7
:1082300050000000000000000000000079550D0013
:1082400095550D000000000000000000A9550D002C
:10825000BD550D00256400256C750025303478006F
:108260005C752530345800747275650066616C73F6
:108270006500252E2A6600256600252E2A6C6600DC
:10828000256C660000000000000000005F5D0D002E
:10829000555D0D004B5D0D00415D0D00355D0D0020
:1082A000295D0D001D5D0D00155D0D000B5D0D00C0
:1082B000015D0D008D6E0D0000081018202830386B
:1082C000626175640053657269616C00536572691F
:1082D000616C31007479706500706172616D00636A
:1082E0006D6400696400686E64007374726D00668A
:1082F000696C74006C766C0061646448616E646CD7
:1083000065720072656D6F766548616E646C65724A
:1083100000656E756D48616E646C657273004A53DA
:108320004F4E53747265616D4C6F6748616E646C3B
:1083300065720061707000253031307520005D205D
:10834000002C200028293A2000205B00636F646520
:10835000203D200025690064657461696C73203DCF
:1083600020000D0A006C6E00666E00636F6465008D
:1083700064657461696C006E6F6E65007472616330
:108380006500696E666F007761726E006572726F6C
:10839000720070616E696300616C6C005A00252B7D
:1083A0003033643A253032750025592D256D2D2541
:1083B000645425483A254D3A2553257A0061736364
:1083C00074696D65000000000000000000000000FE
:1083D00001630D0007630D004B630D0015630D0075
:1083E00003630D00000000000000000099680D000C
:1083F00089680D008B680D0000000000000000007F
:1084000071690D00C1690D00CF690D00BD5F0D00E0
:10841000AD690D0073690D0089690D00BB690D0020
:108420009F690D006D690D00000000000000000054
:108430007D6A0D00CD6A0D00DB6A0D00BD5F0D0089
:10844000916A0D00B36A0D009F6A0D00C76A0D00A6
:108450007F6A0D00836A0D0000000000000000002C
:10846000A96B0D00F36B0D00CB6B0D00AB6B0D001A
:10847000D36B0D00DB6B0D00E36B0D00EB6B0D00A0
:1084800000000000000000008B6C0D00816C0D00EE
:10849000776C0D006D6C0D00616C0D00556C0D005E
:1084A000496C0D00416C0D00376C0D002D6C0D00FA
:1084B0008D6E0D000000000000000000076E0D0032
:1084C000FD6D0D00F36D0D00A96D0D00E76D0D0044
:1084D000DB6D0D00CF6D0D00C76D0D00BD6D0D0086
:1084E000B36D0D008D6E0D00000000000000000057
:1084F000256E0D002F6E0D00396E0D00436E0D00C0
:108500004D6E0D00596E0D00656E0D00716E0D0003
:10851000796E0D00836E0D008D6E0D000000000061
:108520007371727400000000000000000000000081
:10853000000000000000000000000000000000003B
:10854000000000000000000000000000000000002B
:10855000000000000000000000000000000000001B
:10856000000000000000000000000000000000000B
:1085700000000000000000000000000000000000FB
:1085800000000000000000004300000045470D000F
:10859000954C0D00A94C0D00AD4C0D00CB4C0D00C1
:1085A000CF4C0D00D34C0D00D74C0D00A54F0D0046
:1085B000C94F0D00CD4F0D00B3510D00B7510D0047
:1085C000BB510D00E9540D00ED540D00F1540D00A8
:1085D00075550D0045580D00695D0D00095F0D00D2
:1085E000955F0D00D9600D00E9600D00D5610D00AB
:1085F000596D0D00116E0D00596F0D0025710D00A4
:10860000A9710D006D720D0031730D0000000000A6
:048610000000000066
:10861400A00F000013000000120000001100000071
:10862400BD830D00010000000000000028850D003E
:1086340048850D0068850D00000000000000000062
:10864400000000000000000088850D00000000000C
:108654000000000000000000000000000000000016
:108664000000000000000000000000000000000006
:1086740000000000000000000000000000000000F6
:0C868400000000000000000034DE0320B5
:10869000FFFFFFFF00000102030405060708090AA7
:1086A0000B0C0D0E0F101112131415161718191AA2
:0886B0001B1C1D1E1F202800E9
:0486B80078563412AA
:04000003D0004020C9
:00000001FF
