:02000002D0002C
:1040000000400D0028660D00000006000C000501B0
:084010000401E80500000000B6
:0440180070610D00C6
:10401C0009480A49884208B505D0094A824202D0AB
:10402C00121A02F05BF80748074A0021121A02F034
:10403C0060F8014808BD00BF68DE032084650D00F0
:10404C00E4DE0320E4DE0320F0E7032070B501F08A
:10405C008BFA074C074BE41AA40800251E46A54210
:10406C0004D056F8253098470135F8E770BD00BFED
:10407C0080650D0004650D0000F056B808B500F021
:10408C00DFF8BDE8084001F031BA01F013B801F0D7
:10409C0011B80078B0FA80F0400970470123037022
:1040AC007047704710B52C21044601F0ADFE204638
:1040BC0010BD083000F044BA07B502AB012203F87A
:1040CC00011D0830194600F03BFA03B05DF804FB03
:1040DC007FB5024608461379956833B13DB90C4952
:1040EC0004B0BDE8704001F045B90A4B00E00A4B42
:1040FC00167B0A4C0A49527B0292012E08BF2146BC
:10410C0001910095074A002101F067F904B070BDD8
:10411C00B9610D00FF620D00A8610D00B1610D00C9
:10412C00B5610D00CF610D0010B5114C01F01CFBF9
:10413C004FF4165101F00CFB204600F00AF9204612
:10414C0000F03DF90B4B0021188801F0CDFD0A4B16
:10415C000021188801F0C8FD084B0021188801F0D7
:10416C00C3FD074B00211888BDE8104001F0BCBD11
:10417C00B4E3032078DE032068DE03206CDE03202A
:10418C0070DE032008B5094B188801F0D7FD084BE9
:10419C001860084B188801F0D1FD074B1860074BCD
:1041AC00188801F0CBFD064B186008BD68DE0320B3
:1041BC0080E303206CDE032084E3032070DE032005
:1041CC007CE303202DE9FF41FFF7DCFF00F0FEFD4F
:1041DC00144B15491A68154B08601868144E154F86
:1041EC00904288461C4605DC33689A4202DB3B68E9
:1041FC009A4213DA104D01F0B7FA2B6802933B6820
:10420C0001933368009323680C4A002101F0E5F810
:10421C0000F0DCFDD8F80030C01A286004B0BDE80E
:10422C00F08100BF74DE0320C8E3032080E3032089
:10423C0084E303207CE30320F4DE0320ED610D0016
:10424C00FFF7C0BF70B500F041FD02230F22012122
:10425C002048214E00F0A2F8204A21491D4801F0C7
:10426C00C5FD204B642183F860141F49C3F87014FA
:10427C00012183F874143168002211F00105DA7100
:10428C0083F83C2483F83D2483F86A24C3F878240B
:10429C0083F87C2483F87D241C460AD13046FFF732
:1042AC00F8FE30B12946114800F058FF3046FFF7B0
:1042BC00F5FE0F480D4BC4F86C34002303724372A7
:1042CC0043600C4B0360054A0B49BDE8704001F09C
:1042DC008DBD00BFB4E30320E8DE0320E4DE032041
:1042EC0009430D00F8DE03208C610D00ECDE032089
:1042FC0088E3032098610D00AF400D0010B5044613
:10430C00C06808B100F0D6FE23781BB10021E0791B
:10431C0001F0EAFC204610BD38B50446C0680D46D5
:10432C0008B100F0C7FEA379062B0CBF04200320B4
:10433C0010FB05F080B2A08000F0B4FEE06028B164
:10434C00A288002101F0D5FE658038BDA080608078
:10435C0038BD10B504460121C07901F0C5FC00211F
:10436C00E07901F0D2FC0123237010BD38B503783D
:10437C0005460C461BB10021C07901F0B5FC2B7829
:10438C00EC7153B1A4B22046012101F0ADFC2046E2
:10439C000021BDE8384001F0B8BC38BD70B500252F
:1043AC0004461646837105700572C5600561FFF7FA
:1043BC00B3FF20463146FFF7D9FF204670BD8288F7
:1043CC00C068002101F095BE08B500F07FFC00F03C
:1043DC007DFC014B186008BDCCE3032000F076BCDB
:1043EC0000F074BC10B50446243000F08BF928B1F1
:1043FC0004F50C70BDE8104000F084B910BD00F05D
:10440C0065BC00F063BC00F061BC00F05FBC83785D
:10441C00016943F00403837000F11002806800F01E
:10442C0027BA10B5044680680A462430A16900F00A
:10443C0090F920B1A38803F00F0300EB431010BDDB
:10444C002DE9F0410E46017807690446002939D060
:10445C004569B5423AD00EB9066131E00B0703D578
:10446C00C3699E422ED807E0880605D5A3681B8930
:10447C00B6EB431F26D823E0D4F808E09EF80630AC
:10448C006A1E03F10900731EC240C3409A4200D851
:10449C004DB94A064CBFDEF82020226A22611D4627
:1044AC0004F110080AE09B1AF9E742462169A0685A
:1044BC0000F079F9002805F1FF3503DD002DF4D16A
:1044CC00666103E027610020BDE8F0810120BDE8B2
:1044DC00F081000038B5037804460BB9012038BDD3
:1044EC0083785A0723D50121FFF79BFF054628B98E
:1044FC00637843F001036370002038BD0378E52B2B
:10450C00F6D023781B0744BFE369C361238C438334
:10451C00638C8382094B1B682BB100F11601183098
:10452C0098472B8B6B82A37823F00403A370A068AD
:10453C00FFF758FF0028DBD0D0E700BFD0E3032003
:10454C002DE9F0470378894619070446904608D5AB
:10455C0083789A0705D51B070BD5E169FFF770FF28
:10456C0038B9637843F0010363704FF0FF30BDE856
:10457C00F0876369DB439845F3D846464FF0000A51
:10458C006369002E00F08180A068427912EA5325FD
:10459C00C3F308071CD1DFB9216971B104F1100212
:1045AC0000F001F90028DCDB40F08E802046FFF79C
:1045BC002EFF002840F08880D3E7236A3BB92046C1
:1045CC00FFF725FF0028CCD02369236200E023618C
:1045DC002169A06800F0E1F8291817B9B6F5007F39
:1045EC0021D2C7F50075B54228BF354637B9636986
:1045FC00E269934234BF0122052200E00122A06847
:10460C00243000F0A6F80028ABD038442A4649469E
:10461C002F4401F063FDB7F5007F30D1A068243042
:10462C0000F070F817E0B6F5806FA06815D302792A
:10463C00521B730AD2B2934228BF1346C26A9142EC
:10464C004FEA432502D31A44914237D3A7684A460E
:10465C00386800F0C8FA90B983E7C36A994202BF80
:10466C004FF0FF3380F824A0C362A3684A46186851
:10467C0000F047FA00283FF474AF4FF400756369FB
:10468C002B446361A944761B7AE7E269934201D912
:10469C00E36102E00F4B1B681BB1A37843F00403EA
:1046AC00A37094F90230002B02DB4046BDE8F08782
:1046BC002046FFF70FFF0028F7D152E74FF0FF32EB
:1046CC0080F824A0C262C1E72169A06800F065F8F7
:1046DC00014683E7D0E3032000F0F8BA70B5054635
:1046EC000C46084649B101F035FD2B6802462146BF
:1046FC002846DB68BDE87040184770BD00F0E6BA8C
:10470C0000F0E4BA70B50378DA0704461ED54368A6
:10471C00816800F10C063246186800F0F2F9054683
:10472C0008B9002513E023789B0704D4237823F0E1
:10473C00010323700BE06368A068196932460144D9
:10474C00186800F0DEF90028F0D1EAE701252846C8
:10475C0070BD70B583688B4204460E46154614D066
:10476C00FFF7D0FF08B9002070BD6B0703D50023FD
:10477C002370A66009E0636804F10C0231461868E6
:10478C0000F079F90028F2D1EDE72378204605F006
:10479C0003051D4300F80C5B70BD83794069023939
:1047AC00994008447047012970B505460C461646D9
:1047BC0002D84FF0FF3070BDC3699942F9D8C37964
:1047CC00202B10D18169022201EBD41100F50C7061
:1047DC00FFF7BFFF0028ECD004F07F0450F8243022
:1047EC0023F070430FE0102BE3D18369C1F3072151
:1047FC000222194400F50C70FFF7ABFF0028D8D04B
:10480C00E4B230F81430EA6993429ABF3360012065
:10481C00002070BD012938B50C46154601D8002082
:10482C0038BDC3699942FAD8C379202B0ED181695E
:10483C00032201EBD41100F50C70FFF78AFF00285E
:10484C00EDD004F07F0440F824500FE0102BE6D19B
:10485C008369C1F307210322194400F50C70FFF79B
:10486C0078FF0028DBD0E4B220F81450012038BDCA
:10487C002DE9F341C4688C4205460E46904607D29A
:10488C000C460027EB6901349C4203D9CFB9EC6884
:10489C000127F7E7A64214D001AA21462846FFF7C4
:1048AC0082FF00280DDBEDD0019B002BEAD107B174
:1048BC00EC606FF0704221462846FFF7ABFF0746CD
:1048CC0008B900270BE016B9C8F8004007E02246EB
:1048DC0031462846FFF79EFF0028F5D1F1E7384610
:1048EC0002B0BDE8F08100F0F1B900F0EFB900F0D2
:1048FC00EDB9000070B50E4C0E46154600F066FA88
:10490C002368C01A0B4B984208D900F067FA0A4B7F
:10491C00186000F0B7FB00F059FA206000F05EFA66
:10492C0080B2801BA842D4BF0020012070BD00BF04
:10493C00D4E30320A086010030E7032038B5057AC4
:10494C0004464DB9406800F075F963682946187D36
:10495C0001F0DBF90123237238BD10B5037A04464C
:10496C006BB143680121187D01F0CFF9FF2160681C
:10497C0000F082F9606800F061F90023237210BD29
:10498C00F8B504460D46164600F028FA87B2606862
:10499C0000F057F9FF28607209D14FF47A7239464A
:1049AC002046FFF7A7FF0028F1D055230BE0FE2887
:1049BC0001D0502307E032462946606800F046F9E2
:1049CC00607230B1602320462370FFF7C6FF0020D1
:1049DC00F8BD606800F035F9606800F032F901202C
:1049EC00F8BD70B504460E4600F0F8F985B23246B3
:1049FC0029462046FFF77EFF30B9606800F021F9A8
:104A0C00FF28F4D1012070BD002070BDF7B5037AEA
:104A1C00019204460D460BB9FFF790FF25B14FF4F8
:104A2C0096712046FFF7DDFF45F04001606800F00D
:104A3C0023F90DF107060DF1030716F8011960684B
:104A4C0000F01AF9BE42F8D1002D0CBF9521872138
:104A5C00606800F011F9606800F0F3F80B256068ED
:104A6C0000F0EFF80306607203D5013D15F0FF0569
:104A7C00F5D103B0F0BD38B5837A032B18BF4902CA
:104A8C0015460A4611210446FFF7C0FF10B130232A
:104A9C0023700BE029464FF400722046FFF770FF9D
:104AAC00054618B12046FFF758FF03E02046FFF7F4
:104ABC0054FF0025284638BD38B5044615464068D5
:104ACC0000F0DAF84FF400722946606800F0D8F86C
:104ADC00FF21606800F0D0F8FF21606800F0CCF88E
:104AEC00606800F0AEF8607200F01F00052806D078
:104AFC00572320462370FFF730FF002038BD0120DC
:104B0C0038BD70B5837A032B18BF490215460A4687
:104B1C0018210446FFF77AFF064608B132231DE040
:104B2C002A46FE212046FFF7C7FFC0B14FF4FA61B9
:104B3C002046FFF756FF054608B95A230EE03246C9
:104B4C000D212046FFF762FF38B9606800F079F854
:104B5C0018B92046FFF701FF05E0292323702046F2
:104B6C00FFF7FBFE0025284670BD38B50D464FF407
:104B7C00FA610446FFF735FF10B95B23237005E09B
:104B8C002A46FC212046FFF797FF18B92046FFF76D
:104B9C00E4FE002038BD10B5837A032B0A4618BFFB
:104BAC004A0219210446FFF731FF30B13323204666
:104BBC002370FFF7D2FE002010BD012010BD38B5C8
:104BCC004FF4FA610446FFF70CFF054620B1FD21B6
:104BDC00606800F051F801E0562323702046FFF77F
:104BEC00BCFE284638BDF8B5054616461F46FFF7ED
:104BFC00D2FF70B10024BC4206EB4421284604D0FD
:104C0C00FFF7B3FF28B10134F5E7BDE8F840FFF733
:104C1C00D6BF2846FFF7A1FE0020F8BD00F056B81D
:104C2C0000F054B800F052B8014B01221A707047D2
:104C3C00D8E30320011D006800F0B4BA006800F04E
:104C4C0097BAFF21006800F01DBB000037B5084B78
:104C5C0000930025074C0068257013460A46294628
:104C6C0000F016FB2378002BFCD0002003B030BDE5
:104C7C00354C0D00D8E30320006800F003BB0000A6
:104C8C0037B5074B00930025064C0068257013467A
:104C9C002A4600F0FDFA2378002BFCD003B030BD7F
:104CAC00354C0D00D8E3032000F010B808B5024BCA
:104CBC001B689B68019308BD6802030008B5024B92
:104CCC001B68DB68019308BD6802030008B5024B42
:104CDC001B681B68019308BD2C02030008B5024B2E
:104CEC001B685B68019308BD2C02030008B5024BDE
:104CFC001B689B68019308BD2C02030008B5024B8E
:104D0C001B68DB68019308BD2C02030008B5024B3D
:104D1C001B681B69019308BD2C02030008B5024BEC
:104D2C001B681B6B019308BD2C02030008B5024BDA
:104D3C001B685B69019308BD3002030008B5024B88
:104D4C001B68DB69019308BD3002030008B5024BF8
:104D5C001B681B6A019308BD3002030008B5024BA7
:104D6C001B685B6A019308BD3002030008B5024B57
:104D7C001B689B6A019308BD3002030008B5024B07
:104D8C001B689B6B019308BD3002030008B5024BF6
:104D9C001B68DB6B019308BD3002030008B5024BA6
:104DAC001B681B6C019308BD3002030008B5024B55
:104DBC001B685B6C019308BD3002030008B5024B05
:104DCC001B685B68019308BD1802030008B5024B11
:104DDC001B681B69019308BD1802030008B5024B40
:104DEC001B685B69019308BD1802030008B5024BF0
:104DFC001B689B68019308BD4802030008B5024B71
:104E0C001B681B69019308BD4802030008B5024BDF
:104E1C001B685B69019308BD4802030008B5024B8F
:104E2C001B685B6C019308BD4802030008B5024B7C
:104E3C001B689B6C019308BD4802030008B5024B2C
:104E4C001B685B69019308BD6402030008B5024B43
:104E5C001B681B68019308BD3C02030008B5024B9C
:104E6C001B68DB68019308BD3C02030008B5024BCC
:104E7C001B681B69019308BD3C02030008B5024B7B
:104E8C001B685B69019308BD3C02030008B5024B2B
:104E9C001B689B69019308BD3C02030008B5024BDB
:104EAC001B68DB69019308BD3C02030008B5024B8B
:104EBC001B681B6A019308BD3C02030008B5024B3A
:104ECC001B689B6A019308BD3C02030008B5024BAA
:104EDC001B681B6A019308BD2802030008B5024B2E
:104EEC001B685B6A019308BD2802030008B5024BDE
:104EFC001B689B6A019308BD2802030008B5024B8E
:104F0C001B68DB6A019308BD2802030008B5024B3D
:104F1C001B681B6B019308BD2802030008B5024BEC
:104F2C001B685B6B019308BD2802030008B5024B9C
:104F3C001B681B6C019308BD2802030008B5024BCB
:104F4C001B681B68019308BD4C02030008B5024B9B
:104F5C001B685B68019308BD4C02030008B5024B4B
:104F6C001B681B69019308BD4C02030008B5024B7A
:104F7C001B685B69019308BD4C02030008B5024B2A
:104F8C001B689B69019308BD4C02030008B5024BDA
:104F9C001B68DB69019308BD4C02030008B5024B8A
:104FAC001B681B6A019308BD4C02030008B5024B39
:104FBC001B685B68019308BD2002030008B5034B16
:104FCC001B68D3F88830019308BD00002002030051
:104FDC0008B5034B1B68D3F89430019308BD00004F
:104FEC002002030008B5024B1B685B68019308BDE7
:104FFC004002030008B5024B1B689B68019308BD77
:10500C004002030008B5024B1B68DB68019308BD26
:10501C004002030008B5024B1B681B69019308BDD5
:10502C004002030008B5024B1B685B69019308BD85
:10503C004002030008B5024B1B689B69019308BD35
:10504C004002030008B5024B1B68DB69019308BDE5
:10505C004002030008B5024B1B681B6A019308BD94
:10506C004002030008B5024B1B681B6B019308BD83
:10507C004002030008B5024B1B685B6B019308BD33
:10508C004002030008B5024B1B689B68019308BDE6
:10509C004402030008B5024B1B68DB6B019308BD8F
:1050AC004402030008B5024B1B681B68019308BD42
:1050BC001C02030008B5024B1B685B68019308BD1A
:1050CC001C02030008B5024B1B685B6A019308BD08
:1050DC001C020300002211464068FFF7BBBF0022F0
:1050EC0011464068FFF7C6BF00224068FFF7BABF01
:1050FC00002281F001014068FFF7A4BF00231A468B
:10510C0019464068FFF796BF00231A4619464068B7
:10511C00FFF788BF002211464068FFF77BBF0022D3
:10512C0011464068FFF766BF002202214068FFF776
:10513C0069BF00231A464068FFF754BF024B032295
:10514C005A60024A1A607047DCE3032024620D00A7
:10515C000021FFF723BE0021FFF728BE10B504463F
:10516C0001700846FFF7EAFD00236360204610BD7E
:10517C000078FFF7F0BF0000400830B5186000243D
:10518C0018688842E5B206D90134082C02D04008D0
:10519C001860F5E70725024B5B5D137030BD00BF4F
:1051AC0050620D002DE9F04307468FB000780E4693
:1051BC00FFF7CEFF002862DB3C781422002109A8FF
:1051CC0000F097FF0B232046002209A9ADF82430EC
:1051DC00FFF7C4FD9DF82D4054B19DF82C5035B906
:1051EC00DDF830809DF834909DF8354003E00024C4
:1051FC00A146A0460125337905B1BBB99D420BD11F
:10520C00B268424508D18DF820908DF82140BDF848
:10521C002010B289914209D053B1002438780194FE
:10522C000094234622460121FFF7B0FD002026E022
:10523C008DF80F30B1680A9804AB0DF10F02FFF72F
:10524C009BFF317905B1B1B9A94208D00024387857
:10525C000194747B337B9DF80F200094E4E7B368D2
:10526C004345F3D38DF820908DF82140BDF82020D4
:10527C00B3899A42EAD1049B4345E7D1D6E70FB0F4
:10528C00BDE8F08308B50078FFF750FDC0B208BD4B
:10529C0030B587B004460A9D00780095FFF766FD8F
:1052AC003DB902A92078FFF769FD9DF81430DB07A2
:1052BC00F7D407B030BD0078FFF748BD10B50446F1
:1052CC00006818B1FFF7F6FE0023236010BD10B57F
:1052DC000446FFF7F3FF204610BD000010B5094C43
:1052EC0000204FF6FF732060A080A07120816381A5
:1052FC00FFF75CFE2046044A0449BDE8104000F06C
:10530C0075BD00BFE4E30320E4DE0320DB520D0097
:10531C0010B50446006808B1FFF788FD204610BDA3
:10532C0010B5064C002320462360FFF777FD20467E
:10533C00034A0449BDE8104000F058BDF0E30320D7
:10534C00E4DE03201D530D00F8B506460D468F18FC
:10535C000024BD420CD0336815F8011B9B68304605
:10536C009847002801DB0444F3E7002C08BF0446EF
:10537C002046F8BD08B5FFF7B1F908BD03689B6876
:10538C00184738B50D210546FFF7F8FF0A210446EA
:10539C002846FFF7F3FF204438BD30B58BB00B46E1
:1053AC0000218DF82410012A98BF0A220DF1230444
:1053BC00B3FBF2F505FB123303F0FF03092B94BF8B
:1053CC0030333733DBB2214604F801392B46002D3C
:1053DC00EED1FFF783F90BB030BD0CB42DE9F043DF
:1053EC0087B000AF07F13804054654F8049B3C60C5
:1053FC000E4623464A461421381DFFF763FE132838
:10540C0005D8391D2846FFF769F9044613E000F169
:10541C00080323F00703E846ADEB030D411C2346BC
:10542C004A4668463C60FFF74DFE69462846FFF742
:10543C0055F90446C5461EB12846FFF7A2FF0444A1
:10544C0020461C37BD46BDE8F04302B07047000053
:10545C00014B024A1A607047F4E30320CB620D0043
:10546C00024B1A68024B1A60704700BF7CDE0320A7
:10547C00F8E3032010B58368044613B103220146F8
:10548C009847204610BD10B50446FFF7F3FF2046A1
:10549C0010BD00000348044A04490023836000F057
:1054AC00A5BC00BFFCE30320E4DE032093540D00F5
:1054BC0008B50C4B33B100F057F903681B699847DA
:1054CC00002809DC084B63B100F0D0F903681B69B4
:1054DC009847002803DC08BDAFF30080F2E7AFF378
:1054EC00008008BD000000000000000008B5FFF7B8
:1054FC00DFFFFFF773FC014B186008BD30E703209A
:10550C000248034A0349121A00F0E8BD00F40320D4
:10551C0004F4032080650D0007B5002300931A46A0
:10552C006FF07701FFF754FD03B05DF804FB00004A
:10553C0007B543880A2B08D0502B09D1094B1B689F
:10554C003BB103B05DF804EB1847FFF7E5FF06E04D
:10555C00002300931A466FF07701FFF739FD03B073
:10556C005DF804FB0CE4032038B5104C104D236897
:10557C00AB42104B0CBF012200221A7002D0FFF775
:10558C00BFFF2560FFF71AFC044600F0BBFD0A4B79
:10559C0013B12046AFF3008000210748FFF77AFDD6
:1055AC0000210648BDE83840FFF708BD00F4032091
:1055BC001E1C279A10E40320000000003D550D002E
:1055CC00704710B51821044600F01EFC204610BD93
:1055DC00F0B5037D062B8DB00E4600F104074FF09D
:1055EC00000402D000F1080518E00CAD394605F8AE
:1055FC00304D2F232A460A20FFF720FC284600F0C6
:10560C00A9FD33680246DB682946304698470FE00F
:10561C0024B12E213046FFF7B1FE044415F8011DCC
:10562C000A223046FFF7B9FEBD420444F0D12046B1
:10563C000DB0F0BD10B5054B0446112240F8043BEB
:10564C00002100F056FD204610BD00BF6C630D001C
:10565C000346074A10B543F8042B01F1100251F828
:10566C00044B43F8044B9142F9D10A781A7010BDDF
:10567C006C630D0010B59DF8084044EA032343EA1F
:10568C00024242EA016104234160037510BD37B543
:10569C000D788B784A78C97800912946FFF7EAFF94
:1056AC0003B030BD41747047704708B50021007CD1
:1056BC00FFF764FC30EA200028BF4FF0FF3008BD34
:1056CC0008B50121007CFFF759FC30EA200028BF07
:1056DC004FF0FF3008BD08B5007CFFF747FC20EA0F
:1056EC00E07008BD08B5007CFFF738FC20EAE070DC
:1056FC0008BD007CFFF752BC10B51421044600F025
:10570C0083FB204610BD38B50446007C0D46FFF7E0
:10571C002DFC002801DC607C28B12946207CFFF799
:10572C0035FC20EAE07038BD10B5044600236360F8
:10573C004FF47A73A360054B236001230846217450
:10574C0063741146FFF7FAFB204610BD80630D0011
:10575C000022007CFFF7FABB10B51422044600218E
:10576C0000F0C7FC204610BD30B50E4D87B001A827
:10577C00FFF7F2FF296811F0010410D12846FEF75B
:10578C0088FC60B101AA21460748FFF7CDFF2846E7
:10579C00FEF784FC054A0649034800F027FB024843
:1057AC0007B030BD14E4032018E40320E4DE03202A
:1057BC00B5560D0070474174704708B5007CFFF773
:1057CC007DFB20EAE07008BD08B5007CFFF74EFBBE
:1057DC0020EAE07008BD08B5007CFFF757FB30EA03
:1057EC00200028BF4FF0FF3008BD08B5007CFFF744
:1057FC0045FB30EA200028BF4FF0FF3008BD007C8D
:10580C00FFF74CBB10B51421044600F0FDFA2046FE
:10581C0010BD70B5457C04460E4625B9007CFFF7DB
:10582C004DFB002805DD3146207CBDE87040FFF7BC
:10583C0015BB284670BD000010B50446084611463D
:10584C00002262604FF47A72A260054A2260012243
:10585C00207462741A46FFF7F9FA204610BD00BF97
:10586C00B0630D00007CFFF721BB000038B50C4D78
:10587C00296811F0010411D12846FEF70AFC68B121
:10588C00084A094B09482146FFF7D6FF2846FEF780
:10589C0005FC074A0749054800F0A8FA034838BD3B
:1058AC00C4E40320C8E4032040E403202CE40320D8
:1058BC00E4DE0320C1570D007047F8B506461546C7
:1058CC000C468F18BC4206D0336814F8011B9B6839
:1058DC0030469847F6E72846F8BD0022007CFFF7D3
:1058EC00F5BA0021007CFFF7F9BA0021007CFFF724
:1058FC00FDBA0021007CFFF701BB0021007CFFF703
:10590C0005BB10B51421044600F07EFA204610BDEC
:10591C0010B50446002363604FF47A73A360044B04
:10592C002174084623601146FFF700FB204610BD8A
:10593C00E0630D000021007CFFF7F0BA0022114655
:10594C004068FFF787BB002211464068FFF792BB07
:10595C0000224068FFF786BB002281F001014068FD
:10596C00FFF770BB00231A4601214068FFF762BBAA
:10597C0000231A4619464068FFF754BB0022114613
:10598C004068FFF747BB002211464068FFF732BB67
:10599C00002202214068FFF735BB00231A464068FD
:1059AC00FFF720BB38B5054688B104684CB1A36835
:1059BC001BB103222146204698471021204600F0B7
:1059CC0023FA28461421BDE8384000F01DBA38BD32
:1059DC0010B103685B681847704710B5036804463C
:1059EC00BBB15868FFF702FA78B923685A7C12B930
:1059FC005868FFF703FA23685868FFF707FA20681E
:105A0C000023236028B1FFF7CDFF206808B1FFF712
:105A1C00C9FF204610BD38B50446D0F8C40108B102
:105A2C00FEF735FBD4F8C00108B1FFF7FFF9D4F845
:105A3C00BC5135B12846FFF7D0FF0421284600F0B1
:105A4C00E3F9206808B1FFF7C3FF204638BD00001A
:105A5C0010B5044B044640F8083BFFF7DCFF20462A
:105A6C0010BD00BF08640D0038B50E4C0E4B236002
:105A7C000025022304F5E4706360A560C4F8C451EA
:105A8C00C4F8C851FFF7CAF9084BC4F8CC5184F8D4
:105A9C00D05123602046064A0649BDE8384000F044
:105AAC00A5B900BF4CE5032070640D0008640D001F
:105ABC00E4DE03205D5A0D00002211464068FFF71A
:105ACC00A9BA002211464068FFF7C4BA0022114659
:105ADC004068FFF7CFBA00224068FFF7C3BA002234
:105AEC0081F001014068FFF7ADBA00231A46194650
:105AFC004068FFF79FBA00231A4619464068FFF723
:105B0C0091BA002211464068FFF774BA00220221B4
:105B1C004068FFF777BA00231A464068FFF762BA6D
:105B2C00024B04225A60024A1A60704720E7032095
:105B3C003C640D0000231A464068FFF753BA00225C
:105B4C0002214068FFF75EBA002211464068FFF759
:105B5C0051BA002211464068FFF75CBA00231A467E
:105B6C0019464068FFF75EBA00231A46194640688A
:105B7C00FFF760BA002281F001014068FFF762BABA
:105B8C0000224068FFF76EBA002211464068FFF70A
:105B9C0071BA002211464068FFF75CBA2DE9F04358
:105BAC00002495B016460D460746FFF743FD2146E7
:105BBC0020220CA8009400F09CFA40230C93214660
:105BCC006B460CAA3046FFF779F80446002844D1FE
:105BDC00024601216868FFF71DFA02218046224621
:105BEC006868FFF717FA009E81462146002E34D0D4
:105BFC00002932D17368022B02D00A2B09D02AE07B
:105C0C00B8F1000F27D0716938460431FFF73FFD1A
:105C1C0020E0B9F1000F1ED07469112201A800F028
:105C2C0068FA06238DF8143001AD04F1080318341A
:105C3C00186859682A4603C20833A3421546F7D19F
:105C4C0001A906A807ADFFF703FD0FCD3C1D0FC43E
:105C5C002B6823700121F669C8E70098FFF726F836
:105C6C00384615B0BDE8F083024B034A1A60002297
:105C7C005A60704728E7032070640D0070B5184E09
:105C8C00316811F0010504460AD13046FEF701FADD
:105C9C0030B129461348FFF761FA3046FEF7FEF99A
:105CAC001048FFF708FB28B1A4F10B03022B01D815
:105CBC00002070BD00F074F8FFF73CFE08B1012C19
:105CCC00F6D9FFF7D3FDFFF7CDFD18B1A4F1090309
:105CDC00012BEDD9232C8CBF0020012070BD00BFFF
:105CEC00E8DE0320ECDE0320232838B504460D46FD
:105CFC000AD8FF2908D0FFF7C1FF28B12946204652
:105D0C00BDE83840FEF7F2BF38BD38B504460D4645
:105D1C00FEF7F4FFFF2810D0062804D84D2323FAF1
:105D2C0000F0C30709D42046FFF7A8FF28B1294685
:105D3C002046BDE83840FEF7E9BF38BD0D2810B548
:105D4C0004469CBF0E34A4B22046FFF797FF50B117
:105D5C0003212046FEF7C2FF032804D12046BDE8EC
:105D6C001040FEF7DBBF002010BD000070B50446EC
:105D7C0014252A46094E002100F0BBF92580202568
:105D8C003146A5602561284600F040F83146606038
:105D9C00284600F03BF8E060204670BD9C640D0086
:105DAC0030B50E4D296811F0010487B013D1284687
:105DBC00FEF76FF978B101A8FFF7D8FF01AA2146C9
:105DCC000748FFF7A5FD2846FEF768F9054A06497E
:105DDC00034800F00BF8024807B030BD34E703204D
:105DEC0038E70320E4DE0320C5580D000B460146BE
:105DFC00184600F065B90000024B1868BFF35F8FBE
:105E0C00704700BF4CE70320FEF73FB900F000B825
:105E1C0010B5002814BF044601242046FFF742F9B0
:105E2C0020B9FFF7E9FF08B18047F6E710BD000085
:105E3C00184B1A68D1075CBF01221A60164B1A68FE
:105E4C00D2075CBF01221A60144B1A68D0075CBFE2
:105E5C0001221A60124B1A68D1075CBF01221A602A
:105E6C00104B1A68D2075CBF01221A600E4B1A68DD
:105E7C00D0075CBF01221A600C4B1A68D1075CBFBB
:105E8C0001221A600A4B1A68D2075CBF01221A6001
:105E9C00704700BF6CE7032068E7032064E703202A
:105EAC0060E703205CE7032058E7032054E7032056
:105EBC0050E70320244B1A68D0075CBF01221A60FC
:105ECC00224B1A68D1075CBF01221A60204B1A685A
:105EDC00D2075CBF01221A601E4B1A68D0075CBF48
:105EEC0001221A601C4B1A68D1075CBF01221A6090
:105EFC001A4B1A68D2075CBF01221A60184B1A6839
:105F0C00D0075CBF01221A60164B1A68D1075CBF20
:105F1C0001221A60144B1A68D2075CBF01221A6066
:105F2C00124B1A68D0075CBF01221A60104B1A681A
:105F3C00D1075CBF01221A600E4B1A68D2075CBFF6
:105F4C0001221A60704700BF9CE7032098E70320EA
:105F5C0094E7032090E703208CE7032088E70320D5
:105F6C0084E7032080E703207CE7032078E7032005
:105F7C0074E7032070E70320244B1A68D0075CBF3A
:105F8C0001221A60224B1A68D1075CBF01221A60E9
:105F9C00204B1A68D2075CBF01221A601E4B1A688C
:105FAC00D0075CBF01221A601C4B1A68D1075CBF7A
:105FBC0001221A601A4B1A68D2075CBF01221A60C0
:105FCC00184B1A68D0075CBF01221A60164B1A686E
:105FDC00D1075CBF01221A60144B1A68D2075CBF50
:105FEC0001221A60124B1A68D0075CBF01221A609A
:105FFC00104B1A68D1075CBF01221A600E4B1A684D
:10600C00D2075CBF01221A60704700BFCCE70320A7
:10601C00C8E70320C4E70320C0E70320BCE7032044
:10602C00B8E70320B4E70320B0E70320ACE7032074
:10603C00A8E70320A4E70320A0E70320184B1A6865
:10604C00D1075CBF01221A60164B1A68D2075CBFDD
:10605C0001221A60144B1A68D0075CBF01221A6027
:10606C00124B1A68D1075CBF01221A60104B1A68D8
:10607C00D2075CBF01221A600E4B1A68D0075CBFB6
:10608C0001221A600C4B1A68D1075CBF01221A60FE
:10609C000A4B1A68D2075CBF01221A60704700BF16
:1060AC00ECE70320E8E70320E4E70320E0E7032024
:1060BC00DCE70320D8E70320D4E70320D0E7032054
:1060CC0010B5054C13462CB10A4601460220AFF31D
:1060DC00008010BD204610BD0000000010B5431E0E
:1060EC000A44914204D011F8014B03F8014FF8E730
:1060FC0010BD02440346934202D003F8011BFAE799
:10610C007047000038B5124B1C68A36B0546D3B919
:10611C001820FEF7C7FF43F20E33A06303804AF644
:10612C00CD33438041F2342383804EF26D63C380C0
:10613C004DF6EC630381052343810B2383810122FC
:10614C000023C0E90423A36B00221D615A6138BDF2
:10615C00E0DE0320034613F8012B002AFBD1181AAA
:10616C00013870471D400D0059400D0085400D0051
:10617C0089400D000000000000000000000000003D
:10618C00DD400D000000000000000000AF400D00DD
:10619C00B1400D00C5400D00BF400D006465666147
:1061AC00756C7420004D5342004C5342003C5350CC
:1061BC004953657474696E67732064656661756CA8
:1061CC00743E003C53504953657474696E67732078
:1061DC002573256C75202573204D4F444525643E51
:1061EC00006D696331203D202569207C206D696339
:1061FC0032203D202569207C206D696333203D20B1
:10620C002569207C2054696D65203D2025690A0094
:10621C0000000000000000003F510D0035510D0042
:10622C002B510D0021510D0015510D0009510D0080
:10623C00FD500D00F5500D00EB500D00E1500D0020
:10624C00A95B0D00000810182028303862617564B5
:10625C000053657269616C0053657269616C310041
:10626C007479706500706172616D00636D640069B2
:10627C006400686E64007374726D0066696C7400FF
:10628C006C766C0061646448616E646C657200725B
:10629C00656D6F766548616E646C657200656E75D0
:1062AC006D48616E646C657273004A534F4E537443
:1062BC007265616D4C6F6748616E646C65720061EC
:1062CC00707000253031307520005D200025640091
:1062DC002C200028293A2000205B00636F64652085
:1062EC003D200025690064657461696C73203D2054
:1062FC00000D0A0066006C6E00666E00636F6465CC
:10630C000064657461696C006E6F6E650074726117
:10631C00636500696E666F007761726E00657272FC
:10632C006F720070616E696300616C6C005A0025BD
:10633C002B3033643A253032750025592D256D2DBF
:10634C0025645425483A254D3A2553257A00617326
:10635C006374696D6500000000000000000000001F
:10636C00DD550D00CD550D00CF550D000000000082
:10637C0000000000B5560D0005570D0013570D0019
:10638C0055530D00F1560D00B7560D00CD560D00AE
:10639C00FF560D00E3560D00B1560D000000000035
:1063AC0000000000C1570D0011580D001F580D00C2
:1063BC0055530D00D5570D00F7570D00E3570D0041
:1063CC000B580D00C3570D00C7570D0000000000FF
:1063DC0000000000C5580D000F590D00E7580D00C6
:1063EC00C7580D00EF580D00F7580D00FF580D0061
:1063FC0007590D000000000000000000A7590D0017
:10640C009D590D0093590D0089590D007D590D00B2
:10641C0071590D0065590D005D590D0053590D0052
:10642C0049590D00A95B0D000000000000000000A0
:10643C00235B0D00195B0D000F5B0D00C55A0D00A1
:10644C00035B0D00F75A0D00EB5A0D00E35A0D00DB
:10645C00D95A0D00CF5A0D00A95B0D0000000000A9
:10646C0000000000415B0D004B5B0D00555B0D0007
:10647C005F5B0D00695B0D00755B0D00815B0D00B2
:10648C008D5B0D00955B0D009F5B0D00A95B0D00F6
:10649C0000000000000000000000000000000000F0
:1064AC0000000000000000000000000000000000E0
:1064BC0000000000000000000000000000000000D0
:1064CC0000000000000000000000000000000000C0
:1064DC0000000000000000000000000000000000B0
:1064EC0000000000000000000000000000000000A0
:1064FC00000000004300000051420D00D5430D0088
:10650C00E9430D00ED430D000B440D000F440D004D
:10651C0013440D0017440D00E5460D0009470D000E
:10652C000D470D00F3480D00F7480D00FB480D001A
:10653C00294C0D002D4C0D00314C0D00B54C0D00AF
:10654C0049510D00E9520D002D530D005D540D0005
:10655C006D540D00A1540D00755A0D002D5B0D00EE
:10656C00755C0D003D5E0D00C15E0D00855F0D007C
:04657C0049600D0065
:046580000000000017
:10658400130000001200000011000000A00F000022
:10659400100000005A630D0000000000A0640D000C
:1065A400C0640D00E0640D00000000000000000065
:1065B400000000000000000000650D000000000065
:1065C40000000000000000000000000000000000C7
:1065D40000000000000000000000000000000000B7
:1065E40000000000000000000000000000000000A7
:0C65F400000000000000000080DE03201A
:10660000FFFFFFFF00000102030405060708090A57
:106610000B0C0D0E0F101112131415161718191A52
:086620001B1C1D1E1F20280099
:04662800785634125A
:04000003D000401CCD
:00000001FF
