:02000002D0002C
:1040000000400D00C8730D00000006000C00050103
:084010000401E80500000000B6
:04401800A06E0D0089
:10401C0009480A49884208B505D0094A824202D0AB
:10402C00121A02F0F3FE0748074A0021121A02F096
:10403C00F8FE014808BD00BF44DE032024730D00C8
:10404C00C0DE0320C0DE0320F0E7032070B501F0D2
:10405C0061FB074C074BE41AA40800251E46A54239
:10406C0004D056F8253098470135F8E770BD00BFED
:10407C0014730D0098720D0000F056B808B500F0DE
:10408C00A3F9BDE8084001F007BB01F0D7B801F077
:10409C00D5B80078B0FA80F040097047012303705E
:1040AC007047704710B52C21044601F083FF204661
:1040BC0010BD083000F008BB07B502AB012203F8B5
:1040CC00011D0830194600F0FFFA03B05DF804FB3F
:1040DC007FB5024608461379956833B13DB90C4952
:1040EC0004B0BDE8704001F011BA0A4B00E00A4B75
:1040FC00167B0A4C0A49527B0292012E08BF2146BC
:10410C0001910095074A002101F03DFA04B070BD01
:10411C00E96E0D008B700D00D86E0D00E16E0D0078
:10412C00E56E0D00FF6E0D0010B50F4C01F0F2FBAB
:10413C004FF4165101F0E2FB204600F0CEF9204678
:10414C0000F001FA094B0021188801F0A3FE084B7E
:10415C000021188801F09EFE064B00211888BDE84E
:10416C00104001F097BE00BFE0DE032044DE0320C8
:10417C0048DE03204CDE032008B5094B188801F0FB
:10418C00B3FE084B1860084B188801F0ADFE074BC6
:10419C001860074B188801F0A7FE064B186008BD85
:1041AC0044DE0320D0DE032048DE032080E303201E
:1041BC004CDE032084E303202DE9F743264C274DE6
:1041CC00274E002323602B60336001F0A3FB2549AD
:1041DC0001F0AFF9A046A946374623681BB12B68FE
:1041EC000BB1336833BBFFF7C7FF23684BB91E4BCA
:1041FC001A681E4B1B689A4203DD00F0ABFEC8F830
:10420C0000002B684BB91A4B1A68184B1B689A4262
:10421C0003DD00F09FFEC9F800003368002BDCD1F1
:10422C00144B1A68114B1B689A42D6DD00F092FEB3
:10423C003860D2E701F06EFB094B0F4A1B68019303
:10424C00064B1B680093044B00211B6801F09BF983
:10425C0003B0BDE8F08300BFD4DE0320D8DE03201A
:10426C00DCDE03204C6F0D00D0DE032050DE03207B
:10427C0080E3032084E303205E6F0D002DE9F043FF
:10428C0085B0FFF799FF424B424A1968424B1268BE
:10429C001C68424E424D434F40F25713641A521A57
:1042AC005C435A4304FB04F102FB02F3C818013BC4
:1042BC00326001395A432C6001FB04243A4A5B43B7
:1042CC0014604943394A9B1003EBA1030138136076
:1042DC00386004FB04F2800003FB102002F04AFA61
:1042EC0041EC100B01F0C2FF60428DED020B02F0AD
:1042FC0041FA804638682E4C2E4F4000894602F019
:10430C0039FA9DED020B02460B4651EC100B02F0F4
:10431C00C1FB02460B464046494602F0DDF802F06E
:10432C003FFD2968DFF89C80386001FB01F2022315
:10433C00013A92FBF3F2524201FB102231682260E7
:10434C0001FB01F2013A92FBF3F35B4201FB1030EB
:10435C00C8F8000001F0DEFA33680093164A2B68A7
:10436C00002101F010F901F0D5FA3B68134A002145
:10437C0001F009F901F0CEFAD8F800300093236867
:10438C000F4A002101F0FFF805B0BDE8F08300BF33
:10439C00D4DE0320DCDE0320D8DE0320F4DE032091
:1043AC00C0E3032088E303208CE3032090E3032085
:1043BC00C4E30320F8DE03207B6F0D008C6F0D002F
:1043CC00946F0D00C8E30320FFF758BF70B500F0E1
:1043DC0041FD02230F2201212048214E00F0A2F8BA
:1043EC00204A21491D4801F0D7FD204B642183F858
:1043FC0060141F49C3F87014012183F874143168D8
:10440C00002211F00105DA7183F83C2483F83D2475
:10441C0083F86A24C3F8782483F87C2483F87D24F9
:10442C001C460AD13046FFF734FE30B129461148FC
:10443C0000F060FF3046FFF731FE0F480D4BC4F81B
:10444C006C3400230372437243600C4B0360054AC7
:10445C000B49BDE8704001F09FBD00BFE0DE0320BA
:10446C00C4DE0320C0DE032091440D00FCDE0320DB
:10447C00BC6E0D00C8DE032094E30320C86E0D0053
:10448C00AF400D0010B50446C06808B100F0D6FE70
:10449C0023781BB10021E07901F0FCFC204610BD13
:1044AC0038B50446C0680D4608B100F0C7FEA379C4
:1044BC00062B0CBF0420032010FB05F080B2A0805B
:1044CC0000F0B4FEE06028B1A288002102F0A9FC43
:1044DC00658038BDA080608038BD10B504460121D0
:1044EC00C07901F0D7FC0021E07901F0E4FC012354
:1044FC00237010BD38B5037805460C461BB100215E
:10450C00C07901F0C7FC2B78EC7153B1A4B22046F2
:10451C00012101F0BFFC20460021BDE8384001F02C
:10452C00CABC38BD70B500250446164683710570AB
:10453C000572C5600561FFF7B3FF20463146FFF7F2
:10454C00D9FF204670BD8288C068002102F069BC8A
:10455C0008B500F07FFC00F07DFC014B186008BD35
:10456C00CCE3032000F076BC00F074BC10B504461C
:10457C00243000F08BF928B104F50C70BDE8104024
:10458C0000F084B910BD00F065BC00F063BC00F015
:10459C0061BC00F05FBC8378016943F00403837055
:1045AC0000F11002806800F027BA10B5044680684C
:1045BC000A462430A16900F090F920B1A38803F0D9
:1045CC000F0300EB431010BD2DE9F0410E460178AE
:1045DC0007690446002939D04569B5423AD00EB96D
:1045EC00066131E00B0703D5C3699E422ED807E064
:1045FC00880605D5A3681B89B6EB431F26D823E094
:10460C00D4F808E09EF806306A1E03F10900731E08
:10461C00C240C3409A4200D84DB94A064CBFDEF89E
:10462C002020226A22611D4604F110080AE09B1A20
:10463C00F9E742462169A06800F079F9002805F1F4
:10464C00FF3503DD002DF4D1666103E02761002006
:10465C00BDE8F0810120BDE8F081000038B5037899
:10466C0004460BB9012038BD83785A0723D50121A4
:10467C00FFF79BFF054628B9637843F0010363708D
:10468C00002038BD0378E52BF6D023781B0744BFF8
:10469C00E369C361238C4383638C8382094B1B685E
:1046AC002BB100F11601183098472B8B6B82A37835
:1046BC0023F00403A370A068FFF758FF0028DBD099
:1046CC00D0E700BFD0E303202DE9F04703788946FB
:1046DC0019070446904608D583789A0705D51B0719
:1046EC000BD5E169FFF770FF38B9637843F001032C
:1046FC0063704FF0FF30BDE8F0876369DB4398458A
:10470C00F3D846464FF0000A6369002E00F0818012
:10471C00A068427912EA5325C3F308071CD1DFB90C
:10472C00216971B104F1100200F001F90028DCDB01
:10473C0040F08E802046FFF72EFF002840F0888046
:10474C00D3E7236A3BB92046FFF725FF0028CCD0DE
:10475C002369236200E023612169A06800F0E1F87D
:10476C00291817B9B6F5007F21D2C7F50075B542E7
:10477C0028BF354637B96369E269934234BF0122D9
:10478C00052200E00122A068243000F0A6F80028E1
:10479C00ABD038442A4649462F4402F037FBB7F5D4
:1047AC00007F30D1A068243000F070F817E0B6F527
:1047BC00806FA06815D30279521B730AD2B2934250
:1047CC0028BF1346C26A91424FEA432502D31A44CA
:1047DC00914237D3A7684A46386800F0C8FA90B9B6
:1047EC0083E7C36A994202BF4FF0FF3380F824A0DD
:1047FC00C362A3684A46186800F047FA00283FF4E1
:10480C0074AF4FF4007563692B446361A944761B44
:10481C007AE7E269934201D9E36102E00F4B1B682E
:10482C001BB1A37843F00403A37094F90230002B5E
:10483C0002DB4046BDE8F0872046FFF70FFF00285B
:10484C00F7D152E74FF0FF3280F824A0C262C1E7E3
:10485C002169A06800F065F8014683E7D0E30320E6
:10486C0000F0F8BA70B505460C46084649B102F09E
:10487C0009FB2B68024621462846DB68BDE87040E0
:10488C00184770BD00F0E6BA00F0E4BA70B50378D2
:10489C00DA0704461ED54368816800F10C063246DF
:1048AC00186800F0F2F9054608B9002513E02378E2
:1048BC009B0704D4237823F0010323700BE0636877
:1048CC00A068196932460144186800F0DEF9002826
:1048DC00F0D1EAE70125284670BD70B583688B429C
:1048EC0004460E46154614D0FFF7D0FF08B9002039
:1048FC0070BD6B0703D500232370A66009E06368C5
:10490C0004F10C023146186800F079F90028F2D154
:10491C00EDE72378204605F003051D4300F80C5BFA
:10492C0070BD837940690239994008447047012968
:10493C0070B505460C46164602D84FF0FF3070BDD8
:10494C00C3699942F9D8C379202B10D1816902220D
:10495C0001EBD41100F50C70FFF7BFFF0028ECD071
:10496C0004F07F0450F8243023F070430FE0102B38
:10497C00E3D18369C1F307210222194400F50C70BD
:10498C00FFF7ABFF0028D8D0E4B230F81430EA6956
:10499C0093429ABF33600120002070BD012938B5C5
:1049AC000C46154601D8002038BDC3699942FAD887
:1049BC00C379202B0ED18169032201EBD41100F5B0
:1049CC000C70FFF78AFF0028EDD004F07F0440F84C
:1049DC0024500FE0102BE6D18369C1F30721032289
:1049EC00194400F50C70FFF778FF0028DBD0E4B217
:1049FC0020F81450012038BD2DE9F341C4688C42D5
:104A0C0005460E46904607D20C460027EB6901344A
:104A1C009C4203D9CFB9EC680127F7E7A64214D022
:104A2C0001AA21462846FFF782FF00280DDBEDD0B6
:104A3C00019B002BEAD107B1EC606FF0704221466C
:104A4C002846FFF7ABFF074608B900270BE016B95D
:104A5C00C8F8004007E0224631462846FFF79EFF83
:104A6C000028F5D1F1E7384602B0BDE8F08100F03E
:104A7C00F1B900F0EFB900F0EDB9000070B50E4CD3
:104A8C000E46154600F066FA2368C01A0B4B984286
:104A9C0008D900F067FA0A4B186000F0B7FB00F079
:104AAC0059FA206000F05EFA80B2801BA842D4BF95
:104ABC000020012070BD00BFD4E30320A0860100BC
:104ACC0030E7032038B5057A04464DB9406800F04C
:104ADC0075F963682946187D01F0EDF901232372FD
:104AEC0038BD10B5037A04466BB143680121187DBB
:104AFC0001F0E1F9FF21606800F082F9606800F0D4
:104B0C0061F90023237210BDF8B504460D46164614
:104B1C0000F028FA87B2606800F057F9FF2860723D
:104B2C0009D14FF47A7239462046FFF7A7FF0028C7
:104B3C00F1D055230BE0FE2801D0502307E032467C
:104B4C002946606800F046F9607230B16023204657
:104B5C002370FFF7C6FF0020F8BD606800F035F940
:104B6C00606800F032F90120F8BD70B504460E46BD
:104B7C0000F0F8F985B2324629462046FFF77EFF51
:104B8C0030B9606800F021F9FF28F4D1012070BD24
:104B9C00002070BDF7B5037A019204460D460BB99F
:104BAC00FFF790FF25B14FF496712046FFF7DDFF1C
:104BBC0045F04001606800F023F90DF107060DF196
:104BCC00030716F80119606800F01AF9BE42F8D113
:104BDC00002D0CBF95218721606800F011F96068E9
:104BEC0000F0F3F80B25606800F0EFF80306607234
:104BFC0003D5013D15F0FF05F5D103B0F0BD38B577
:104C0C00837A032B18BF490215460A461121044624
:104C1C00FFF7C0FF10B1302323700BE029464FF48F
:104C2C0000722046FFF770FF054618B12046FFF7CB
:104C3C0058FF03E02046FFF754FF0025284638BDF7
:104C4C0038B504461546406800F0DAF84FF40072A7
:104C5C002946606800F0D8F8FF21606800F0D0F8B1
:104C6C00FF21606800F0CCF8606800F0AEF860726C
:104C7C0000F01F00052806D0572320462370FFF7AD
:104C8C0030FF002038BD012038BD70B5837A032B6E
:104C9C0018BF490215460A4618210446FFF77AFF49
:104CAC00064608B132231DE02A46FE212046FFF7B6
:104CBC00C7FFC0B14FF4FA612046FFF756FF054617
:104CCC0008B95A230EE032460D212046FFF762FF49
:104CDC0038B9606800F079F818B92046FFF701FF81
:104CEC0005E0292323702046FFF7FBFE002528460C
:104CFC0070BD38B50D464FF4FA610446FFF735FF29
:104D0C0010B95B23237005E02A46FC212046FFF7EF
:104D1C0097FF18B92046FFF7E4FE002038BD10B508
:104D2C00837A032B0A4618BF4A0219210446FFF75F
:104D3C0031FF30B1332320462370FFF7D2FE002021
:104D4C0010BD012010BD38B54FF4FA610446FFF7D1
:104D5C000CFF054620B1FD21606800F051F801E020
:104D6C00562323702046FFF7BCFE284638BDF8B505
:104D7C00054616461F46FFF7D2FF70B10024BC4211
:104D8C0006EB4421284604D0FFF7B3FF28B10134C9
:104D9C00F5E7BDE8F840FFF7D6BF2846FFF7A1FEC0
:104DAC000020F8BD00F056B800F054B800F052B82E
:104DBC00014B01221A707047D8E30320011D0068D3
:104DCC0000F0BCBA006800F09FBAFF21006800F048
:104DDC0025BB000037B5084B00930025074C006835
:104DEC00257013460A46294600F01EFB2378002B3B
:104DFC00FCD0002003B030BDBD4D0D00D8E3032026
:104E0C00006800F00BBB000037B5074B0093002582
:104E1C00064C0068257013462A4600F005FB2378E3
:104E2C00002BFCD003B030BDBD4D0D00D8E30320EA
:104E3C0000F010B808B5024B1B689B68019308BDC5
:104E4C006802030008B5024B1B68DB68019308BDC0
:104E5C006802030008B5024B1B681B68019308BD70
:104E6C002C02030008B5024B1B685B68019308BD5C
:104E7C002C02030008B5024B1B689B68019308BD0C
:104E8C002C02030008B5024B1B68DB68019308BDBC
:104E9C002C02030008B5024B1B681B69019308BD6B
:104EAC002C02030008B5024B1B681B6B019308BD59
:104EBC002C02030008B5024B1B685B69019308BD0B
:104ECC003002030008B5024B1B68DB69019308BD77
:104EDC003002030008B5024B1B681B6A019308BD26
:104EEC003002030008B5024B1B685B6A019308BDD6
:104EFC003002030008B5024B1B689B6A019308BD86
:104F0C003002030008B5024B1B689B6B019308BD74
:104F1C003002030008B5024B1B68DB6B019308BD24
:104F2C003002030008B5024B1B681B6C019308BDD3
:104F3C003002030008B5024B1B685B6C019308BD83
:104F4C003002030008B5024B1B685B68019308BD77
:104F5C001802030008B5024B1B681B69019308BDBE
:104F6C001802030008B5024B1B685B69019308BD6E
:104F7C001802030008B5024B1B689B68019308BD1F
:104F8C004802030008B5024B1B681B69019308BD5E
:104F9C004802030008B5024B1B685B69019308BD0E
:104FAC004802030008B5024B1B685B6C019308BDFB
:104FBC004802030008B5024B1B689B6C019308BDAB
:104FCC004802030008B5024B1B685B69019308BDDE
:104FDC006402030008B5024B1B681B68019308BDF3
:104FEC003C02030008B5024B1B68DB68019308BD4B
:104FFC003C02030008B5024B1B681B69019308BDFA
:10500C003C02030008B5024B1B685B69019308BDA9
:10501C003C02030008B5024B1B689B69019308BD59
:10502C003C02030008B5024B1B68DB69019308BD09
:10503C003C02030008B5024B1B681B6A019308BDB8
:10504C003C02030008B5024B1B689B6A019308BD28
:10505C003C02030008B5024B1B681B6A019308BD98
:10506C002802030008B5024B1B685B6A019308BD5C
:10507C002802030008B5024B1B689B6A019308BD0C
:10508C002802030008B5024B1B68DB6A019308BDBC
:10509C002802030008B5024B1B681B6B019308BD6B
:1050AC002802030008B5024B1B685B6B019308BD1B
:1050BC002802030008B5024B1B681B6C019308BD4A
:1050CC002802030008B5024B1B681B68019308BD3E
:1050DC004C02030008B5024B1B685B68019308BDCA
:1050EC004C02030008B5024B1B681B69019308BDF9
:1050FC004C02030008B5024B1B685B69019308BDA9
:10510C004C02030008B5024B1B689B69019308BD58
:10511C004C02030008B5024B1B68DB69019308BD08
:10512C004C02030008B5024B1B681B6A019308BDB7
:10513C004C02030008B5024B1B685B68019308BD69
:10514C002002030008B5034B1B68D3F88830019389
:10515C0008BD00002002030008B5034B1B68D3F800
:10516C009430019308BD00002002030008B5024BE7
:10517C001B685B68019308BD4002030008B5024B35
:10518C001B689B68019308BD4002030008B5024BE5
:10519C001B68DB68019308BD4002030008B5024B95
:1051AC001B681B69019308BD4002030008B5024B44
:1051BC001B685B69019308BD4002030008B5024BF4
:1051CC001B689B69019308BD4002030008B5024BA4
:1051DC001B68DB69019308BD4002030008B5024B54
:1051EC001B681B6A019308BD4002030008B5024B03
:1051FC001B681B6B019308BD4002030008B5024BF2
:10520C001B685B6B019308BD4002030008B5024BA1
:10521C001B689B68019308BD4402030008B5024B50
:10522C001B68DB6B019308BD4402030008B5024BFD
:10523C001B681B68019308BD1C02030008B5024BD8
:10524C001B685B68019308BD1C02030008B5024B88
:10525C001B685B6A019308BD1C02030008B5024B76
:10526C001B68DB6B019308BD1C0203000022114676
:10527C004068FFF7B3BF002211464068FFF7BEBF7E
:10528C0000224068FFF7B2BF002281F001014068A4
:10529C00FFF79CBF00231A4619464068FFF78EBFE4
:1052AC0000231A4619464068FFF780BF00221146BA
:1052BC004068FFF773BF002211464068FFF75EBFDE
:1052CC00002202214068FFF761BF00231A464068A4
:1052DC00FFF74CBF024B03225A60024A1A60704718
:1052EC00DCE30320B06F0D000021FFF71BBE002193
:1052FC00FFF720BE10B5044601700846FFF7E2FD2B
:10530C0000236360204610BD0078FFF7F0BF00005B
:10531C00400830B51860002418688842E5B206D9F8
:10532C000134082C02D040081860F5E70725024B21
:10533C005B5D137030BD00BFDC6F0D002DE9F043D9
:10534C0007468FB000780E46FFF7CEFF002862DBD1
:10535C003C781422002109A801F063FD0B232046A0
:10536C00002209A9ADF82430FFF7BCFD9DF82D40B3
:10537C0054B19DF82C5035B9DDF830809DF834903F
:10538C009DF8354003E00024A146A0460125337961
:10539C0005B1BBB99D420BD1B268424508D18DF81D
:1053AC0020908DF82140BDF82010B289914209D08F
:1053BC0053B10024387801940094234622460121ED
:1053CC00FFF7A8FD002026E08DF80F30B1680A9891
:1053DC0004AB0DF10F02FFF79BFF317905B1B1B9A9
:1053EC00A94208D0002438780194747B337B9DF853
:1053FC000F200094E4E7B3684345F3D38DF8209075
:10540C008DF82140BDF82020B3899A42EAD1049B43
:10541C004345E7D1D6E70FB0BDE8F08308B5007877
:10542C00FFF748FDC0B208BD30B587B004460A9DF1
:10543C0000780095FFF75EFD3DB902A92078FFF7D3
:10544C0061FD9DF81430DB07F7D407B030BD007850
:10545C00FFF740BD10B50446006818B1FFF7EEFE2B
:10546C000023236010BD10B50446FFF7F3FF204660
:10547C0010BD000010B5094C00204FF6FF732060E2
:10548C00A080A07120816381FFF754FE2046044A5E
:10549C000449BDE8104000F07FBD00BFE4E30320E9
:1054AC00C0DE032073540D0010B50446006808B12B
:1054BC00FFF780FD204610BD10B5064C002320469A
:1054CC002360FFF76FFD2046034A0449BDE81040F6
:1054DC0000F062BDF0E30320C0DE0320B5540D00E4
:1054EC00F8B506460D468F180024BD420CD0336823
:1054FC0015F8011B9B6830469847002801DB0444D3
:10550C00F3E7002C08BF04462046F8BD08B5FFF7AA
:10551C00A9F908BD03689B68184738B50D210546E5
:10552C00FFF7F8FF0A2104462846FFF7F3FF204453
:10553C0038BD38B50546FFF795F904462846FFF700
:10554C00ECFF204438BD30B58BB00B4600218DF8F4
:10555C002410012A98BF0A220DF12304B3FBF2F5A3
:10556C0005FB123303F0FF03092B94BF30333733A1
:10557C00DBB2214604F801392B46002DEED1FFF7A2
:10558C0071F90BB030BD0CB42DE9F04387B000AF0E
:10559C0007F13804054654F8049B3C600E4623463C
:1055AC004A461421381DFFF751FE132805D8391D22
:1055BC002846FFF757F9044613E000F1080323F0DF
:1055CC000703E846ADEB030D411C23464A466846EB
:1055DC003C60FFF73BFE69462846FFF743F904465B
:1055EC00C5461EB12846FFF798FF044420461C37D9
:1055FC00BD46BDE8F04302B070470000014B024AC3
:10560C001A607047F4E3032057700D00024B1A68C0
:10561C00024B1A60704700BF54DE0320F8E30320EE
:10562C0010B58368044613B10322014698472046FF
:10563C0010BD10B50446FFF7F3FF204610BD000067
:10564C000348044A04490023836000F0A5BC00BF52
:10565C00FCE30320C0DE03203F560D0008B50C4BC5
:10566C0033B100F057F903681B699847002809DC2F
:10567C00084B63B100F0D0F903681B699847002808
:10568C0003DC08BDAFF30080F2E7AFF3008008BD88
:10569C00000000000000000008B5FFF7DFFFFFF777
:1056AC0061FC014B186008BD30E703200248034A37
:1056BC000349121A01F0AABB00F4032004F40320DE
:1056CC0020730D0007B5002300931A466FF0770185
:1056DC00FFF742FD03B05DF804FB000007B54388FB
:1056EC000A2B08D0502B09D1094B1B683BB103B0D6
:1056FC005DF804EB1847FFF7E5FF06E00023009385
:10570C001A466FF07701FFF727FD03B05DF804FB35
:10571C000CE4032038B5104C104D2368AB42104BF1
:10572C000CBF012200221A7002D0FFF7BFFF2560C8
:10573C00FFF708FC044601F07DFB0A4B13B1204631
:10574C00AFF3008000210748FFF768FD00210648F1
:10575C00BDE83840FFF7F6BC00F403201E1C279A66
:10576C0010E4032000000000E9560D00704710B54E
:10577C001821044600F01EFC204610BDF0B5037D38
:10578C00062B8DB00E4600F104074FF0000402D03A
:10579C0000F1080518E00CAD394605F8304D2F2303
:1057AC002A460A20FFF70EFC284601F06BFB3368F3
:1057BC000246DB682946304698470FE024B12E217B
:1057CC003046FFF7A7FE044415F8011D0A223046A7
:1057DC00FFF7B9FEBD420444F0D120460DB0F0BD38
:1057EC0010B5054B0446112240F8043B002101F092
:1057FC0018FB204610BD00BFF8700D000346074A89
:10580C0010B543F8042B01F1100251F8044B43F886
:10581C00044B9142F9D10A781A7010BDF8700D0042
:10582C0010B59DF8084044EA032343EA024242EAD9
:10583C00016104234160037510BD37B50D788B7879
:10584C004A78C97800912946FFF7EAFF03B030BDCA
:10585C0041747047704708B50021007CFFF752FC7B
:10586C0030EA200028BF4FF0FF3008BD08B50121F9
:10587C00007CFFF747FC30EA200028BF4FF0FF30D8
:10588C0008BD08B5007CFFF735FC20EAE07008BDC8
:10589C0008B5007CFFF726FC20EAE07008BD007C10
:1058AC00FFF740BC10B51421044600F083FB2046E2
:1058BC0010BD38B50446007C0D46FFF71BFC0028D4
:1058CC0001DC607C28B12946207CFFF723FC20EA10
:1058DC00E07038BD10B50446002363604FF47A7352
:1058EC00A360054B236001230846217463741146A1
:1058FC00FFF7E8FB204610BD0C710D000022007C68
:10590C00FFF7E8BB10B514220446002101F089FA18
:10591C00204610BD30B50E4D87B001A8FFF7F2FF41
:10592C00296811F0010410D12846FEF7B2FB60B1D2
:10593C0001AA21460748FFF7CDFF2846FEF7AEFB2C
:10594C00054A0649034800F027FB024807B030BD62
:10595C0014E4032018E40320C0DE032061580D007A
:10596C0070474174704708B5007CFFF76BFB20EA69
:10597C00E07008BD08B5007CFFF73CFB20EAE07046
:10598C0008BD08B5007CFFF745FB30EA200028BFB6
:10599C004FF0FF3008BD08B5007CFFF733FB30EA51
:1059AC00200028BF4FF0FF3008BD007CFFF73ABB4A
:1059BC0010B51421044600F0FDFA204610BD70B558
:1059CC00457C04460E4625B9007CFFF73BFB0028BE
:1059DC0005DD3146207CBDE87040FFF703BB28464F
:1059EC0070BD000010B504460846114600226260E6
:1059FC004FF47A72A260054A22600122207462740C
:105A0C001A46FFF7E7FA204610BD00BF3C710D00A7
:105A1C00007CFFF70FBB000038B50C4D296811F066
:105A2C00010411D12846FEF734FB68B1084A094B32
:105A3C0009482146FFF7D6FF2846FEF72FFB074AF9
:105A4C000749054800F0A8FA034838BDC4E4032010
:105A5C00C8E4032040E403202CE40320C0DE032030
:105A6C006D590D007047F8B5064615460C468F1853
:105A7C00BC4206D0336814F8011B9B68304698472B
:105A8C00F6E72846F8BD0022007CFFF7E3BA0021B8
:105A9C00007CFFF7E7BA0021007CFFF7EBBA00218E
:105AAC00007CFFF7EFBA0021007CFFF7F3BA10B5CA
:105ABC001421044600F07EFA204610BD10B50446B1
:105ACC00002363604FF47A73A360044B217408467F
:105ADC0023601146FFF7EEFA204610BD6C710D00E5
:105AEC000021007CFFF7DEBA002211464068FFF768
:105AFC0075BB002211464068FFF780BB002240684E
:105B0C00FFF774BB002281F001014068FFF75EBB18
:105B1C0000231A4601214068FFF750BB00231A46A8
:105B2C0019464068FFF742BB002211464068FFF758
:105B3C0035BB002211464068FFF720BB0022022132
:105B4C004068FFF723BB00231A464068FFF70EBBE3
:105B5C0038B5054688B104684CB1A3681BB1032263
:105B6C002146204698471021204600F023FA28466B
:105B7C001421BDE8384000F01DBA38BD10B10368DF
:105B8C005B681847704710B503680446BBB158688A
:105B9C00FFF7F0F978B923685A7C12B95868FFF707
:105BAC00F1F923685868FFF7F5F9206800232360A2
:105BBC0028B1FFF7CDFF206808B1FFF7C9FF2046D9
:105BCC0010BD38B50446D0F8C40108B1FEF75FFA31
:105BDC00D4F8C00108B1FFF7EDF9D4F8BC5135B1D8
:105BEC002846FFF7D0FF0421284600F0E3F920688F
:105BFC0008B1FFF7C3FF204638BD000010B5044BB9
:105C0C00044640F8083BFFF7DCFF204610BD00BF00
:105C1C0094710D0038B50E4C0E4B236000250223F9
:105C2C0004F5E4706360A560C4F8C451C4F8C851AD
:105C3C00FFF7B8F9084BC4F8CC5184F8D051236065
:105C4C002046064A0649BDE8384000F0A5B900BF19
:105C5C004CE50320FC710D0094710D00C0DE032097
:105C6C00095C0D00002211464068FFF797BA00222C
:105C7C0011464068FFF7B2BA002211464068FFF7A0
:105C8C00BDBA00224068FFF7B1BA002281F00101D1
:105C9C004068FFF79BBA00231A4619464068FFF785
:105CAC008DBA00231A4619464068FFF77FBA0022C6
:105CBC0011464068FFF762BA002202214068FFF7E4
:105CCC0065BA00231A464068FFF750BA024B04220B
:105CDC005A60024A1A60704720E70320C8710D0011
:105CEC0000231A464068FFF741BA0022022140689F
:105CFC00FFF74CBA002211464068FFF73FBA00226A
:105D0C0011464068FFF74ABA00231A461946406804
:105D1C00FFF74CBA00231A4619464068FFF74EBAF3
:105D2C00002281F001014068FFF750BA0022406860
:105D3C00FFF75CBA002211464068FFF75FBA0022F9
:105D4C0011464068FFF74ABA2DE9F043002495B09C
:105D5C0016460D460746FFF743FD214620220CA8A8
:105D6C00009401F05EF840230C9321466B460CAA7C
:105D7C003046FFF767F80446002844D1024601215B
:105D8C006868FFF70BFA0221804622466868FFF725
:105D9C0005FA009E81462146002E34D0002932D1CE
:105DAC007368022B02D00A2B09D02AE0B8F1000F3D
:105DBC0027D0716938460431FFF73FFD20E0B9F177
:105DCC00000F1ED07469112201A801F02AF80623D5
:105DDC008DF8143001AD04F10803183418685968B3
:105DEC002A4603C20833A3421546F7D101A906A8D7
:105DFC0007ADFFF703FD0FCD3C1D0FC42B682370BF
:105E0C000121F669C8E70098FFF714F8384615B079
:105E1C00BDE8F083024B034A1A6000225A607047B7
:105E2C0028E70320FC710D0070B5184E316811F095
:105E3C00010504460AD13046FEF72BF930B129464C
:105E4C001348FFF757FA3046FEF728F91048FFF7CA
:105E5C00FEFA28B1A4F10B03022B01D8002070BD6F
:105E6C0000F074F8FFF73CFE08B1012CF6D9FFF7EF
:105E7C00D3FDFFF7CDFD18B1A4F10903012BEDD92A
:105E8C00232C8CBF0020012070BD00BFC4DE03207A
:105E9C00C8DE0320232838B504460D460AD8FF294E
:105EAC0008D0FFF7C1FF28B129462046BDE838408D
:105EBC00FEF7E0BF38BD38B504460D46FEF7E2FFED
:105ECC00FF2810D0062804D84D2323FA00F0C3076E
:105EDC0009D42046FFF7A8FF28B129462046BDE883
:105EEC003840FEF7D7BF38BD0D2810B504469CBF0F
:105EFC000E34A4B22046FFF797FF50B10321204681
:105F0C00FEF7B0FF032804D12046BDE81040FEF791
:105F1C00C9BF002010BD000070B5044614252A46E8
:105F2C00094E002100F07DFF258020253146A5601B
:105F3C002561284600F040F831466060284600F0A4
:105F4C003BF8E060204670BD28720D0030B50E4D58
:105F5C00296811F0010487B013D12846FEF799F88F
:105F6C0078B101A8FFF7D8FF01AA21460748FFF72F
:105F7C00A5FD2846FEF792F8054A0649034800F0AD
:105F8C000BF8024807B030BD34E7032038E7032094
:105F9C00C0DE0320715A0D000B460146184600F076
:105FAC0027BF0000024B1868BFF35F8F704700BF1C
:105FBC004CE70320FEF769B800F000B810B50028D4
:105FCC0014BF044601242046FFF730F920B9FFF72F
:105FDC00E9FF08B18047F6E710BD0000184B1A68BE
:105FEC00D1075CBF01221A60164B1A68D2075CBF3E
:105FFC0001221A60144B1A68D0075CBF01221A6088
:10600C00124B1A68D1075CBF01221A60104B1A6838
:10601C00D2075CBF01221A600E4B1A68D0075CBF16
:10602C0001221A600C4B1A68D1075CBF01221A605E
:10603C000A4B1A68D2075CBF01221A60704700BF76
:10604C006CE7032068E7032064E7032060E7032084
:10605C005CE7032058E7032054E7032050E70320B4
:10606C00244B1A68D0075CBF01221A60224B1A68B5
:10607C00D1075CBF01221A60204B1A68D2075CBFA3
:10608C0001221A601E4B1A68D0075CBF01221A60ED
:10609C001C4B1A68D1075CBF01221A601A4B1A6894
:1060AC00D2075CBF01221A60184B1A68D0075CBF7C
:1060BC0001221A60164B1A68D1075CBF01221A60C4
:1060CC00144B1A68D2075CBF01221A60124B1A6873
:1060DC00D0075CBF01221A60104B1A68D1075CBF55
:1060EC0001221A600E4B1A68D2075CBF01221A609B
:1060FC00704700BF9CE7032098E7032094E7032038
:10610C0090E703208CE7032088E7032084E7032033
:10611C0080E703207CE7032078E7032074E7032063
:10612C0070E70320244B1A68D0075CBF01221A6069
:10613C00224B1A68D1075CBF01221A60204B1A68E7
:10614C00D2075CBF01221A601E4B1A68D0075CBFD5
:10615C0001221A601C4B1A68D1075CBF01221A601D
:10616C001A4B1A68D2075CBF01221A60184B1A68C6
:10617C00D0075CBF01221A60164B1A68D1075CBFAE
:10618C0001221A60144B1A68D2075CBF01221A60F4
:10619C00124B1A68D0075CBF01221A60104B1A68A8
:1061AC00D1075CBF01221A600E4B1A68D2075CBF84
:1061BC0001221A60704700BFCCE70320C8E7032018
:1061CC00C4E70320C0E70320BCE70320B8E70320A3
:1061DC00B4E70320B0E70320ACE70320A8E70320D3
:1061EC00A4E70320A0E70320184B1A68D1075CBF73
:1061FC0001221A60164B1A68D2075CBF01221A6082
:10620C00144B1A68D0075CBF01221A60124B1A6833
:10621C00D1075CBF01221A60104B1A68D2075CBF11
:10622C0001221A600E4B1A68D0075CBF01221A605B
:10623C000C4B1A68D1075CBF01221A600A4B1A6812
:10624C00D2075CBF01221A60704700BFECE7032045
:10625C00E8E70320E4E70320E0E70320DCE7032082
:10626C00D8E70320D4E70320D0E703202DE9F0433F
:10627C002DED028B8BB055EC104B00F057F8294BE1
:10628C00B0EE408AF0EE608A93F90060731C12D075
:10629C0022462B462046294600F06CFD074650B995
:1062AC004FF000084FF000092046294642464B4665
:1062BC0000F038FD40B9B0EE480AF0EE680A0BB0B9
:1062CC00BDEC028BBDE8F083174B08970122CDE99A
:1062DC000445CDE902458DE80C00B6B142464B466B
:1062EC004046494600F0D6FB022ECDE906010ED100
:1062FC00FEF7B4FF21230360089B73B99DED060BD9
:10630C000BB0BDEC028BBDE8F083CDE90689684685
:10631C0000F0DCF80028EFD1EAE7FEF79FFF089BBE
:10632C000360EBE758DE03202C720D002DE9F041E1
:10633C00654955EC104B0E462940B14200F0978050
:10634C00002D2B4610EE102A74DD2F157FD0A7F2EE
:10635C00FF37C3F31303F90743F4801365D403EB3E
:10636C00D27100260B447F105200B64616204FF413
:10637C0000110EEB01049C424FEAD2754FEA420227
:10638C0003DC1B1B04EB010E0E44013805EB43032D
:10639C004FEA5101EDD1844620244FF0004109E031
:1063AC0020D003EBD275013C4FEA51012B444FEA4C
:1063BC00420220D09E4501EB0C05F1DA002D05EBD5
:1063CC00010C09DBF0469542CEEB030300D9013BEF
:1063DC00521B0844C646E4E7BCF1000FF2DB0EF199
:1063EC000108F0E795421ED8002D05EB010C50DB9F
:1063FC0098460023ECE7134304D0421C4DD000F028
:10640C000103184440087110F30701F17F5101F5A5
:10641C00001148BF40F0004001EB0753024643EC2B
:10642C00102BBDE8F0817346BBE75B0003EBD27326
:10643C00520094E725F00041214328D0ADBB2F46F4
:10644C00D30A153F5205002BFAD0DD0228D40021C7
:10645C0000E001465B00DC0201F10100F9D5C0F15E
:10646C00200422FA04F423437F1A82406FE710EED3
:10647C00102A2B4610EE100A294600F0E1F92246AC
:10648C002B4600F02BF841EC100BBDE8F081BDE879
:10649C00F081BCF1000FA2DAAAE701362046B2E780
:1064AC0020244FF0FF310020DBE710EE102A2B46A2
:1064BC002046294600F010F802460B4600F0EAFA96
:1064CC0041EC100BBDE8F0810000F07F002070471C
:1064DC0081F0004102E000BF83F0004330B54FEA89
:1064EC0041044FEA430594EA050F08BF90EA020FF6
:1064FC001FBF54EA000C55EA020C7FEA645C7FEA89
:10650C00655C00F0E2804FEA5454D4EB5555B8BFAB
:10651C006D420CDD2C4480EA020281EA030382EA1C
:10652C00000083EA010180EA020281EA0303362DAE
:10653C0088BF30BD11F0004F4FEA01314FF4801C81
:10654C004CEA113102D0404261EB410113F0004F93
:10655C004FEA03334CEA133302D0524263EB43034A
:10656C0094EA050F00F0A780A4F10104D5F1200EE8
:10657C000DDB02FA0EFC22FA05F2801841F1000143
:10658C0003FA0EF2801843FA05F359410EE0A5F117
:10659C0020050EF1200E012A03FA0EFC28BF4CF048
:1065AC00020C43FA05F3C01851EBE37101F00045FE
:1065BC0007D54FF0000EDCF1000C7EEB00006EEB0B
:1065CC000101B1F5801F1BD3B1F5001F0CD3490895
:1065DC005FEA30004FEA3C0C04F101044FEA4452EC
:1065EC0012F5800F80F09A80BCF1004F08BF5FEA73
:1065FC00500C50F1000041EB045141EA050130BD53
:10660C005FEA4C0C404141EB010111F4801FA4F1F5
:10661C000104E9D191F0000F04BF01460020B1FA4A
:10662C0081F308BF2033A3F10B03B3F120020CDA82
:10663C000C3208DD02F1140CC2F10C0201FA0CF060
:10664C0021FA02F10CE002F11402D8BFC2F1200CC5
:10665C0001FA02F120FA0CFCDCBF41EA0C0190407B
:10666C00E41AA2BF01EB0451294330BD6FEA0404C4
:10667C001F3C1CDA0C340EDC04F11404C4F12002AF
:10668C0020FA04F001FA02F340EA030021FA04F3C1
:10669C0045EA030130BDC4F10C04C4F1200220FA18
:1066AC0002F001FA04F340EA0300294630BD21FA56
:1066BC0004F0294630BD94F0000F83F4801306BF1C
:1066CC0081F480110134013D4EE77FEA645C18BF10
:1066DC007FEA655C29D094EA050F08BF90EA020FA7
:1066EC0005D054EA000C04BF1946104630BD91EA9F
:1066FC00030F1EBF0021002030BD5FEA545C05D1A2
:10670C004000494128BF41F0004130BD14F58004E0
:10671C003CBF01F5801130BD01F0004545F0FE4154
:10672C0041F470014FF0000030BD7FEA645C1ABF89
:10673C00194610467FEA655C1CBF0B46024650EAC0
:10674C00013406BF52EA033591EA030F41F40021EC
:10675C0030BD00BF90F0000F04BF0021704730B572
:10676C004FF4806404F132044FF000054FF0000147
:10677C0050E700BF90F0000F04BF0021704730B508
:10678C004FF4806404F1320410F0004548BF4042DD
:10679C004FF000013EE700BF42004FEAE2014FEA32
:1067AC0031014FEA02701FBF12F07F4393F07F4F0D
:1067BC0081F06051704792F0000F14BF93F07F4F3F
:1067CC00704730B54FF4607401F0004521F0004182
:1067DC0020E700BF50EA010208BF704730B54FF008
:1067EC0000050AE050EA010208BF704730B511F00D
:1067FC00004502D5404261EB41014FF4806404F145
:10680C0032045FEA915C3FF4DCAE4FF003025FEAC6
:10681C00DC0C18BF03325FEADC0C18BF033202EB4E
:10682C00DC02C2F1200300FA03FC20FA02F001FAA8
:10683C0003FE40EA0E0021FA02F11444C1E600BF47
:10684C0070B54FF0FF0C4CF4E06C1CEA11541DBFFA
:10685C001CEA135594EA0C0F95EA0C0F00F0DEF8C5
:10686C002C4481EA030621EA4C5123EA4C5350EAAA
:10687C00013518BF52EA033541F4801143F48013FB
:10688C0038D0A0FB02CE4FF00005E1FB02E506F08C
:10689C000042E0FB03E54FF00006E1FB03569CF0E1
:1068AC00000F18BF4EF0010EA4F1FF04B6F5007FE7
:1068BC0064F5407404D25FEA4E0E6D4146EB060659
:1068CC0042EAC62141EA55514FEAC52040EA5E50E2
:1068DC004FEACE2EB4F1FD0C88BFBCF5E06F1ED88C
:1068EC00BEF1004F08BF5FEA500E50F1000041EBC3
:1068FC00045170BD06F0004646EA010140EA020070
:10690C0081EA0301B4EB5C04C2BFD4EB0C0541EA91
:10691C00045170BD41F480114FF0000E013C00F3A6
:10692C00AB8014F1360FDEBF002001F0004170BDCA
:10693C00C4F10004203C35DA0C341BDC04F11404E3
:10694C00C4F1200500FA05F320FA04F001FA05F26F
:10695C0040EA020001F0004221F0004110EBD3703C
:10696C0021FA04F642EB06015EEA430E08BF20EA68
:10697C00D37070BDC4F10C04C4F1200500FA04F30B
:10698C0020FA05F001FA04F240EA020001F000419D
:10699C0010EBD37041F100015EEA430E08BF20EA10
:1069AC00D37070BDC4F1200500FA05F24EEA020E58
:1069BC0020FA04F301FA05F243EA020321FA04F087
:1069CC0001F0004121FA04F220EA020000EBD3703E
:1069DC005EEA430E08BF20EAD37070BD94F0000F3E
:1069EC000FD101F00046400041EB010111F4801F72
:1069FC0008BF013CF7D041EA060195F0000F18BF23
:106A0C00704703F00046520043EB030313F4801F5E
:106A1C0008BF013DF7D043EA0603704794EA0C0F18
:106A2C000CEA135518BF95EA0C0F0CD050EA41062E
:106A3C0018BF52EA4306D1D181EA030101F00041AB
:106A4C004FF0000070BD50EA410606BF10461946D3
:106A5C0052EA430619D094EA0C0F02D150EA0136DF
:106A6C0013D195EA0C0F05D152EA03361CBF104620
:106A7C0019460AD181EA030101F0004141F0FE41BF
:106A8C0041F470014FF0000070BD41F0FE4141F443
:106A9C00780170BD70B54FF0FF0C4CF4E06C1CEA43
:106AAC0011541DBF1CEA135594EA0C0F95EA0C0FF8
:106ABC0000F0A7F8A4EB050481EA030E52EA0335B3
:106ACC004FEA013100F088804FEA03334FF08055D4
:106ADC0045EA131343EA12634FEA022245EA111501
:106AEC0045EA10654FEA00260EF000419D4208BFB2
:106AFC00964244F1FD0404F5407402D25B084FEA5F
:106B0C003202B61A65EB03055B084FEA32024FF40A
:106B1C0080104FF4002CB6EB020E75EB030E22BF67
:106B2C00B61A754640EA0C005B084FEA3202B6EB27
:106B3C00020E75EB030E22BFB61A754640EA5C00D6
:106B4C005B084FEA3202B6EB020E75EB030E22BF66
:106B5C00B61A754640EA9C005B084FEA3202B6EB67
:106B6C00020E75EB030E22BFB61A754640EADC0026
:106B7C0055EA060E18D04FEA051545EA16754FEA88
:106B8C0006164FEAC30343EA52734FEAC2025FEAA6
:106B9C001C1CC0D111F4801F0BD141EA00014FF035
:106BAC0000004FF0004CB6E711F4801F04BF014306
:106BBC000020B4F1FD0C88BFBCF5E06F3FF6AFAE22
:106BCC00B5EB030C04BFB6EB020C5FEA500C50F1B2
:106BDC00000041EB045170BD0EF0004E4EEA113135
:106BEC0014EB5C04C2BFD4EB0C0541EA045170BD3C
:106BFC0041F480114FF0000E013C90E645EA060E80
:106C0C008DE60CEA135594EA0C0F08BF95EA0C0FAD
:106C1C003FF43BAF94EA0C0F0AD150EA01347FF4F5
:106C2C0034AF95EA0C0F7FF425AF104619462CE7CC
:106C3C0095EA0C0F06D152EA03353FF4FDAE10462F
:106C4C00194622E750EA410618BF52EA43067FF480
:106C5C00C5AE50EA41047FF40DAF52EA43057FF410
:106C6C00EBAE12E74FF0FF3C06E000BF4FF0010C1B
:106C7C0002E000BF4FF0010C4DF804CD4FEA410C7F
:106C8C007FEA6C5C4FEA430C18BF7FEA6C5C1BD04C
:106C9C0001B050EA410C0CBF52EA430C91EA030FCD
:106CAC0002BF90EA020F0020704710F1000F91EA2A
:106CBC00030F58BF994208BF90422CBFD8176FEAF8
:106CCC00E37040F0010070474FEA410C7FEA6C5CC6
:106CDC0002D150EA013C07D14FEA430C7FEA6C5CCD
:106CEC00D6D152EA033CD3D05DF8040B704700BFF9
:106CFC008446104662468C461946634600E000BF47
:106D0C0001B5FFF7B7FF002848BF10F1000F01BD18
:106D1C004DF808EDFFF7F4FF0CBF012000205DF8E3
:106D2C0008FB00BF4DF808EDFFF7EAFF34BF012068
:106D3C0000205DF808FB00BF4DF808EDFFF7E0FF01
:106D4C0094BF012000205DF808FB00BF4DF808ED52
:106D5C00FFF7CEFF94BF012000205DF808FB00BFB9
:106D6C004DF808EDFFF7C4FF34BF012000205DF89B
:106D7C0008FB00BF4FEA410C7FEA6C5C02D150EA81
:106D8C00013C0AD14FEA430C7FEA6C5C02D152EA17
:106D9C00033C02D14FF0000070474FF001007047E8
:106DAC004FEA410212F5001215D211D56FF4787327
:106DBC00B3EB625212D94FEAC12343F0004343EACA
:106DCC00505311F0004F23FA02F018BF40427047A5
:106DDC004FF00000704750EA013005D111F000402F
:106DEC0008BF6FF0004070474FF00000704700BFC5
:106DFC0010B5054C13462CB10A4601460220AFF3E0
:106E0C00008010BD204610BD0000000010B5431ED0
:106E1C000A44914204D011F8014B03F8014FF8E7F2
:106E2C0010BD02440346934202D003F8011BFAE75B
:106E3C007047000038B5124B1C68A36B0546D3B9DC
:106E4C001820FEF7F3F943F20E33A06303804AF6E1
:106E5C00CD33438041F2342383804EF26D63C38083
:106E6C004DF6EC630381052343810B2383810122BF
:106E7C000023C0E90423A36B00221D615A6138BDB5
:106E8C00BCDE0320034613F8012B002AFBD1181A91
:106E9C00013870471D400D0059400D0085400D0014
:106EAC0089400D0000000000000000000000000000
:106EBC00DD400D000000000000000000AF400D00A0
:106ECC00B1400D00C5400D00BF400D00646566610A
:106EDC00756C7420004D5342004C5342003C53508F
:106EEC004953657474696E67732064656661756C6B
:106EFC00743E003C53504953657474696E6773203B
:106F0C002573256C75202573204D4F444525643E13
:106F1C00006D696331203D202569207C206D6963FB
:106F2C0032203D202569207C206D696333203D2073
:106F3C002569207C2054696D65203D2025690A0057
:106F4C0077616974696E6720666F7220736F756EF6
:106F5C0064005431203D202569207C205432203D92
:106F6C00202569207C205433203D2025690A0041CE
:106F7C00203D202569207C2042203D2025690A00E7
:106F8C0054203D2025690A0058203D202569207C8D
:106F9C002059203D2025690A000000000000000057
:106FAC0000000000D7520D00CD520D00C3520D0051
:106FBC00B9520D00AD520D00A1520D0095520D00AD
:106FCC008D520D0083520D0079520D00555D0D0050
:106FDC0000081018202830386261756400536572FF
:106FEC0069616C0053657269616C3100747970650C
:106FFC0000706172616D00636D6400696400686E9D
:10700C0064007374726D0066696C74006C766C004D
:10701C0061646448616E646C65720072656D6F7654
:10702C006548616E646C657200656E756D48616E65
:10703C00646C657273004A534F4E53747265616D84
:10704C004C6F6748616E646C6572006170700025EE
:10705C003031307520005D20002564002C20002884
:10706C00293A2000205B00636F6465203D200025D9
:10707C00690064657461696C73203D20000D0A0021
:10708C0066006C6E00666E00636F64650064657408
:10709C0061696C006E6F6E65007472616365006986
:1070AC006E666F007761726E006572726F7200703F
:1070BC00616E696300616C6C005A00252B3033647F
:1070CC003A253032750025592D256D2D2564542512
:1070DC00483A254D3A2553257A0061736374696DDE
:1070EC0065000000000000000000000089570D0042
:1070FC0079570D007B570D000000000000000000C8
:10710C0061580D00B1580D00BF580D00ED540D0025
:10711C009D580D0063580D0079580D00AB580D00AB
:10712C008F580D005D580D0000000000000000009D
:10713C006D590D00BD590D00CB590D00ED540D00CE
:10714C0081590D00A3590D008F590D00B7590D0031
:10715C006F590D0073590D00000000000000000075
:10716C00715A0D00BB5A0D00935A0D00735A0D0045
:10717C009B5A0D00A35A0D00AB5A0D00B35A0D00CB
:10718C000000000000000000535B0D00495B0D0087
:10719C003F5B0D00355B0D00295B0D001D5B0D0089
:1071AC00115B0D00095B0D00FF5A0D00F55A0D0027
:1071BC00555D0D000000000000000000CF5C0D00CC
:1071CC00C55C0D00BB5C0D00715C0D00AF5C0D006F
:1071DC00A35C0D00975C0D008F5C0D00855C0D00B1
:1071EC007B5C0D00555D0D000000000000000000F0
:1071FC00ED5C0D00F75C0D00015D0D000B5D0D00ED
:10720C00155D0D00215D0D002D5D0D00395D0D002E
:10721C00415D0D004B5D0D00555D0D000000000043
:10722C007371727400000000000000000000000088
:10723C000000000000000000000000000000000042
:10724C000000000000000000000000000000000032
:10725C000000000000000000000000000000000022
:10726C000000000000000000000000000000000012
:10727C000000000000000000000000000000000002
:10728C00000000000000000043000000D9430D0086
:10729C005D450D0071450D0075450D0093450D00C4
:1072AC0097450D009B450D009F450D006D480D0049
:1072BC0091480D0095480D007B4A0D007F4A0D004A
:1072CC00834A0D00B14D0D00B54D0D00B94D0D00AB
:1072DC003D4E0D00E1520D0081540D00C5540D00C2
:1072EC0009560D0019560D004D560D00215C0D0070
:1072FC00D95C0D00215E0D00E95F0D006D600D0085
:10730C0031610D00F5610D0000000000000000006F
:04731C00000000006D
:047320000000000069
:10732400130000001200000011000000A00F000074
:10733400E6700D00010000000000000034720D0032
:1073440054720D0074720D00000000000000000073
:10735400000000000000000094720D000000000016
:107364000000000000000000000000000000000019
:107374000000000000000000000000000000000009
:1073840000000000000000000000000000000000F9
:0C73940000000000000000005CDE032090
:1073A000FFFFFFFF00000102030405060708090AAA
:1073B0000B0C0D0E0F101112131415161718191AA5
:0873C0001B1C1D1E1F202800EC
:0473C80078563412AD
:04000003D000401CCD
:00000001FF
