:02000002D0002C
:1040000000400D00F8820D00000006000C000501C4
:084010000401E80500000000B6
:04401800D0730D0054
:1040200009480A49884208B505D0094A824202D0A7
:10403000121A03F0D3F80748074A0021121A03F0B6
:10404000D8F8014808BD00BF44DE0320547E0D00AF
:10405000C0E20320C0E20320F0E7032070B501F0C6
:10406000BFFE074C074BE41AA40800251E46A542D4
:1040700004D056F8253098470135F8E770BD00BFE9
:10408000447E0D00F87D0D0000F020B808B500F06A
:104090003BF9BDE8084001F065BE01F03FBC01F00E
:1040A0003DBC000008B5034A00210C2001F0A2FB32
:1040B000FEE700BFD5550D000078B0FA80F040094A
:1040C00070470123037070477047000008B501F086
:1040D00087FF4FF4165101F077FF3C220221084878
:1040E00000F094FB02F004F84FF4165101F0FAFFCF
:1040F00001F078FA034B1860034B01221A7008BDD7
:104100009CE30320C4E30320C0E30320F0B5254C67
:1041100087B0054620468DED050ACDED040A174609
:104120000E4600F00BFB2046002100F083FE2046E7
:10413000012100F075FE00221146204600F06DFEC0
:104140002046012100F071FE174A0021204601F0AF
:1041500086FDDDED040A10EE900A02F077FD9DED7C
:10416000050ACDE9020110EE100A02F06FFD0F4AB8
:10417000CDE900010021204601F071FD3346009792
:104180000B4A0021204601F06AFD2B46094A002116
:10419000204601F064FD204607B0BDE8F04000F085
:1041A00007BC00BF9CE30320E4730D00F2730D0015
:1041B00005740D0012740D002DE9F0474A4CA4B0AF
:1041C00001F010FA2368C01A41F28733984240F296
:1041D0008780DFF830A1DFF8188101F003FA9AF840
:1041E0000030206043B101F0FDF9DAF83430C01A34
:1041F00042F20F7398420FD93C4904A803F034F8F7
:1042000098F80030002B6BD1394B01221A7001F065
:10421000E9F9384B186063E0504600F005FF51ECB7
:10422000100B02F079FF0546504600F025FF51ECD7
:10423000100B02F071FF00238AF8893006460AF15C
:104240004800DAF8909000F063FF04460AF1480055
:1042500000F068FF07460AF1480000F071FF072CE4
:10426000824601D9063C00E01234E4B201F0B8FE07
:104270002346214A00218DE8800401F0F0FC01F082
:10428000AFFE8246304602F0E1FCCDE9020128464D
:1042900002F0DCFC194ACDE900010021504601F092
:1042A000DEFC3A4621465FFA89F000EE906A00EEA5
:1042B000105AFFF72BFF98F800308BB10C4B0022FF
:1042C0001A7001F08FF90B4B1C68041B01F088FE7B
:1042D0000B4A2346012124B0BDE8F04701F0BFBCE2
:1042E00024B0BDE8F08700BFC8E303206A740D0066
:1042F000C0E30320C4E303201C740D0036740D00DA
:104300004A740D00C4E2032008B501F0F1FE036811
:104310001B69984700280DDD01F0EAFE03685B6920
:104320009847C1B2064801F071F80028EDD0FFF7B8
:1043300043FFEAE74FF47A70BDE8084001F0DCBCC7
:10434000C4E2032010B52421044602F0BFF9204640
:1043500010BD000010B50A4C01F0C4F8042120463D
:1043600000F0D6F9074A0849204602F0A1F90120D9
:10437000002101F057FA0548BDE8104000F082BD69
:104380009CE30320C0E20320C9400D00C4E20320E7
:10439000F0B5447EBDF81450022C08D0032C0FD089
:1043A000012C70D10489013CA21A12B20CE044899C
:1043B000013CA21A0489E41A611A12B209B262E03D
:1043C0004489E41A611A09B2002A5BDBB0F908409B
:1043D000944240F390800029BEBF5B181BB20021BD
:1043E000B0F90A00CC188442C4BF431A1BB2002B98
:1043F00040F38180C9B2C8083F4F02EBC01211F0F0
:104400000701DBB207EB020417D0C1F10801C8B203
:104410003A4983420E5C3FBFC3EB000EFF2141FAD5
:104420000EF10E40B95C012D0CBF3143B143834204
:10443000B95460D3181AC3B28034072B17D9012D91
:104440000CBFFF20002004F180011A46083AD2B2C6
:10445000072A01F8800C01F18001F7D8A3F10802C6
:10446000C2F3C402013204EBC21403F00703002BB1
:1044700041D0234AD25C2378012D0CBF13439343D0
:104480002370F0BDF0BD002A35DBB0F90A4094423C
:1044900031DD0029BCBFC9180BB2B0F90870B8BF34
:1044A0000021CE18BE42C4BF631A1BB2002B22DD0E
:1044B000D01001EBC011104802F0070201440120A6
:1044C00000FA02F28542D2B209D1013B1BB25C1C58
:1044D00011D011F8010B104301F8010CF5E7D2439C
:1044E000D2B2013B1BB2581C05D011F8010B104091
:1044F00001F8010CF5E7F0BD54DE03204CDE03208B
:1045000044DE0320F0B5447EBDF81450022C08D0E0
:10451000032C0FD0012C12D10489E41AA21A12B272
:104520006DE00489013C611A4489E41AA21A09B2B7
:1045300012B204E04489013C611A09B25FE000292B
:104540005CDBB0F908408C4240F39180002ABCBF8C
:10455000D21813B2B0F90A00B8BF0022D4188442AE
:10456000C4BF831A1BB2002B40F38180D4B2404EEB
:10457000DAB2E30801EBC31114F0070406EB010300
:1045800017D0C4F10804E0B23A4C8242275C3FBF26
:10459000C2EB000EFF2444FA0EF42740745C012D98
:1045A0000CBF3C43BC438242745460D3101AC2B265
:1045B0008033072A17D9012D0CBFFF24002403F1F3
:1045C000800011460839C9B2072900F8804C00F173
:1045D0008000F7D8A2F10801C1F3C401013103EB57
:1045E000C11302F00702002A41D02349895C1A78DE
:1045F000012D0CBF0A438A431A70F0BDF0BD00299B
:1046000035DBB0F90A408C4231DD002ABCBFD2183C
:1046100013B2B0F90870B8BF0022D618BE42C4BFAA
:10462000A31A1BB2002B22DDC81002EBC0121048E7
:1046300001F007011044012202FA01F19542C9B2CA
:1046400009D15A1E13B25C1C11D010F8012B0A4379
:1046500000F8012CF5E7C943C9B25A1E13B25A1C1F
:1046600005D010F8012B0A4000F8012CF5E7F0BD49
:1046700054DE03204CDE032044DE0320F8B50D1E7B
:10468000064614461F463FDB00F0E3FB85423BDA5B
:10469000002C39DB304600F0DFFB844234DA304650
:1046A00000F0C6FB022827D1318970890139013811
:1046B000491B001B0DB204B206E0012804D1338966
:1046C000013B1B1B2C461DB20820012F94FBF0F070
:1046D00000B20E4B04F0070205EBC01104D1974065
:1046E0005A5C17435F54F8BD585C012707FA02F281
:1046F00020EA02025A54F8BD0328DED17389013B37
:104700005B1B25461CB2DFE7F8BD00BF54DE03206B
:1047100038B5402204460D46802100F09FFA064B32
:104720002360FF23637784F82130E377A37784F84D
:104730002050204638BD00BF80740D004FF48062C9
:104740000021014802F055BD54DE032038B5094D63
:10475000296811F001040AD12846FFF7ADFC30B1F9
:104760002146054801F02EF92846FFF7AAFC024829
:1047700038BD00BFCCE30320D0E3032038B590F967
:104780001D30013304460D4628D090F92100012147
:1047900080B201F010FF94F91F00002180B201F0F7
:1047A0000AFF94F92100002180B201F004FF94F87F
:1047B00022302BB1FFF7CAFF294601F0ADF905E021
:1047C0002B460122A17F607F01F00EFF94F92100AA
:1047D000012180B2BDE8384001F0EDBE01F042FF9A
:1047E00094F91B1001F0F2FC01F03CFF036800217A
:1047F0009B68984701F036FF036829469B689847F5
:1048000001F030FFBDE8384001F0E7BC38B50446A0
:104810000D46217790F91D30C276013337D090F9DB
:104820001F00012180B201F0B5FE94F921000121A1
:1048300080B201F0AFFE94F822305BB994F91D000C
:10484000012180B201F0A6FE94F91E00012180B280
:1048500001F0A0FE94F82230EBB194F9210001217F
:1048600080B201F0A8FEFFF771FF012101F0C5F849
:10487000FFF76CFF102101F02BF9FFF767FF002114
:1048800001F0CCF8FFF762FF01F0A6F803E001F0B9
:10489000E9FE01F091FC94F92000012180B201F0C1
:1048A00079FE94F92000012180B201F084FE0120FC
:1048B00001F022FA94F92000002180B201F07BFE81
:1048C0000A2001F019FA94F92000012180B201F0C8
:1048D00072FE2046AE21FFF751FF2046D521FFF79B
:1048E0004DFF20468021FFF749FF2046A821FFF712
:1048F00045FF20463F21FFF741FF2046D321FFF728
:104900003DFF20460021FFF739FF20464021FFF7F9
:1049100035FF8D212046FFF731FF012D0CBF1021FF
:1049200014212046FFF72AFF20462021FFF726FF0B
:1049300020460021FFF722FF2046A121FFF71EFF9E
:104940002046C821FFF71AFF2046DA21FFF716FF9D
:1049500020461221FFF712FF81212046FFF70EFFAC
:10496000012D0CBF9F21CF212046FFF707FFD92142
:104970002046FFF703FF012D0CBF2221F121204625
:10498000FFF7FCFE2046DB21FFF7F8FE2046402122
:10499000FFF7F4FE2046A421FFF7F0FE2046A621F3
:1049A000FFF7ECFE2046AF21BDE83840FFF7E6BE3A
:1049B0002DE9F04121210446FFF7E0FE00212046C9
:1049C000FFF7DCFE7F212046FFF7D8FE222120469C
:1049D000FFF7D4FE00212046FFF7D0FE0721204636
:1049E000FFF7CCFE94F91D30DFF8BC80013335D0E1
:1049F00094F92100012180B201F0DDFD94F91F003E
:104A0000012180B201F0D7FD94F92100002180B28C
:104A100001F0D1FD012000F0DDFD002594F82230E9
:104A200018F805602BB1FFF791FE314601F074F8DC
:104A300005E033460122A17F607F01F0D5FD0135FD
:104A4000B5F5806FEAD1012000F0C4FD94F9210092
:104A5000012180B2BDE8F04101F0ADBD002501F0BB
:104A600001FE94F91B1001F0B1FB01F0FBFD03689E
:104A700040219B689847002601F0F4FDAF190368B8
:104A8000BFB29B6818F8071001369847102EF3D173
:104A9000103501F0E7FDADB201F09FFBB5F5806F79
:104AA000DDD1BDE8F08100BF54DE032000F01ABD67
:104AB0002DE9F04F85B01E46BDF93830BDF83CA059
:104AC00015469A1A002AB8BF52420092721A002A5A
:104AD000B8BF524201920C46009A01998A4281461F
:104AE00005DD32461E46134622462C461546B44284
:104AF00005DD2A461D4613462246344616465A1BF5
:104B0000002AB8BF5242C4EB06089D42B4BF01233D
:104B10004FF0FF331FFA88F8029303920FFA88F7D9
:104B2000022297FBF2F7B4421FDC019A009B9342EA
:104B3000D9F80030C8BF2246D3F810B0C8BF294604
:104B40005346DCBF2A4621464846D847039BFF1AF6
:104B5000BBB21FB2002F05DA029A08EB0307154417
:104B60002DB23FB2013424B2DDE705B0BDE8F08FCD
:104B70002DE9F347BDF82C600768BDF928A0009621
:104B80000446FF6991460D469846B847236800964B
:104B90000AF1FF324A44DF6929464346204612B2F1
:104BA000B847236800969F694A46534629462046DF
:104BB000B84723680A9608F1FF3129449D694A469F
:104BC000534609B22046AC4602B0BDE8F047604704
:104BD00037B5013B13440468BDF8185001951BB26A
:104BE000009364690B46A04703B030BD37B5BDF8EC
:104BF000185004688DE82400013B0B4464691BB223
:104C0000A04703B030BD2DE9F347BDF92880BDF8BA
:104C10002C90054617460C4601EB030A54450BDA67
:104C20002B68CDF800909E69214643463A462846B7
:104C30000134B04724B2F1E702B0BDE8F08713B504
:104C4000B0F90E200468019100920022B0F90C30F6
:104C5000646A1146A04702B010BD704730B50181AB
:104C60000024084D42818181C2814FF6FF710122EB
:104C7000446005604476048244820276C182818267
:104C8000827630BDB8740D002DE9F04F8FB0054627
:104C90000691BDF860100791BDF864100891B0F955
:104CA0000C1006989DF8688081427CDDB5F90E10E5
:104CB000914278DD062111FB0800002873DD02EB2C
:104CC000C80000286FDD03EB830396B20C9306F156
:104CD00008039BB2099100240D93052C1CBF334B94
:104CE0000C9A059616BF1B194FF0000913F8029095
:104CF00004961FFA88F30393039ABDF8183004FB57
:104D0000023213FA84F312B21BB20A9237460FFA38
:104D100088FA0B9319F0010F11D0B8F1010F2B682D
:104D200003D1D3F810B0079B14E0079A0192CDF895
:104D300000A0D3F824B0BDF91020534618E0079B1B
:104D4000089A934217D0B8F1010F2B6807D1D3F816
:104D500010B013463AB20B992846D8470BE0089A90
:104D60000192CDF800A0BDF91420D3F824B0534629
:104D70000A992846D847049B039A13449BB204938C
:104D8000059B13449BB2013705930D9BBFB29F4215
:104D90004FEA5909BED1099B013B013413F0FF03CF
:104DA00064B2099399D10FB0BDE8F08FE8740D009B
:104DB00030B50A2985B004460B4604D1027E438AE9
:104DC00003EBC20323E00D2924D0057EB0F91220A5
:104DD000B0F910100295C58A0195858A0095FFF7F4
:104DE00053FF227E238A91B201EB410003EB400383
:104DF000A07E1BB2238268B1B4F90C006FF00505E8
:104E000005FB0202934205DD638A03EBC103638263
:104E100000232382012005B030BD01824282704709
:104E2000002908BF012101767047C1828182704745
:104E3000407E704701F003010129417603894289D0
:104E400004D0032902D08381C28170478281C3814B
:104E50007047B0F90C007047B0F90E00704700F0D1
:104E600041BB10B58368044613B10322014698473D
:104E7000204610BD024B01221A7000F033BB00BF68
:104E8000D8E30320002202210270427082808260F7
:104E900002730282426102768283026280F82420D9
:104EA0000285C26280F8302080F8382080F83920EE
:104EB000C26380F8482080F84920C26480F85820F6
:104EC00080F85920026680F8682080F8692002671F
:104ED00080F8782080F87920C0F8802080F8882039
:104EE00080F88920C0F8902080F8982080F89920D8
:104EF000C0F8A02080F8A82080F8A92080F8B91078
:104F000080F8BA2080F8BB2080F8BC20C0F8C02010
:104F1000C0F8C420C0F8C820C0F8CC20C0F8D02009
:104F2000C0F8D42080F8AA207047A1F14103052BD6
:104F300002D8A1F137007047A1F16103052B94BF9E
:104F4000A1F15700A1F13000704738B5057804464B
:104F50002D2D08BF0134204602F02EF9642358435A
:104F6000224614F8013BA3F130010929F8D92E2B70
:104F70000BD15378303B092B07D80A2101FB0300E2
:104F80009378303B092B98BFC0182D2D08BF4042A5
:104F900038BD000038B504460D4602F00DF9642313
:104FA000B0FBF3F203FB1200114B2A80434320466F
:104FB0000278A2F130010929044600F10100F7D975
:104FC0002E2A0BD10A490A2014F8012F303A092A57
:104FD00004D8B1FBF0F101FB0233F5E703EB8303E7
:104FE00001330322B3FBF2F36B6000232B7238BD55
:104FF0008096980010B50346044653F81C2F426073
:105000005A6882601B7A0373034653F8282F0261A3
:105010005A6842611B7A037600F0E4FA0123606368
:105020006370237010BD0000D0B5002304464370A8
:10503000806801F0E9FD0EA3D3E9002301F084FFAD
:105040000646A0880F4601F0EFFD0B4602463946A2
:10505000304601F09DFC237B1BB1024601F1004369
:1050600001E002460B4643EC102BD0BDAFF30080AD
:105070000000000065CDCD41D0B50023044643704B
:10508000406901F0C1FD0EA3D3E9002301F05CFFEC
:105090000646208A0F4601F0C7FD0B4602463946F8
:1050A000304601F075FC237E1BB1024601F100433E
:1050B00001E002460B4643EC102BD0BDAFF300805D
:1050C0000000000065CDCD4110B583684360044603
:1050D00000F088FA0123E0606370237010BD10B502
:1050E00083684360044600F07DFA0123E06063704A
:1050F000237010BD10B504460846FFF726FFA060D8
:1051000010BD10B50446084602F056F8A06010BD68
:105110000023437043680248B3FBF0F0C0B270470D
:1051200040420F0000234370436842F21070B3FB0B
:10513000F0F36420B3FBF0F200FB1230C0B2704712
:105140000023437043686420B3FBF0F3B3FBF0F239
:1051500000FB1230C0B2704710B5C36883600446CC
:1051600000F040FA012360606370237010BD10B539
:1051700004460846FFF7E9FEE06010BD10B5C368BD
:105180008360044600F02EFA012360606370237090
:1051900010BD10B50446084602F00EF8E06010BDE0
:1051A00010B501460446103002F05EF800F01AFA1D
:1051B0000123206284F8253084F8243010BD1022A9
:1051C00002F062B8F8B590F8A9500446002D67D0F7
:1051D00090F8AA10FFF7A9FE94F8AB1002462046FB
:1051E000FFF7A3FE94F8A83000EB0210C0B2834290
:1051F0004FD1D4F8D4300133C4F8D43094F8BC3053
:1052000023B1D4F8CC300133C4F8CC3094F8B930A1
:10521000B3B1012B2AD104F13800FFF755FF04F197
:105220004800FFF75CFF94F8BC30FBB12046FFF765
:10523000E1FE04F15800FFF78FFF04F1680013E06E
:1052400004F14800FFF74BFF94F8BC3033B120461F
:10525000FFF7D0FE04F17800FFF77EFF04F188002D
:10526000FFF78CFF04F19800FFF776FFD4F8C460D5
:10527000002E00F0C580D4F8C430B06A996A01F0FD
:10528000E9FF002840F0BC803046FFF789FF366B0D
:10529000EEE7D4F8D0300133C4F8D0300025AFE0C9
:1052A00090F8BA202ABB00F1AA075649384601F007
:1052B000D1FF08B9012308E05349384601F0CAFF7D
:1052C00010B984F8B95002E0022384F8B930D4F858
:1052D000C030C4F8C430D4F8C460002E00F0908010
:1052E0003946B06A01F0B6FF002880F28580336B42
:1052F000EFE790F8B910022966D090F8AA30002B99
:1053000062D042EA4112013A282A5DD8DFE802F071
:105310001520232A31464D53575C5C5C5C5C5C5C19
:105320005C5C5C5C5C5C5C5C5C5C5C5C5C5C5C5CBD
:10533000151B20232A31383C400000F1AA014830D7
:10534000FFF7D8FE40E0A3F141004342434129E08A
:1053500000F11C0108E0A3F153014B424B4180F8DE
:10536000243031E000F1280104F1AA00FFF712FE19
:105370002AE0A3F157025342534180F8303023E032
:1053800000F1AA0158301DE000F1AA01683019E0CF
:1053900000F1AA013830FFF7B4FE15E0302B94BFBE
:1053A0000023012384F8BC300EE000F1AA0188300C
:1053B000FFF7EFFE08E000F1AA01983002E000F1EB
:1053C000AA017830FFF7D3FED4F8C46004F1AA072D
:1053D000B6B1D4F8C430B06A996A01F03BFF78B92D
:1053E000F26A94F8BA309A420ADC03D13946304660
:1053F000FFF7E5FE366BEBE702D00023C4F8C430BC
:105400002846F8BDE3790D00E9790D0038B5D0F8EC
:10541000C830242903F1010304460D46C0F8C83002
:105420002AD090F8BB3004D80A290CD00D2932D1EB
:1054300009E02A2907D02C292DD190F8A82082F044
:105440002C0280F8A8200E2B4FF0000005D8234432
:1054500083F8AA002046FFF7B5FE94F8BA3001336E
:1054600084F8BA30002384F8BB30A5F12A035D42EA
:105470005D4184F8A95038BD0020022384F8BB00A8
:1054800084F8BA0084F8A80084F8B93084F8A90038
:1054900084F8BC0038BD0D2B9FBF5A1C1B1984F823
:1054A000BB2083F8AA5094F8A90028B994F8A81052
:1054B0004D4084F8A85038BD002038BD00F012B827
:1054C00000F010B808B5024B1B689B68019308BD3B
:1054D0006802030008B5024B1B68DB68019308BD36
:1054E0006802030008B5024B1B681B68019308BDE6
:1054F0002C02030008B5024B1B689B68019308BD92
:105500002C02030008B5024B1B68DB68019308BD41
:105510002C02030008B5024B1B681B69019308BDF0
:105520002C02030008B5024B1B681B68019308BDE1
:105530003002030008B5024B1B689B68019308BD4D
:105540003002030008B5024B1B68DB68019308BDFD
:105550003002030008B5024B1B681B69019308BDAC
:105560003002030008B5024B1B685B69019308BD5C
:105570003002030008B5024B1B68DB69019308BDCC
:105580003002030008B5024B1B681B6A019308BD7B
:105590003002030008B5024B1B685B6A019308BD2B
:1055A0003002030008B5024B1B681B6C019308BD59
:1055B0003002030008B5024B1B685B6C019308BD09
:1055C0003002030008B5024B1B685B68019308BDFD
:1055D0001802030008B5024B1B68DB68019308BD85
:1055E0001802030008B5024B1B685B69019308BDF4
:1055F0001802030008B5024B1B689B68019308BDA5
:105600004802030008B5024B1B681B69019308BDE3
:105610004802030008B5024B1B685B69019308BD93
:105620004802030008B5024B1B685B6C019308BD80
:105630004802030008B5024B1B689B6C019308BD30
:105640004802030008B5024B1B685B69019308BD63
:105650006402030008B5024B1B681B68019308BD78
:105660003C02030008B5024B1B68DB68019308BDD0
:105670003C02030008B5024B1B681B69019308BD7F
:105680003C02030008B5024B1B685B69019308BD2F
:105690003C02030008B5024B1B689B69019308BDDF
:1056A0003C02030008B5024B1B68DB69019308BD8F
:1056B0003C02030008B5024B1B681B6A019308BD3E
:1056C0003C02030008B5024B1B689B6A019308BDAE
:1056D0003C02030008B5024B1B68DB6A019308BD5E
:1056E0003C02030008B5024B1B68DB68019308BD50
:1056F0002802030008B5024B1B689B69019308BD93
:105700002802030008B5024B1B68DB69019308BD42
:105710002802030008B5024B1B681B6A019308BDF1
:105720002802030008B5024B1B685B6A019308BDA1
:105730002802030008B5024B1B689B6A019308BD51
:105740002802030008B5024B1B68DB6A019308BD01
:105750002802030008B5024B1B681B6B019308BDB0
:105760002802030008B5024B1B685B6B019308BD60
:105770002802030008B5024B1B681B6C019308BD8F
:105780002802030008B5024B1B681B68019308BD83
:105790004C02030008B5024B1B685B68019308BD0F
:1057A0004C02030008B5024B1B681B69019308BD3E
:1057B0004C02030008B5024B1B685B69019308BDEE
:1057C0004C02030008B5024B1B689B69019308BD9E
:1057D0004C02030008B5024B1B68DB69019308BD4E
:1057E0004C02030008B5024B1B681B6A019308BDFD
:1057F0004C02030008B5024B1B685B6B019308BDAC
:105800006002030008B5024B1B685B68019308BD8A
:105810002002030008B5024B1B685B69019308BDB9
:105820002002030008B5024B1B68DB6A019308BD28
:105830002002030008B5034B1B68D3F8883001939E
:1058400008BD00002002030008B5034B1B68D3F815
:105850009430019308BD00002002030008B5024BFC
:105860001B685B68019308BD4002030008B5024B4A
:105870001B689B68019308BD4002030008B5024BFA
:105880001B68DB68019308BD4002030008B5024BAA
:105890001B681B69019308BD4002030008B5024B59
:1058A0001B685B69019308BD4002030008B5024B09
:1058B0001B689B69019308BD4002030008B5024BB9
:1058C0001B68DB69019308BD4002030008B5024B69
:1058D0001B681B6A019308BD4002030008B5024B18
:1058E0001B681B6B019308BD4002030008B5024B07
:1058F0001B685B6B019308BD4002030008B5024BB7
:105900001B68DB6B019308BD4402030008B5024B22
:105910001B681B68019308BD1C02030008B5024BFD
:105920001B685B68019308BD1C02030008B5024BAD
:105930001B685B6A019308BD1C020300002211462C
:105940004068FFF7C3BF002211464068FFF7CEBF93
:1059500000224068FFF7C2BF002281F001014068C9
:10596000FFF7ACBF00231A4619464068FFF79EBFF9
:1059700000231A4619464068FFF790BF00221146DF
:105980004068FFF783BF002211464068FFF76EBFF3
:10599000002202214068FFF771BF00231A464068C9
:1059A000FFF75CBF024B03225A60024A1A6070473D
:1059B000DCE303201C7A0D000021FFF7F3BD00217A
:1059C000FFF7F8BD10B5044601700846FFF7D2FD99
:1059D00000236360204610BD10B504460078FFF731
:1059E000EBFF48B920784FF6FF71FFF79BFD207859
:1059F000BDE81040FFF7E3BF10BD38B5044600789E
:105A00000D46FFF7D9FF40B920782946FFF792FDF0
:105A10002078BDE83840FFF7D2BF38BD38B504461E
:105A200000780D46FFF7C8FF40B920782946FFF7F8
:105A300089FD2078BDE83840FFF7C1BF38BD0000C0
:105A4000400830B51860002418688842E5B206D9CD
:105A50000134082C02D040081860F5E70725024BF6
:105A60005B5D137030BD00BF487A0D002DE9F04139
:105A700088B000230446007802930E461746FFF7CD
:105A80009BFF054600BB94F800800146142203A842
:105A900001F0AFFB0B232A4603A94046ADF80C30BA
:105AA000FFF778FD02AB0DF1070207FB06F1049842
:105AB0008DF80750FFF7C4FF20789DF80710FFF717
:105AC00049FD2078FFF77BFF029808B0BDE8F08120
:105AD00038B5044600780D46FFF76EFFC8B9616817
:105AE00071B10C4BC25CAA4202D001300828F9D136
:105AF0000130C0B2C14001222046FFF7B7FF03E0EA
:105B000029462078FFF726FD2078BDE83840FFF7CA
:105B100056BF38BD487A0D0008B50078FFF722FD62
:105B2000C0B208BD0078FFF72DBD10B5044600686F
:105B300018B1FFF7F3FE0023236010BD10B5044633
:105B4000FFF7F3FF204610BD10B5094C00204FF6BB
:105B5000FF732060A080A07120816381FFF752FE57
:105B60002046044A0449BDE8104000F0A1BD00BF32
:105B7000E4E30320C0E203203D5B0D0010B50446C2
:105B8000006808B1FFF756FD204610BD10B5064C61
:105B9000002320462360FFF745FD2046034A0449C1
:105BA000BDE8104000F084BDF0E30320C0E2032014
:105BB0007D5B0D00F8B506460D468F180024BD42EA
:105BC0000CD0336815F8011B9B68304698470028B5
:105BD00001DB0444F3E7002C08BF04462046F8BD6F
:105BE00070B505460C46084649B101F045FB2B68E7
:105BF000024621462846DB68BDE87040184770BD64
:105C000003689B68184738B50D210546FFF7F8FF74
:105C10000A2104462846FFF7F3FF204438BD30B57B
:105C20008BB00B4600218DF82410012A98BF0A2260
:105C30000DF12304B3FBF2F505FB123303F0FF0370
:105C4000092B94BF30333733DBB2214604F80139D6
:105C50002B46002DEED1FFF7C3FF0BB030BD0CB4C7
:105C60002DE9F04387B000AF07F13804054654F83A
:105C7000049B3C600E4623464A461421381DFFF71C
:105C800055FE132805D8391D2846FFF7A9FF0446FD
:105C900013E000F1080323F00703E846ADEB030D22
:105CA000411C23464A4668463C60FFF73FFE694672
:105CB0002846FFF795FF0446C5461EB12846FFF764
:105CC000A2FF044420461C37BD46BDE8F04302B0A5
:105CD00070470000014B024A1A607047F4E303204A
:105CE000C37A0D00024B1A68024B1A60704700BF5E
:105CF00054E20320F8E303200021FFF78BBD10B529
:105D00000446FFF7AEF8204610BD00000348044AE1
:105D100004490023836000F0CBBC00BFFCE30320F8
:105D2000C0E20320FF5C0D0008B50C4B33B100F05E
:105D300057F903681B699847002809DC084B63B1D1
:105D400000F0D6F903681B699847002803DC08BDFA
:105D5000AFF30080F2E7AFF3008008BD0000000061
:105D60000000000008B5FFF7DFFFFFF73BFC014B29
:105D7000186008BD30E703200248034A0349121A9D
:105D800001F02CBA00F4032004F40320507E0D002F
:105D900007B5002300931A466FF07701FFF754FD13
:105DA00003B05DF804FB000007B543880A2B08D058
:105DB000502B09D1094B1B683BB103B05DF804EBD4
:105DC0001847FFF7E5FF06E0002300931A466FF03F
:105DD0007701FFF739FD03B05DF804FB0CE4032005
:105DE00038B5104C104D2368AB42104B0CBF01224C
:105DF00000221A7002D0FFF7BFFF2560FFF7E2FB19
:105E0000044601F0FFF90A4B13B12046AFF30080BE
:105E100000210748FFF772FD00210648BDE8384021
:105E2000FFF708BD00F403201E1C279A10E403208E
:105E300000000000A95D0D00704710B51821044650
:105E400000F044FC204610BDF0B5037D062B8DB05C
:105E50000E4600F104074FF0000402D000F10805DF
:105E600018E00CAD394605F8304D2F232A460A209C
:105E7000FFF7E8FB284601F0FFF933680246DB68CC
:105E80002946304698470FE024B12E213046FFF7CF
:105E9000B7FE044415F8011D0A223046FFF7BFFE85
:105EA000BD420444F0D120460DB0F0BD10B5054B05
:105EB0000446112240F8043B002101F09AF92046E3
:105EC00010BD00BF647B0D000346074A10B543F8C0
:105ED000042B01F1100251F8044B43F8044B91429A
:105EE000F9D10A781A7010BD647B0D0010B59DF8C9
:105EF000084044EA032343EA024242EA01610423E0
:105F00004160037510BD37B50D788B784A78C97834
:105F100000912946FFF7EAFF03B030BD4174704796
:105F2000704708B50021007CFFF74CFC30EA2000E8
:105F300028BF4FF0FF3008BD08B50121007CFFF7F6
:105F400041FC30EA200028BF4FF0FF3008BD08B503
:105F5000007CFFF72FFC20EAE07008BD08B5007C4C
:105F6000FFF720FC20EAE07008BD007CFFF73ABC98
:105F700010B51421044600F0A9FB204610BD38B529
:105F80000446007C0D46FFF715FC002801DC607C10
:105F900028B12946207CFFF71DFC20EAE07038BDBF
:105FA00010B50446002363604FF47A73A360054B79
:105FB000236001230846217463741146FFF7E2FB56
:105FC000204610BD787B0D000022007CFFF7E2BB6D
:105FD00010B514220446002101F00BF9204610BD33
:105FE00030B50E4D87B001A8FFF7F2FF296811F018
:105FF000010410D12846FEF75FF860B101AA2146DE
:106000000748FFF7CDFF2846FEF75BF8054A06492B
:10601000034800F04DFB024807B030BD14E40320F4
:1060200018E40320C0E20320215F0D007047417493
:10603000704708B5007CFFF745FB20EAE07008BD1B
:1060400008B5007CFFF716FB20EAE07008BD08B534
:10605000007CFFF71FFB30EA200028BF4FF0FF3025
:1060600008BD08B5007CFFF70DFB30EA200028BF13
:106070004FF0FF3008BD007CFFF714BB10B51421B2
:10608000044600F023FB204610BD70B5457C044655
:106090000E4625B9007CFFF715FB002805DD3146CB
:1060A000207CBDE87040FFF7DDBA284670BD0000D7
:1060B00010B5044608461146002262604FF47A7219
:1060C000A260054A22600122207462741A46FFF71A
:1060D000C1FA204610BD00BFA87B0D000023007C44
:1060E000FFF7F8BA0022FFF7F9BF007CFFF7E2BA2A
:1060F00038B50C4D296811F0010411D12846FDF77F
:10610000DBFF68B1084A094B09482146FFF7D0FF79
:106110002846FDF7D6FF074A0749054800F0C8FAA8
:10612000034838BDC4E40320C8E4032040E403204E
:106130002CE40320C0E203202D600D007047F8B569
:10614000064615460C468F18BC4206D0336814F834
:10615000011B9B6830469847F6E72846F8BD0022A9
:10616000007CFFF7D7BA0021007CFFF7DBBA0021E3
:10617000007CFFF7DFBA0021007CFFF7E3BA0021C3
:10618000007CFFF7E7BA10B51421044600F09EFA30
:10619000204610BD10B50446002363604FF47A73A7
:1061A000A360044B2174084623601146FFF7E2FA0E
:1061B000204610BDD87B0D0000231A461946007CEE
:1061C000FFF790BA0022007CFFF794BAC9B2FFF73C
:1061D000F9BF0022007CFFF795BA0121FFF7F9BF54
:1061E0000021007CFFF7BEBA002211464068FFF78D
:1061F0006DBB002211464068FFF778BB0022406863
:10620000FFF76CBB002281F001014068FFF756BB2D
:1062100000231A4601214068FFF748BB00231A46B5
:1062200019464068FFF73ABB002211464068FFF765
:106230002DBB002211464068FFF718BB0022022147
:106240004068FFF71BBB00231A464068FFF706BBF8
:1062500038B5054688B104684CB1A3681BB1032268
:106260002146204698471021204600F02FFA284664
:106270001421BDE8384000F029BA38BD10B10368D8
:106280005B681847704710B503680446BBB158688F
:10629000FFF7B0F978B923685A7C12B95868FFF74C
:1062A000B1F923685868FFF7B5F920680023236027
:1062B00028B1FFF7CDFF206808B1FFF7C9FF2046DE
:1062C00010BD38B50446D0F8C40108B1FDF7E7FEAB
:1062D000D4F8C00108B1FFF7ADF9D4F8BC5135B11D
:1062E0002846FFF7D0FF0421284600F0EFF9206888
:1062F00008B1FFF7C3FF204638BD000010B5044BBE
:10630000044640F8083BFFF7DCFF204610BD00BF05
:10631000007C0D0038B50E4C0E4B23600025022387
:1063200004F5E4706360A560C4F8C451C4F8C851B2
:10633000FFF778F9084BC4F8CC5184F8D0512360AA
:106340002046064A0649BDE8384000F0B1B900BF12
:106350004CE50320687C0D00007C0D00C0E20320AA
:10636000FD620D00002211464068FFF78FBA00223F
:1063700011464068FFF7AABA002211464068FFF7AD
:10638000B5BA00224068FFF7A9BA002281F00101E6
:106390004068FFF793BA00231A4619464068FFF792
:1063A00085BA00231A4619464068FFF777BA0022DB
:1063B00011464068FFF75ABA002202214068FFF7F1
:1063C0005DBA00231A464068FFF748BA024B042220
:1063D0005A60024A1A60704720E70320347C0D009F
:1063E00000231A464068FFF739BA002202214068AC
:1063F000FFF744BA002211464068FFF737BA00227F
:1064000011464068FFF742BA00231A461946406811
:10641000FFF744BA00231A4619464068FFF746BA08
:10642000002281F001014068FFF748BA002240686D
:10643000FFF754BA002211464068FFF757BA00220E
:1064400011464068FFF742BA2DE9F043002495B0A9
:1064500016460D460746FFF729FD214620220CA8C7
:10646000009400F0C6FE40230C9321466B460CAA14
:106470003046FFF72FF80446002844D10246012198
:106480006868FFF703FA0221804622466868FFF732
:10649000FDF9009E81462146002E34D0002932D1DC
:1064A0007368022B02D00A2B09D02AE0B8F1000F42
:1064B00027D0716938460431FFF725FD20E0B9F196
:1064C000000F1ED07469112201A800F092FE06236D
:1064D0008DF8143001AD04F10803183418685968B8
:1064E0002A4603C20833A3421546F7D101A906A8DC
:1064F00007ADFFF7E9FC0FCD3C1D0FC42B682370DF
:106500000121F669C8E70098FEF7DCFF384615B0B0
:10651000BDE8F083024B034A1A6000225A607047BC
:1065200028E70320687C0D0070B5184E316811F023
:10653000010504460AD13046FDF7BEFD30B12946BB
:106540001348FFF73FFA3046FDF7BBFD1048FFF751
:10655000E9FA28B1A4F10B03022B01D8002070BD89
:1065600000F080F8FFF73CFE08B1012CF6D9FFF7E8
:10657000BFFDFFF7BAFD18B1A4F10903012BEDD956
:10658000232C8CBF0020012070BD00BFCCE3032072
:10659000D0E30320232838B504460D460AD8FF2946
:1065A00008D0FFF7C1FF28B129462046BDE8384092
:1065B000FEF7A0BF38BD38B504460D46FEF7A2FF72
:1065C000FF2810D0062804D84D2323FA00F0C30773
:1065D00009D42046FFF7A8FF28B129462046BDE888
:1065E0003840FEF797BF38BD2DE9F04190461E4672
:1065F000072407460D46B8F1000F04D1C4F1070186
:1066000046FA01F101E046FA04F101F001013846D1
:10661000FFF7D1FF01212846FFF7CDFF00212846D3
:10662000FFF7C9FF14F1FF34E5D2BDE8F0810000A7
:1066300070B5044614252A46094E002100F0D9FD04
:10664000258020253146A5602561284600F040F8C8
:1066500031466060284600F03BF8E060204670BD9F
:10666000947C0D0030B50E4D296811F0010487B0FF
:1066700013D12846FDF720FD78B101A8FFF7D8FF18
:1066800001AA21460748FFF785FD2846FDF719FDB9
:10669000054A0649034800F00BF8024807B030BD30
:1066A00034E7032038E70320C0E203203D610D00FA
:1066B0000B460146184600F083BD0000024B1868E7
:1066C000BFF35F8F704700BF4CE70320FDF7E5BCC9
:1066D00000F000B810B5002814BF0446012420467D
:1066E000FFF714F920B9FFF7E9FF08B18047F6E793
:1066F00010BD0000184B1A68D1075CBF01221A6058
:10670000164B1A68D2075CBF01221A60144B1A6834
:10671000D0075CBF01221A60124B1A68D1075CBF18
:1067200001221A60104B1A68D2075CBF01221A605E
:106730000E4B1A68D0075CBF01221A600C4B1A6816
:10674000D1075CBF01221A600A4B1A68D2075CBFEE
:1067500001221A60704700BF6CE7032068E703203E
:1067600064E7032060E703205CE7032058E7032089
:1067700054E7032050E70320244B1A68D0075CBF7E
:1067800001221A60224B1A68D1075CBF01221A60ED
:10679000204B1A68D2075CBF01221A601E4B1A6890
:1067A000D0075CBF01221A601C4B1A68D1075CBF7E
:1067B00001221A601A4B1A68D2075CBF01221A60C4
:1067C000184B1A68D0075CBF01221A60164B1A6872
:1067D000D1075CBF01221A60144B1A68D2075CBF54
:1067E00001221A60124B1A68D0075CBF01221A609E
:1067F000104B1A68D1075CBF01221A600E4B1A6851
:10680000D2075CBF01221A60704700BF9CE70320DB
:1068100098E7032094E7032090E703208CE7032008
:1068200088E7032084E7032080E703207CE7032038
:1068300078E7032074E7032070E70320244B1A68ED
:10684000D0075CBF01221A60224B1A68D1075CBFD7
:1068500001221A60204B1A68D2075CBF01221A601D
:106860001E4B1A68D0075CBF01221A601C4B1A68C5
:10687000D1075CBF01221A601A4B1A68D2075CBFAD
:1068800001221A60184B1A68D0075CBF01221A60F7
:10689000164B1A68D1075CBF01221A60144B1A68A4
:1068A000D2075CBF01221A60124B1A68D0075CBF86
:1068B00001221A60104B1A68D1075CBF01221A60CE
:1068C0000E4B1A68D2075CBF01221A60704700BFE6
:1068D000CCE70320C8E70320C4E70320C0E7032078
:1068E000BCE70320B8E70320B4E70320B0E70320A8
:1068F000ACE70320A8E70320A4E70320A0E70320D8
:10690000184B1A68D1075CBF01221A60164B1A682F
:10691000D2075CBF01221A60144B1A68D0075CBF13
:1069200001221A60124B1A68D1075CBF01221A605B
:10693000104B1A68D2075CBF01221A600E4B1A680E
:10694000D0075CBF01221A600C4B1A68D1075CBFEC
:1069500001221A600A4B1A68D2075CBF01221A6032
:10696000704700BFECE70320E8E70320E4E70320DB
:10697000E0E70320DCE70320D8E70320D4E7032087
:10698000D0E7032081F0004102E000BF83F0004324
:1069900030B54FEA41044FEA430594EA050F08BFBA
:1069A00090EA020F1FBF54EA000C55EA020C7FEA7E
:1069B000645C7FEA655C00F0E2804FEA5454D4EBFB
:1069C0005555B8BF6D420CDD2C4480EA020281EAC5
:1069D000030382EA000083EA010180EA020281EAFD
:1069E0000303362D88BF30BD11F0004F4FEA01314F
:1069F0004FF4801C4CEA113102D0404261EB41015E
:106A000013F0004F4FEA03334CEA133302D05242E3
:106A100063EB430394EA050F00F0A780A4F101049F
:106A2000D5F1200E0DDB02FA0EFC22FA05F28018D9
:106A300041F1000103FA0EF2801843FA05F35941BF
:106A40000EE0A5F120050EF1200E012A03FA0EFC3E
:106A500028BF4CF0020C43FA05F3C01851EBE37168
:106A600001F0004507D54FF0000EDCF1000C7EEB85
:106A700000006EEB0101B1F5801F1BD3B1F5001FC3
:106A80000CD349085FEA30004FEA3C0C04F10104E2
:106A90004FEA445212F5800F80F09A80BCF1004F0B
:106AA00008BF5FEA500C50F1000041EB045141EA8D
:106AB000050130BD5FEA4C0C404141EB010111F48E
:106AC000801FA4F10104E9D191F0000F04BF014639
:106AD0000020B1FA81F308BF2033A3F10B03B3F117
:106AE00020020CDA0C3208DD02F1140CC2F10C02A7
:106AF00001FA0CF021FA02F10CE002F11402D8BF05
:106B0000C2F1200C01FA02F120FA0CFCDCBF41EAD0
:106B10000C019040E41AA2BF01EB0451294330BD9F
:106B20006FEA04041F3C1CDA0C340EDC04F114047C
:106B3000C4F1200220FA04F001FA02F340EA030053
:106B400021FA04F345EA030130BDC4F10C04C4F199
:106B5000200220FA02F001FA04F340EA0300294679
:106B600030BD21FA04F0294630BD94F0000F83F4C3
:106B7000801306BF81F480110134013D4EE77FEAA6
:106B8000645C18BF7FEA655C29D094EA050F08BFF2
:106B900090EA020F05D054EA000C04BF19461046D3
:106BA00030BD91EA030F1EBF0021002030BD5FEA17
:106BB000545C05D14000494128BF41F0004130BD3F
:106BC00014F580043CBF01F5801130BD01F0004593
:106BD00045F0FE4141F470014FF0000030BD7FEA06
:106BE000645C1ABF194610467FEA655C1CBF0B4601
:106BF000024650EA013406BF52EA033591EA030F18
:106C000041F4002130BD00BF90F0000F04BF00210F
:106C1000704730B54FF4806404F132044FF0000542
:106C20004FF0000150E700BF90F0000F04BF0021BB
:106C3000704730B54FF4806404F1320410F0004521
:106C400048BF40424FF000013EE700BF42004FEA1C
:106C5000E2014FEA31014FEA02701FBF12F07F4399
:106C600093F07F4F81F06051704792F0000F14BF96
:106C700093F07F4F704730B54FF4607401F00045DA
:106C800021F0004120E700BF50EA010208BF704731
:106C900030B54FF000050AE050EA010208BF704726
:106CA00030B511F0004502D5404261EB41014FF48F
:106CB000806404F132045FEA915C3FF4DCAE4FF093
:106CC00003025FEADC0C18BF03325FEADC0C18BF7A
:106CD000033202EBDC02C2F1200300FA03FC20FACB
:106CE00002F001FA03FE40EA0E0021FA02F1144418
:106CF000C1E600BF70B54FF0FF0C4CF4E06C1CEA2D
:106D000011541DBF1CEA135594EA0C0F95EA0C0FA1
:106D100000F0DEF82C4481EA030621EA4C5123EA14
:106D20004C5350EA013518BF52EA033541F4801143
:106D300043F4801338D0A0FB02CE4FF00005E1FBF6
:106D400002E506F00042E0FB03E54FF00006E1FB40
:106D500003569CF0000F18BF4EF0010EA4F1FF0483
:106D6000B6F5007F64F5407404D25FEA4E0E6D41C3
:106D700046EB060642EAC62141EA55514FEAC520D4
:106D800040EA5E504FEACE2EB4F1FD0C88BFBCF550
:106D9000E06F1ED8BEF1004F08BF5FEA500E50F101
:106DA000000041EB045170BD06F0004646EA0101C7
:106DB00040EA020081EA0301B4EB5C04C2BFD4EBF9
:106DC0000C0541EA045170BD41F480114FF0000EF2
:106DD000013C00F3AB8014F1360FDEBF002001F060
:106DE000004170BDC4F10004203C35DA0C341BDCDA
:106DF00004F11404C4F1200500FA05F320FA04F0AC
:106E000001FA05F240EA020001F0004221F00041DF
:106E100010EBD37021FA04F642EB06015EEA430E52
:106E200008BF20EAD37070BDC4F10C04C4F1200582
:106E300000FA04F320FA05F001FA04F240EA020035
:106E400001F0004110EBD37041F100015EEA430E06
:106E500008BF20EAD37070BDC4F1200500FA05F226
:106E60004EEA020E20FA04F301FA05F243EA0203A5
:106E700021FA04F001F0004121FA04F220EA0200B4
:106E800000EBD3705EEA430E08BF20EAD37070BDFA
:106E900094F0000F0FD101F00046400041EB0101DA
:106EA00011F4801F08BF013CF7D041EA060195F0BC
:106EB000000F18BF704703F00046520043EB030376
:106EC00013F4801F08BF013DF7D043EA0603704763
:106ED00094EA0C0F0CEA135518BF95EA0C0F0CD06E
:106EE00050EA410618BF52EA4306D1D181EA0301B4
:106EF00001F000414FF0000070BD50EA410606BFAE
:106F00001046194652EA430619D094EA0C0F02D1F2
:106F100050EA013613D195EA0C0F05D152EA033637
:106F20001CBF104619460AD181EA030101F0004155
:106F300041F0FE4141F470014FF0000070BD41F09E
:106F4000FE4141F4780170BD70B54FF0FF0C4CF478
:106F5000E06C1CEA11541DBF1CEA135594EA0C0F97
:106F600095EA0C0F00F0A7F8A4EB050481EA030EE4
:106F700052EA03354FEA013100F088804FEA0333CB
:106F80004FF0805545EA131343EA12634FEA022299
:106F900045EA111545EA10654FEA00260EF000415A
:106FA0009D4208BF964244F1FD0404F5407402D2AC
:106FB0005B084FEA3202B61A65EB03055B084FEA3D
:106FC00032024FF480104FF4002CB6EB020E75EB3A
:106FD000030E22BFB61A754640EA0C005B084FEA62
:106FE0003202B6EB020E75EB030E22BFB61A7546DF
:106FF00040EA5C005B084FEA3202B6EB020E75EB2A
:10700000030E22BFB61A754640EA9C005B084FEAA1
:107010003202B6EB020E75EB030E22BFB61A7546AE
:1070200040EADC0055EA060E18D04FEA051545EA9D
:1070300016754FEA06164FEAC30343EA52734FEA46
:10704000C2025FEA1C1CC0D111F4801F0BD141EABF
:1070500000014FF000004FF0004CB6E711F4801F24
:1070600004BF01430020B4F1FD0C88BFBCF5E06F04
:107070003FF6AFAEB5EB030C04BFB6EB020C5FEA14
:10708000500C50F1000041EB045170BD0EF0004E69
:107090004EEA113114EB5C04C2BFD4EB0C0541EA9B
:1070A000045170BD41F480114FF0000E013C90E698
:1070B00045EA060E8DE60CEA135594EA0C0F08BF5C
:1070C00095EA0C0F3FF43BAF94EA0C0F0AD150EA5B
:1070D00001347FF434AF95EA0C0F7FF425AF1046EE
:1070E00019462CE795EA0C0F06D152EA03353FF416
:1070F000FDAE1046194622E750EA410618BF52EA93
:1071000043067FF4C5AE50EA41047FF40DAF52EA66
:1071100043057FF4EBAE12E74FEA4102B2F1E043E0
:1071200024BFB3F5001CDCF1FE5C0DD901F0004C6E
:107130004FEAC0024CEA5070B2F1004F40EB8300BE
:1071400008BF20F00100704711F0804F21D113F1EA
:107150003872BCBF01F00040704741F480114FEA23
:107160005252C2F11802C2F1200C10FA0CF320FAAC
:1071700002F018BF40F001004FEAC1234FEAD323C9
:1071800003FA0CFC40EA0C0023FA02F34FEA430333
:10719000CCE77FEA625307D150EA01331EBF4FF0BC
:1071A000FE4040F44000704701F0004040F0FE40D7
:1071B00040F40000704700BF0A22002100F0FEB832
:1071C00010B5054C13462CB10A4601460220AFF318
:1071D000008010BD204610BD0000000010B5431E09
:1071E0000A44914204D011F8014B03F8014FF8E72B
:1071F00010BD02440346934202D003F8011BFAE794
:107200007047000038B5124B1C68A36B0546D3B914
:107210001820FEF77BFB43F20E33A06303804AF68F
:10722000CD33438041F2342383804EF26D63C380BB
:107230004DF6EC630381052343810B2383810122F7
:107240000023C0E90423A36B00221D615A6138BDED
:10725000BCE2032010F8012B11F8013B012A28BFE2
:107260009A42F7D0D01A7047034611F8012B03F861
:10727000012B002AF9D17047034613F8012B002A8D
:10728000FBD1181A0138704710B5034642B111F806
:10729000014B03F8014B013A002CF7D11A4400E0EE
:1072A00010BD934202D003F8014BFAE710BD000075
:1072B0002DE9F04780464048D0F800900F463D4603
:1072C00015F8014B09EB0400407800F0080000F0CD
:1072D000FF0608B12F46F2E72D2C03D1BD1C7C78A8
:1072E000012603E02B2C04BF7C78BD1C13B1102BAE
:1072F0000AD15BE0302C57D1287800F0DF00582805
:107300004DD16C7810230235002E14BF4FF0004C85
:107310006FF0004C0027BCFBF3FA384603FB1ACC95
:1073200009EB040E9EF801E01EF0040F01D0303C82
:107330000BE01EF0030E1BD0BEF1010F0CBF4FF08F
:10734000370E4FF0570ECEEB0404A34210DDB7F119
:10735000FF3F0AD0504506D801D1644503DC03FB4A
:107360000040012701E04FF0FF3715F8014BD7E748
:107370007B1C0CD1002E4FF0220314BF4FF00040B5
:107380006FF00040C8F800302AB9BDE8F08706B1B8
:10739000404272B107B1691E1160BDE8F087302428
:1073A000002BB1D10823AFE70A23ADE7302CA3D0DF
:1073B000AAE7BDE8F08700BF58E2032013460A465B
:1073C000014602480068FFF773BF00BFBCE203201C
:1073D00021400D005D400D0089400D008D400D00E5
:1073E00000000000475053204C6F636174696F6E5A
:1073F0000A006C61743A2025662C206C6F6E673A27
:107400002025660A0054696D653A2025693A256988
:107410000A00736174203D2025690A0054696D6576
:107420003A20253032693A253032693A25303269BE
:10743000202D2D2D20006C61743A2025662C206CA7
:107440006F6E673A202566200A00256C75206D69ED
:107450006C6C697365636F6E647320746F2067650D
:10746000742047505320666978006E6F206C6F63FC
:107470006174696F6E0000000000000000000000F1
:10748000C9400D0045430D00B14D0D00B55B0D0029
:107490007D460D00B14A0D0005450D0091430D00DC
:1074A000714B0D00074C0D003F4C0D005B4C0D0067
:1074B00000000000000000000000000000000000CC
:1074C000B14D0D00B55B0D00A5400D00B14A0D009A
:1074D000D14B0D00ED4B0D00714B0D00074C0D0015
:1074E0003F4C0D005B4C0D0000000000003E5B4F68
:1074F0005B3E3E6B4F6B3E1C3E7C3E1C183C7E3C14
:10750000181C577D571C1C5E7F5E1C00183C180021
:10751000FFE7C3E7FF0018241800FFE7DBE7FF30B1
:10752000483A060E2629792926407F050507407F1F
:1075300005253F5A3CE73C5A7F3E1C1C08081C1C92
:107540003E7F14227F22145F5F005F5F06097F0188
:107550007F006689956A606060606094A2FFA29473
:1075600008047E040810207E201008082A1C080841
:107570001C2A08081E101010100C1E0C1E0C30388F
:107580003E3830060E3E0E06000000000000005F90
:1075900000000007000700147F147F14242A7F2AAC
:1075A000122313086462364956205000080703006E
:1075B000001C2241000041221C002A1C7F1C2A08BA
:1075C000083E08080080703000080808080800001D
:1075D00060600020100804023E5149453E00427F91
:1075E000400072494949462141494D331814127FE0
:1075F0001027454545393C4A494931412111090780
:107600003649494936464949291E00001400000000
:1076100040340000000814224114141414140041D2
:1076200022140802015909063E415D594E7C12118F
:10763000127C7F494949363E414141227F414141C7
:107640003E7F494949417F090909013E4141517342
:107650007F0808087F00417F41002040413F017FB3
:10766000081422417F404040407F021C027F7F047B
:1076700008107F3E4141413E7F090909063E4151C4
:10768000215E7F09192946264949493203017F01B4
:10769000033F4040403F1F2040201F3F4038403FB5
:1076A000631408146303047804036159494D4300CB
:1076B0007F4141410204081020004141417F040202
:1076C0000102044040404040000307080020545499
:1076D00078407F2844443838444444283844442877
:1076E0007F385454541800087E090218A4A49C78CA
:1076F0007F0804047800447D40002040403D007F26
:107700001028440000417F40007C047804787C0805
:107710000404783844444438FC18242418182424D9
:1077200018FC7C08040408485454542404043F44BE
:10773000243C4040207C1C2040201C3C4030403CED
:1077400044281028444C9090907C4464544C44004D
:1077500008364100000077000000413608000201B1
:107760000204023C2623263C1EA1A161123A40409D
:10777000207A38545455592155557941215454781B
:1077800041215554784020545579400C1E527212B4
:10779000395555555939545454593955545458003C
:1077A00000457C410002457D420001457C40F029B6
:1077B0002429F0F0282528F07C5455450020545405
:1077C0007C547C0A097F4932494949323248484849
:1077D00032324A4848303A4141217A3A4240207890
:1077E000009DA0A07D39444444393D4040403D3C8B
:1077F00024FF2424487E4943662B2FFC2F2BFF09AE
:1078000029F620C0887E09032054547941000044A1
:107810007D413048484A32384040227A007A0A0A8C
:10782000727D0D19317D2629292F282629292926FF
:1078300030484D4020380808080808080808382F44
:1078400010C8ACBA2F102834FA00007B00000814CE
:107850002A142222142A1408AA005500AAAA55AAFA
:1078600055AA000000FF00101010FF00141414FFB0
:10787000001010FF00FF1010F010F0141414FC00A2
:107880001414F700FF0000FF00FF1414F404FC14AC
:107890001417101F10101F101F1414141F001010A5
:1078A00010F0000000001F101010101F101010101A
:1078B000F010000000FF101010101010101010FF3A
:1078C00010000000FF140000FF00FF00001F101751
:1078D0000000FC04F414141710171414F404F4003A
:1078E00000FF00F714141414141414F700F7141400
:1078F00014171410101F101F141414F4141010F087
:1079000010F000001F101F0000001F14000000FCFA
:10791000140000F010F01010FF10FF141414FF14E6
:107920001010101F00000000F010FFFFFFFFFFF01D
:10793000F0F0F0F0FFFFFF0000000000FFFF0F0F6E
:107940000F0F0F38444438447C2A2A3E147E02022A
:107950000606027E027E0263554941633844443C78
:1079600004407E201E2006027E020299A5E7A5990A
:107970001C2A492A1C4C7201724C304A4D4D303041
:1079800048784830BC625A463D3E494949007E012C
:1079900001017E2A2A2A2A2A44445F444440514A4B
:1079A000444040444A51400000FF0103E080FF0092
:1079B0000008086B6B083612362436060F090F06CE
:1079C000000018180000001010003040FF010100F6
:1079D0001F01011E00191D1712003C3C3C3C000019
:1079E0000000004750524D43004750474741004E6A
:1079F000004E4E4500454E45004553450053534506
:107A00000053005353570057535700574E57004EDB
:107A10004E57000000000000000000009B590D00C0
:107A200091590D0087590D007D590D0071590D00B8
:107A300065590D0059590D0051590D0047590D0058
:107A40003D590D0049640D000008101820283038F9
:107A5000626175640053657269616C005365726997
:107A6000616C31007479706500706172616D0063E2
:107A70006D6400696400686E64007374726D006602
:107A8000696C74006C766C0061646448616E646C4F
:107A900065720072656D6F766548616E646C6572C3
:107AA00000656E756D48616E646C657273004A5353
:107AB0004F4E53747265616D4C6F6748616E646CB4
:107AC00065720061707000253031307520005D20D6
:107AD000002564002C200028293A2000205B006348
:107AE0006F6465203D200025690064657461696CE0
:107AF00073203D20000D0A0066006C6E00666E006B
:107B0000636F64650064657461696C006E6F6E65B7
:107B100000747261636500696E666F007761726EF2
:107B2000006572726F720070616E696300616C6CE7
:107B3000005A00252B3033643A2530327500255920
:107B40002D256D2D25645425483A254D3A2553257C
:107B50007A0061736374696D6500000000000000C5
:107B600000000000495E0D00395E0D003B5E0D0017
:107B70000000000000000000215F0D00715F0D009B
:107B80007F5F0D00B55B0D005D5F0D00235F0D0095
:107B9000395F0D006B5F0D004F5F0D001D5F0D0025
:107BA00000000000000000002D600D007D600D0051
:107BB0008B600D00B55B0D0041600D0063600D0032
:107BC0004F600D0077600D002F600D0033600D00D9
:107BD00000000000000000003D610D0087610D0005
:107BE0005F610D003F610D0067610D006F610D0069
:107BF00077610D007F610D000000000000000000B3
:107C000047620D003D620D0033620D0029620D00D8
:107C10001D620D0011620D0005620D00FD610D0079
:107C2000F3610D00E9610D0049640D0000000000E2
:107C300000000000C3630D00B9630D00AF630D00C9
:107C400065630D00A3630D0097630D008B630D004A
:107C500083630D0079630D006F630D0049640D00AF
:107C60000000000000000000E1630D00EB630D0068
:107C7000F5630D00FF630D0009640D0015640D0030
:107C800021640D002D640D0035640D003F640D006E
:107C900049640D00000020202020202020202028E2
:107CA00028282828202020202020202020202020B4
:107CB00020202020202088101010101010101010EC
:107CC000101010101010040404040404040404042C
:107CD00010101010101010414141414141010101AB
:107CE0000101010101010101010101010101010184
:107CF0000110101010101042424242424202020291
:107D00000202020202020202020202020202020253
:107D10000210101010200000000000000000000001
:107D20000000000000000000000000000000000053
:107D30000000000000000000000000000000000043
:107D40000000000000000000000000000000000033
:107D50000000000000000000000000000000000023
:107D60000000000000000000000000000000000013
:107D70000000000000000000000000000000000003
:107D800000000000000000000000000000000000F3
:107D900000000000000000000000000000000000E3
:107DA00000000000000000000000000000000000D3
:107DB00000000000000000000000000000000000C3
:107DC00000000000000000000000000000000000B3
:107DD00000000000000000000000000000000000A3
:107DE0000000000000000000000000000000000093
:107DF000000000000000000055430D00AD4A0D00DA
:107E00005F4E0D00754E0D00BD540D00C1540D00A8
:107E1000A5590D00495B0D008D5B0D00D55C0D0073
:107E2000E55C0D000D5D0D0015630D00CD630D00CB
:107E300015650D00F5660D0079670D003D680D00B4
:107E400001690D00000000000000000000000000BB
:047E5000000000002E
:107E5400000103070F1F3F7F0080C0E0F0F8FCFE25
:107E6400000000000000000000000000000000000E
:107E740000000000000000000000000000000000FE
:107E840000000000000000000000000000000000EE
:107E9400000000000000000000000000000000805E
:107EA40080800000000000000000000000000000CE
:107EB400008080C0C000000000000000000000003E
:107EC40000000000000000000000000000000000AE
:107ED400000000000000000000000000000000009E
:107EE400000000000000000000000000000000008E
:107EF4000000000080C0E0F0F8FCF8E000000000A2
:107F040000000000000000000000000000808080ED
:107F1400808000808000000000808080808000FFDE
:107F2400FFFF00000000808080800000808000004F
:107F340080FFFF80800080800080808080008080BF
:107F44000000000000808000008C8E84000080F817
:107F5400F8F88000000000000000000000000000AD
:107F6400F0F0F0F0F0F0F0F0F0F0F0F0E0E0C080CD
:107F740000E0FCFEFFFFFF7FFFFFFFFFFF000000AC
:107F84000000000000000000000000FEFFC7010127
:107F9400010183FFFF00007CFEC70101010183FF93
:107FA400FFFF0038FEC78301010183C7FFFF000004
:107FB40001FFFF010100FFFF0701010100007FFF36
:107FC40080000000FFFF7F0000FFFFFF000001FFB3
:107FD400FFFF01000000000000000000000000009E
:107FE400030F3F7F7FFFFFFFFFFFFFFFE7C7C78F41
:107FF4008F9FBFFFFFC3C0F0FFFFFFFFFFFCFCFC30
:10800400FCFCFCFCFCF8F8F0F0E0C0000103030306
:108014000303010303000000000103030303010140
:108024000301000000010303030301010303000033
:10803400000303000000030300000000000000012F
:108044000303030303010000000103010000000314
:108054000301000000000000000000000000000018
:1080640000000080C0E0F0F9FFFFFFFFFF3F1F0F9B
:1080740087C7F7FFFF1F1F3DFCF8F8F8F87C7DFF6A
:10808400FFFFFFFFFFFFFF7F3F0F070030300000BF
:1080940000000000000000000000000000000000DC
:1080A40000000000FEFEFC000000000000000000D4
:1080B40000000000000000000000000000E0C0001C
:1080C400000000000000000000003030000000004C
:1080D400000000000000000000000000000000009C
:1080E40000C0FEFFFFFFFFFFFFFFFFFF7F7F3F1F7B
:1080F4000F071F7FFFFFF8F8FFFFFFFFFFFEF8E009
:10810400000000010000000000000000FEFE00006E
:1081140000FCFEFC0C06060EFCF80000F0F81C0E39
:108124000606060CFFFFFF0000FEFE00000000FC38
:10813400FEFC00183C7E66E6CE84000006FFFF06C7
:1081440006FCFEFC0C0606060000FEFE0000C0F85D
:10815400FC4E4646464E7C7840183C76E6CECC80B3
:10816400000000000000000000000000000000000B
:108174000000000001070F1F1F3F3F3F3F1F0F0379
:108184000000000000000000000000000F0F0000CD
:10819400000F0F0F000000000F0F000003070E0C6C
:1081A40018180C060F0F0F0000010F0E0C180C0FFF
:1081B400070100040E0C180C0F070000000F0F003D
:1081C400000F0F0F0000000000000F0F0000000759
:1081D400070C0C181C0C060600040E0C180C0F07D8
:1081E400000000000000000000000000000000008B
:1081F400000000000000000000000000000000007B
:10820400000000000000000000000000000000006A
:10821400000000000000000000000000000000005A
:10822400000000000000000000000000000000004A
:10823400000000000000000000000000000000003A
:10824400000000000000000000000000000000002A
:10825400000000000000000000000000000000001A
:10826400527B0D00957C0D0000000000987D0D00F0
:10827400B87D0D00D87D0D00000000000000000056
:108284000000000000000000E7790D00000000007D
:1082940000000000000000000000000000000000DA
:1082A40000000000000000000000000000000000CA
:1082B40000000000000000000000000000000000BA
:0C82C40000000000000000005CE203204D
:1082D000FFFFFFFF00000102030405060708090A6B
:1082E0000B0C0D0E0F101112131415161718191A66
:0882F0001B1C1D1E1F202800AD
:0482F800785634126E
:04000003D0004020C9
:00000001FF
